{
  "_format": "hh-sol-artifact-1",
  "contractName": "Pinkie",
  "sourceName": "contracts/polygon/Pinkie.sol",
  "abi": [
    {
      "inputs": [],
      "stateMutability": "nonpayable",
      "type": "constructor"
    },
    {
      "inputs": [
        {
          "internalType": "address",
          "name": "operator",
          "type": "address"
        }
      ],
      "name": "OperatorNotAllowed",
      "type": "error"
    },
    {
      "anonymous": false,
      "inputs": [
        {
          "indexed": true,
          "internalType": "address",
          "name": "account",
          "type": "address"
        },
        {
          "indexed": true,
          "internalType": "address",
          "name": "operator",
          "type": "address"
        },
        {
          "indexed": false,
          "internalType": "bool",
          "name": "approved",
          "type": "bool"
        }
      ],
      "name": "ApprovalForAll",
      "type": "event"
    },
    {
      "anonymous": false,
      "inputs": [
        {
          "indexed": true,
          "internalType": "address",
          "name": "previousOwner",
          "type": "address"
        },
        {
          "indexed": true,
          "internalType": "address",
          "name": "newOwner",
          "type": "address"
        }
      ],
      "name": "OwnershipTransferred",
      "type": "event"
    },
    {
      "anonymous": false,
      "inputs": [
        {
          "indexed": true,
          "internalType": "address",
          "name": "operator",
          "type": "address"
        },
        {
          "indexed": true,
          "internalType": "address",
          "name": "from",
          "type": "address"
        },
        {
          "indexed": true,
          "internalType": "address",
          "name": "to",
          "type": "address"
        },
        {
          "indexed": false,
          "internalType": "uint256[]",
          "name": "ids",
          "type": "uint256[]"
        },
        {
          "indexed": false,
          "internalType": "uint256[]",
          "name": "values",
          "type": "uint256[]"
        }
      ],
      "name": "TransferBatch",
      "type": "event"
    },
    {
      "anonymous": false,
      "inputs": [
        {
          "indexed": true,
          "internalType": "address",
          "name": "operator",
          "type": "address"
        },
        {
          "indexed": true,
          "internalType": "address",
          "name": "from",
          "type": "address"
        },
        {
          "indexed": true,
          "internalType": "address",
          "name": "to",
          "type": "address"
        },
        {
          "indexed": false,
          "internalType": "uint256",
          "name": "id",
          "type": "uint256"
        },
        {
          "indexed": false,
          "internalType": "uint256",
          "name": "value",
          "type": "uint256"
        }
      ],
      "name": "TransferSingle",
      "type": "event"
    },
    {
      "anonymous": false,
      "inputs": [
        {
          "indexed": false,
          "internalType": "string",
          "name": "value",
          "type": "string"
        },
        {
          "indexed": true,
          "internalType": "uint256",
          "name": "id",
          "type": "uint256"
        }
      ],
      "name": "URI",
      "type": "event"
    },
    {
      "inputs": [],
      "name": "OPERATOR_FILTER_REGISTRY",
      "outputs": [
        {
          "internalType": "contract IOperatorFilterRegistry",
          "name": "",
          "type": "address"
        }
      ],
      "stateMutability": "view",
      "type": "function"
    },
    {
      "inputs": [
        {
          "internalType": "address",
          "name": "",
          "type": "address"
        }
      ],
      "name": "authorizedAddys",
      "outputs": [
        {
          "internalType": "uint256",
          "name": "",
          "type": "uint256"
        }
      ],
      "stateMutability": "view",
      "type": "function"
    },
    {
      "inputs": [
        {
          "internalType": "address",
          "name": "account",
          "type": "address"
        },
        {
          "internalType": "uint256",
          "name": "id",
          "type": "uint256"
        }
      ],
      "name": "balanceOf",
      "outputs": [
        {
          "internalType": "uint256",
          "name": "",
          "type": "uint256"
        }
      ],
      "stateMutability": "view",
      "type": "function"
    },
    {
      "inputs": [
        {
          "internalType": "address[]",
          "name": "accounts",
          "type": "address[]"
        },
        {
          "internalType": "uint256[]",
          "name": "ids",
          "type": "uint256[]"
        }
      ],
      "name": "balanceOfBatch",
      "outputs": [
        {
          "internalType": "uint256[]",
          "name": "",
          "type": "uint256[]"
        }
      ],
      "stateMutability": "view",
      "type": "function"
    },
    {
      "inputs": [
        {
          "internalType": "uint256",
          "name": "tokenId",
          "type": "uint256"
        },
        {
          "internalType": "address",
          "name": "who_",
          "type": "address"
        },
        {
          "internalType": "uint256",
          "name": "amount_",
          "type": "uint256"
        }
      ],
      "name": "burn",
      "outputs": [],
      "stateMutability": "nonpayable",
      "type": "function"
    },
    {
      "inputs": [
        {
          "internalType": "address",
          "name": "account",
          "type": "address"
        },
        {
          "internalType": "address",
          "name": "operator",
          "type": "address"
        }
      ],
      "name": "isApprovedForAll",
      "outputs": [
        {
          "internalType": "bool",
          "name": "",
          "type": "bool"
        }
      ],
      "stateMutability": "view",
      "type": "function"
    },
    {
      "inputs": [
        {
          "internalType": "uint256",
          "name": "tokenId",
          "type": "uint256"
        },
        {
          "internalType": "address",
          "name": "who_",
          "type": "address"
        }
      ],
      "name": "mint",
      "outputs": [],
      "stateMutability": "nonpayable",
      "type": "function"
    },
    {
      "inputs": [],
      "name": "owner",
      "outputs": [
        {
          "internalType": "address",
          "name": "",
          "type": "address"
        }
      ],
      "stateMutability": "view",
      "type": "function"
    },
    {
      "inputs": [],
      "name": "renounceOwnership",
      "outputs": [],
      "stateMutability": "nonpayable",
      "type": "function"
    },
    {
      "inputs": [
        {
          "internalType": "uint256",
          "name": "tokenId",
          "type": "uint256"
        },
        {
          "internalType": "uint256",
          "name": "salePrice",
          "type": "uint256"
        }
      ],
      "name": "royaltyInfo",
      "outputs": [
        {
          "internalType": "address",
          "name": "",
          "type": "address"
        },
        {
          "internalType": "uint256",
          "name": "",
          "type": "uint256"
        }
      ],
      "stateMutability": "view",
      "type": "function"
    },
    {
      "inputs": [
        {
          "internalType": "address",
          "name": "from",
          "type": "address"
        },
        {
          "internalType": "address",
          "name": "to",
          "type": "address"
        },
        {
          "internalType": "uint256[]",
          "name": "ids",
          "type": "uint256[]"
        },
        {
          "internalType": "uint256[]",
          "name": "amounts",
          "type": "uint256[]"
        },
        {
          "internalType": "bytes",
          "name": "data",
          "type": "bytes"
        }
      ],
      "name": "safeBatchTransferFrom",
      "outputs": [],
      "stateMutability": "nonpayable",
      "type": "function"
    },
    {
      "inputs": [
        {
          "internalType": "address",
          "name": "from",
          "type": "address"
        },
        {
          "internalType": "address",
          "name": "to",
          "type": "address"
        },
        {
          "internalType": "uint256",
          "name": "tokenId",
          "type": "uint256"
        },
        {
          "internalType": "uint256",
          "name": "amount",
          "type": "uint256"
        },
        {
          "internalType": "bytes",
          "name": "data",
          "type": "bytes"
        }
      ],
      "name": "safeTransferFrom",
      "outputs": [],
      "stateMutability": "nonpayable",
      "type": "function"
    },
    {
      "inputs": [
        {
          "internalType": "address",
          "name": "operator",
          "type": "address"
        },
        {
          "internalType": "bool",
          "name": "approved",
          "type": "bool"
        }
      ],
      "name": "setApprovalForAll",
      "outputs": [],
      "stateMutability": "nonpayable",
      "type": "function"
    },
    {
      "inputs": [
        {
          "internalType": "address",
          "name": "address_",
          "type": "address"
        },
        {
          "internalType": "uint256",
          "name": "auth_",
          "type": "uint256"
        }
      ],
      "name": "setAuth",
      "outputs": [],
      "stateMutability": "nonpayable",
      "type": "function"
    },
    {
      "inputs": [
        {
          "internalType": "address",
          "name": "receiver",
          "type": "address"
        },
        {
          "internalType": "uint96",
          "name": "feeNumerator",
          "type": "uint96"
        }
      ],
      "name": "setDefaultRoyalty",
      "outputs": [],
      "stateMutability": "nonpayable",
      "type": "function"
    },
    {
      "inputs": [
        {
          "internalType": "bytes4",
          "name": "interfaceId",
          "type": "bytes4"
        }
      ],
      "name": "supportsInterface",
      "outputs": [
        {
          "internalType": "bool",
          "name": "",
          "type": "bool"
        }
      ],
      "stateMutability": "view",
      "type": "function"
    },
    {
      "inputs": [
        {
          "internalType": "address",
          "name": "newOwner",
          "type": "address"
        }
      ],
      "name": "transferOwnership",
      "outputs": [],
      "stateMutability": "nonpayable",
      "type": "function"
    },
    {
      "inputs": [
        {
          "internalType": "uint256",
          "name": "_tokenId",
          "type": "uint256"
        }
      ],
      "name": "uri",
      "outputs": [
        {
          "internalType": "string",
          "name": "",
          "type": "string"
        }
      ],
      "stateMutability": "view",
      "type": "function"
    }
  ],
  "bytecode": "0x6007610120818152662365626264393160c81b6101405260809081526101608281526611b3333333333360c91b6101805260a0526101a08281526608d88e188d98cd60ca1b6101c05260c0526101e0828152662366666638386360c81b6102005260e05261026060405261022082815266119a1999b31b3160c91b610240526101005262000090919060056200041b565b50604080516080810182526000606082018181528252825160208181018552828252808401919091528351908101845290815291810191909152620000da9060169060036200046b565b506040805160e081018252600460a082018181526324b937b760e11b60c084015282528251808401845260068082526542726f6e7a6560d01b60208381019190915280850192909252845180860186529081526529b4b63b32b960d11b8183015283850152835180850185529182526311dbdb1960e21b82820152606083019190915282518084019093526008835267506c6174696e756d60c01b90830152608081019190915262000191906019906005620004a9565b50604051806060016040528060405180604001604052806004815260200163426f726760e01b8152508152602001604051806040016040528060058152602001642237b832b960d91b815250815260200160405180604001604052806006815260200165293ab73732b960d11b815250815250601e906003620002169291906200046b565b503480156200022457600080fd5b50733cc6cdda760b79bafa08df41ecfa224f810dceb66001604051806020016040528060008152506200025d81620003b760201b60201c565b506daaeb6d7670e522a718067333cd4e3b15620003a3578015620002f157604051633e9f1edf60e11b81523060048201526001600160a01b03831660248201526daaeb6d7670e522a718067333cd4e90637d3e3dbe906044015b600060405180830381600087803b158015620002d257600080fd5b505af1158015620002e7573d6000803e3d6000fd5b50505050620003a3565b6001600160a01b03821615620003425760405163a0af290360e01b81523060048201526001600160a01b03831660248201526daaeb6d7670e522a718067333cd4e9063a0af290390604401620002b7565b604051632210724360e11b81523060048201526daaeb6d7670e522a718067333cd4e90634420e48690602401600060405180830381600087803b1580156200038957600080fd5b505af11580156200039e573d6000803e3d6000fd5b505050505b50620003b1905033620003c9565b620006d2565b6002620003c5828262000606565b5050565b600580546001600160a01b038381166001600160a01b0319831681179093556040519116919082907f8be0079c531659141344cd1fd0a4f28419497f9722a3daafe3b4186f6b6457e090600090a35050565b82600f810192821562000459579160200282015b8281111562000459578251829062000448908262000606565b50916020019190600101906200042f565b5062000467929150620004e7565b5090565b826003810192821562000459579160200282015b8281111562000459578251829062000498908262000606565b50916020019190600101906200047f565b826005810192821562000459579160200282015b82811115620004595782518290620004d6908262000606565b5091602001919060010190620004bd565b8082111562000467576000620004fe828262000508565b50600101620004e7565b508054620005169062000577565b6000825580601f1062000527575050565b601f0160209004906000526020600020908101906200054791906200054a565b50565b5b808211156200046757600081556001016200054b565b634e487b7160e01b600052604160045260246000fd5b600181811c908216806200058c57607f821691505b602082108103620005ad57634e487b7160e01b600052602260045260246000fd5b50919050565b601f8211156200060157600081815260208120601f850160051c81016020861015620005dc5750805b601f850160051c820191505b81811015620005fd57828155600101620005e8565b5050505b505050565b81516001600160401b0381111562000622576200062262000561565b6200063a8162000633845462000577565b84620005b3565b602080601f831160018114620006725760008415620006595750858301515b600019600386901b1c1916600185901b178555620005fd565b600085815260208120601f198616915b82811015620006a35788860151825594840194600190910190840162000682565b5085821015620006c25787850151600019600388901b60f8161c191681555b5050505050600190811b01905550565b612e7580620006e26000396000f3fe608060405234801561001057600080fd5b50600436106101155760003560e01c80638da5cb5b116100a2578063b419b01311610071578063b419b0131461027c578063e985e9c51461029c578063f242432a146102d8578063f2fde38b146102eb578063fa704db2146102fe57600080fd5b80638da5cb5b1461023257806394bf804d146102435780639eea5f6614610256578063a22cb4651461026957600080fd5b80632a55205a116100e95780632a55205a146101985780632eb2c2d6146101ca57806341f43434146101dd5780634e1273f41461020a578063715018a61461022a57600080fd5b8062fdd58e1461011a57806301ffc9a71461014057806304634d8d146101635780630e89341c14610178575b600080fd5b61012d61012836600461193b565b610311565b6040519081526020015b60405180910390f35b61015361014e36600461197b565b6103aa565b6040519015158152602001610137565b61017661017136600461199f565b6103c4565b005b61018b6101863660046119e2565b6103da565b6040516101379190611a4b565b6101ab6101a6366004611a5e565b61044e565b604080516001600160a01b039093168352602083019190915201610137565b6101766101d8366004611bcc565b6104fa565b6101f26daaeb6d7670e522a718067333cd4e81565b6040516001600160a01b039091168152602001610137565b61021d610218366004611c76565b610529565b6040516101379190611d7c565b610176610653565b6005546001600160a01b03166101f2565b610176610251366004611d8f565b610667565b610176610264366004611dbb565b6106d3565b610176610277366004611dfe565b610733565b61012d61028a366004611e2a565b60066020526000908152604090205481565b6101536102aa366004611e45565b6001600160a01b03918216600090815260016020908152604080832093909416825291909152205460ff1690565b6101766102e6366004611e6f565b610747565b6101766102f9366004611e2a565b61076e565b61017661030c36600461193b565b6107e7565b60006001600160a01b0383166103815760405162461bcd60e51b815260206004820152602a60248201527f455243313135353a2061646472657373207a65726f206973206e6f742061207660448201526930b634b21037bbb732b960b11b60648201526084015b60405180910390fd5b506000818152602081815260408083206001600160a01b03861684529091529020545b92915050565b60006103b58261080b565b806103a457506103a48261085b565b6103cc610880565b6103d682826108da565b5050565b60606104286103e8836109d7565b6103f96103f485610ae0565b610b57565b61040285610b62565b60405160200161041493929190611ed4565b604051602081830303815290604052610b57565b6040516020016104389190612040565b6040516020818303038152906040529050919050565b60008281526004602090815260408083208151808301909252546001600160a01b038116808352600160a01b9091046001600160601b03169282019290925282916104c35750604080518082019091526003546001600160a01b0381168252600160a01b90046001600160601b031660208201525b6020810151600090612710906104e2906001600160601b03168761209b565b6104ec91906120c8565b915196919550909350505050565b846001600160a01b03811633146105145761051433610db3565b6105218686868686610e6c565b505050505050565b6060815183511461058e5760405162461bcd60e51b815260206004820152602960248201527f455243313135353a206163636f756e747320616e6420696473206c656e677468604482015268040dad2e6dac2e8c6d60bb1b6064820152608401610378565b6000835167ffffffffffffffff8111156105aa576105aa611a80565b6040519080825280602002602001820160405280156105d3578160200160208202803683370190505b50905060005b845181101561064b5761061e8582815181106105f7576105f76120dc565b6020026020010151858381518110610611576106116120dc565b6020026020010151610311565b828281518110610630576106306120dc565b6020908102919091010152610644816120f2565b90506105d9565b509392505050565b61065b610880565b6106656000610eb8565b565b336000908152600660205260409020546002146106b75760405162461bcd60e51b815260206004820152600e60248201526d1b9bdd08185d5d1a1bdc9a5e995960921b6044820152606401610378565b6103d68183600160405180602001604052806000815250610f0a565b336000908152600660205260409020546002146107235760405162461bcd60e51b815260206004820152600e60248201526d1b9bdd08185d5d1a1bdc9a5e995960921b6044820152606401610378565b61072e82848361101e565b505050565b8161073d81610db3565b61072e838361119a565b846001600160a01b03811633146107615761076133610db3565b61052186868686866111a5565b610776610880565b6001600160a01b0381166107db5760405162461bcd60e51b815260206004820152602660248201527f4f776e61626c653a206e6577206f776e657220697320746865207a65726f206160448201526564647265737360d01b6064820152608401610378565b6107e481610eb8565b50565b6107ef610880565b6001600160a01b03909116600090815260066020526040902055565b60006001600160e01b03198216636cdb3d1360e11b148061083c57506001600160e01b031982166303a24d0760e21b145b806103a457506301ffc9a760e01b6001600160e01b03198316146103a4565b60006001600160e01b0319821663152a902d60e11b14806103a457506103a48261080b565b6005546001600160a01b031633146106655760405162461bcd60e51b815260206004820181905260248201527f4f776e61626c653a2063616c6c6572206973206e6f7420746865206f776e65726044820152606401610378565b6127106001600160601b03821611156109485760405162461bcd60e51b815260206004820152602a60248201527f455243323938313a20726f79616c7479206665652077696c6c206578636565646044820152692073616c65507269636560b01b6064820152608401610378565b6001600160a01b03821661099e5760405162461bcd60e51b815260206004820152601960248201527f455243323938313a20696e76616c6964207265636569766572000000000000006044820152606401610378565b604080518082019091526001600160a01b039092168083526001600160601b039091166020909201829052600160a01b90910217600355565b6060816000036109fe5750506040805180820190915260018152600360fc1b602082015290565b8160005b8115610a285780610a12816120f2565b9150610a219050600a836120c8565b9150610a02565b60008167ffffffffffffffff811115610a4357610a43611a80565b6040519080825280601f01601f191660200182016040528015610a6d576020820181803683370190505b5090505b8415610ad857610a8260018361210b565b9150610a8f600a8661211e565b610a9a906030612132565b60f81b818381518110610aaf57610aaf6120dc565b60200101906001600160f81b031916908160001a905350610ad1600a866120c8565b9450610a71565b949350505050565b6060600782600f8110610af557610af56120dc565b01604051602001610b06919061221c565b604051602081830303815290604052600783600f8110610b2857610b286120dc565b01604051602001610b3991906125b7565b60408051601f19818403018152908290526104389291602001612947565b60606103a4826111ea565b60608060005b60028160ff161015610d8a576060808260ff16600003610c59576040805180820190915260048152632a34b2b960e11b6020820152915060196003610bae60018961210b565b610bb891906120c8565b61ffff1660058110610bcc57610bcc6120dc565b018054610bd890612145565b80601f0160208091040260200160405190810160405280929190818152602001828054610c0490612145565b8015610c515780601f10610c2657610100808354040283529160200191610c51565b820191906000526020600020905b815481529060010190602001808311610c3457829003601f168201915b505050505090505b8260ff16600103610d2c57604080518082019091526005815264436c61737360d81b60208201529150601e610c8f60038861211e565b60038110610c9f57610c9f6120dc565b018054610cab90612145565b80601f0160208091040260200160405190810160405280929190818152602001828054610cd790612145565b8015610d245780601f10610cf957610100808354040283529160200191610d24565b820191906000526020600020905b815481529060010190602001808311610d0757829003601f168201915b505050505090505b838282604051602001610d4193929190612a95565b60405160208183030381529060405293508260ff16600514610d805783604051602001610d6e9190612b1b565b60405160208183030381529060405293505b5050600101610b68565b5080604051602001610d9c9190612b40565b604051602081830303815290604052915050919050565b6daaeb6d7670e522a718067333cd4e3b156107e457604051633185c44d60e21b81523060048201526001600160a01b03821660248201526daaeb6d7670e522a718067333cd4e9063c617113490604401602060405180830381865afa158015610e20573d6000803e3d6000fd5b505050506040513d601f19601f82011682018060405250810190610e449190612b74565b6107e457604051633b79c77360e21b81526001600160a01b0382166004820152602401610378565b6001600160a01b038516331480610e885750610e8885336102aa565b610ea45760405162461bcd60e51b815260040161037890612b91565b610eb185858585856111f8565b5050505050565b600580546001600160a01b038381166001600160a01b0319831681179093556040519116919082907f8be0079c531659141344cd1fd0a4f28419497f9722a3daafe3b4186f6b6457e090600090a35050565b6001600160a01b038416610f6a5760405162461bcd60e51b815260206004820152602160248201527f455243313135353a206d696e7420746f20746865207a65726f206164647265736044820152607360f81b6064820152608401610378565b336000610f76856113cd565b90506000610f83856113cd565b90506000868152602081815260408083206001600160a01b038b16845290915281208054879290610fb5908490612132565b909155505060408051878152602081018790526001600160a01b03808a1692600092918716917fc3d58168c5ae7397731d063d5bbf3d657854427343f4c083240f7aacaa2d0f62910160405180910390a461101583600089898989611418565b50505050505050565b6001600160a01b0383166110805760405162461bcd60e51b815260206004820152602360248201527f455243313135353a206275726e2066726f6d20746865207a65726f206164647260448201526265737360e81b6064820152608401610378565b33600061108c846113cd565b90506000611099846113cd565b60408051602080820183526000918290528882528181528282206001600160a01b038b16835290522054909150848110156111225760405162461bcd60e51b8152602060048201526024808201527f455243313135353a206275726e20616d6f756e7420657863656564732062616c604482015263616e636560e01b6064820152608401610378565b6000868152602081815260408083206001600160a01b038b81168086529184528285208a8703905582518b81529384018a90529092908816917fc3d58168c5ae7397731d063d5bbf3d657854427343f4c083240f7aacaa2d0f62910160405180910390a4604080516020810190915260009052611015565b6103d6338383611573565b6001600160a01b0385163314806111c157506111c185336102aa565b6111dd5760405162461bcd60e51b815260040161037890612b91565b610eb18585858585611653565b60606103a48260008061177d565b815183511461125a5760405162461bcd60e51b815260206004820152602860248201527f455243313135353a2069647320616e6420616d6f756e7473206c656e677468206044820152670dad2e6dac2e8c6d60c31b6064820152608401610378565b6001600160a01b0384166112805760405162461bcd60e51b815260040161037890612bdf565b3360005b84518110156113675760008582815181106112a1576112a16120dc565b6020026020010151905060008583815181106112bf576112bf6120dc565b602090810291909101810151600084815280835260408082206001600160a01b038e16835290935291909120549091508181101561130f5760405162461bcd60e51b815260040161037890612c24565b6000838152602081815260408083206001600160a01b038e8116855292528083208585039055908b1682528120805484929061134c908490612132565b9250508190555050505080611360906120f2565b9050611284565b50846001600160a01b0316866001600160a01b0316826001600160a01b03167f4a39dc06d4c0dbc64b70af90fd698a233a518aa5d07e595d983b8c0526c8f7fb87876040516113b7929190612c6e565b60405180910390a4610521818787878787611864565b60408051600180825281830190925260609160009190602080830190803683370190505090508281600081518110611407576114076120dc565b602090810291909101015292915050565b6001600160a01b0384163b156105215760405163f23a6e6160e01b81526001600160a01b0385169063f23a6e619061145c9089908990889088908890600401612c9c565b6020604051808303816000875af1925050508015611497575060408051601f3d908101601f1916820190925261149491810190612cd6565b60015b611543576114a3612cf3565b806308c379a0036114dc57506114b7612d0f565b806114c257506114de565b8060405162461bcd60e51b81526004016103789190611a4b565b505b60405162461bcd60e51b815260206004820152603460248201527f455243313135353a207472616e7366657220746f206e6f6e2d455243313135356044820152732932b1b2b4bb32b91034b6b83632b6b2b73a32b960611b6064820152608401610378565b6001600160e01b0319811663f23a6e6160e01b146110155760405162461bcd60e51b815260040161037890612d99565b816001600160a01b0316836001600160a01b0316036115e65760405162461bcd60e51b815260206004820152602960248201527f455243313135353a2073657474696e6720617070726f76616c20737461747573604482015268103337b91039b2b63360b91b6064820152608401610378565b6001600160a01b03838116600081815260016020908152604080832094871680845294825291829020805460ff191686151590811790915591519182527f17307eab39ab6107e8899845ad3d59bd9653f200f220920489ca2b5937696c31910160405180910390a3505050565b6001600160a01b0384166116795760405162461bcd60e51b815260040161037890612bdf565b336000611685856113cd565b90506000611692856113cd565b90506000868152602081815260408083206001600160a01b038c168452909152902054858110156116d55760405162461bcd60e51b815260040161037890612c24565b6000878152602081815260408083206001600160a01b038d8116855292528083208985039055908a16825281208054889290611712908490612132565b909155505060408051888152602081018890526001600160a01b03808b16928c821692918816917fc3d58168c5ae7397731d063d5bbf3d657854427343f4c083240f7aacaa2d0f62910160405180910390a4611772848a8a8a8a8a611418565b505050505050505050565b60608351801561064b576003600282010460021b60405192507f4142434445464748494a4b4c4d4e4f505152535455565758595a616263646566601f526106708515027f6768696a6b6c6d6e6f707172737475767778797a303132333435363738392d5f18603f52602083018181015b6003880197508751603f8160121c1651600053603f81600c1c1651600153603f8160061c1651600253603f8116516003535060005182526004820191508082106117ed57602001604052613d3d60f01b60038406600204808303919091526000861515909102918290035290038252509392505050565b6001600160a01b0384163b156105215760405163bc197c8160e01b81526001600160a01b0385169063bc197c81906118a89089908990889088908890600401612de1565b6020604051808303816000875af19250505080156118e3575060408051601f3d908101601f191682019092526118e091810190612cd6565b60015b6118ef576114a3612cf3565b6001600160e01b0319811663bc197c8160e01b146110155760405162461bcd60e51b815260040161037890612d99565b80356001600160a01b038116811461193657600080fd5b919050565b6000806040838503121561194e57600080fd5b6119578361191f565b946020939093013593505050565b6001600160e01b0319811681146107e457600080fd5b60006020828403121561198d57600080fd5b813561199881611965565b9392505050565b600080604083850312156119b257600080fd5b6119bb8361191f565b915060208301356001600160601b03811681146119d757600080fd5b809150509250929050565b6000602082840312156119f457600080fd5b5035919050565b60005b83811015611a165781810151838201526020016119fe565b50506000910152565b60008151808452611a378160208601602086016119fb565b601f01601f19169290920160200192915050565b6020815260006119986020830184611a1f565b60008060408385031215611a7157600080fd5b50508035926020909101359150565b634e487b7160e01b600052604160045260246000fd5b601f8201601f1916810167ffffffffffffffff81118282101715611abc57611abc611a80565b6040525050565b600067ffffffffffffffff821115611add57611add611a80565b5060051b60200190565b600082601f830112611af857600080fd5b81356020611b0582611ac3565b604051611b128282611a96565b83815260059390931b8501820192828101915086841115611b3257600080fd5b8286015b84811015611b4d5780358352918301918301611b36565b509695505050505050565b600082601f830112611b6957600080fd5b813567ffffffffffffffff811115611b8357611b83611a80565b604051611b9a601f8301601f191660200182611a96565b818152846020838601011115611baf57600080fd5b816020850160208301376000918101602001919091529392505050565b600080600080600060a08688031215611be457600080fd5b611bed8661191f565b9450611bfb6020870161191f565b9350604086013567ffffffffffffffff80821115611c1857600080fd5b611c2489838a01611ae7565b94506060880135915080821115611c3a57600080fd5b611c4689838a01611ae7565b93506080880135915080821115611c5c57600080fd5b50611c6988828901611b58565b9150509295509295909350565b60008060408385031215611c8957600080fd5b823567ffffffffffffffff80821115611ca157600080fd5b818501915085601f830112611cb557600080fd5b81356020611cc282611ac3565b604051611ccf8282611a96565b83815260059390931b8501820192828101915089841115611cef57600080fd5b948201945b83861015611d1457611d058661191f565b82529482019490820190611cf4565b96505086013592505080821115611d2a57600080fd5b50611d3785828601611ae7565b9150509250929050565b600081518084526020808501945080840160005b83811015611d7157815187529582019590820190600101611d55565b509495945050505050565b6020815260006119986020830184611d41565b60008060408385031215611da257600080fd5b82359150611db26020840161191f565b90509250929050565b600080600060608486031215611dd057600080fd5b83359250611de06020850161191f565b9150604084013590509250925092565b80151581146107e457600080fd5b60008060408385031215611e1157600080fd5b611e1a8361191f565b915060208301356119d781611df0565b600060208284031215611e3c57600080fd5b6119988261191f565b60008060408385031215611e5857600080fd5b611e618361191f565b9150611db26020840161191f565b600080600080600060a08688031215611e8757600080fd5b611e908661191f565b9450611e9e6020870161191f565b93506040860135925060608601359150608086013567ffffffffffffffff811115611ec857600080fd5b611c6988828901611b58565b717b226e616d65223a202250696e6b6965202360701b81528351600090611f028160128501602089016119fb565b7f222c20226465736372697074696f6e223a202250696e6b696520746f206d696e6012918401918201527f74204b796f64616920616e64205368617465692e20416c6c20746865206d657460328201527f616461746120616e6420696d61676573206172652067656e657261746564206160528201527f6e642073746f7265642031303025206f6e2d636861696e2e204e6f204950465360728201527f2c206e6f204150492e222c22696d616765223a2022646174613a696d6167652f60928201526e1cdd99cade1b5b0ed8985cd94d8d0b608a1b60b28201528451611fef8160c18401602089016119fb565b6e11161130ba3a3934b13aba32b9911d60891b60c19290910191820152835161201f8160d08401602088016119fb565b61203560d082840101607d60f81b815260010190565b979650505050505050565b7f646174613a6170706c69636174696f6e2f6a736f6e3b6261736536342c00000081526000825161207881601d8501602087016119fb565b91909101601d0192915050565b634e487b7160e01b600052601160045260246000fd5b80820281158282048414176103a4576103a4612085565b634e487b7160e01b600052601260045260246000fd5b6000826120d7576120d76120b2565b500490565b634e487b7160e01b600052603260045260246000fd5b60006001820161210457612104612085565b5060010190565b818103818111156103a4576103a4612085565b60008261212d5761212d6120b2565b500690565b808201808211156103a4576103a4612085565b600181811c9082168061215957607f821691505b60208210810361217957634e487b7160e01b600052602260045260246000fd5b50919050565b8054600090600181811c908083168061219957607f831692505b602080841082036121ba57634e487b7160e01b600052602260045260246000fd5b8180156121ce57600181146121e357612210565b60ff1986168952841515850289019650612210565b60008881526020902060005b868110156122085781548b8201529085019083016121ef565b505084890196505b50505050505092915050565b711e3830ba341039ba3cb6329e913334b6361d60711b81526000612243601283018461217f565b7f2220643d224d3520386831763148355a6d3020316831763148355a6d3020316881527f31763148355a6d3020316831763148355a6d3020316831763148355a6d31203160208201527f6831763148365a6d3120336831763148375a6d302d316831763148375a6d302d60408201527f316831763148375a6d3120306831763148385a6d3120306831763148395a6d3160608201527f203068317631682d317a6d31203068317631682d317a6d31203068317631682d60808201527f317a6d2d3520336831763148375a6d3120306831763148385a6d312d3168317660a08201527f3148395a6d3020316831763148395a6d31203068317631682d317a6d3120306860c08201527f317631682d317a6d302d3168317631682d317a6d31203068317631682d317a6d60e08201527f31203068317631682d317a6d30203168317631682d317a6d322d3168317631686101008201527f2d317a6d2d31203168317631682d317a6d31203068317631682d317a6d3120306101208201527f68317631682d317a6d31203068317631682d317a6d302d3168317631682d317a6101408201527f6d302d3168317631682d317a6d302d3168317631682d317a6d312d31683176316101608201527f682d317a6d302d3168317631682d317a6d302d3168317631682d317a6d302d316101808201527f68317631682d315a6d2d312d3168317631682d317a6d2d31203068317631682d6101a08201527f317a6d2d31203068317631682d317a6d30203168317631682d317a6d312031686101c08201527f317631682d317a6d30203168317631682d317a6d2d31203168317631682d317a6101e08201527f6d2d31203068317631682d317a6d2d31203068317631682d317a6d312d3168316102008201527f7631682d317a6d302d3168317631682d317a6d302d3168317631682d317a6d306102208201527f2d3168317631682d317a6d302d3168317631682d317a6d302d3168317631682d6102408201527f315a6d2d312d3168317631682d317a6d2d31203168317631682d317a6d2d31206102608201527f3168317631682d317a6d2d31203068317631682d315a4d3920386831763148396102808201527f5a4d3820386831763148385a4d3720376831763148375a4d36203668317631486102a08201526f1b2d269a901bb418bb18a41aad11179f60811b6102c08201526102d0019392505050565b711e3830ba341039ba3cb6329e913334b6361d60711b815260006125de601283018461217f565b7f2220643d224d382031356831763148385a6d3120306831763148395a6d31203081527f68317631682d317a6d31203068317631682d317a6d31203068317631682d317a60208201527f6d31203068317631682d317a6d302d3168317631682d317a6d3120306831763160408201527f682d317a6d30203168317631682d317a6d31203068317631682d317a6d302d3160608201527f68317631682d317a6d31203168317631682d317a6d302d3168317631682d317a60808201527f6d302d3168317631682d317a6d31203068317631682d317a6d302d316831763160a08201527f682d317a6d302d3168317631682d317a6d302d3168317631682d317a6d2d312060c08201527f3068317631682d317a6d2d3820316831763148385a6d32203068317631682d3160e08201527f7a6d2d3120306831763148395a6d33203068317631682d317a6d302d316831766101008201527f31682d317a6d2d31203068317631682d317a6d2d31203068317631682d317a6d6101208201527f2d3120306831763148395a6d2d3120306831763148385a6d33203268317631686101408201527f2d317a6d2d31203068317631682d317a6d2d3220306831763148385a6d2d31206101608201527f306831763148375a6d302d326831763148375a6d2d3120306831763148365a6d6101808201527f3020316831763148365a6d3020316831763148365a6d3120316831763148375a6101a08201527f6d3120306831763148385a6d3120306831763148395a6d31203068317631682d6101c08201527f317a6d31203068317631682d317a6d312d3168317631682d317a6d30203168316101e08201527f7631682d317a6d312d3168317631682d317a6d302d3168317631682d317a6d306102008201527f2d3168317631682d317a6d302d3168317631682d317a6d302d3268317631682d6102208201527f317a6d2d31203168317631682d317a6d30203168317631682d317a6d2d3120306102408201527f68317631682d317a6d2d31203068317631682d315a4d3920396831763148395a6102608201527f4d3820396831763148385a4d3720396831763148375a4d3620396831763148366102808201527f5a6d312d316831763148375a6d3220346831763148395a4d36203768317631486102a0820152641b2d11179f60d91b6102c08201526102c5019392505050565b7f3c7376672069643d2270696e6b6965222077696474683d22313030252220686581527f696768743d22313030252220786d6c6e733d22687474703a2f2f7777772e773360208201527f2e6f72672f323030302f7376672220696d6167652d72656e646572696e673d2260408201527f706978656c61746564222076696577426f783d2230203020323420323422207360608201527f74796c653d2273686170652d72656e646572696e673a63726973706564676573608082015261111f60f11b60a082015260008351612a228160a28501602088016119fb565b835190830190612a398160a28401602088016119fb565b7f3c70617468207374796c653d2266696c6c3a236666386163622220643d224d3160a292909101918201527f33203868317631682d315a4d3620386831763148365a222f3e3c2f7376673e0060c282015260e101949350505050565b60008451612aa78184602089016119fb565b6e3d913a3930b4ba2fba3cb832911d1160891b9083019081528451612ad381600f8401602089016119fb565b6a1116113b30b63ab2911d1160a91b600f92909101918201528351612aff81601a8401602088016119fb565b61227d60f01b601a9290910191820152601c0195945050505050565b60008251612b2d8184602087016119fb565b600b60fa1b920191825250600101919050565b605b60f81b815260008251612b5c8160018501602087016119fb565b605d60f81b6001939091019283015250600201919050565b600060208284031215612b8657600080fd5b815161199881611df0565b6020808252602e908201527f455243313135353a2063616c6c6572206973206e6f7420746f6b656e206f776e60408201526d195c881bdc88185c1c1c9bdd995960921b606082015260800190565b60208082526025908201527f455243313135353a207472616e7366657220746f20746865207a65726f206164604082015264647265737360d81b606082015260800190565b6020808252602a908201527f455243313135353a20696e73756666696369656e742062616c616e636520666f60408201526939103a3930b739b332b960b11b606082015260800190565b604081526000612c816040830185611d41565b8281036020840152612c938185611d41565b95945050505050565b6001600160a01b03868116825285166020820152604081018490526060810183905260a06080820181905260009061203590830184611a1f565b600060208284031215612ce857600080fd5b815161199881611965565b600060033d1115612d0c5760046000803e5060005160e01c5b90565b600060443d1015612d1d5790565b6040516003193d81016004833e81513d67ffffffffffffffff8160248401118184111715612d4d57505050505090565b8285019150815181811115612d655750505050505090565b843d8701016020828501011115612d7f5750505050505090565b612d8e60208286010187611a96565b509095945050505050565b60208082526028908201527f455243313135353a204552433131353552656365697665722072656a656374656040820152676420746f6b656e7360c01b606082015260800190565b6001600160a01b0386811682528516602082015260a060408201819052600090612e0d90830186611d41565b8281036060840152612e1f8186611d41565b90508281036080840152612e338185611a1f565b9897505050505050505056fea264697066735822122036358ee9b89023815ba896247a4e3a45cd9aa6af2bbb0fcb747020989870f86064736f6c63430008120033",
  "linkReferences": {},
  "deployedLinkReferences": {}
}