{
  "_format": "hh-sol-artifact-1",
  "contractName": "ERC721K",
  "sourceName": "contracts/token/ERC721K.sol",
  "abi": [
    {
      "inputs": [],
      "name": "InsufficientMsgFee",
      "type": "error"
    },
    {
      "inputs": [],
      "name": "InvalidDestination",
      "type": "error"
    },
    {
      "inputs": [],
      "name": "TokenLocked",
      "type": "error"
    },
    {
      "anonymous": false,
      "inputs": [
        {
          "indexed": true,
          "internalType": "address",
          "name": "owner",
          "type": "address"
        },
        {
          "indexed": true,
          "internalType": "uint256",
          "name": "id",
          "type": "uint256"
        },
        {
          "indexed": true,
          "internalType": "uint8",
          "name": "action",
          "type": "uint8"
        }
      ],
      "name": "ActionMade",
      "type": "event"
    },
    {
      "anonymous": false,
      "inputs": [
        {
          "indexed": true,
          "internalType": "address",
          "name": "owner",
          "type": "address"
        },
        {
          "indexed": true,
          "internalType": "address",
          "name": "approved",
          "type": "address"
        },
        {
          "indexed": true,
          "internalType": "uint256",
          "name": "tokenId",
          "type": "uint256"
        }
      ],
      "name": "Approval",
      "type": "event"
    },
    {
      "anonymous": false,
      "inputs": [
        {
          "indexed": true,
          "internalType": "address",
          "name": "owner",
          "type": "address"
        },
        {
          "indexed": true,
          "internalType": "address",
          "name": "operator",
          "type": "address"
        },
        {
          "indexed": false,
          "internalType": "bool",
          "name": "approved",
          "type": "bool"
        }
      ],
      "name": "ApprovalForAll",
      "type": "event"
    },
    {
      "anonymous": false,
      "inputs": [
        {
          "indexed": false,
          "internalType": "uint8",
          "name": "version",
          "type": "uint8"
        }
      ],
      "name": "Initialized",
      "type": "event"
    },
    {
      "anonymous": false,
      "inputs": [
        {
          "indexed": false,
          "internalType": "uint16",
          "name": "_srcChainId",
          "type": "uint16"
        },
        {
          "indexed": false,
          "internalType": "bytes",
          "name": "_srcAddress",
          "type": "bytes"
        },
        {
          "indexed": false,
          "internalType": "uint64",
          "name": "_nonce",
          "type": "uint64"
        },
        {
          "indexed": false,
          "internalType": "bytes",
          "name": "_payload",
          "type": "bytes"
        }
      ],
      "name": "MessageFailed",
      "type": "event"
    },
    {
      "anonymous": false,
      "inputs": [
        {
          "indexed": true,
          "internalType": "address",
          "name": "previousOwner",
          "type": "address"
        },
        {
          "indexed": true,
          "internalType": "address",
          "name": "newOwner",
          "type": "address"
        }
      ],
      "name": "OwnershipTransferred",
      "type": "event"
    },
    {
      "anonymous": false,
      "inputs": [
        {
          "indexed": true,
          "internalType": "address",
          "name": "from",
          "type": "address"
        },
        {
          "indexed": true,
          "internalType": "address",
          "name": "to",
          "type": "address"
        },
        {
          "indexed": true,
          "internalType": "uint256",
          "name": "tokenId",
          "type": "uint256"
        }
      ],
      "name": "Transfer",
      "type": "event"
    },
    {
      "inputs": [
        {
          "internalType": "uint256",
          "name": "",
          "type": "uint256"
        }
      ],
      "name": "activities",
      "outputs": [
        {
          "internalType": "uint256",
          "name": "",
          "type": "uint256"
        }
      ],
      "stateMutability": "view",
      "type": "function"
    },
    {
      "inputs": [
        {
          "internalType": "address",
          "name": "to",
          "type": "address"
        },
        {
          "internalType": "uint256",
          "name": "tokenId",
          "type": "uint256"
        }
      ],
      "name": "approve",
      "outputs": [],
      "stateMutability": "nonpayable",
      "type": "function"
    },
    {
      "inputs": [
        {
          "internalType": "address",
          "name": "owner",
          "type": "address"
        }
      ],
      "name": "balanceOf",
      "outputs": [
        {
          "internalType": "uint256",
          "name": "",
          "type": "uint256"
        }
      ],
      "stateMutability": "view",
      "type": "function"
    },
    {
      "inputs": [
        {
          "internalType": "string",
          "name": "newURI",
          "type": "string"
        }
      ],
      "name": "changeURI",
      "outputs": [],
      "stateMutability": "nonpayable",
      "type": "function"
    },
    {
      "inputs": [
        {
          "internalType": "uint256",
          "name": "tokenId",
          "type": "uint256"
        }
      ],
      "name": "decodeActivity",
      "outputs": [
        {
          "internalType": "address",
          "name": "",
          "type": "address"
        },
        {
          "internalType": "uint8",
          "name": "",
          "type": "uint8"
        },
        {
          "internalType": "uint256",
          "name": "",
          "type": "uint256"
        }
      ],
      "stateMutability": "view",
      "type": "function"
    },
    {
      "inputs": [
        {
          "internalType": "uint256",
          "name": "tokenId",
          "type": "uint256"
        }
      ],
      "name": "decodeKyodai",
      "outputs": [
        {
          "internalType": "bytes20",
          "name": "",
          "type": "bytes20"
        },
        {
          "internalType": "uint256",
          "name": "",
          "type": "uint256"
        },
        {
          "internalType": "uint256",
          "name": "",
          "type": "uint256"
        },
        {
          "internalType": "uint256",
          "name": "",
          "type": "uint256"
        }
      ],
      "stateMutability": "view",
      "type": "function"
    },
    {
      "inputs": [
        {
          "internalType": "uint16",
          "name": "",
          "type": "uint16"
        },
        {
          "internalType": "bytes",
          "name": "",
          "type": "bytes"
        },
        {
          "internalType": "uint256",
          "name": "",
          "type": "uint256"
        }
      ],
      "name": "failedMessages",
      "outputs": [
        {
          "internalType": "uint256",
          "name": "payloadLength",
          "type": "uint256"
        },
        {
          "internalType": "bytes32",
          "name": "payloadHash",
          "type": "bytes32"
        }
      ],
      "stateMutability": "view",
      "type": "function"
    },
    {
      "inputs": [
        {
          "internalType": "uint256",
          "name": "tokenId",
          "type": "uint256"
        }
      ],
      "name": "freeToken",
      "outputs": [],
      "stateMutability": "nonpayable",
      "type": "function"
    },
    {
      "inputs": [
        {
          "internalType": "uint256",
          "name": "tokenId",
          "type": "uint256"
        }
      ],
      "name": "getApproved",
      "outputs": [
        {
          "internalType": "address",
          "name": "",
          "type": "address"
        }
      ],
      "stateMutability": "view",
      "type": "function"
    },
    {
      "inputs": [
        {
          "internalType": "uint256",
          "name": "tokenId",
          "type": "uint256"
        }
      ],
      "name": "getKyodaiAlliance",
      "outputs": [
        {
          "internalType": "uint8",
          "name": "",
          "type": "uint8"
        }
      ],
      "stateMutability": "view",
      "type": "function"
    },
    {
      "inputs": [
        {
          "internalType": "address",
          "name": "owner",
          "type": "address"
        },
        {
          "internalType": "address",
          "name": "operator",
          "type": "address"
        }
      ],
      "name": "isApprovedForAll",
      "outputs": [
        {
          "internalType": "bool",
          "name": "",
          "type": "bool"
        }
      ],
      "stateMutability": "view",
      "type": "function"
    },
    {
      "inputs": [
        {
          "internalType": "uint256",
          "name": "",
          "type": "uint256"
        }
      ],
      "name": "kyodais",
      "outputs": [
        {
          "internalType": "uint256",
          "name": "",
          "type": "uint256"
        }
      ],
      "stateMutability": "view",
      "type": "function"
    },
    {
      "inputs": [
        {
          "internalType": "uint16",
          "name": "_srcChainId",
          "type": "uint16"
        },
        {
          "internalType": "bytes",
          "name": "_srcAddress",
          "type": "bytes"
        },
        {
          "internalType": "uint64",
          "name": "_nonce",
          "type": "uint64"
        },
        {
          "internalType": "bytes",
          "name": "_payload",
          "type": "bytes"
        }
      ],
      "name": "lzReceive",
      "outputs": [],
      "stateMutability": "nonpayable",
      "type": "function"
    },
    {
      "inputs": [],
      "name": "name",
      "outputs": [
        {
          "internalType": "string",
          "name": "",
          "type": "string"
        }
      ],
      "stateMutability": "view",
      "type": "function"
    },
    {
      "inputs": [
        {
          "internalType": "uint16",
          "name": "_srcChainId",
          "type": "uint16"
        },
        {
          "internalType": "bytes",
          "name": "_srcAddress",
          "type": "bytes"
        },
        {
          "internalType": "uint64",
          "name": "_nonce",
          "type": "uint64"
        },
        {
          "internalType": "bytes",
          "name": "_payload",
          "type": "bytes"
        }
      ],
      "name": "onLzReceive",
      "outputs": [],
      "stateMutability": "nonpayable",
      "type": "function"
    },
    {
      "inputs": [],
      "name": "owner",
      "outputs": [
        {
          "internalType": "address",
          "name": "",
          "type": "address"
        }
      ],
      "stateMutability": "view",
      "type": "function"
    },
    {
      "inputs": [
        {
          "internalType": "uint256",
          "name": "tokenId",
          "type": "uint256"
        }
      ],
      "name": "ownerOf",
      "outputs": [
        {
          "internalType": "address",
          "name": "",
          "type": "address"
        }
      ],
      "stateMutability": "view",
      "type": "function"
    },
    {
      "inputs": [],
      "name": "renounceOwnership",
      "outputs": [],
      "stateMutability": "nonpayable",
      "type": "function"
    },
    {
      "inputs": [
        {
          "internalType": "uint16",
          "name": "_srcChainId",
          "type": "uint16"
        },
        {
          "internalType": "bytes",
          "name": "_srcAddress",
          "type": "bytes"
        },
        {
          "internalType": "uint64",
          "name": "_nonce",
          "type": "uint64"
        },
        {
          "internalType": "bytes",
          "name": "_payload",
          "type": "bytes"
        }
      ],
      "name": "retryMessage",
      "outputs": [],
      "stateMutability": "payable",
      "type": "function"
    },
    {
      "inputs": [
        {
          "internalType": "address",
          "name": "from",
          "type": "address"
        },
        {
          "internalType": "address",
          "name": "to",
          "type": "address"
        },
        {
          "internalType": "uint256",
          "name": "tokenId",
          "type": "uint256"
        }
      ],
      "name": "safeTransferFrom",
      "outputs": [],
      "stateMutability": "nonpayable",
      "type": "function"
    },
    {
      "inputs": [
        {
          "internalType": "address",
          "name": "from",
          "type": "address"
        },
        {
          "internalType": "address",
          "name": "to",
          "type": "address"
        },
        {
          "internalType": "uint256",
          "name": "tokenId",
          "type": "uint256"
        },
        {
          "internalType": "bytes",
          "name": "data",
          "type": "bytes"
        }
      ],
      "name": "safeTransferFrom",
      "outputs": [],
      "stateMutability": "nonpayable",
      "type": "function"
    },
    {
      "inputs": [
        {
          "internalType": "address",
          "name": "operator",
          "type": "address"
        },
        {
          "internalType": "bool",
          "name": "approved",
          "type": "bool"
        }
      ],
      "name": "setApprovalForAll",
      "outputs": [],
      "stateMutability": "nonpayable",
      "type": "function"
    },
    {
      "inputs": [
        {
          "internalType": "uint256",
          "name": "newVal",
          "type": "uint256"
        }
      ],
      "name": "setGasForDestinationLzReceive",
      "outputs": [],
      "stateMutability": "nonpayable",
      "type": "function"
    },
    {
      "inputs": [
        {
          "internalType": "address",
          "name": "_lzEndpoint",
          "type": "address"
        }
      ],
      "name": "setLzEndpoint",
      "outputs": [],
      "stateMutability": "nonpayable",
      "type": "function"
    },
    {
      "inputs": [
        {
          "internalType": "uint16",
          "name": "_chainId",
          "type": "uint16"
        },
        {
          "internalType": "bytes",
          "name": "_trustedRemote",
          "type": "bytes"
        }
      ],
      "name": "setTrustedRemote",
      "outputs": [],
      "stateMutability": "nonpayable",
      "type": "function"
    },
    {
      "inputs": [
        {
          "internalType": "bytes4",
          "name": "interfaceId",
          "type": "bytes4"
        }
      ],
      "name": "supportsInterface",
      "outputs": [
        {
          "internalType": "bool",
          "name": "",
          "type": "bool"
        }
      ],
      "stateMutability": "view",
      "type": "function"
    },
    {
      "inputs": [],
      "name": "symbol",
      "outputs": [
        {
          "internalType": "string",
          "name": "",
          "type": "string"
        }
      ],
      "stateMutability": "view",
      "type": "function"
    },
    {
      "inputs": [
        {
          "internalType": "uint256",
          "name": "tokenId",
          "type": "uint256"
        }
      ],
      "name": "tokenURI",
      "outputs": [
        {
          "internalType": "string",
          "name": "",
          "type": "string"
        }
      ],
      "stateMutability": "view",
      "type": "function"
    },
    {
      "inputs": [],
      "name": "totalSupply",
      "outputs": [
        {
          "internalType": "uint256",
          "name": "",
          "type": "uint256"
        }
      ],
      "stateMutability": "view",
      "type": "function"
    },
    {
      "inputs": [
        {
          "internalType": "address",
          "name": "from",
          "type": "address"
        },
        {
          "internalType": "address",
          "name": "to",
          "type": "address"
        },
        {
          "internalType": "uint256",
          "name": "tokenId",
          "type": "uint256"
        }
      ],
      "name": "transferFrom",
      "outputs": [],
      "stateMutability": "nonpayable",
      "type": "function"
    },
    {
      "inputs": [
        {
          "internalType": "address",
          "name": "newOwner",
          "type": "address"
        }
      ],
      "name": "transferOwnership",
      "outputs": [],
      "stateMutability": "nonpayable",
      "type": "function"
    },
    {
      "inputs": [
        {
          "internalType": "uint16",
          "name": "_chainId",
          "type": "uint16"
        },
        {
          "internalType": "uint256",
          "name": "tokenId",
          "type": "uint256"
        }
      ],
      "name": "traverseChains",
      "outputs": [],
      "stateMutability": "payable",
      "type": "function"
    },
    {
      "inputs": [
        {
          "internalType": "uint16",
          "name": "",
          "type": "uint16"
        }
      ],
      "name": "trustedRemoteLookup",
      "outputs": [
        {
          "internalType": "bytes",
          "name": "",
          "type": "bytes"
        }
      ],
      "stateMutability": "view",
      "type": "function"
    }
  ],
  "bytecode": "0x608060405234801561001057600080fd5b5061280d806100206000396000f3fe6080604052600436106101ed5760003560e01c80638ee749121161010d578063cf89fa03116100a0578063e985e9c51161006f578063e985e9c514610634578063eb8d72b71461067d578063ed102eae1461069d578063f0467898146106fd578063f2fde38b1461073f57600080fd5b8063cf89fa03146105ce578063d1deba1f146105e1578063d9331a11146105f4578063e5e01c111461061457600080fd5b8063b218d311116100dc578063b218d31114610541578063b88d4fde1461056e578063bc91878d1461058e578063c87b56dd146105ae57600080fd5b80638ee7491214610481578063943fb872146104ec57806395d89b411461050c578063a22cb4651461052157600080fd5b806323b872dd1161018557806370a082311161015457806370a082311461040e578063715018a61461042e5780637533d788146104435780638da5cb5b1461046357600080fd5b806323b872dd1461033357806342842e0e146103535780635d1b2bb8146103735780636352211e146103ee57600080fd5b8063095ea7b3116101c1578063095ea7b3146102a35780630d1657e8146102c357806318160ddd146102fe5780631c37a8221461031357600080fd5b80621d3567146101f257806301ffc9a71461021457806306fdde0314610249578063081812fc1461026b575b600080fd5b3480156101fe57600080fd5b5061021261020d366004611e30565b61075f565b005b34801561022057600080fd5b5061023461022f366004611eca565b610959565b60405190151581526020015b60405180910390f35b34801561025557600080fd5b5061025e6109ab565b6040516102409190611f37565b34801561027757600080fd5b5061028b610286366004611f4a565b610a3d565b6040516001600160a01b039091168152602001610240565b3480156102af57600080fd5b506102126102be366004611f78565b610a64565b3480156102cf57600080fd5b506102f06102de366004611f4a565b60d06020526000908152604090205481565b604051908152602001610240565b34801561030a57600080fd5b5060ce546102f0565b34801561031f57600080fd5b5061021261032e366004611e30565b610b79565b34801561033f57600080fd5b5061021261034e366004611fa4565b610be8565b34801561035f57600080fd5b5061021261036e366004611fa4565b610c19565b34801561037f57600080fd5b506103be61038e366004611f4a565b600090815260cf6020526040902054606081901b9160c082901c9161ffff60b082901c81169260a09290921c1690565b604080516bffffffffffffffffffffffff1990951685526020850193909352918301526060820152608001610240565b3480156103fa57600080fd5b5061028b610409366004611f4a565b610c34565b34801561041a57600080fd5b506102f0610429366004611fe5565b610c94565b34801561043a57600080fd5b50610212610d1a565b34801561044f57600080fd5b5061025e61045e366004612002565b610d2e565b34801561046f57600080fd5b506097546001600160a01b031661028b565b34801561048d57600080fd5b506104d761049c36600461201d565b60ca60209081526000938452604080852084518086018401805192815290840195840195909520945292905282529020805460019091015482565b60408051928352602083019190915201610240565b3480156104f857600080fd5b50610212610507366004611f4a565b610dc8565b34801561051857600080fd5b5061025e610dd5565b34801561052d57600080fd5b5061021261053c366004612073565b610de4565b34801561054d57600080fd5b506102f061055c366004611f4a565b60cf6020526000908152604090205481565b34801561057a57600080fd5b506102126105893660046120b1565b610df3565b34801561059a57600080fd5b506102126105a9366004611f4a565b610e25565b3480156105ba57600080fd5b5061025e6105c9366004611f4a565b610eab565b6102126105dc366004612110565b610f1f565b6102126105ef366004612174565b61120f565b34801561060057600080fd5b5061021261060f366004611fe5565b61139c565b34801561062057600080fd5b5061021261062f3660046121ff565b6113c6565b34801561064057600080fd5b5061023461064f366004612240565b6001600160a01b039182166000908152606a6020908152604080832093909416825291909152205460ff1690565b34801561068957600080fd5b5061021261069836600461226e565b6113db565b3480156106a957600080fd5b506106d66106b8366004611f4a565b600090815260d060205260409020549060a082901c9060a883901c90565b604080516001600160a01b03909416845260ff909216602084015290820152606001610240565b34801561070957600080fd5b5061072d610718366004611f4a565b600090815260cf602052604090205460c01c90565b60405160ff9091168152602001610240565b34801561074b57600080fd5b5061021261075a366004611fe5565b611401565b60c9546001600160a01b0316331461077657600080fd5b61ffff8416600090815260cb602052604090208054610794906122c0565b905083511480156107d3575061ffff8416600090815260cb60205260409081902090516107c191906122fa565b60405180910390208380519060200120145b6108415760405162461bcd60e51b815260206004820152603460248201527f4e6f6e626c6f636b696e6752656365697665723a20696e76616c696420736f756044820152731c98d9481cd95b991a5b99c818dbdb9d1c9858dd60621b60648201526084015b60405180910390fd5b604051630e1bd41160e11b81523090631c37a8229061086a908790879087908790600401612370565b600060405180830381600087803b15801561088457600080fd5b505af1925050508015610895575060015b61095357604051806040016040528082518152602001828051906020012081525060ca60008661ffff1661ffff168152602001908152602001600020846040516108df91906123b9565b9081526040805191829003602090810183206001600160401b038716600090815290825291909120835181559201516001909201919091557fe6f254030bcb01ffd20558175c13fcaed6d1520be7becee4c961b65f79243b0d9061094a908690869086908690612370565b60405180910390a15b50505050565b60006001600160e01b031982166380ac58cd60e01b148061098a57506001600160e01b03198216635b5e139f60e01b145b806109a557506301ffc9a760e01b6001600160e01b03198316145b92915050565b6060606580546109ba906122c0565b80601f01602080910402602001604051908101604052809291908181526020018280546109e6906122c0565b8015610a335780601f10610a0857610100808354040283529160200191610a33565b820191906000526020600020905b815481529060010190602001808311610a1657829003601f168201915b5050505050905090565b6000610a488261147a565b506000908152606960205260409020546001600160a01b031690565b6000610a6f82610c34565b9050806001600160a01b0316836001600160a01b031603610adc5760405162461bcd60e51b815260206004820152602160248201527f4552433732313a20617070726f76616c20746f2063757272656e74206f776e656044820152603960f91b6064820152608401610838565b336001600160a01b0382161480610af85750610af8813361064f565b610b6a5760405162461bcd60e51b815260206004820152603d60248201527f4552433732313a20617070726f76652063616c6c6572206973206e6f7420746f60448201527f6b656e206f776e6572206f7220617070726f76656420666f7220616c6c0000006064820152608401610838565b610b7483836114d9565b505050565b333014610bdc5760405162461bcd60e51b815260206004820152602b60248201527f4e6f6e626c6f636b696e6752656365697665723a2063616c6c6572206d75737460448201526a10313290213934b233b29760a91b6064820152608401610838565b61095384848484611547565b610bf233826115b7565b610c0e5760405162461bcd60e51b8152600401610838906123d5565b610b74838383611636565b610b7483838360405180602001604052806000815250610df3565b6000818152606760205260408120546001600160a01b0316806109a55760405162461bcd60e51b8152602060048201526018602482015277115490cdcc8c4e881a5b9d985b1a59081d1bdad95b88125160421b6044820152606401610838565b60006001600160a01b038216610cfe5760405162461bcd60e51b815260206004820152602960248201527f4552433732313a2061646472657373207a65726f206973206e6f7420612076616044820152683634b21037bbb732b960b91b6064820152608401610838565b506001600160a01b031660009081526068602052604090205490565b610d2261179a565b610d2c60006117f4565b565b60cb6020526000908152604090208054610d47906122c0565b80601f0160208091040260200160405190810160405280929190818152602001828054610d73906122c0565b8015610dc05780601f10610d9557610100808354040283529160200191610dc0565b820191906000526020600020905b815481529060010190602001808311610da357829003601f168201915b505050505081565b610dd061179a565b60cc55565b6060606680546109ba906122c0565b610def338383611846565b5050565b610dfd33836115b7565b610e195760405162461bcd60e51b8152600401610838906123d5565b61095384848484611914565b610e2d61179a565b600081815260d060205260408120549060ff60a083901c169003610e895760405162461bcd60e51b81526020600482015260136024820152721d1bdad95b881a5cc81b9bdd081b1bd8dad959606a1b6044820152606401610838565b610e9530600042611947565b600092835260d060205260409092209190915550565b6060610eb68261147a565b6000610ecd60408051602081019091526000815290565b90506000815111610eed5760405180602001604052806000815250610f18565b80610ef78461196a565b604051602001610f08929190612422565b6040516020818303038152906040525b9392505050565b338181610f2b82610c34565b6001600160a01b031614610f745760405162461bcd60e51b815260206004820152601060248201526f1ade5bd9185a481b9bdd081bdddb995960821b6044820152606401610838565b600083815260d0602052604090205460a01c60ff1615610fa757604051635a8181f760e01b815260040160405180910390fd5b61ffff8416600090815260cb602052604081208054610fc5906122c0565b80601f0160208091040260200160405190810160405280929190818152602001828054610ff1906122c0565b801561103e5780601f106110135761010080835404028352916020019161103e565b820191906000526020600020905b81548152906001019060200180831161102157829003601f168201915b5050505050905080516000036110675760405163ac6b05f560e01b815260040160405180910390fd5b60c95461107f906001600160a01b0316600142611947565b600085815260d0602090815260408083209390935560cf8152828220548351339281019290925292810187905260608101929092529060800160408051601f198184030181529082905260cc54600160f01b60208401526022830152915060019060009060420160408051601f198184030181529082905260c95463040a7bb160e41b83529092506000916001600160a01b03909116906340a7bb1090611132908c903090899087908990600401612451565b6040805180830381865afa15801561114e573d6000803e3d6000fd5b505050506040513d601f19601f8201168201806040525081019061117291906124a5565b50905080341015611196576040516369dd640160e01b815260040160405180910390fd5b60c95460405162c5803160e81b81526001600160a01b039091169063c58031009034906111d2908d908a908a9033906000908b906004016124c9565b6000604051808303818588803b1580156111eb57600080fd5b505af11580156111ff573d6000803e3d6000fd5b5050505050505050505050505050565b61ffff8516600090815260ca602052604080822090516112309087906123b9565b90815260408051602092819003830190206001600160401b03871660009081529252902060018101549091506112b75760405162461bcd60e51b815260206004820152602660248201527f4e6f6e626c6f636b696e6752656365697665723a206e6f2073746f726564206d60448201526565737361676560d01b6064820152608401610838565b8054821480156112e15750806001015483836040516112d7929190612530565b6040518091039020145b61132d5760405162461bcd60e51b815260206004820152601a60248201527f4c617965725a65726f3a20696e76616c6964207061796c6f61640000000000006044820152606401610838565b60008082556001820155604051630e1bd41160e11b81523090631c37a822906113629089908990899089908990600401612540565b600060405180830381600087803b15801561137c57600080fd5b505af1158015611390573d6000803e3d6000fd5b50505050505050505050565b6113a461179a565b60c980546001600160a01b0319166001600160a01b0392909216919091179055565b6113ce61179a565b60cd610b748284836125ef565b6113e361179a565b61ffff8316600090815260cb602052604090206109538284836125ef565b61140961179a565b6001600160a01b03811661146e5760405162461bcd60e51b815260206004820152602660248201527f4f776e61626c653a206e6577206f776e657220697320746865207a65726f206160448201526564647265737360d01b6064820152608401610838565b611477816117f4565b50565b6000818152606760205260409020546001600160a01b03166114775760405162461bcd60e51b8152602060048201526018602482015277115490cdcc8c4e881a5b9d985b1a59081d1bdad95b88125160421b6044820152606401610838565b600081815260696020526040902080546001600160a01b0319166001600160a01b038416908117909155819061150e82610c34565b6001600160a01b03167f8c5be1e5ebec7d5bd14f71427d1e84f3dd0314c0f7b2291e5b200ac8c7c3b92560405160405180910390a45050565b60008060008380602001905181019061156091906126af565b92509250925061157230600042611947565b600083815260d0602090815260408083209390935560cf81528282208490556067905220546001600160a01b03166115ae576115ae83836119fc565b50505050505050565b6000806115c383610c34565b9050806001600160a01b0316846001600160a01b0316148061160a57506001600160a01b038082166000908152606a602090815260408083209388168352929052205460ff165b8061162e5750836001600160a01b031661162384610a3d565b6001600160a01b0316145b949350505050565b826001600160a01b031661164982610c34565b6001600160a01b03161461166f5760405162461bcd60e51b8152600401610838906126e6565b6001600160a01b0382166116d15760405162461bcd60e51b8152602060048201526024808201527f4552433732313a207472616e7366657220746f20746865207a65726f206164646044820152637265737360e01b6064820152608401610838565b826001600160a01b03166116e482610c34565b6001600160a01b03161461170a5760405162461bcd60e51b8152600401610838906126e6565b600081815260696020908152604080832080546001600160a01b03199081169091556001600160a01b0387811680865260688552838620805460001901905590871680865283862080546001019055868652606790945282852080549092168417909155905184937fddf252ad1be2c89b69c2b068fc378daa952ba7f163c4a11628f55a4df523b3ef91a4505050565b6097546001600160a01b03163314610d2c5760405162461bcd60e51b815260206004820181905260248201527f4f776e61626c653a2063616c6c6572206973206e6f7420746865206f776e65726044820152606401610838565b609780546001600160a01b038381166001600160a01b0319831681179093556040519116919082907f8be0079c531659141344cd1fd0a4f28419497f9722a3daafe3b4186f6b6457e090600090a35050565b816001600160a01b0316836001600160a01b0316036118a75760405162461bcd60e51b815260206004820152601960248201527f4552433732313a20617070726f766520746f2063616c6c6572000000000000006044820152606401610838565b6001600160a01b038381166000818152606a6020908152604080832094871680845294825291829020805460ff191686151590811790915591519182527f17307eab39ab6107e8899845ad3d59bd9653f200f220920489ca2b5937696c31910160405180910390a3505050565b61191f848484611636565b61192b84848484611b87565b6109535760405162461bcd60e51b81526004016108389061272b565b6001600160a01b039290921660a09190911b60ff60a01b161760a89190911b1790565b6060600061197783611c88565b60010190506000816001600160401b0381111561199657611996611d77565b6040519080825280601f01601f1916602001820160405280156119c0576020820181803683370190505b5090508181016020015b600019016f181899199a1a9b1b9c1cb0b131b232b360811b600a86061a8153600a85049450846119ca57509392505050565b6001600160a01b038216611a525760405162461bcd60e51b815260206004820181905260248201527f4552433732313a206d696e7420746f20746865207a65726f20616464726573736044820152606401610838565b6000818152606760205260409020546001600160a01b031615611ab75760405162461bcd60e51b815260206004820152601c60248201527f4552433732313a20746f6b656e20616c7265616479206d696e746564000000006044820152606401610838565b6000818152606760205260409020546001600160a01b031615611b1c5760405162461bcd60e51b815260206004820152601c60248201527f4552433732313a20746f6b656e20616c7265616479206d696e746564000000006044820152606401610838565b6001600160a01b038216600081815260686020908152604080832080546001019055848352606790915280822080546001600160a01b0319168417905551839291907fddf252ad1be2c89b69c2b068fc378daa952ba7f163c4a11628f55a4df523b3ef908290a45050565b60006001600160a01b0384163b15611c7d57604051630a85bd0160e11b81526001600160a01b0385169063150b7a0290611bcb90339089908890889060040161277d565b6020604051808303816000875af1925050508015611c06575060408051601f3d908101601f19168201909252611c03918101906127ba565b60015b611c63573d808015611c34576040519150601f19603f3d011682016040523d82523d6000602084013e611c39565b606091505b508051600003611c5b5760405162461bcd60e51b81526004016108389061272b565b805181602001fd5b6001600160e01b031916630a85bd0160e11b14905061162e565b506001949350505050565b60008072184f03e93ff9f4daa797ed6e38ed64bf6a1f0160401b8310611cc75772184f03e93ff9f4daa797ed6e38ed64bf6a1f0160401b830492506040015b6d04ee2d6d415b85acef81000000008310611cf3576d04ee2d6d415b85acef8100000000830492506020015b662386f26fc100008310611d1157662386f26fc10000830492506010015b6305f5e1008310611d29576305f5e100830492506008015b6127108310611d3d57612710830492506004015b60648310611d4f576064830492506002015b600a83106109a55760010192915050565b803561ffff81168114611d7257600080fd5b919050565b634e487b7160e01b600052604160045260246000fd5b600082601f830112611d9e57600080fd5b81356001600160401b0380821115611db857611db8611d77565b604051601f8301601f19908116603f01168101908282118183101715611de057611de0611d77565b81604052838152866020858801011115611df957600080fd5b836020870160208301376000602085830101528094505050505092915050565b80356001600160401b0381168114611d7257600080fd5b60008060008060808587031215611e4657600080fd5b611e4f85611d60565b935060208501356001600160401b0380821115611e6b57600080fd5b611e7788838901611d8d565b9450611e8560408801611e19565b93506060870135915080821115611e9b57600080fd5b50611ea887828801611d8d565b91505092959194509250565b6001600160e01b03198116811461147757600080fd5b600060208284031215611edc57600080fd5b8135610f1881611eb4565b60005b83811015611f02578181015183820152602001611eea565b50506000910152565b60008151808452611f23816020860160208601611ee7565b601f01601f19169290920160200192915050565b602081526000610f186020830184611f0b565b600060208284031215611f5c57600080fd5b5035919050565b6001600160a01b038116811461147757600080fd5b60008060408385031215611f8b57600080fd5b8235611f9681611f63565b946020939093013593505050565b600080600060608486031215611fb957600080fd5b8335611fc481611f63565b92506020840135611fd481611f63565b929592945050506040919091013590565b600060208284031215611ff757600080fd5b8135610f1881611f63565b60006020828403121561201457600080fd5b610f1882611d60565b60008060006060848603121561203257600080fd5b61203b84611d60565b925060208401356001600160401b0381111561205657600080fd5b61206286828701611d8d565b925050604084013590509250925092565b6000806040838503121561208657600080fd5b823561209181611f63565b9150602083013580151581146120a657600080fd5b809150509250929050565b600080600080608085870312156120c757600080fd5b84356120d281611f63565b935060208501356120e281611f63565b92506040850135915060608501356001600160401b0381111561210457600080fd5b611ea887828801611d8d565b6000806040838503121561212357600080fd5b611f9683611d60565b60008083601f84011261213e57600080fd5b5081356001600160401b0381111561215557600080fd5b60208301915083602082850101111561216d57600080fd5b9250929050565b60008060008060006080868803121561218c57600080fd5b61219586611d60565b945060208601356001600160401b03808211156121b157600080fd5b6121bd89838a01611d8d565b95506121cb60408901611e19565b945060608801359150808211156121e157600080fd5b506121ee8882890161212c565b969995985093965092949392505050565b6000806020838503121561221257600080fd5b82356001600160401b0381111561222857600080fd5b6122348582860161212c565b90969095509350505050565b6000806040838503121561225357600080fd5b823561225e81611f63565b915060208301356120a681611f63565b60008060006040848603121561228357600080fd5b61228c84611d60565b925060208401356001600160401b038111156122a757600080fd5b6122b38682870161212c565b9497909650939450505050565b600181811c908216806122d457607f821691505b6020821081036122f457634e487b7160e01b600052602260045260246000fd5b50919050565b6000808354612308816122c0565b60018281168015612320576001811461233557612364565b60ff1984168752821515830287019450612364565b8760005260208060002060005b8581101561235b5781548a820152908401908201612342565b50505082870194505b50929695505050505050565b61ffff8516815260806020820152600061238d6080830186611f0b565b6001600160401b038516604084015282810360608401526123ae8185611f0b565b979650505050505050565b600082516123cb818460208701611ee7565b9190910192915050565b6020808252602d908201527f4552433732313a2063616c6c6572206973206e6f7420746f6b656e206f776e6560408201526c1c881bdc88185c1c1c9bdd9959609a1b606082015260800190565b60008351612434818460208801611ee7565b835190830190612448818360208801611ee7565b01949350505050565b61ffff861681526001600160a01b038516602082015260a06040820181905260009061247f90830186611f0b565b841515606084015282810360808401526124998185611f0b565b98975050505050505050565b600080604083850312156124b857600080fd5b505080516020909101519092909150565b61ffff8716815260c0602082015260006124e660c0830188611f0b565b82810360408401526124f88188611f0b565b6001600160a01b0387811660608601528616608085015283810360a085015290506125238185611f0b565b9998505050505050505050565b8183823760009101908152919050565b61ffff8616815260806020820152600061255d6080830187611f0b565b6001600160401b03861660408401528281036060840152838152838560208301376000602085830101526020601f19601f8601168201019150509695505050505050565b601f821115610b7457600081815260208120601f850160051c810160208610156125c85750805b601f850160051c820191505b818110156125e7578281556001016125d4565b505050505050565b6001600160401b0383111561260657612606611d77565b61261a8361261483546122c0565b836125a1565b6000601f84116001811461264e57600085156126365750838201355b600019600387901b1c1916600186901b1783556126a8565b600083815260209020601f19861690835b8281101561267f578685013582556020948501946001909201910161265f565b508682101561269c5760001960f88860031b161c19848701351681555b505060018560011b0183555b5050505050565b6000806000606084860312156126c457600080fd5b83516126cf81611f63565b602085015160409095015190969495509392505050565b60208082526025908201527f4552433732313a207472616e736665722066726f6d20696e636f72726563742060408201526437bbb732b960d91b606082015260800190565b60208082526032908201527f4552433732313a207472616e7366657220746f206e6f6e20455243373231526560408201527131b2b4bb32b91034b6b83632b6b2b73a32b960711b606082015260800190565b6001600160a01b03858116825284166020820152604081018390526080606082018190526000906127b090830184611f0b565b9695505050505050565b6000602082840312156127cc57600080fd5b8151610f1881611eb456fea2646970667358221220647e96dcbe6fb89e8d55d58c6bb68311f2f886b27d69bd9d271db70803448dbe64736f6c63430008120033",
  "linkReferences": {},
  "deployedLinkReferences": {}
}