{
  "_format": "hh-sol-artifact-1",
  "contractName": "TraitGenPoly",
  "sourceName": "contracts/polygon/TraitGenPoly.sol",
  "abi": [
    {
      "inputs": [
        {
          "internalType": "address",
          "name": "kyodaiAddy",
          "type": "address"
        },
        {
          "internalType": "address",
          "name": "shateiAddy",
          "type": "address"
        },
        {
          "internalType": "address",
          "name": "gameOracleAddy",
          "type": "address"
        }
      ],
      "stateMutability": "nonpayable",
      "type": "constructor"
    },
    {
      "inputs": [],
      "name": "UnauthorizedAddress",
      "type": "error"
    },
    {
      "anonymous": false,
      "inputs": [
        {
          "indexed": true,
          "internalType": "address",
          "name": "previousOwner",
          "type": "address"
        },
        {
          "indexed": true,
          "internalType": "address",
          "name": "newOwner",
          "type": "address"
        }
      ],
      "name": "OwnershipTransferred",
      "type": "event"
    },
    {
      "inputs": [
        {
          "internalType": "uint256",
          "name": "tokenId",
          "type": "uint256"
        },
        {
          "internalType": "uint256",
          "name": "_alliance",
          "type": "uint256"
        }
      ],
      "name": "genKyodaiHash",
      "outputs": [
        {
          "internalType": "uint256",
          "name": "traitHash",
          "type": "uint256"
        }
      ],
      "stateMutability": "nonpayable",
      "type": "function"
    },
    {
      "inputs": [
        {
          "internalType": "uint256",
          "name": "tokenId",
          "type": "uint256"
        },
        {
          "internalType": "uint256",
          "name": "_alliance",
          "type": "uint256"
        }
      ],
      "name": "genShateiHash",
      "outputs": [
        {
          "internalType": "uint256",
          "name": "traitHash",
          "type": "uint256"
        }
      ],
      "stateMutability": "nonpayable",
      "type": "function"
    },
    {
      "inputs": [
        {
          "internalType": "uint256",
          "name": "",
          "type": "uint256"
        },
        {
          "internalType": "uint256",
          "name": "",
          "type": "uint256"
        }
      ],
      "name": "kyodaiAliases",
      "outputs": [
        {
          "internalType": "uint8",
          "name": "",
          "type": "uint8"
        }
      ],
      "stateMutability": "view",
      "type": "function"
    },
    {
      "inputs": [
        {
          "internalType": "uint256",
          "name": "",
          "type": "uint256"
        },
        {
          "internalType": "uint256",
          "name": "",
          "type": "uint256"
        }
      ],
      "name": "kyodaiRarities",
      "outputs": [
        {
          "internalType": "uint8",
          "name": "",
          "type": "uint8"
        }
      ],
      "stateMutability": "view",
      "type": "function"
    },
    {
      "inputs": [
        {
          "internalType": "uint256",
          "name": "",
          "type": "uint256"
        }
      ],
      "name": "officialAddys",
      "outputs": [
        {
          "internalType": "address",
          "name": "",
          "type": "address"
        }
      ],
      "stateMutability": "view",
      "type": "function"
    },
    {
      "inputs": [],
      "name": "owner",
      "outputs": [
        {
          "internalType": "address",
          "name": "",
          "type": "address"
        }
      ],
      "stateMutability": "view",
      "type": "function"
    },
    {
      "inputs": [],
      "name": "renounceOwnership",
      "outputs": [],
      "stateMutability": "nonpayable",
      "type": "function"
    },
    {
      "inputs": [
        {
          "internalType": "uint256",
          "name": "index",
          "type": "uint256"
        },
        {
          "internalType": "address",
          "name": "newAddy",
          "type": "address"
        }
      ],
      "name": "setNewAddy",
      "outputs": [],
      "stateMutability": "nonpayable",
      "type": "function"
    },
    {
      "inputs": [
        {
          "internalType": "uint256",
          "name": "",
          "type": "uint256"
        },
        {
          "internalType": "uint256",
          "name": "",
          "type": "uint256"
        }
      ],
      "name": "shateiAliases",
      "outputs": [
        {
          "internalType": "uint8",
          "name": "",
          "type": "uint8"
        }
      ],
      "stateMutability": "view",
      "type": "function"
    },
    {
      "inputs": [
        {
          "internalType": "uint256",
          "name": "",
          "type": "uint256"
        },
        {
          "internalType": "uint256",
          "name": "",
          "type": "uint256"
        }
      ],
      "name": "shateiRarities",
      "outputs": [
        {
          "internalType": "uint8",
          "name": "",
          "type": "uint8"
        }
      ],
      "stateMutability": "view",
      "type": "function"
    },
    {
      "inputs": [
        {
          "internalType": "uint256",
          "name": "",
          "type": "uint256"
        }
      ],
      "name": "tokenTraits",
      "outputs": [
        {
          "internalType": "uint256",
          "name": "",
          "type": "uint256"
        }
      ],
      "stateMutability": "view",
      "type": "function"
    },
    {
      "inputs": [
        {
          "internalType": "address",
          "name": "newOwner",
          "type": "address"
        }
      ],
      "name": "transferOwnership",
      "outputs": [],
      "stateMutability": "nonpayable",
      "type": "function"
    }
  ],
  "bytecode": "0x60806040523480156200001157600080fd5b50604051620014bd380380620014bd8339810160408190526200003491620007e8565b6200003f336200068e565b600160209081527fa6eef7e35abe7026729641147f7915573c7e97b47efa546f5f6e3230263bcb4980546001600160a01b038087166001600160a01b0319928316179092557fcc69885fda6bcc1a4ace058b4a62bf5e179ea78fd58a1ccd71c22cc9b688792f8054868416908316179055600260009081527fd9d16d34ffb15ba3a3d852f0d403e2ce1d691fb54de27ac87cd2f993f3ec330f805493861693909216929092179055620000ff916004919062000572620006de821b17901c565b6200011b60006005620006de60201b620005721790919060201c565b604080516102808101825260be815260d7602082015260f0918101829052606460608201819052606e6080830152608760a08084019190915260c083015260b960e08301526050610100830181905260d261012084015260eb61014084015261016083019390935261018082018390526101a08201929092526101c081018290526101e0810182905261020081019190915260f561022082015260fa61024082015260ff610260820152620001d590600790601462000707565b5060408051610280810182526001815260026020820152600491810182905260006060820181905260056080830152600660a0830152600760c0830152600960e08301526101008201819052600a610120830152600b6101408301819052601161016084015261018083018290526101a083018290526101c083018290526101e08301919091526102008201929092526012610220820152601361024082018190526102608201526200028b9190601462000707565b506040805160c08101825260ff8152601e6020820152603c918101829052606081019190915260966080820152609c60a0820152620002cf90600890600662000707565b506040805160c081018252600080825260208201819052918101829052606081018290526080810182905260a08101919091526200031290600c90600662000707565b50604080516103808101825260dd81526064602082015260b591810191909152608c6060820181905260e060808301819052609360a080850191909152605460c0850181905260e4838601526101008501849052610120850183905260fa61014086015261016085019190915260f161018085015260cf6101a085015260ad6101c08501526101e084015260fe61020084015260dc61022084015260c4610240840152610260830182905260a861028084015260fc6102a084018190526102c084019290925260b76102e084015260ec61030084015261032083019190915261034082015260ff6103608201526200040f90600990601c62000707565b50604080516103808101825260018082526002602083015260059282018390526000606083015260808201819052600760a083015260c0820152600a60e08201819052610100820192909252610120810191909152600b6101408201819052600c610160830152600d6101808301819052600e6101a0840181905260106101c08501526101e0840192909252601161020084018190526017610220850181905261024085018390526102608501939093526102808401526102a083018290526102c083019190915260186102e0830152601b6103008301819052610320830181905261034083018190526103608301526200050c91601c62000707565b506040805160a08101825260ff80825260bf60208301819052928201526060810182905260808101919091526200054890600a90600562000707565b506040805160a0810182526000808252600160208301529181018290526060810191909152600260808201526200058490600e90600562000707565b50604080516020810190915260ff8152620005a490600f90600162000707565b50604080516020810190915260008152620005c490601390600162000707565b50604080516020810190915260ff8152620005e490601090600162000707565b506040805160208101909152600081526200060490601490600162000707565b50604080516020810190915260ff81526200062490601190600162000707565b506040805160208101909152600081526200064490601590600162000707565b50604080516020810190915260ff81526200066490601290600162000707565b506040805160208101909152600081526200068490601690600162000707565b5050505062000832565b600080546001600160a01b038381166001600160a01b0319831681178455604051919092169283917f8be0079c531659141344cd1fd0a4f28419497f9722a3daafe3b4186f6b6457e09190a35050565b600881901c600090815260209290925260409091208054600160ff9093169290921b9091179055565b82805482825590600052602060002090601f01602090048101928215620007a25791602002820160005b838211156200077157835183826101000a81548160ff021916908360ff160217905550926020019260010160208160000104928301926001030262000731565b8015620007a05782816101000a81549060ff021916905560010160208160000104928301926001030262000771565b505b50620007b0929150620007b4565b5090565b5b80821115620007b05760008155600101620007b5565b80516001600160a01b0381168114620007e357600080fd5b919050565b600080600060608486031215620007fe57600080fd5b6200080984620007cb565b92506200081960208501620007cb565b91506200082960408501620007cb565b90509250925092565b610c7b80620008426000396000f3fe608060405234801561001057600080fd5b50600436106100b45760003560e01c80638da5cb5b116100715780638da5cb5b146101755780638e17b438146101865780639c9d2ff514610199578063cacc420f146101ac578063e05c57bf146101bf578063f2fde38b146101df57600080fd5b80631c5be6b0146100b95780632d6436ae146100e35780633132aba414610104578063493c297c14610145578063715018a61461015857806387558c0d14610162575b600080fd5b6100cc6100c7366004610aad565b6101f2565b60405160ff90911681526020015b60405180910390f35b6100f66100f1366004610aad565b610238565b6040519081526020016100da565b61012d610112366004610acf565b6001602052600090815260409020546001600160a01b031681565b6040516001600160a01b0390911681526020016100da565b6100cc610153366004610aad565b610360565b610160610370565b005b6100f6610170366004610aad565b610384565b6000546001600160a01b031661012d565b6100cc610194366004610aad565b6104a3565b6100cc6101a7366004610aad565b6104b3565b6101606101ba366004610b04565b6104c3565b6100f66101cd366004610acf565b60026020526000908152604090205481565b6101606101ed366004610b30565b6104f9565b6007826004811061020257600080fd5b01818154811061021157600080fd5b9060005260206000209060209182820401919006915091509054906101000a900460ff1681565b600080805260016020527fa6eef7e35abe7026729641147f7915573c7e97b47efa546f5f6e3230263bcb49546001600160a01b031633146102b75760405162461bcd60e51b8152602060048201526014602482015273756e617574686f72697a6564206164647265737360601b60448201526064015b60405180910390fd5b600260005260016020527fd9d16d34ffb15ba3a3d852f0d403e2ce1d691fb54de27ac87cd2f993f3ec330f54604051633352da4560e21b815260048101859052610359916001600160a01b03169063cd4b6914906024016020604051808303816000875af115801561032d573d6000803e3d6000fd5b505050506040513d601f19601f820116820180604052508101906103519190610b4b565b60008461059b565b9392505050565b600b826004811061020257600080fd5b610378610730565b610382600061078a565b565b600160008181526020919091527fcc69885fda6bcc1a4ace058b4a62bf5e179ea78fd58a1ccd71c22cc9b688792f546001600160a01b031633146104015760405162461bcd60e51b8152602060048201526014602482015273756e617574686f72697a6564206164647265737360601b60448201526064016102ae565b600260005260016020527fd9d16d34ffb15ba3a3d852f0d403e2ce1d691fb54de27ac87cd2f993f3ec330f54604051633352da4560e21b815260048101859052610359916001600160a01b03169063cd4b6914906024016020604051808303816000875af1158015610477573d6000803e3d6000fd5b505050506040513d601f19601f8201168201806040525081019061049b9190610b4b565b6000846107da565b600f826004811061020257600080fd5b6013826004811061020257600080fd5b6104cb610730565b60009182526001602052604090912080546001600160a01b0319166001600160a01b03909216919091179055565b610501610730565b6001600160a01b0381166105665760405162461bcd60e51b815260206004820152602660248201527f4f776e61626c653a206e6577206f776e657220697320746865207a65726f206160448201526564647265737360d01b60648201526084016102ae565b61056f8161078a565b50565b600881901c600090815260209290925260409091208054600160ff9093169290921b9091179055565b6000600a83106105aa57600080fd5b6040805160208082018790524282840152606080830187905283518084039091018152608090920190925280519101206105e661029a82610b7a565b6000036106165760006105fa600a83610b7a565b90506106076004826108cd565b6106145791506103599050565b505b60005b60048160ff161015610699576003805490600061063583610ba4565b909155506106469050816004610bbd565b610651906008610bd6565b60ff1661068a610662836020610bd6565b60ff1684901c610673846001610bbd565b61067e906020610bd6565b60ff1685901c846108f2565b901b9290921791600101610619565b506106a56004836108cd565b156106c7576106bf856106b9866001610bf9565b8561059b565b915050610359565b6106d2600483610572565b9082179060086106ec8163ffffffff60a085901c16610b7a565b901b9190911790601061070a600363ffffffff60c085901c16610b7a565b901b91909117906018610722600860e084901c610b7a565b901b82179150509392505050565b6000546001600160a01b031633146103825760405162461bcd60e51b815260206004820181905260248201527f4f776e61626c653a2063616c6c6572206973206e6f7420746865206f776e657260448201526064016102ae565b600080546001600160a01b038381166001600160a01b0319831681178455604051919092169283917f8be0079c531659141344cd1fd0a4f28419497f9722a3daafe3b4186f6b6457e09190a35050565b6000600a83106107e957600080fd5b60408051602080820187905242828401526060808301879052835180840390910181526080909201909252805191012060005b60048160ff16101561089c576003805490600061083883610ba4565b909155506108499050816004610bbd565b610854906008610bd6565b60ff1661088d610865836020610bd6565b60ff1684901c610876846001610bbd565b610881906020610bd6565b60ff1685901c846109dc565b901b929092179160010161081c565b506108a86005836108cd565b156108c2576106bf856108bc866001610bf9565b856107da565b6106d2600583610572565b600881901c600090815260208390526040902054600160ff83161b1615155b92915050565b60008060078360ff166004811061090b5761090b610c0c565b0180549091506109219063ffffffff8716610b7a565b915080828154811061093557610935610c0c565b90600052602060002090602091828204019190069054906101000a900460ff1660ff16610100856109669190610c22565b63ffffffff1611156109bd57600b8360ff166004811061098857610988610c0c565b01828154811061099a5761099a610c0c565b60009182526020918290209181049091015460ff601f9092166101000a90041691505b8260ff166003036109d4576109d182610ba4565b91505b509392505050565b600080600f8360ff16600481106109f5576109f5610c0c565b018054909150610a0b9063ffffffff8716610b7a565b9150808281548110610a1f57610a1f610c0c565b90600052602060002090602091828204019190069054906101000a900460ff1660ff1661010085610a509190610c22565b63ffffffff1611156109d45760138360ff1660048110610a7257610a72610c0c565b018281548110610a8457610a84610c0c565b600091825260209182902091810490910154601f9091166101000a900460ff1695945050505050565b60008060408385031215610ac057600080fd5b50508035926020909101359150565b600060208284031215610ae157600080fd5b5035919050565b80356001600160a01b0381168114610aff57600080fd5b919050565b60008060408385031215610b1757600080fd5b82359150610b2760208401610ae8565b90509250929050565b600060208284031215610b4257600080fd5b61035982610ae8565b600060208284031215610b5d57600080fd5b5051919050565b634e487b7160e01b600052601260045260246000fd5b600082610b8957610b89610b64565b500690565b634e487b7160e01b600052601160045260246000fd5b600060018201610bb657610bb6610b8e565b5060010190565b60ff81811683821601908111156108ec576108ec610b8e565b60ff8181168382160290811690818114610bf257610bf2610b8e565b5092915050565b808201808211156108ec576108ec610b8e565b634e487b7160e01b600052603260045260246000fd5b600063ffffffff80841680610c3957610c39610b64565b9216919091069291505056fea264697066735822122043572b2bb22e6de61723b6ac94ad2e8fcbcb9c9038d9028b34b5e600841bb34064736f6c63430008120033",
  "linkReferences": {},
  "deployedLinkReferences": {}
}