{
  "_format": "hh-sol-artifact-1",
  "contractName": "Underworld",
  "sourceName": "contracts/polygon/Underworld_AutoBattle.sol",
  "abi": [
    {
      "inputs": [],
      "name": "GameNotStarted",
      "type": "error"
    },
    {
      "inputs": [],
      "name": "InvalidAction",
      "type": "error"
    },
    {
      "inputs": [],
      "name": "InvalidTarget",
      "type": "error"
    },
    {
      "inputs": [],
      "name": "TokenNotOwned",
      "type": "error"
    },
    {
      "inputs": [],
      "name": "UnauthorizedAddress",
      "type": "error"
    },
    {
      "anonymous": false,
      "inputs": [
        {
          "indexed": false,
          "internalType": "address",
          "name": "previousAdmin",
          "type": "address"
        },
        {
          "indexed": false,
          "internalType": "address",
          "name": "newAdmin",
          "type": "address"
        }
      ],
      "name": "AdminChanged",
      "type": "event"
    },
    {
      "anonymous": false,
      "inputs": [
        {
          "indexed": true,
          "internalType": "uint256",
          "name": "tokenId",
          "type": "uint256"
        },
        {
          "indexed": true,
          "internalType": "uint256",
          "name": "targetId",
          "type": "uint256"
        },
        {
          "indexed": false,
          "internalType": "uint256",
          "name": "currentScore",
          "type": "uint256"
        }
      ],
      "name": "Battle",
      "type": "event"
    },
    {
      "anonymous": false,
      "inputs": [
        {
          "indexed": true,
          "internalType": "address",
          "name": "beacon",
          "type": "address"
        }
      ],
      "name": "BeaconUpgraded",
      "type": "event"
    },
    {
      "anonymous": false,
      "inputs": [
        {
          "indexed": true,
          "internalType": "uint256",
          "name": "tokenId",
          "type": "uint256"
        },
        {
          "indexed": true,
          "internalType": "uint256",
          "name": "result",
          "type": "uint256"
        },
        {
          "indexed": false,
          "internalType": "uint256",
          "name": "yenAmount",
          "type": "uint256"
        }
      ],
      "name": "Claimed",
      "type": "event"
    },
    {
      "anonymous": false,
      "inputs": [
        {
          "indexed": false,
          "internalType": "uint8",
          "name": "version",
          "type": "uint8"
        }
      ],
      "name": "Initialized",
      "type": "event"
    },
    {
      "anonymous": false,
      "inputs": [
        {
          "indexed": true,
          "internalType": "address",
          "name": "previousOwner",
          "type": "address"
        },
        {
          "indexed": true,
          "internalType": "address",
          "name": "newOwner",
          "type": "address"
        }
      ],
      "name": "OwnershipTransferred",
      "type": "event"
    },
    {
      "anonymous": false,
      "inputs": [
        {
          "indexed": true,
          "internalType": "address",
          "name": "implementation",
          "type": "address"
        }
      ],
      "name": "Upgraded",
      "type": "event"
    },
    {
      "anonymous": false,
      "inputs": [
        {
          "indexed": true,
          "internalType": "uint256",
          "name": "tokenId",
          "type": "uint256"
        },
        {
          "indexed": true,
          "internalType": "uint256",
          "name": "action",
          "type": "uint256"
        },
        {
          "indexed": true,
          "internalType": "uint256",
          "name": "tier",
          "type": "uint256"
        }
      ],
      "name": "UseItem",
      "type": "event"
    },
    {
      "inputs": [],
      "name": "PCT_DEN",
      "outputs": [
        {
          "internalType": "uint256",
          "name": "",
          "type": "uint256"
        }
      ],
      "stateMutability": "view",
      "type": "function"
    },
    {
      "inputs": [
        {
          "internalType": "uint256",
          "name": "tokenId",
          "type": "uint256"
        },
        {
          "internalType": "uint256",
          "name": "pinkieId",
          "type": "uint256"
        }
      ],
      "name": "bailOut",
      "outputs": [],
      "stateMutability": "nonpayable",
      "type": "function"
    },
    {
      "inputs": [
        {
          "internalType": "uint256",
          "name": "tokenId",
          "type": "uint256"
        },
        {
          "internalType": "uint256",
          "name": "targetId",
          "type": "uint256"
        }
      ],
      "name": "battle",
      "outputs": [],
      "stateMutability": "nonpayable",
      "type": "function"
    },
    {
      "inputs": [
        {
          "internalType": "uint256",
          "name": "",
          "type": "uint256"
        }
      ],
      "name": "battles",
      "outputs": [
        {
          "internalType": "uint256",
          "name": "",
          "type": "uint256"
        }
      ],
      "stateMutability": "view",
      "type": "function"
    },
    {
      "inputs": [
        {
          "internalType": "uint256",
          "name": "tokenId",
          "type": "uint256"
        }
      ],
      "name": "claimBattleResult",
      "outputs": [],
      "stateMutability": "nonpayable",
      "type": "function"
    },
    {
      "inputs": [
        {
          "internalType": "uint256",
          "name": "",
          "type": "uint256"
        }
      ],
      "name": "districts",
      "outputs": [
        {
          "internalType": "uint256",
          "name": "",
          "type": "uint256"
        }
      ],
      "stateMutability": "view",
      "type": "function"
    },
    {
      "inputs": [
        {
          "internalType": "uint256",
          "name": "tokenId",
          "type": "uint256"
        },
        {
          "internalType": "uint256",
          "name": "location",
          "type": "uint256"
        },
        {
          "internalType": "uint256",
          "name": "action",
          "type": "uint256"
        },
        {
          "internalType": "uint256",
          "name": "workDuration",
          "type": "uint256"
        }
      ],
      "name": "doAction",
      "outputs": [],
      "stateMutability": "nonpayable",
      "type": "function"
    },
    {
      "inputs": [
        {
          "internalType": "uint256[]",
          "name": "tokenIds",
          "type": "uint256[]"
        },
        {
          "internalType": "uint256",
          "name": "location",
          "type": "uint256"
        },
        {
          "internalType": "uint256",
          "name": "action",
          "type": "uint256"
        },
        {
          "internalType": "uint256",
          "name": "workDuration",
          "type": "uint256"
        }
      ],
      "name": "doActionMany",
      "outputs": [],
      "stateMutability": "nonpayable",
      "type": "function"
    },
    {
      "inputs": [],
      "name": "gameStart",
      "outputs": [
        {
          "internalType": "uint256",
          "name": "",
          "type": "uint256"
        }
      ],
      "stateMutability": "view",
      "type": "function"
    },
    {
      "inputs": [
        {
          "internalType": "uint256",
          "name": "",
          "type": "uint256"
        }
      ],
      "name": "gameStats",
      "outputs": [
        {
          "internalType": "uint256",
          "name": "",
          "type": "uint256"
        }
      ],
      "stateMutability": "view",
      "type": "function"
    },
    {
      "inputs": [
        {
          "internalType": "uint256",
          "name": "influence",
          "type": "uint256"
        }
      ],
      "name": "getDominatingAlliance",
      "outputs": [
        {
          "internalType": "uint256",
          "name": "alliance",
          "type": "uint256"
        }
      ],
      "stateMutability": "pure",
      "type": "function"
    },
    {
      "inputs": [
        {
          "internalType": "uint256",
          "name": "tokenId",
          "type": "uint256"
        }
      ],
      "name": "getGameStats",
      "outputs": [
        {
          "internalType": "uint24",
          "name": "",
          "type": "uint24"
        },
        {
          "internalType": "uint256",
          "name": "",
          "type": "uint256"
        },
        {
          "internalType": "uint256",
          "name": "",
          "type": "uint256"
        },
        {
          "internalType": "uint256",
          "name": "",
          "type": "uint256"
        },
        {
          "internalType": "uint32",
          "name": "",
          "type": "uint32"
        },
        {
          "internalType": "uint40",
          "name": "",
          "type": "uint40"
        },
        {
          "internalType": "uint40",
          "name": "",
          "type": "uint40"
        }
      ],
      "stateMutability": "view",
      "type": "function"
    },
    {
      "inputs": [
        {
          "internalType": "uint256",
          "name": "tokenId",
          "type": "uint256"
        }
      ],
      "name": "getPatriarch",
      "outputs": [
        {
          "internalType": "address",
          "name": "_patriarch",
          "type": "address"
        },
        {
          "internalType": "uint256",
          "name": "_alliance",
          "type": "uint256"
        }
      ],
      "stateMutability": "view",
      "type": "function"
    },
    {
      "inputs": [],
      "name": "init",
      "outputs": [],
      "stateMutability": "nonpayable",
      "type": "function"
    },
    {
      "inputs": [
        {
          "internalType": "uint256",
          "name": "",
          "type": "uint256"
        }
      ],
      "name": "officialAddys",
      "outputs": [
        {
          "internalType": "address",
          "name": "",
          "type": "address"
        }
      ],
      "stateMutability": "view",
      "type": "function"
    },
    {
      "inputs": [],
      "name": "owner",
      "outputs": [
        {
          "internalType": "address",
          "name": "",
          "type": "address"
        }
      ],
      "stateMutability": "view",
      "type": "function"
    },
    {
      "inputs": [
        {
          "internalType": "uint256",
          "name": "",
          "type": "uint256"
        }
      ],
      "name": "patriarchs",
      "outputs": [
        {
          "internalType": "uint256",
          "name": "",
          "type": "uint256"
        }
      ],
      "stateMutability": "view",
      "type": "function"
    },
    {
      "inputs": [],
      "name": "proxiableUUID",
      "outputs": [
        {
          "internalType": "bytes32",
          "name": "",
          "type": "bytes32"
        }
      ],
      "stateMutability": "view",
      "type": "function"
    },
    {
      "inputs": [
        {
          "internalType": "uint256",
          "name": "tokenId",
          "type": "uint256"
        },
        {
          "internalType": "uint256",
          "name": "pinkieId",
          "type": "uint256"
        }
      ],
      "name": "regenHp",
      "outputs": [],
      "stateMutability": "nonpayable",
      "type": "function"
    },
    {
      "inputs": [
        {
          "internalType": "uint256",
          "name": "tokenId",
          "type": "uint256"
        },
        {
          "internalType": "uint256",
          "name": "pinkieId",
          "type": "uint256"
        }
      ],
      "name": "regenImmunity",
      "outputs": [],
      "stateMutability": "nonpayable",
      "type": "function"
    },
    {
      "inputs": [],
      "name": "renounceOwnership",
      "outputs": [],
      "stateMutability": "nonpayable",
      "type": "function"
    },
    {
      "inputs": [
        {
          "internalType": "uint256",
          "name": "index",
          "type": "uint256"
        },
        {
          "internalType": "address",
          "name": "newAddy",
          "type": "address"
        }
      ],
      "name": "setNewAddy",
      "outputs": [],
      "stateMutability": "nonpayable",
      "type": "function"
    },
    {
      "inputs": [
        {
          "internalType": "uint256[]",
          "name": "tokenIds",
          "type": "uint256[]"
        },
        {
          "internalType": "uint256[]",
          "name": "kyodais",
          "type": "uint256[]"
        },
        {
          "internalType": "address",
          "name": "owner",
          "type": "address"
        },
        {
          "internalType": "uint256",
          "name": "location",
          "type": "uint256"
        },
        {
          "internalType": "uint256",
          "name": "action",
          "type": "uint256"
        }
      ],
      "name": "stakeMany",
      "outputs": [],
      "stateMutability": "nonpayable",
      "type": "function"
    },
    {
      "inputs": [
        {
          "internalType": "uint256",
          "name": "_gameStart",
          "type": "uint256"
        }
      ],
      "name": "toggleGame",
      "outputs": [],
      "stateMutability": "nonpayable",
      "type": "function"
    },
    {
      "inputs": [
        {
          "internalType": "address",
          "name": "newOwner",
          "type": "address"
        }
      ],
      "name": "transferOwnership",
      "outputs": [],
      "stateMutability": "nonpayable",
      "type": "function"
    },
    {
      "inputs": [
        {
          "internalType": "uint256",
          "name": "tokenId",
          "type": "uint256"
        }
      ],
      "name": "unstake",
      "outputs": [],
      "stateMutability": "nonpayable",
      "type": "function"
    },
    {
      "inputs": [
        {
          "internalType": "address",
          "name": "newImplementation",
          "type": "address"
        }
      ],
      "name": "upgradeTo",
      "outputs": [],
      "stateMutability": "nonpayable",
      "type": "function"
    },
    {
      "inputs": [
        {
          "internalType": "address",
          "name": "newImplementation",
          "type": "address"
        },
        {
          "internalType": "bytes",
          "name": "data",
          "type": "bytes"
        }
      ],
      "name": "upgradeToAndCall",
      "outputs": [],
      "stateMutability": "payable",
      "type": "function"
    }
  ],
  "bytecode": "0x60a06040523060805234801561001457600080fd5b50608051613c0761004c600039600081816111e801528181611228015281816113420152818161138201526114150152613c076000f3fe6080604052600436106101b75760003560e01c80637da3f547116100ec578063dcbee0661161008a578063e77995e011610064578063e77995e014610514578063f2fde38b14610541578063f463b6c614610561578063fdcdaeb41461058157600080fd5b8063dcbee0661461048d578063df1572b8146104df578063e1c7392a146104ff57600080fd5b8063c6418dee116100c6578063c6418dee14610417578063cacc420f14610437578063ccb7d2be14610457578063d7f8ffa61461047757600080fd5b80637da3f547146103b95780638da5cb5b146103d9578063c5d2be85146103f757600080fd5b8063460b2c9f1161015957806352d1902d1161013357806352d1902d146103355780635dc744841461034a578063606d2e9614610377578063715018a6146103a457600080fd5b8063460b2c9f146102d55780634f1ef286146102f5578063519f5eea1461030857600080fd5b80632e17de78116101955780632e17de781461021e5780633132aba41461023e5780633218b99d146102915780633659cfe6146102b557600080fd5b80630d479da6146101bc5780632a0c5221146101de5780632be8eaee146101fe575b600080fd5b3480156101c857600080fd5b506101dc6101d73660046135fe565b6105ec565b005b3480156101ea57600080fd5b506101dc6101f9366004613658565b610960565b34801561020a57600080fd5b506101dc610219366004613696565b610dba565b34801561022a57600080fd5b506101dc61023936600461372a565b611079565b34801561024a57600080fd5b5061027461025936600461372a565b60ce602052600090815260409020546001600160a01b031681565b6040516001600160a01b0390911681526020015b60405180910390f35b34801561029d57600080fd5b506102a760c95481565b604051908152602001610288565b3480156102c157600080fd5b506101dc6102d0366004613743565b6111de565b3480156102e157600080fd5b506102a76102f036600461372a565b6112bd565b6101dc610303366004613774565b611338565b34801561031457600080fd5b506102a761032336600461372a565b60cb6020526000908152604090205481565b34801561034157600080fd5b506102a7611408565b34801561035657600080fd5b506102a761036536600461372a565b60cc6020526000908152604090205481565b34801561038357600080fd5b506102a761039236600461372a565b60cf6020526000908152604090205481565b3480156103b057600080fd5b506101dc6114bb565b3480156103c557600080fd5b506101dc6103d4366004613658565b6114cf565b3480156103e557600080fd5b506033546001600160a01b0316610274565b34801561040357600080fd5b506101dc61041236600461372a565b61160c565b34801561042357600080fd5b506101dc610432366004613658565b611619565b34801561044357600080fd5b506101dc610452366004613836565b611774565b34801561046357600080fd5b506101dc610472366004613658565b6117aa565b34801561048357600080fd5b506102a761271081565b34801561049957600080fd5b506104c06104a836600461372a565b600090815260cb60205260409020549060a082901c90565b604080516001600160a01b039093168352602083019190915201610288565b3480156104eb57600080fd5b506101dc6104fa36600461372a565b61195a565b34801561050b57600080fd5b506101dc611b90565b34801561052057600080fd5b506102a761052f36600461372a565b60cd6020526000908152604090205481565b34801561054d57600080fd5b506101dc61055c366004613743565b611ca5565b34801561056d57600080fd5b506101dc61057c366004613862565b611d1b565b34801561058d57600080fd5b506105a161059c36600461372a565b611f16565b6040805162ffffff9098168852602088019690965294860193909352606085019190915263ffffffff16608084015264ffffffffff90811660a08401521660c082015260e001610288565b33321480156105fa5750333b155b61061f5760405162461bcd60e51b815260040161061690613894565b60405180910390fd5b610627613594565b60005b8581101561088c5760008061066989898581811061064a5761064a6138c4565b90506020020135600090815260cb60205260409020549060a082901c90565b90925090506001600160a01b038216331461069757604051637acc946360e01b815260040160405180910390fd5b600060cc60008b8b878181106106af576106af6138c4565b90506020020135815260200190815260200160002054905060008160ff1690508060001480156106e9575042604083901c64ffffffffff16115b1561070757604051634a7f394f60e01b815260040160405180910390fd5b600061075e8c8c8881811061071e5761071e6138c4565b905060200201358460cd600061073388611fa5565b815260200190815260200160002054602087901c63ffffffff16604088901c64ffffffffff16611fd0565b90508961076a84611fa5565b146107c85760018761077b85611fa5565b6007811061078b5761078b6138c4565b6020020181815161079c91906138f0565b9052506001878b600781106107b3576107b36138c4565b602002018181516107c491906138f0565b9052505b6008821080156107d757508115155b80156107e35750600581115b156108565780600603610851576108518c8c88818110610805576108056138c4565b90506020020135610847856000600888901c62ffffff16602089901c63ffffffff16426203f48061083691906138f0565b60688b901c64ffffffffff166123a9565b866000808d6123e5565b61087c565b61087c8c8c8881811061086b5761086b6138c4565b9050602002013584868d8d8d6123e5565b856001019550505050505061062a565b5060005b60078110156109575760008282600781106108ad576108ad6138c4565b602002015190508582036108fb57600082815260cd60205260409020546108e6816108dc8460f083901c6138f0565b600080600061258d565b600084815260cd60205260409020555061094e565b801561094e57600082815260cd602052604090205461093d8160f081901c84116109325761092d8460f085901c613903565b6108dc565b60008080600061258d565b600084815260cd6020526040902055505b50600101610890565b50505050505050565b333214801561096e5750333b155b61098a5760405162461bcd60e51b815260040161061690613894565b60c9546002146109ad57604051633a5f7b5760e01b815260040160405180910390fd5b600082815260cb60205260409020546001600160a01b031633146109e457604051637acc946360e01b815260040160405180910390fd5b600082815260cf602052604090205415610a1157604051634a7f394f60e01b815260040160405180910390fd5b600082815260cc602052604080822054838352912054600860ff83161015610a4c57604051634a7f394f60e01b815260040160405180910390fd5b610a5581611fa5565b610a5e83611fa5565b14610a7c5760405163416aebb560e11b815260040160405180910390fd5b62ffffff600883811c8216919083901c168181108015610a9d57506105dc81105b15610abb5760405163416aebb560e11b815260040160405180910390fd5b42606884901c64ffffffffff161115610ae75760405163416aebb560e11b815260040160405180910390fd5b600360005260ce6020527f59ab28122a14c9fda29ff4c2e5e473b0ab33e0a502a2cc16f7fb26e7758730c554604051631937733360e01b8152336004820152680410d586a20a4c000060248201526001600160a01b0390911690631937733390604401600060405180830381600087803b158015610b6457600080fd5b505af1158015610b78573d6000803e3d6000fd5b505050506000610b888585612663565b90508015610d2f576000610b9b84612711565b610ba6906012613903565b9050610bb281856138f0565b9350610bff858660ff16600a8610610bd457610bcf600a87613903565b610bd7565b60005b63ffffffff60208a901c1664ffffffffff60408b901c16610bfa42610e106138f0565b6123a9565b9450610c0d8560ff16612848565b610c198760ff16612848565b14610c8557600060cd6000610c2d89611fa5565b8152602001908152602001600020549050610c658160f083901c610c538a60ff16612848565b610c5f8a60ff16612848565b8661258d565b60cd6000610c728a611fa5565b8152602081019190915260400160002055505b601083901b87176028610c9a426102586138f0565b60008b815260cf602090815260408083209390941b949094179182905560049081905260ce909352600080516020613b4b83398151915254915163075022b160e11b81529283018b9052916001600160a01b0390911690630ea0456290602401600060405180830381600087803b158015610d1457600080fd5b505af1158015610d28573d6000803e3d6000fd5b5050505050505b610d5285600162ffffff8611610d455785610d4a565b62ffffff5b8442426123a9565b600088815260cc602052604080822083905588825290208590559450610d76612875565b85877ffc209c65e3c2cec1e2407f1ead53891789a981b717512caf168baa47cf516aab85604051610da991815260200190565b60405180910390a350505050505050565b6000805260ce6020527fd3f5862f6f80175da7514904f3a889cc3cc8c4f3af5129e28cdeaee2baa6efc4546001600160a01b03163314801590610e315750600160005260ce6020527f2c64b4c28102eb31817db0aae9385bd83769912689d15cb6b0f59dd7eff20613546001600160a01b03163314155b15610e4f5760405163585594bb60e11b815260040160405180910390fd5b600082815260cd6020526040902054610e70816108dc8960f083901c6138f0565b600084815260cd602090815260408083209390935582516080810184526c1400010008000b000b0000038481526c1d0001000a000b000a000002bc918101919091526c0c00030008000c000f00000226928101929092526c0a000200070010000b000003e860608301525b8881101561106d576000888883818110610ef757610ef76138c4565b90506020020135905060006108d460b083901c61ffff1610610f1b576108d3610f25565b60b082901c61ffff165b84611a0a60018f8f88818110610f3d57610f3d6138c4565b90506020020135610f4e9190613903565b610f58919061392c565b60048110610f6857610f686138c4565b6020020151610f779190613940565b905060c082901c60ff169150600060cc60008e8e87818110610f9b57610f9b6138c4565b90506020020135815260200190815260200160002054905080600003610fdc57610fd9600060018463ffffffff1642426000806000806000806128c8565b90505b60a09290921b6001600160a01b038916179171ffffffffffffffffffffffffffffffffffff16609082901b178260cb60008f8f8881811061101f5761101f6138c4565b9050602002013581526020019081526020016000208190555061105f8d8d8681811061104d5761104d6138c4565b9050602002013582858b8b60016123e5565b836001019350505050610edb565b50505050505050505050565b611a0b81106110bf57600160005260ce6020527f2c64b4c28102eb31817db0aae9385bd83769912689d15cb6b0f59dd7eff20613546001600160a01b03163314156110f7565b6000805260ce6020527fd3f5862f6f80175da7514904f3a889cc3cc8c4f3af5129e28cdeaee2baa6efc4546001600160a01b03163314155b156111155760405163585594bb60e11b815260040160405180910390fd5b600081815260cc602052604090205460ff8116801561114757604051634a7f394f60e01b815260040160405180910390fd5b600083815260cb6020526040812081905560cd8161116485611fa5565b81526020019081526020016000205490506111948160f083901c6000146109325761092d600160f085901c613903565b60cd60006111a186611fa5565b8152602080820192909252604090810160009081209390935586835260cc9091529020805460ff199081169091556111d7612875565b5050505050565b6001600160a01b037f00000000000000000000000000000000000000000000000000000000000000001630036112265760405162461bcd60e51b815260040161061690613957565b7f00000000000000000000000000000000000000000000000000000000000000006001600160a01b031661126f600080516020613b8b833981519152546001600160a01b031690565b6001600160a01b0316146112955760405162461bcd60e51b8152600401610616906139a3565b61129e8161291c565b604080516000808252602082019092526112ba91839190612924565b50565b6000605082901c6001600160501b0316826001600160501b03161180156112f9575060a082901c6001600160501b0316826001600160501b0316115b61132c5760a082901c6001600160501b0316605083901c6001600160501b03161161132557600261132f565b600161132f565b60005b60ff1692915050565b6001600160a01b037f00000000000000000000000000000000000000000000000000000000000000001630036113805760405162461bcd60e51b815260040161061690613957565b7f00000000000000000000000000000000000000000000000000000000000000006001600160a01b03166113c9600080516020613b8b833981519152546001600160a01b031690565b6001600160a01b0316146113ef5760405162461bcd60e51b8152600401610616906139a3565b6113f88261291c565b61140482826001612924565b5050565b6000306001600160a01b037f000000000000000000000000000000000000000000000000000000000000000016146114a85760405162461bcd60e51b815260206004820152603860248201527f555550535570677261646561626c653a206d757374206e6f742062652063616c60448201527f6c6564207468726f7567682064656c656761746563616c6c00000000000000006064820152608401610616565b50600080516020613b8b83398151915290565b6114c3612a94565b6114cd6000612aee565b565b33321480156114dd5750333b155b6114f95760405162461bcd60e51b815260040161061690613894565b600260005260ce602052600080516020613b6b83398151915254604051634f752fb360e11b815260048101839052336024820152600160448201526001600160a01b0390911690639eea5f6690606401600060405180830381600087803b15801561156357600080fd5b505af1158015611577573d6000803e3d6000fd5b50505050600060cc60008481526020019081526020016000205490506115f5818260ff16600884901c62ffffff16602085901c63ffffffff16604086901c64ffffffffff166003886115c9919061392c565b6115d49060016138f0565b6115df906002613940565b6115eb90610e10613940565b610bfa90426138f0565b600093845260cc6020526040909320929092555050565b611614612a94565b60c955565b33321480156116275750333b155b6116435760405162461bcd60e51b815260040161061690613894565b600260005260ce602052600080516020613b6b83398151915254604051634f752fb360e11b815260048101839052336024820152600160448201526001600160a01b0390911690639eea5f6690606401600060405180830381600087803b1580156116ad57600080fd5b505af11580156116c1573d6000803e3d6000fd5b505050600083815260cc6020526040902054905060ff8116156116f757604051634a7f394f60e01b815260040160405180910390fd5b6115f58160ff811662ffffff600883901c1663ffffffff602084901c1661171f60038861392c565b61172a9060016138f0565b61173590600c613940565b61174190610e10613940565b61174e90620151806138f0565b6117639064ffffffffff604089901c16613903565b606887901c64ffffffffff166123a9565b61177c612a94565b600091825260ce602052604090912080546001600160a01b0319166001600160a01b03909216919091179055565b33321480156117b85750333b155b6117d45760405162461bcd60e51b815260040161061690613894565b600260005260ce602052600080516020613b6b83398151915254604051634f752fb360e11b815260048101839052336024820152600160448201526001600160a01b0390911690639eea5f6690606401600060405180830381600087803b15801561183e57600080fd5b505af1158015611852573d6000803e3d6000fd5b505050600083815260cc60205260409020549050600860ff8216101561188b57604051634a7f394f60e01b815260040160405180910390fd5b63ffffffff609082901c166000600a60016118a760038761392c565b6118b29060016138f0565b6118bc9085613940565b6118c7906002613940565b6118d19190613903565b6118db919061392c565b90506119418360ff811662ffffff600883901c16856119048663ffffffff602087901c166138f0565b116119225761191d8563ffffffff60208a901c166138f0565b611924565b855b604088901c64ffffffffff16606889901c64ffffffffff166123a9565b600095865260cc60205260409095209490945550505050565b600081815260cf602052604090205442602882901c111561198e57604051634a7f394f60e01b815260040160405180910390fd5b6004600081815260ce602052600080516020613b4b83398151915254604051633352da4560e21b81529283018590529091611a3e916001600160a01b03169063cd4b6914906024016020604051808303816000875af11580156119f5573d6000803e3d6000fd5b505050506040513d601f19601f82011682018060405250810190611a1991906139ef565b60408051808201909152600681526504e33304b59360d41b602082015260ca54612b40565b600084815260cc6020526040812054919250611a6d83611a6662ffffff601086901c16612b7a565b6006612cf4565b90508015611b7b576002600081905260ce602052600080516020613b6b833981519152546001600160a01b0316906394bf804d90611aac846003613940565b611ab69190613903565b611a0a8761ffff1611611afc576003611aed8760405180604001604052806005815260200164043594b59360dc1b8152508b612b40565b611af79190613a08565b611b19565b611a0a611b0f611a0b61ffff8a16613903565b611b19919061392c565b611b2391906138f0565b6040516001600160e01b031960e084901b1681526004810191909152336024820152604401600060405180830381600087803b158015611b6257600080fd5b505af1158015611b76573d6000803e3d6000fd5b505050505b50505060009182525060cf6020526040812055565b600054610100900460ff1615808015611bb05750600054600160ff909116105b80611bca5750303b158015611bca575060005460ff166001145b611c2d5760405162461bcd60e51b815260206004820152602e60248201527f496e697469616c697a61626c653a20636f6e747261637420697320616c72656160448201526d191e481a5b9a5d1a585b1a5e995960921b6064820152608401610616565b6000805460ff191660011790558015611c50576000805461ff0019166101001790555b611c58612d62565b600160c95580156112ba576000805461ff0019169055604051600181527f7f26b83ff96e1f2b6a682f133852f6798a09c465da95921460cefb38474024989060200160405180910390a150565b611cad612a94565b6001600160a01b038116611d125760405162461bcd60e51b815260206004820152602660248201527f4f776e61626c653a206e6577206f776e657220697320746865207a65726f206160448201526564647265737360d01b6064820152608401610616565b6112ba81612aee565b3332148015611d295750333b155b611d455760405162461bcd60e51b815260040161061690613894565b600084815260cb602052604090205460a081901c336001600160a01b03831614611d8257604051637acc946360e01b815260040160405180910390fd5b600086815260cc602052604090205460ff811680158015611dad575042604083901c64ffffffffff16115b15611dcb57604051634a7f394f60e01b815260040160405180910390fd5b6000600882108015611ddc57508115155b15611df657611df3898360cd600061073387611fa5565b90505b87611e0084611fa5565b14611e9a57600060cd6000611e1485611fa5565b8152602001908152602001600020549050611e448160f083901c6000146109325761092d600160f085901c613903565b60cd6000611e5186611fa5565b815260208082019290925260409081016000908120939093558b835260cd909152902054611e88816108dc60f082901c60016138f0565b60008b815260cd602052604090205550505b600882108015611ea957508115155b8015611eb55750600581115b15611efd5780600603611ef857611ef889611eee85600062ffffff600883901c1663ffffffff602084901c16610836426203f4806138f0565b866000808b6123e5565b611f0b565b611f0b8984868b8b8b6123e5565b505050505050505050565b600081815260cc602052604081205481908190819081908190819060ff8116601882901c611f4382611fa5565b60078311611f5f578215611f58576001611f62565b6000611f62565b60025b60088410611f7857611f7384612848565b611f7b565b60005b929d919c5060ff169a50909850602083901c9750604083901c965060689290921c94509092505050565b60008160ff16600003611fb9575060ff1690565b6007611fc6600184613a1c565b61132f9190613a35565b600060c954600214611ff557604051633a5f7b5760e01b815260040160405180910390fd5b600061200086611fa5565b9050600061200e8442613903565b851061202d5761201e8442613903565b6120289086613903565b612042565b846120388542613903565b6120429190613903565b6004600081905260ce602052600080516020613b4b83398151915254604051633352da4560e21b81529182018b9052919250612114916120f9916001600160a01b039091169063cd4b6914906024016020604051808303816000875af11580156120b0573d6000803e3d6000fd5b505050506040513d601f19601f820116820180604052508101906120d491906139ef565b6040805180820190915260068152652719982c99a760d11b602082015260ca54612b40565b61210d836121088c878b612d91565b612f02565b6008612cf4565b600089815260cb6020526040812054919450906005851015612189578460030361214157606491506122ec565b8460040361215257601e91506122ec565b846002036121645761012c91506122ec565b846001036121765761025891506122ec565b84600003612184576103e891505b6122ec565b600084815260cd60205260409020546121a1906112bd565b60a082901c146122ec57846007036122ec57611a0b8a1061224857600160005260ce6020527f2c64b4c28102eb31817db0aae9385bd83769912689d15cb6b0f59dd7eff2061354604051630489b56f60e01b8152600481018c90526001600160a01b0390911690630489b56f90602401600060405180830381600087803b15801561222b57600080fd5b505af115801561223f573d6000803e3d6000fd5b505050506122cf565b6000805260ce6020527fd3f5862f6f80175da7514904f3a889cc3cc8c4f3af5129e28cdeaee2baa6efc454604051630489b56f60e01b8152600481018c90526001600160a01b0390911690630489b56f90602401600060405180830381600087803b1580156122b657600080fd5b505af11580156122ca573d6000803e3d6000fd5b505050505b60008a815260cb6020908152604080832083905560cc9091528120555b811561239c57600360005260ce6020527f59ab28122a14c9fda29ff4c2e5e473b0ab33e0a502a2cc16f7fb26e7758730c5546001600160a01b03166340c10f198261233d8a868960f08f901c6130a7565b6040516001600160e01b031960e085901b1681526001600160a01b0390921660048301526024820152604401600060405180830381600087803b15801561238357600080fd5b505af1158015612397573d6000803e3d6000fd5b505050505b5050505095945050505050565b60006123c186868686866000806000806000806128c8565b71ffffffffffffffffffffffffffffffffffff199097169096179695505050505050565b60ff8516158015612400575042604086901c64ffffffffff16115b1561241e57604051634a7f394f60e01b815260040160405180910390fd5b6000826001036125005760068210801561243757508115155b6124765760405162461bcd60e51b815260206004820152601060248201526f34b73b30b634b210323ab930ba34b7b760811b6044820152606401610616565b6124818460016138f0565b6004600081905260ce602052600080516020613b4b8339815191525460405163075022b160e11b81529293506001600160a01b031691630ea04562916124cd918b910190815260200190565b600060405180830381600087803b1580156124e757600080fd5b505af11580156124fb573d6000803e3d6000fd5b505050505b8260020361252c5783612514866007613940565b61251e91906138f0565b6125299060076138f0565b90505b6125728682600889901c62ffffff16866001146125535760208a901c63ffffffff16612560565b612560866203f480613940565b4260688c901c64ffffffffff166123a9565b600097885260cc602052604090972096909655505050505050565b60f084901b6001600160501b03861683156125bd5784156125ae57806125c7565b6125b883826138f0565b6125c7565b6125c78382613903565b82179150605087901c6001600160501b0316905060508460011461260257856001146125f3578161260c565b6125fd84836138f0565b61260c565b61260c8483613903565b901b8217915060a087901c6001600160501b0316905060a084600214612649578560021461263a5781612653565b61264484836138f0565b612653565b6126538483613903565b901b821791505095945050505050565b60008061384061267e64ffffffffff604087901c1642613903565b6126929063ffffffff609088901c16613940565b61269c919061392c565b6126b09063ffffffff602087901c166138f0565b9050609084901c63ffffffff168111156126d1575063ffffffff609084901c165b61271060006126ec86866126e6828287613137565b85613234565b9050808310612704576126ff8184613903565b612707565b60005b9695505050505050565b6000603c82101561272457506000919050565b603b821180156127345750608c82105b1561274157506001919050565b608b82118015612751575060f082105b1561275e57506002919050565b60ef8211801561276f575061016882105b1561277c57506003919050565b6101678211801561278e57506101f482105b1561279b57506004919050565b6101f3821180156127ad575061029482105b156127ba57506005919050565b610293821180156127cc575061034882105b156127d957506006919050565b610347821180156127eb575061041082105b156127f857506007919050565b61040f8211801561280a57506104ec82105b1561281757506008919050565b6104eb8211801561282957506105dc82105b1561283657506009919050565b6105db8211156101b75750600a919050565b6000600882101561285857600080fd5b6007612865600884613903565b61286f919061392c565b92915050565b6040516bffffffffffffffffffffffff1932606090811b8216602084015241901b16603482015242604882015244606882015260880160408051601f19818403018152919052805160209091012060ca55565b60f01b60e09190911b60d09290921b60c09390931b60b09490941b60909590951b60689690961b60409790971b60209890981b60089990991b90991797909717959095179390931791909117171717171790565b6112ba612a94565b7f4910fdfa16fed3260ed0e7147f7cc6da11a60208b5b9406d12a635614ffd91435460ff161561295c5761295783613336565b505050565b826001600160a01b03166352d1902d6040518163ffffffff1660e01b8152600401602060405180830381865afa9250505080156129b6575060408051601f3d908101601f191682019092526129b3918101906139ef565b60015b612a195760405162461bcd60e51b815260206004820152602e60248201527f45524331393637557067726164653a206e657720696d706c656d656e7461746960448201526d6f6e206973206e6f74205555505360901b6064820152608401610616565b600080516020613b8b8339815191528114612a885760405162461bcd60e51b815260206004820152602960248201527f45524331393637557067726164653a20756e737570706f727465642070726f786044820152681a58589b195555525160ba1b6064820152608401610616565b506129578383836133d2565b6033546001600160a01b031633146114cd5760405162461bcd60e51b815260206004820181905260248201527f4f776e61626c653a2063616c6c6572206973206e6f7420746865206f776e65726044820152606401610616565b603380546001600160a01b038381166001600160a01b0319831681179093556040519116919082907f8be0079c531659141344cd1fd0a4f28419497f9722a3daafe3b4186f6b6457e090600090a35050565b6000838383604051602001612b5793929190613aa7565b6040516020818303038152906040528051906020012060001c90505b9392505050565b6000603b82118015612b8c5750608c82105b15612b9e57506503e813880fa0919050565b608b82118015612bae575060f082105b15612bc057506505dc11940fa0919050565b60ef82118015612bd1575061016882105b15612be4575066c805dc14b40bb8919050565b61016782118015612bf657506101f482105b15612c0a57506701f407d0138809c4919050565b6101f382118015612c1c575061029482105b15612c3157506864038407d0138807d0919050565b61029382118015612c43575061034882105b15612c5a57506a6400c805dc09c40e7407d0919050565b61034782118015612c6c575061041082105b15612c8357506ac801f409c40ce405dc07d0919050565b61040f82118015612c9557506104ec82105b15612cad57506b01f403e80bb80bb801f407d0919050565b6104eb82118015612cbf57506105dc82105b15612cd757506b032006a40bb807d001f407d0919050565b6105db8211156101b757506b05dc09c409c403e801f407d0919050565b6000612d0261271085613a08565b93506000805b838110156101b7576000612d1d826010613940565b86901c61ffff169050828710158015612d3e5750612d3b81846138f0565b87105b15612d4d57509150612b739050565b612d5781846138f0565b925050600101612d08565b600054610100900460ff16612d895760405162461bcd60e51b815260040161061690613ad0565b6114cd6133fd565b60008083611a0a612da3600188613903565b612dad919061392c565b612db89060036138f0565b149050826203f48003612e005780612ddc576b02580d4811f8044c00c80064612dea565b6b01f40bb811940578019000c85b6bffffffffffffffffffffffff16915050612b73565b826207e90003612e4e5780612e24576e1e002d02940cb21162048801040091612e35565b6e1e002d02300c4e122a05b401cc00f55b6effffffffffffffffffffffffffffff16915050612b73565b82620bdd8003612e8a5780612e72576e4b007102ee0bd1108104e2015e00d5612e35565b506e4b0071028a0d2f130b060e022601399050612b73565b82620fd20003612ec65780612eae576e8700cb03660aa50f55055a01d6012f612e35565b506e8700cb03020e5b14370686029e01939050612b73565b826213c680036101b75780612eea576ed2013b03fc092e0dde05f0026c019f612e35565b506ed2013b03980fd215ae071c033402039050612b73565b60006203f4808311612f145782612f19565b6203f4805b925062015f9080612f2b85601e613940565b612f35919061392c565b612f439061ffff8516613903565b9150601081612f5386603c613940565b612f5d919061392c565b612f6f9061ffff601087901c16613903565b901b9190911790602081612f8586610168613940565b612f8f919061392c565b612fa19061ffff602087901c16613903565b901b9190911790603081612fb78661041a613940565b612fc1919061392c565b612fd39061ffff603087901c16613903565b901b9190911790604081612fe986610168613940565b612ff3919061392c565b6130059061ffff604087901c166138f0565b901b919091179060508161301b86610258613940565b613025919061392c565b6130379061ffff605087901c166138f0565b901b919091179060608161304d866101c2613940565b613057919061392c565b6130699061ffff606087901c166138f0565b901b919091179060708161307e86605a613940565b613088919061392c565b61309a9061ffff607087901c166138f0565b901b821791505092915050565b600080836000036130b75750611a0a5b836001036130c4575061411a5b836002036130d157506182355b836003036130de575061d9035b60038411156130ed57506201046a5b6130fa8362015180613940565b856131058884613940565b61310f9190613940565b61312190670de0b6b3a7640000613940565b61312b919061392c565b9150505b949350505050565b600061ffff60b085901c81169060d086901c8116906131619060f087901c9060e089901c166138f0565b8461317461ffff60e08a901c1685613940565b61317e9190613940565b613188919061392c565b61319a61ffff60c088901c16846138f0565b856131a58580613940565b6131af9190613940565b6131b9919061392c565b6131c391906138f0565b6131cd9190613940565b836131e161ffff60d089901c16600a613940565b6131ef8660f089901c613940565b6131f9919061392c565b61320390866138f0565b6132179063ffffffff609089901c16613940565b6132219190613940565b61322b919061392c565b95945050505050565b600061324961ffff60d086901c16600a613940565b6132578360f088901c613940565b613261919061392c565b61326b90836138f0565b61327f9063ffffffff609088901c16613940565b63ffffffff609087901c1661ffff60d087901c8116906132aa9060f08a901c9060e08a901c166138f0565b856132c461ffff60e08b901c81169060b08c901c16613940565b6132ce9190613940565b6132d8919061392c565b6132f161ffff60c08b901c81169060b08b901c166138f0565b8661330461ffff60b08c901c1680613940565b61330e9190613940565b613318919061392c565b61332291906138f0565b61332c9190613940565b6132179086613940565b6001600160a01b0381163b6133a35760405162461bcd60e51b815260206004820152602d60248201527f455243313936373a206e657720696d706c656d656e746174696f6e206973206e60448201526c1bdd08184818dbdb9d1c9858dd609a1b6064820152608401610616565b600080516020613b8b83398151915280546001600160a01b0319166001600160a01b0392909216919091179055565b6133db8361342d565b6000825111806133e85750805b15612957576133f7838361346d565b50505050565b600054610100900460ff166134245760405162461bcd60e51b815260040161061690613ad0565b6114cd33612aee565b61343681613336565b6040516001600160a01b038216907fbc7cd75a20ee27fd9adebab32041f755214dbc6bffa90cc0225b39da2e5c2d3b90600090a250565b6060612b738383604051806060016040528060278152602001613bab602791396060600080856001600160a01b0316856040516134aa9190613b1b565b600060405180830381855af49150503d80600081146134e5576040519150601f19603f3d011682016040523d82523d6000602084013e6134ea565b606091505b5091509150612707868383876060831561356557825160000361355e576001600160a01b0385163b61355e5760405162461bcd60e51b815260206004820152601d60248201527f416464726573733a2063616c6c20746f206e6f6e2d636f6e74726163740000006044820152606401610616565b508161312f565b61312f838381511561357a5781518083602001fd5b8060405162461bcd60e51b81526004016106169190613b37565b6040518060e001604052806007906020820280368337509192915050565b60008083601f8401126135c457600080fd5b50813567ffffffffffffffff8111156135dc57600080fd5b6020830191508360208260051b85010111156135f757600080fd5b9250929050565b60008060008060006080868803121561361657600080fd5b853567ffffffffffffffff81111561362d57600080fd5b613639888289016135b2565b9099909850602088013597604081013597506060013595509350505050565b6000806040838503121561366b57600080fd5b50508035926020909101359150565b80356001600160a01b038116811461369157600080fd5b919050565b600080600080600080600060a0888a0312156136b157600080fd5b873567ffffffffffffffff808211156136c957600080fd5b6136d58b838c016135b2565b909950975060208a01359150808211156136ee57600080fd5b506136fb8a828b016135b2565b909650945061370e90506040890161367a565b9250606088013591506080880135905092959891949750929550565b60006020828403121561373c57600080fd5b5035919050565b60006020828403121561375557600080fd5b612b738261367a565b634e487b7160e01b600052604160045260246000fd5b6000806040838503121561378757600080fd5b6137908361367a565b9150602083013567ffffffffffffffff808211156137ad57600080fd5b818501915085601f8301126137c157600080fd5b8135818111156137d3576137d361375e565b604051601f8201601f19908116603f011681019083821181831017156137fb576137fb61375e565b8160405282815288602084870101111561381457600080fd5b8260208601602083013760006020848301015280955050505050509250929050565b6000806040838503121561384957600080fd5b823591506138596020840161367a565b90509250929050565b6000806000806080858703121561387857600080fd5b5050823594602084013594506040840135936060013592509050565b6020808252601690820152751e5bdd49dc99481d1c9e5a5b99c81d1bc818da19585d60521b604082015260600190565b634e487b7160e01b600052603260045260246000fd5b634e487b7160e01b600052601160045260246000fd5b8082018082111561286f5761286f6138da565b8181038181111561286f5761286f6138da565b634e487b7160e01b600052601260045260246000fd5b60008261393b5761393b613916565b500490565b808202811582820484141761286f5761286f6138da565b6020808252602c908201527f46756e6374696f6e206d7573742062652063616c6c6564207468726f7567682060408201526b19195b1959d85d1958d85b1b60a21b606082015260800190565b6020808252602c908201527f46756e6374696f6e206d7573742062652063616c6c6564207468726f7567682060408201526b6163746976652070726f787960a01b606082015260800190565b600060208284031215613a0157600080fd5b5051919050565b600082613a1757613a17613916565b500690565b60ff828116828216039081111561286f5761286f6138da565b600060ff831680613a4857613a48613916565b8060ff84160691505092915050565b60005b83811015613a72578181015183820152602001613a5a565b50506000910152565b60008151808452613a93816020860160208601613a57565b601f01601f19169290920160200192915050565b838152606060208201526000613ac06060830185613a7b565b9050826040830152949350505050565b6020808252602b908201527f496e697469616c697a61626c653a20636f6e7472616374206973206e6f74206960408201526a6e697469616c697a696e6760a81b606082015260800190565b60008251613b2d818460208701613a57565b9190910192915050565b602081526000612b736020830184613a7b56fe1195a1715b145324c9128d1268445a314f49dcb2d045edb03a58286b09e65f667e7d29572f57d9ec58b8a1c9e692b144c5fa47a5198432268ee6be4e78584767360894a13ba1a3210667c828492db98dca3e2076cc3735a920a3ca505d382bbc416464726573733a206c6f772d6c6576656c2064656c65676174652063616c6c206661696c6564a2646970667358221220f5e6cb774cdc3bdf8f08acbaebde1d1808d7d208440664c1faa0eeddc468f9ac64736f6c63430008120033",
  "linkReferences": {},
  "deployedLinkReferences": {}
}