{
  "_format": "hh-sol-artifact-1",
  "contractName": "TraitGen",
  "sourceName": "contracts/mainnet/TraitGen.sol",
  "abi": [
    {
      "inputs": [
        {
          "internalType": "address",
          "name": "_kyodaiAddy",
          "type": "address"
        }
      ],
      "stateMutability": "nonpayable",
      "type": "constructor"
    },
    {
      "inputs": [
        {
          "internalType": "uint256",
          "name": "",
          "type": "uint256"
        },
        {
          "internalType": "uint256",
          "name": "",
          "type": "uint256"
        }
      ],
      "name": "aliases",
      "outputs": [
        {
          "internalType": "uint8",
          "name": "",
          "type": "uint8"
        }
      ],
      "stateMutability": "view",
      "type": "function"
    },
    {
      "inputs": [
        {
          "internalType": "uint256",
          "name": "_t",
          "type": "uint256"
        },
        {
          "internalType": "address",
          "name": "_a",
          "type": "address"
        },
        {
          "internalType": "uint256",
          "name": "_c",
          "type": "uint256"
        },
        {
          "internalType": "uint256",
          "name": "_alliance",
          "type": "uint256"
        }
      ],
      "name": "genKyodaiHash",
      "outputs": [
        {
          "internalType": "uint256",
          "name": "",
          "type": "uint256"
        }
      ],
      "stateMutability": "nonpayable",
      "type": "function"
    },
    {
      "inputs": [
        {
          "internalType": "uint256",
          "name": "",
          "type": "uint256"
        },
        {
          "internalType": "uint256",
          "name": "",
          "type": "uint256"
        }
      ],
      "name": "rarities",
      "outputs": [
        {
          "internalType": "uint8",
          "name": "",
          "type": "uint8"
        }
      ],
      "stateMutability": "view",
      "type": "function"
    }
  ],
  "bytecode": "0x608060405234801561001057600080fd5b50604051610b3a380380610b3a83398101604081905261002f91610571565b600b80546001600160a01b0319166001600160a01b0383161790556100616001600061048d602090811b61016117901c565b604080516102808101825260be815260d7602082015260f0918101829052606460608201819052606e6080830152608760a08084019190915260c083015260b960e08301526050610100830181905260d261012084015260eb61014084015261016083019390935261018082018390526101a08201929092526101c081018290526101e0810182905261020081019190915260f561022082015260fa61024082015260ff6102608201526101199060029060146104b6565b5060408051610280810182526001815260026020820152600491810182905260006060820181905260056080830152600660a08301819052600760c0840152600960e08401526101008301829052600a610120840152600b610140840152601161016084015261018083018290526101a083018290526101c083018290526101e08301919091526102008201929092526012610220820152601361024082018190526102608201526101cd919060146104b6565b506040805160c08101825260ff8152601e6020820152603c918101829052606081019190915260966080820152609c60a082015261020f9060039060066104b6565b506040805160c081018252600080825260208201819052918101829052606081018290526080810182905260a08101919091526102509060079060066104b6565b50604080516103808101825260dd81526064602082015260b591810191909152608c6060820181905260e060808301819052609360a080850191909152605460c0850181905260e4838601526101008501849052610120850183905260fa61014086015261016085019190915260f161018085015260cf6101a085015260ad6101c08501526101e084015260fe61020084015260dc61022084015260c4610240840152610260830182905260a861028084015260fc6102a084018190526102c084019290925260b76102e084015260ec61030084015261032083019190915261034082015260ff61036082015261034b90600490601c6104b6565b50604080516103808101825260018082526002602083015260059282018390526000606083015260808201819052600760a083015260c0820152600a60e08201819052610100820192909252610120810191909152600b6101408201819052600c610160830152600d6101808301819052600e6101a0840181905260106101c08501526101e084019290925260116102008401819052601761022085018190526102408501929092526102608401929092526102808301919091526102a082018190526102c082015260186102e0820152601b61030082018190526103208201819052610340820181905261036082015261044a90600890601c6104b6565b50604080516020810190915260ff81526104689060059060016104b6565b506040805160208101909152600081526104869060099060016104b6565b50506105a1565b600881901c600090815260209290925260409091208054600160ff9093169290921b9091179055565b82805482825590600052602060002090601f0160209004810192821561054c5791602002820160005b8382111561051d57835183826101000a81548160ff021916908360ff16021790555092602001926001016020816000010492830192600103026104df565b801561054a5782816101000a81549060ff021916905560010160208160000104928301926001030261051d565b505b5061055892915061055c565b5090565b5b80821115610558576000815560010161055d565b60006020828403121561058357600080fd5b81516001600160a01b038116811461059a57600080fd5b9392505050565b61058a806105b06000396000f3fe608060405234801561001057600080fd5b50600436106100415760003560e01c806333df4b2c1461004657806336838391146100705780639d9f150b14610083575b600080fd5b610059610054366004610408565b6100a4565b60405160ff90911681526020015b60405180910390f35b61005961007e366004610408565b6100ea565b61009661009136600461042a565b6100fa565b604051908152602001610067565b600282600481106100b457600080fd5b0181815481106100c357600080fd5b9060005260206000209060209182820401919006915091509054906101000a900460ff1681565b600682600481106100b457600080fd5b600b546000906001600160a01b0316331461014a5760405162461bcd60e51b815260206004820152600c60248201526b1d5b985d5d1a1bdc9a5e995960a21b604482015260640160405180910390fd5b6101568585858561018a565b90505b949350505050565b600881901c600090815260209290925260409091208054600160ff9093169290921b9091179055565b6000600a831061019957600080fd5b600080546040805142602080830191909152448284015260608083018b905289901b6bffffffffffffffffffffffff191660808301526094820188905260b48083018590528351808403909101815260d49092019092528051910120918061020083610489565b919050555060005b60038160ff1610156102755761021f8160046104a2565b61022a9060086104bb565b60ff1661026661023b8360206104bb565b60ff1684901c61024c8460016104a2565b6102579060206104bb565b60ff1685901c8460ff1661030e565b901b9290921791600101610208565b506102816001836103e3565b156102a45761029c86866102968760016104de565b8661018a565b915050610159565b6102af600183610161565b9082179060086102c98163ffffffff60a085901c16610507565b901b919091179060106102e7600363ffffffff60c085901c16610507565b901b919091179060186102ff600860e084901c610507565b901b8217915050949350505050565b60008060028361ffff16600481106103285761032861051b565b01805490915061033e9063ffffffff8716610507565b91508082815481106103525761035261051b565b90600052602060002090602091828204019190069054906101000a900460ff1660ff16610100856103839190610531565b63ffffffff1611156103db5760068361ffff16600481106103a6576103a661051b565b0182815481106103b8576103b861051b565b60009182526020918290209181049091015460ff601f9092166101000a90041691505b509392505050565b600881901c600090815260208390526040902054600160ff83161b1615155b92915050565b6000806040838503121561041b57600080fd5b50508035926020909101359150565b6000806000806080858703121561044057600080fd5b8435935060208501356001600160a01b038116811461045e57600080fd5b93969395505050506040820135916060013590565b634e487b7160e01b600052601160045260246000fd5b60006001820161049b5761049b610473565b5060010190565b60ff818116838216019081111561040257610402610473565b60ff81811683821602908116908181146104d7576104d7610473565b5092915050565b8082018082111561040257610402610473565b634e487b7160e01b600052601260045260246000fd5b600082610516576105166104f1565b500690565b634e487b7160e01b600052603260045260246000fd5b600063ffffffff80841680610548576105486104f1565b9216919091069291505056fea264697066735822122032dea797187c270d336bfb70b615505b0976180a62f9ed2a0282be14f835518464736f6c63430008120033",
  "linkReferences": {},
  "deployedLinkReferences": {}
}