{
  "_format": "hh-sol-artifact-1",
  "contractName": "CyberKyodai",
  "sourceName": "contracts/mainnet/CyberKyodai.sol",
  "abi": [
    {
      "inputs": [],
      "name": "InsufficientMsgFee",
      "type": "error"
    },
    {
      "inputs": [],
      "name": "InvalidAmount",
      "type": "error"
    },
    {
      "inputs": [],
      "name": "InvalidDestination",
      "type": "error"
    },
    {
      "inputs": [],
      "name": "InvalidMintPhase",
      "type": "error"
    },
    {
      "inputs": [],
      "name": "InvalidProof",
      "type": "error"
    },
    {
      "inputs": [],
      "name": "MintedOut",
      "type": "error"
    },
    {
      "inputs": [
        {
          "internalType": "address",
          "name": "operator",
          "type": "address"
        }
      ],
      "name": "OperatorNotAllowed",
      "type": "error"
    },
    {
      "inputs": [],
      "name": "TokenLocked",
      "type": "error"
    },
    {
      "inputs": [],
      "name": "WhitelistClaimed",
      "type": "error"
    },
    {
      "anonymous": false,
      "inputs": [
        {
          "indexed": true,
          "internalType": "address",
          "name": "owner",
          "type": "address"
        },
        {
          "indexed": true,
          "internalType": "uint256",
          "name": "id",
          "type": "uint256"
        },
        {
          "indexed": true,
          "internalType": "uint8",
          "name": "action",
          "type": "uint8"
        }
      ],
      "name": "ActionMade",
      "type": "event"
    },
    {
      "anonymous": false,
      "inputs": [
        {
          "indexed": false,
          "internalType": "address",
          "name": "previousAdmin",
          "type": "address"
        },
        {
          "indexed": false,
          "internalType": "address",
          "name": "newAdmin",
          "type": "address"
        }
      ],
      "name": "AdminChanged",
      "type": "event"
    },
    {
      "anonymous": false,
      "inputs": [
        {
          "indexed": true,
          "internalType": "address",
          "name": "owner",
          "type": "address"
        },
        {
          "indexed": true,
          "internalType": "address",
          "name": "approved",
          "type": "address"
        },
        {
          "indexed": true,
          "internalType": "uint256",
          "name": "tokenId",
          "type": "uint256"
        }
      ],
      "name": "Approval",
      "type": "event"
    },
    {
      "anonymous": false,
      "inputs": [
        {
          "indexed": true,
          "internalType": "address",
          "name": "owner",
          "type": "address"
        },
        {
          "indexed": true,
          "internalType": "address",
          "name": "operator",
          "type": "address"
        },
        {
          "indexed": false,
          "internalType": "bool",
          "name": "approved",
          "type": "bool"
        }
      ],
      "name": "ApprovalForAll",
      "type": "event"
    },
    {
      "anonymous": false,
      "inputs": [
        {
          "indexed": true,
          "internalType": "address",
          "name": "beacon",
          "type": "address"
        }
      ],
      "name": "BeaconUpgraded",
      "type": "event"
    },
    {
      "anonymous": false,
      "inputs": [
        {
          "indexed": false,
          "internalType": "uint8",
          "name": "version",
          "type": "uint8"
        }
      ],
      "name": "Initialized",
      "type": "event"
    },
    {
      "anonymous": false,
      "inputs": [
        {
          "indexed": false,
          "internalType": "uint16",
          "name": "_srcChainId",
          "type": "uint16"
        },
        {
          "indexed": false,
          "internalType": "bytes",
          "name": "_srcAddress",
          "type": "bytes"
        },
        {
          "indexed": false,
          "internalType": "uint64",
          "name": "_nonce",
          "type": "uint64"
        },
        {
          "indexed": false,
          "internalType": "bytes",
          "name": "_payload",
          "type": "bytes"
        }
      ],
      "name": "MessageFailed",
      "type": "event"
    },
    {
      "anonymous": false,
      "inputs": [
        {
          "indexed": true,
          "internalType": "address",
          "name": "previousOwner",
          "type": "address"
        },
        {
          "indexed": true,
          "internalType": "address",
          "name": "newOwner",
          "type": "address"
        }
      ],
      "name": "OwnershipTransferred",
      "type": "event"
    },
    {
      "anonymous": false,
      "inputs": [
        {
          "indexed": true,
          "internalType": "address",
          "name": "from",
          "type": "address"
        },
        {
          "indexed": true,
          "internalType": "address",
          "name": "to",
          "type": "address"
        },
        {
          "indexed": true,
          "internalType": "uint256",
          "name": "tokenId",
          "type": "uint256"
        }
      ],
      "name": "Transfer",
      "type": "event"
    },
    {
      "anonymous": false,
      "inputs": [
        {
          "indexed": true,
          "internalType": "address",
          "name": "implementation",
          "type": "address"
        }
      ],
      "name": "Upgraded",
      "type": "event"
    },
    {
      "inputs": [
        {
          "internalType": "uint256",
          "name": "",
          "type": "uint256"
        }
      ],
      "name": "activities",
      "outputs": [
        {
          "internalType": "uint256",
          "name": "",
          "type": "uint256"
        }
      ],
      "stateMutability": "view",
      "type": "function"
    },
    {
      "inputs": [
        {
          "internalType": "uint256",
          "name": "",
          "type": "uint256"
        }
      ],
      "name": "allianceSupply",
      "outputs": [
        {
          "internalType": "uint256",
          "name": "",
          "type": "uint256"
        }
      ],
      "stateMutability": "view",
      "type": "function"
    },
    {
      "inputs": [
        {
          "internalType": "address",
          "name": "operator",
          "type": "address"
        },
        {
          "internalType": "uint256",
          "name": "tokenId",
          "type": "uint256"
        }
      ],
      "name": "approve",
      "outputs": [],
      "stateMutability": "nonpayable",
      "type": "function"
    },
    {
      "inputs": [
        {
          "internalType": "address",
          "name": "owner",
          "type": "address"
        }
      ],
      "name": "balanceOf",
      "outputs": [
        {
          "internalType": "uint256",
          "name": "",
          "type": "uint256"
        }
      ],
      "stateMutability": "view",
      "type": "function"
    },
    {
      "inputs": [
        {
          "internalType": "string",
          "name": "newURI",
          "type": "string"
        }
      ],
      "name": "changeURI",
      "outputs": [],
      "stateMutability": "nonpayable",
      "type": "function"
    },
    {
      "inputs": [
        {
          "internalType": "uint256",
          "name": "tokenId",
          "type": "uint256"
        }
      ],
      "name": "decodeActivity",
      "outputs": [
        {
          "internalType": "address",
          "name": "",
          "type": "address"
        },
        {
          "internalType": "uint8",
          "name": "",
          "type": "uint8"
        },
        {
          "internalType": "uint256",
          "name": "",
          "type": "uint256"
        }
      ],
      "stateMutability": "view",
      "type": "function"
    },
    {
      "inputs": [
        {
          "internalType": "uint256",
          "name": "tokenId",
          "type": "uint256"
        }
      ],
      "name": "decodeKyodai",
      "outputs": [
        {
          "internalType": "bytes20",
          "name": "",
          "type": "bytes20"
        },
        {
          "internalType": "uint256",
          "name": "",
          "type": "uint256"
        },
        {
          "internalType": "uint256",
          "name": "",
          "type": "uint256"
        },
        {
          "internalType": "uint256",
          "name": "",
          "type": "uint256"
        }
      ],
      "stateMutability": "view",
      "type": "function"
    },
    {
      "inputs": [
        {
          "internalType": "uint16",
          "name": "",
          "type": "uint16"
        },
        {
          "internalType": "bytes",
          "name": "",
          "type": "bytes"
        },
        {
          "internalType": "uint256",
          "name": "",
          "type": "uint256"
        }
      ],
      "name": "failedMessages",
      "outputs": [
        {
          "internalType": "uint256",
          "name": "payloadLength",
          "type": "uint256"
        },
        {
          "internalType": "bytes32",
          "name": "payloadHash",
          "type": "bytes32"
        }
      ],
      "stateMutability": "view",
      "type": "function"
    },
    {
      "inputs": [
        {
          "internalType": "uint256",
          "name": "tokenId",
          "type": "uint256"
        }
      ],
      "name": "freeToken",
      "outputs": [],
      "stateMutability": "nonpayable",
      "type": "function"
    },
    {
      "inputs": [
        {
          "internalType": "uint256",
          "name": "tokenId",
          "type": "uint256"
        }
      ],
      "name": "getApproved",
      "outputs": [
        {
          "internalType": "address",
          "name": "",
          "type": "address"
        }
      ],
      "stateMutability": "view",
      "type": "function"
    },
    {
      "inputs": [
        {
          "internalType": "uint256",
          "name": "tokenId",
          "type": "uint256"
        }
      ],
      "name": "getKyodai",
      "outputs": [
        {
          "internalType": "uint256",
          "name": "",
          "type": "uint256"
        }
      ],
      "stateMutability": "view",
      "type": "function"
    },
    {
      "inputs": [
        {
          "internalType": "uint256",
          "name": "tokenId",
          "type": "uint256"
        }
      ],
      "name": "getKyodaiAlliance",
      "outputs": [
        {
          "internalType": "uint8",
          "name": "",
          "type": "uint8"
        }
      ],
      "stateMutability": "view",
      "type": "function"
    },
    {
      "inputs": [
        {
          "internalType": "uint256[]",
          "name": "tokenIds",
          "type": "uint256[]"
        }
      ],
      "name": "getManyKyodai",
      "outputs": [
        {
          "internalType": "uint256[]",
          "name": "",
          "type": "uint256[]"
        }
      ],
      "stateMutability": "view",
      "type": "function"
    },
    {
      "inputs": [
        {
          "internalType": "address",
          "name": "_endpoint",
          "type": "address"
        }
      ],
      "name": "init",
      "outputs": [],
      "stateMutability": "nonpayable",
      "type": "function"
    },
    {
      "inputs": [
        {
          "internalType": "address",
          "name": "owner",
          "type": "address"
        },
        {
          "internalType": "address",
          "name": "operator",
          "type": "address"
        }
      ],
      "name": "isApprovedForAll",
      "outputs": [
        {
          "internalType": "bool",
          "name": "",
          "type": "bool"
        }
      ],
      "stateMutability": "view",
      "type": "function"
    },
    {
      "inputs": [
        {
          "internalType": "uint256",
          "name": "",
          "type": "uint256"
        }
      ],
      "name": "kyodais",
      "outputs": [
        {
          "internalType": "uint256",
          "name": "",
          "type": "uint256"
        }
      ],
      "stateMutability": "view",
      "type": "function"
    },
    {
      "inputs": [
        {
          "internalType": "uint16",
          "name": "_srcChainId",
          "type": "uint16"
        },
        {
          "internalType": "bytes",
          "name": "_srcAddress",
          "type": "bytes"
        },
        {
          "internalType": "uint64",
          "name": "_nonce",
          "type": "uint64"
        },
        {
          "internalType": "bytes",
          "name": "_payload",
          "type": "bytes"
        }
      ],
      "name": "lzReceive",
      "outputs": [],
      "stateMutability": "nonpayable",
      "type": "function"
    },
    {
      "inputs": [],
      "name": "merkleRoot",
      "outputs": [
        {
          "internalType": "bytes32",
          "name": "",
          "type": "bytes32"
        }
      ],
      "stateMutability": "view",
      "type": "function"
    },
    {
      "inputs": [
        {
          "internalType": "bytes32[]",
          "name": "_merkleProof",
          "type": "bytes32[]"
        },
        {
          "internalType": "uint256",
          "name": "alliance",
          "type": "uint256"
        }
      ],
      "name": "mint",
      "outputs": [],
      "stateMutability": "payable",
      "type": "function"
    },
    {
      "inputs": [],
      "name": "mintActive",
      "outputs": [
        {
          "internalType": "uint256",
          "name": "",
          "type": "uint256"
        }
      ],
      "stateMutability": "view",
      "type": "function"
    },
    {
      "inputs": [],
      "name": "name",
      "outputs": [
        {
          "internalType": "string",
          "name": "",
          "type": "string"
        }
      ],
      "stateMutability": "view",
      "type": "function"
    },
    {
      "inputs": [
        {
          "internalType": "uint256",
          "name": "",
          "type": "uint256"
        }
      ],
      "name": "officialAddys",
      "outputs": [
        {
          "internalType": "address",
          "name": "",
          "type": "address"
        }
      ],
      "stateMutability": "view",
      "type": "function"
    },
    {
      "inputs": [
        {
          "internalType": "uint16",
          "name": "_srcChainId",
          "type": "uint16"
        },
        {
          "internalType": "bytes",
          "name": "_srcAddress",
          "type": "bytes"
        },
        {
          "internalType": "uint64",
          "name": "_nonce",
          "type": "uint64"
        },
        {
          "internalType": "bytes",
          "name": "_payload",
          "type": "bytes"
        }
      ],
      "name": "onLzReceive",
      "outputs": [],
      "stateMutability": "nonpayable",
      "type": "function"
    },
    {
      "inputs": [],
      "name": "owner",
      "outputs": [
        {
          "internalType": "address",
          "name": "",
          "type": "address"
        }
      ],
      "stateMutability": "view",
      "type": "function"
    },
    {
      "inputs": [
        {
          "internalType": "uint256",
          "name": "_amount",
          "type": "uint256"
        }
      ],
      "name": "ownerMint",
      "outputs": [],
      "stateMutability": "nonpayable",
      "type": "function"
    },
    {
      "inputs": [
        {
          "internalType": "uint256",
          "name": "tokenId",
          "type": "uint256"
        }
      ],
      "name": "ownerOf",
      "outputs": [
        {
          "internalType": "address",
          "name": "",
          "type": "address"
        }
      ],
      "stateMutability": "view",
      "type": "function"
    },
    {
      "inputs": [],
      "name": "proxiableUUID",
      "outputs": [
        {
          "internalType": "bytes32",
          "name": "",
          "type": "bytes32"
        }
      ],
      "stateMutability": "view",
      "type": "function"
    },
    {
      "inputs": [
        {
          "internalType": "uint256",
          "name": "alliance",
          "type": "uint256"
        }
      ],
      "name": "publicMint",
      "outputs": [],
      "stateMutability": "payable",
      "type": "function"
    },
    {
      "inputs": [],
      "name": "renounceOwnership",
      "outputs": [],
      "stateMutability": "nonpayable",
      "type": "function"
    },
    {
      "inputs": [
        {
          "internalType": "uint16",
          "name": "_srcChainId",
          "type": "uint16"
        },
        {
          "internalType": "bytes",
          "name": "_srcAddress",
          "type": "bytes"
        },
        {
          "internalType": "uint64",
          "name": "_nonce",
          "type": "uint64"
        },
        {
          "internalType": "bytes",
          "name": "_payload",
          "type": "bytes"
        }
      ],
      "name": "retryMessage",
      "outputs": [],
      "stateMutability": "payable",
      "type": "function"
    },
    {
      "inputs": [
        {
          "internalType": "uint256",
          "name": "tokenId",
          "type": "uint256"
        },
        {
          "internalType": "uint256",
          "name": "salePrice",
          "type": "uint256"
        }
      ],
      "name": "royaltyInfo",
      "outputs": [
        {
          "internalType": "address",
          "name": "",
          "type": "address"
        },
        {
          "internalType": "uint256",
          "name": "",
          "type": "uint256"
        }
      ],
      "stateMutability": "view",
      "type": "function"
    },
    {
      "inputs": [
        {
          "internalType": "address",
          "name": "from",
          "type": "address"
        },
        {
          "internalType": "address",
          "name": "to",
          "type": "address"
        },
        {
          "internalType": "uint256",
          "name": "tokenId",
          "type": "uint256"
        }
      ],
      "name": "safeTransferFrom",
      "outputs": [],
      "stateMutability": "nonpayable",
      "type": "function"
    },
    {
      "inputs": [
        {
          "internalType": "address",
          "name": "from",
          "type": "address"
        },
        {
          "internalType": "address",
          "name": "to",
          "type": "address"
        },
        {
          "internalType": "uint256",
          "name": "tokenId",
          "type": "uint256"
        },
        {
          "internalType": "bytes",
          "name": "data",
          "type": "bytes"
        }
      ],
      "name": "safeTransferFrom",
      "outputs": [],
      "stateMutability": "nonpayable",
      "type": "function"
    },
    {
      "inputs": [
        {
          "internalType": "address",
          "name": "operator",
          "type": "address"
        },
        {
          "internalType": "bool",
          "name": "approved",
          "type": "bool"
        }
      ],
      "name": "setApprovalForAll",
      "outputs": [],
      "stateMutability": "nonpayable",
      "type": "function"
    },
    {
      "inputs": [
        {
          "internalType": "address",
          "name": "receiver",
          "type": "address"
        },
        {
          "internalType": "uint96",
          "name": "feeNumerator",
          "type": "uint96"
        }
      ],
      "name": "setDefaultRoyalty",
      "outputs": [],
      "stateMutability": "nonpayable",
      "type": "function"
    },
    {
      "inputs": [
        {
          "internalType": "uint256",
          "name": "newVal",
          "type": "uint256"
        }
      ],
      "name": "setGasForDestinationLzReceive",
      "outputs": [],
      "stateMutability": "nonpayable",
      "type": "function"
    },
    {
      "inputs": [
        {
          "internalType": "address",
          "name": "_lzEndpoint",
          "type": "address"
        }
      ],
      "name": "setLzEndpoint",
      "outputs": [],
      "stateMutability": "nonpayable",
      "type": "function"
    },
    {
      "inputs": [
        {
          "internalType": "bytes32",
          "name": "rootHash",
          "type": "bytes32"
        }
      ],
      "name": "setMerkleRoot",
      "outputs": [],
      "stateMutability": "nonpayable",
      "type": "function"
    },
    {
      "inputs": [
        {
          "internalType": "uint256",
          "name": "index",
          "type": "uint256"
        },
        {
          "internalType": "address",
          "name": "newAddy",
          "type": "address"
        }
      ],
      "name": "setNewAddy",
      "outputs": [],
      "stateMutability": "nonpayable",
      "type": "function"
    },
    {
      "inputs": [
        {
          "internalType": "uint16",
          "name": "_chainId",
          "type": "uint16"
        },
        {
          "internalType": "bytes",
          "name": "_trustedRemote",
          "type": "bytes"
        }
      ],
      "name": "setTrustedRemote",
      "outputs": [],
      "stateMutability": "nonpayable",
      "type": "function"
    },
    {
      "inputs": [
        {
          "internalType": "bytes4",
          "name": "interfaceId",
          "type": "bytes4"
        }
      ],
      "name": "supportsInterface",
      "outputs": [
        {
          "internalType": "bool",
          "name": "",
          "type": "bool"
        }
      ],
      "stateMutability": "view",
      "type": "function"
    },
    {
      "inputs": [],
      "name": "symbol",
      "outputs": [
        {
          "internalType": "string",
          "name": "",
          "type": "string"
        }
      ],
      "stateMutability": "view",
      "type": "function"
    },
    {
      "inputs": [
        {
          "internalType": "uint256",
          "name": "status",
          "type": "uint256"
        }
      ],
      "name": "toggleMint",
      "outputs": [],
      "stateMutability": "nonpayable",
      "type": "function"
    },
    {
      "inputs": [
        {
          "internalType": "uint256",
          "name": "_tokenId",
          "type": "uint256"
        }
      ],
      "name": "tokenURI",
      "outputs": [
        {
          "internalType": "string",
          "name": "",
          "type": "string"
        }
      ],
      "stateMutability": "view",
      "type": "function"
    },
    {
      "inputs": [],
      "name": "totalSupply",
      "outputs": [
        {
          "internalType": "uint256",
          "name": "_supply",
          "type": "uint256"
        }
      ],
      "stateMutability": "view",
      "type": "function"
    },
    {
      "inputs": [
        {
          "internalType": "address",
          "name": "from",
          "type": "address"
        },
        {
          "internalType": "address",
          "name": "to",
          "type": "address"
        },
        {
          "internalType": "uint256",
          "name": "tokenId",
          "type": "uint256"
        }
      ],
      "name": "transferFrom",
      "outputs": [],
      "stateMutability": "nonpayable",
      "type": "function"
    },
    {
      "inputs": [
        {
          "internalType": "address",
          "name": "newOwner",
          "type": "address"
        }
      ],
      "name": "transferOwnership",
      "outputs": [],
      "stateMutability": "nonpayable",
      "type": "function"
    },
    {
      "inputs": [
        {
          "internalType": "uint16",
          "name": "_chainId",
          "type": "uint16"
        },
        {
          "internalType": "uint256",
          "name": "tokenId",
          "type": "uint256"
        }
      ],
      "name": "traverseChains",
      "outputs": [],
      "stateMutability": "payable",
      "type": "function"
    },
    {
      "inputs": [
        {
          "internalType": "uint16",
          "name": "",
          "type": "uint16"
        }
      ],
      "name": "trustedRemoteLookup",
      "outputs": [
        {
          "internalType": "bytes",
          "name": "",
          "type": "bytes"
        }
      ],
      "stateMutability": "view",
      "type": "function"
    },
    {
      "inputs": [
        {
          "internalType": "address",
          "name": "newImplementation",
          "type": "address"
        }
      ],
      "name": "upgradeTo",
      "outputs": [],
      "stateMutability": "nonpayable",
      "type": "function"
    },
    {
      "inputs": [
        {
          "internalType": "address",
          "name": "newImplementation",
          "type": "address"
        },
        {
          "internalType": "bytes",
          "name": "data",
          "type": "bytes"
        }
      ],
      "name": "upgradeToAndCall",
      "outputs": [],
      "stateMutability": "payable",
      "type": "function"
    },
    {
      "inputs": [],
      "name": "withdraw",
      "outputs": [],
      "stateMutability": "nonpayable",
      "type": "function"
    }
  ],
  "bytecode": "0x60a06040523060805234801561001457600080fd5b506080516146a261004c6000396000818161122301528181611263015281816116260152818161166601526116f501526146a26000f3fe6080604052600436106102fe5760003560e01c806370a0823111610190578063bc91878d116100dc578063e5e01c1111610095578063ed102eae1161006f578063ed102eae146109fd578063f046789814610a5d578063f19e75d414610a9f578063f2fde38b14610abf57600080fd5b8063e5e01c1114610974578063e985e9c514610994578063eb8d72b7146109dd57600080fd5b8063bc91878d146108ce578063c87b56dd146108ee578063cacc420f1461090e578063cf89fa031461092e578063d1deba1f14610941578063d9331a111461095457600080fd5b80638ee74912116101495780639bb021ac116101235780639bb021ac14610834578063a22cb46514610861578063b218d31114610881578063b88d4fde146108ae57600080fd5b80638ee7491214610794578063943fb872146107ff57806395d89b411461081f57600080fd5b806370a08231146106d4578063715018a6146106f45780637533d788146107095780637cb6475914610729578063846fd1b7146107495780638da5cb5b1461077657600080fd5b80632a55205a1161024f57806342842e0e1161020857806352d1902d116101e257806352d1902d146106045780635d1b2bb814610619578063602e7587146106945780636352211e146106b457600080fd5b806342842e0e146105be57806345de0d9b146105de5780634f1ef286146105f157600080fd5b80632a55205a146104e95780632db11544146105285780632eb4a7ab1461053b5780633132aba4146105525780633659cfe6146105895780633ccfd60b146105a957600080fd5b80630d1657e8116102bc5780631c37a822116102965780631c37a822146104645780631f4bea581461048457806323b872dd146104b257806325fd90f3146104d257600080fd5b80630d1657e8146103f457806318160ddd1461042f57806319ab453c1461044457600080fd5b80621d35671461030357806301ffc9a71461032557806304634d8d1461035a57806306fdde031461037a578063081812fc1461039c578063095ea7b3146103d4575b600080fd5b34801561030f57600080fd5b5061032361031e3660046136e7565b610adf565b005b34801561033157600080fd5b50610345610340366004613781565b610cd9565b60405190151581526020015b60405180910390f35b34801561036657600080fd5b506103236103753660046137b3565b610cea565b34801561038657600080fd5b5061038f610d00565b6040516103519190613848565b3480156103a857600080fd5b506103bc6103b736600461385b565b610d92565b6040516001600160a01b039091168152602001610351565b3480156103e057600080fd5b506103236103ef366004613874565b610db9565b34801561040057600080fd5b5061042161040f36600461385b565b60d06020526000908152604090205481565b604051908152602001610351565b34801561043b57600080fd5b50610421610dd2565b34801561045057600080fd5b5061032361045f3660046138a0565b610e07565b34801561047057600080fd5b5061032361047f3660046136e7565b610fae565b34801561049057600080fd5b5061042161049f36600461385b565b6101696020526000908152604090205481565b3480156104be57600080fd5b506103236104cd3660046138bd565b61101d565b3480156104de57600080fd5b506104216101675481565b3480156104f557600080fd5b506105096105043660046138fe565b611075565b604080516001600160a01b039093168352602083019190915201610351565b61032361053636600461385b565b611123565b34801561054757600080fd5b5061042161016a5481565b34801561055e57600080fd5b506103bc61056d36600461385b565b610168602052600090815260409020546001600160a01b031681565b34801561059557600080fd5b506103236105a43660046138a0565b611219565b3480156105b557600080fd5b506103236112f5565b3480156105ca57600080fd5b506103236105d93660046138bd565b61136e565b6103236105ec366004613920565b6113c6565b6103236105ff3660046139cb565b61161c565b34801561061057600080fd5b506104216116e8565b34801561062557600080fd5b5061066461063436600461385b565b600090815260cf6020526040902054606081901b9160c082901c9161ffff60b082901c81169260a09290921c1690565b604080516bffffffffffffffffffffffff1990951685526020850193909352918301526060820152608001610351565b3480156106a057600080fd5b506103236106af36600461385b565b61179b565b3480156106c057600080fd5b506103bc6106cf36600461385b565b6117a9565b3480156106e057600080fd5b506104216106ef3660046138a0565b6117b4565b34801561070057600080fd5b5061032361183a565b34801561071557600080fd5b5061038f610724366004613a1a565b61184e565b34801561073557600080fd5b5061032361074436600461385b565b6118e8565b34801561075557600080fd5b5061042161076436600461385b565b600090815260cf602052604090205490565b34801561078257600080fd5b506097546001600160a01b03166103bc565b3480156107a057600080fd5b506107ea6107af366004613a35565b60ca60209081526000938452604080852084518086018401805192815290840195840195909520945292905282529020805460019091015482565b60408051928352602083019190915201610351565b34801561080b57600080fd5b5061032361081a36600461385b565b6118f6565b34801561082b57600080fd5b5061038f611903565b34801561084057600080fd5b5061085461084f366004613a8b565b611912565b6040516103519190613aff565b34801561086d57600080fd5b5061032361087c366004613b51565b6119c6565b34801561088d57600080fd5b5061042161089c36600461385b565b60cf6020526000908152604090205481565b3480156108ba57600080fd5b506103236108c9366004613b7f565b6119da565b3480156108da57600080fd5b506103236108e936600461385b565b611a3a565b3480156108fa57600080fd5b5061038f61090936600461385b565b611ac0565b34801561091a57600080fd5b50610323610929366004613bde565b611bbd565b61032361093c366004613c03565b611bf4565b61032361094f366004613c60565b611ee4565b34801561096057600080fd5b5061032361096f3660046138a0565b612071565b34801561098057600080fd5b5061032361098f366004613ceb565b61209b565b3480156109a057600080fd5b506103456109af366004613d2c565b6001600160a01b039182166000908152606a6020908152604080832093909416825291909152205460ff1690565b3480156109e957600080fd5b506103236109f8366004613d5a565b6120b0565b348015610a0957600080fd5b50610a36610a1836600461385b565b600090815260d060205260409020549060a082901c9060a883901c90565b604080516001600160a01b03909416845260ff909216602084015290820152606001610351565b348015610a6957600080fd5b50610a8d610a7836600461385b565b600090815260cf602052604090205460c01c90565b60405160ff9091168152602001610351565b348015610aab57600080fd5b50610323610aba36600461385b565b6120d6565b348015610acb57600080fd5b50610323610ada3660046138a0565b612162565b60c9546001600160a01b03163314610af657600080fd5b61ffff8416600090815260cb602052604090208054610b1490613dac565b90508351148015610b53575061ffff8416600090815260cb6020526040908190209051610b419190613de6565b60405180910390208380519060200120145b610bc15760405162461bcd60e51b815260206004820152603460248201527f4e6f6e626c6f636b696e6752656365697665723a20696e76616c696420736f756044820152731c98d9481cd95b991a5b99c818dbdb9d1c9858dd60621b60648201526084015b60405180910390fd5b604051630e1bd41160e11b81523090631c37a82290610bea908790879087908790600401613e5c565b600060405180830381600087803b158015610c0457600080fd5b505af1925050508015610c15575060015b610cd357604051806040016040528082518152602001828051906020012081525060ca60008661ffff1661ffff16815260200190815260200160002084604051610c5f9190613ea5565b9081526040805191829003602090810183206001600160401b038716600090815290825291909120835181559201516001909201919091557fe6f254030bcb01ffd20558175c13fcaed6d1520be7becee4c961b65f79243b0d90610cca908690869086908690613e5c565b60405180910390a15b50505050565b6000610ce4826121d8565b92915050565b610cf26121fd565b610cfc8282612257565b5050565b606060658054610d0f90613dac565b80601f0160208091040260200160405190810160405280929190818152602001828054610d3b90613dac565b8015610d885780601f10610d5d57610100808354040283529160200191610d88565b820191906000526020600020905b815481529060010190602001808311610d6b57829003601f168201915b5050505050905090565b6000610d9d82612354565b506000908152606960205260409020546001600160a01b031690565b81610dc3816123b3565b610dcd838361246c565b505050565b6000805b6003811015610e035760008181526101696020526040902054610df99083613ed7565b9150600101610dd6565b5090565b600054610100900460ff1615808015610e275750600054600160ff909116105b80610e415750303b158015610e41575060005460ff166001145b610ea45760405162461bcd60e51b815260206004820152602e60248201527f496e697469616c697a61626c653a20636f6e747261637420697320616c72656160448201526d191e481a5b9a5d1a585b1a5e995960921b6064820152608401610bb8565b6000805460ff191660011790558015610ec7576000805461ff0019166101001790555b600161016781905550610f1b6040518060400160405280600b81526020016a43796265724b796f64616960a81b815250604051806040016040528060068152602001654b594f44414960d01b81525061257c565b610f236125d1565b610f42733cc6cdda760b79bafa08df41ecfa224f810dceb66001612600565b610f4a6127a7565b60c980546001600160a01b0319166001600160a01b0384161790558015610cfc576000805461ff0019169055604051600181527f7f26b83ff96e1f2b6a682f133852f6798a09c465da95921460cefb38474024989060200160405180910390a15050565b3330146110115760405162461bcd60e51b815260206004820152602b60248201527f4e6f6e626c6f636b696e6752656365697665723a2063616c6c6572206d75737460448201526a10313290213934b233b29760a91b6064820152608401610bb8565b610cd3848484846127ce565b826001600160a01b038116331461103757611037336123b3565b600082815260d0602052604090205460a01c60ff161561106a57604051635a8181f760e01b815260040160405180910390fd5b610cd384848461283e565b600082815260d2602090815260408083208151808301909252546001600160a01b038116808352600160a01b9091046001600160601b03169282019290925282916110ea57506040805180820190915260d1546001600160a01b0381168252600160a01b90046001600160601b031660208201525b602081015160009061271090611109906001600160601b031687613eea565b6111139190613f17565b91519350909150505b9250929050565b33321480156111315750333b155b6111765760405162461bcd60e51b81526020600482015260166024820152751e5bdd49dc99481d1c9e5a5b99c81d1bc818da19585d60521b6044820152606401610bb8565b611181600382613f2b565b9050610167546004146111a757604051637f0efd8560e01b815260040160405180910390fd5b3466753d533d968000146111ce5760405163162908e360e11b815260040160405180910390fd5b60008181526101696020526040902054610457906111ed906001613ed7565b111561120c57604051634237dcf160e11b815260040160405180910390fd5b611216338261286f565b50565b6001600160a01b037f00000000000000000000000000000000000000000000000000000000000000001630036112615760405162461bcd60e51b8152600401610bb890613f3f565b7f00000000000000000000000000000000000000000000000000000000000000006001600160a01b03166112aa600080516020614626833981519152546001600160a01b031690565b6001600160a01b0316146112d05760405162461bcd60e51b8152600401610bb890613f8b565b6112d98161298c565b6040805160008082526020820190925261121691839190612994565b6112fd6121fd565b60006113116097546001600160a01b031690565b6001600160a01b03164760405160006040518083038185875af1925050503d806000811461135b576040519150601f19603f3d011682016040523d82523d6000602084013e611360565b606091505b505090508061121657600080fd5b826001600160a01b038116331461138857611388336123b3565b600082815260d0602052604090205460a01c60ff16156113bb57604051635a8181f760e01b815260040160405180910390fd5b610cd3848484612aff565b33321480156113d45750333b155b6114195760405162461bcd60e51b81526020600482015260166024820152751e5bdd49dc99481d1c9e5a5b99c81d1bc818da19585d60521b6044820152606401610bb8565b611424600382613f2b565b610167549091506002811480159061143d575080600314155b1561145b57604051637f0efd8560e01b815260040160405180910390fd5b80600214801561147257503466753d533d96800014155b156114905760405163162908e360e11b815260040160405180910390fd5b33600881901c600090815261016b6020526040902054600160ff9092169190911b16156114d05760405163afb3768960e01b815260040160405180910390fd5b61016a546040516bffffffffffffffffffffffff193360601b16602082015261151391859160340160405160208183030381529060405280519060200120612b1a565b611530576040516309bde33960e01b815260040160405180910390fd5b8060021461154057610ca0611544565b6107ce5b61ffff168160021461155757600161155a565b60025b60ff16611565610dd2565b61156f9190613ed7565b111561158e57604051634237dcf160e11b815260040160405180910390fd5b610457816002146115a05760016115a3565b60025b600084815261016960205260409020546115c09160ff1690613ed7565b11156115df57604051634237dcf160e11b815260040160405180910390fd5b33600881901c600090815261016b602052604090208054600160ff84161b17905561160a908361286f565b80600203610dcd57610dcd338361286f565b6001600160a01b037f00000000000000000000000000000000000000000000000000000000000000001630036116645760405162461bcd60e51b8152600401610bb890613f3f565b7f00000000000000000000000000000000000000000000000000000000000000006001600160a01b03166116ad600080516020614626833981519152546001600160a01b031690565b6001600160a01b0316146116d35760405162461bcd60e51b8152600401610bb890613f8b565b6116dc8261298c565b610cfc82826001612994565b6000306001600160a01b037f000000000000000000000000000000000000000000000000000000000000000016146117885760405162461bcd60e51b815260206004820152603860248201527f555550535570677261646561626c653a206d757374206e6f742062652063616c60448201527f6c6564207468726f7567682064656c656761746563616c6c00000000000000006064820152608401610bb8565b5060008051602061462683398151915290565b6117a36121fd565b61016755565b6000610ce482612b30565b60006001600160a01b03821661181e5760405162461bcd60e51b815260206004820152602960248201527f4552433732313a2061646472657373207a65726f206973206e6f7420612076616044820152683634b21037bbb732b960b91b6064820152608401610bb8565b506001600160a01b031660009081526068602052604090205490565b6118426121fd565b61184c6000612b90565b565b60cb602052600090815260409020805461186790613dac565b80601f016020809104026020016040519081016040528092919081815260200182805461189390613dac565b80156118e05780601f106118b5576101008083540402835291602001916118e0565b820191906000526020600020905b8154815290600101906020018083116118c357829003601f168201915b505050505081565b6118f06121fd565b61016a55565b6118fe6121fd565b60cc55565b606060668054610d0f90613dac565b60606000826001600160401b0381111561192e5761192e61360d565b604051908082528060200260200182016040528015611957578160200160208202803683370190505b50905060005b838110156119be5760cf600086868481811061197b5761197b613fd7565b905060200201358152602001908152602001600020548282815181106119a3576119a3613fd7565b60209081029190910101526119b781613fed565b905061195d565b509392505050565b816119d0816123b3565b610dcd8383612be2565b836001600160a01b03811633146119f4576119f4336123b3565b600083815260d0602052604090205460a01c60ff1615611a2757604051635a8181f760e01b815260040160405180910390fd5b611a3385858585612bed565b5050505050565b611a426121fd565b600081815260d060205260408120549060ff60a083901c169003611a9e5760405162461bcd60e51b81526020600482015260136024820152721d1bdad95b881a5cc81b9bdd081b1bd8dad959606a1b6044820152606401610bb8565b611aaa30600042612c1f565b600092835260d060205260409092209190915550565b6000818152606760205260409020546060906001600160a01b0316611ae457600080fd5b600082815260cf602090815260408083205460019093526101689091527fa61eecd4b1d33377199f79b828fac3a72ed4eaaf0d15384845cec0d6a715e90554905163ce3927db60e01b8152606083901b9260c081901c9260b09190911c61ffff16916001600160a01b039091169063ce3927db90611b6f90889087908790879060cd90600401614006565b600060405180830381865afa158015611b8c573d6000803e3d6000fd5b505050506040513d6000823e601f3d908101601f19168201604052611bb491908101906140b8565b95945050505050565b611bc56121fd565b6000918252610168602052604090912080546001600160a01b0319166001600160a01b03909216919091179055565b338181611c00826117a9565b6001600160a01b031614611c495760405162461bcd60e51b815260206004820152601060248201526f1ade5bd9185a481b9bdd081bdddb995960821b6044820152606401610bb8565b600083815260d0602052604090205460a01c60ff1615611c7c57604051635a8181f760e01b815260040160405180910390fd5b61ffff8416600090815260cb602052604081208054611c9a90613dac565b80601f0160208091040260200160405190810160405280929190818152602001828054611cc690613dac565b8015611d135780601f10611ce857610100808354040283529160200191611d13565b820191906000526020600020905b815481529060010190602001808311611cf657829003601f168201915b505050505090508051600003611d3c5760405163ac6b05f560e01b815260040160405180910390fd5b60c954611d54906001600160a01b0316600142612c1f565b600085815260d0602090815260408083209390935560cf8152828220548351339281019290925292810187905260608101929092529060800160408051601f198184030181529082905260cc54600160f01b60208401526022830152915060019060009060420160408051601f198184030181529082905260c95463040a7bb160e41b83529092506000916001600160a01b03909116906340a7bb1090611e07908c903090899087908990600401614125565b6040805180830381865afa158015611e23573d6000803e3d6000fd5b505050506040513d601f19601f82011682018060405250810190611e479190614179565b50905080341015611e6b576040516369dd640160e01b815260040160405180910390fd5b60c95460405162c5803160e81b81526001600160a01b039091169063c5803100903490611ea7908d908a908a9033906000908b9060040161419d565b6000604051808303818588803b158015611ec057600080fd5b505af1158015611ed4573d6000803e3d6000fd5b5050505050505050505050505050565b61ffff8516600090815260ca60205260408082209051611f05908790613ea5565b90815260408051602092819003830190206001600160401b0387166000908152925290206001810154909150611f8c5760405162461bcd60e51b815260206004820152602660248201527f4e6f6e626c6f636b696e6752656365697665723a206e6f2073746f726564206d60448201526565737361676560d01b6064820152608401610bb8565b805482148015611fb6575080600101548383604051611fac929190614204565b6040518091039020145b6120025760405162461bcd60e51b815260206004820152601a60248201527f4c617965725a65726f3a20696e76616c6964207061796c6f61640000000000006044820152606401610bb8565b60008082556001820155604051630e1bd41160e11b81523090631c37a822906120379089908990899089908990600401614214565b600060405180830381600087803b15801561205157600080fd5b505af1158015612065573d6000803e3d6000fd5b50505050505050505050565b6120796121fd565b60c980546001600160a01b0319166001600160a01b0392909216919091179055565b6120a36121fd565b60cd610dcd8284836142bb565b6120b86121fd565b61ffff8316600090815260cb60205260409020610cd38284836142bb565b6120de6121fd565b606661016d54106120ee57600080fd5b610d06816120fa610dd2565b6121049190613ed7565b1061210e57600080fd5b60005b818110156121465761213e61212e6097546001600160a01b031690565b612139600384613f2b565b61286f565b600101612111565b508061016d600082825461215a9190613ed7565b909155505050565b61216a6121fd565b6001600160a01b0381166121cf5760405162461bcd60e51b815260206004820152602660248201527f4f776e61626c653a206e6577206f776e657220697320746865207a65726f206160448201526564647265737360d01b6064820152608401610bb8565b61121681612b90565b60006001600160e01b0319821663152a902d60e11b1480610ce45750610ce482612c42565b6097546001600160a01b0316331461184c5760405162461bcd60e51b815260206004820181905260248201527f4f776e61626c653a2063616c6c6572206973206e6f7420746865206f776e65726044820152606401610bb8565b6127106001600160601b03821611156122c55760405162461bcd60e51b815260206004820152602a60248201527f455243323938313a20726f79616c7479206665652077696c6c206578636565646044820152692073616c65507269636560b01b6064820152608401610bb8565b6001600160a01b03821661231b5760405162461bcd60e51b815260206004820152601960248201527f455243323938313a20696e76616c6964207265636569766572000000000000006044820152606401610bb8565b604080518082019091526001600160a01b039092168083526001600160601b039091166020909201829052600160a01b9091021760d155565b6000818152606760205260409020546001600160a01b03166112165760405162461bcd60e51b8152602060048201526018602482015277115490cdcc8c4e881a5b9d985b1a59081d1bdad95b88125160421b6044820152606401610bb8565b6daaeb6d7670e522a718067333cd4e3b1561121657604051633185c44d60e21b81523060048201526001600160a01b03821660248201526daaeb6d7670e522a718067333cd4e9063c617113490604401602060405180830381865afa158015612420573d6000803e3d6000fd5b505050506040513d601f19601f82011682018060405250810190612444919061437a565b61121657604051633b79c77360e21b81526001600160a01b0382166004820152602401610bb8565b600061247782612b30565b9050806001600160a01b0316836001600160a01b0316036124e45760405162461bcd60e51b815260206004820152602160248201527f4552433732313a20617070726f76616c20746f2063757272656e74206f776e656044820152603960f91b6064820152608401610bb8565b336001600160a01b0382161480612500575061250081336109af565b6125725760405162461bcd60e51b815260206004820152603d60248201527f4552433732313a20617070726f76652063616c6c6572206973206e6f7420746f60448201527f6b656e206f776e6572206f7220617070726f76656420666f7220616c6c0000006064820152608401610bb8565b610dcd8383612c92565b600054610100900460ff166125a35760405162461bcd60e51b8152600401610bb890614397565b60408051602081019091526000815260cd906125bf90826143e2565b506205573060cc55610cfc8282612d00565b600054610100900460ff166125f85760405162461bcd60e51b8152600401610bb890614397565b61184c612d31565b600054610100900460ff166126275760405162461bcd60e51b8152600401610bb890614397565b6daaeb6d7670e522a718067333cd4e3b15610cfc5760405163c3c5a54760e01b81523060048201526daaeb6d7670e522a718067333cd4e9063c3c5a547906024016020604051808303816000875af1158015612687573d6000803e3d6000fd5b505050506040513d601f19601f820116820180604052508101906126ab919061437a565b610cfc57801561272757604051633e9f1edf60e11b81523060048201526001600160a01b03831660248201526daaeb6d7670e522a718067333cd4e90637d3e3dbe906044015b600060405180830381600087803b15801561270b57600080fd5b505af115801561271f573d6000803e3d6000fd5b505050505050565b6001600160a01b038216156127765760405163a0af290360e01b81523060048201526001600160a01b03831660248201526daaeb6d7670e522a718067333cd4e9063a0af2903906044016126f1565b604051632210724360e11b81523060048201526daaeb6d7670e522a718067333cd4e90634420e486906024016126f1565b600054610100900460ff1661184c5760405162461bcd60e51b8152600401610bb890614397565b6000806000838060200190518101906127e791906144a1565b9250925092506127f930600042612c1f565b600083815260d0602090815260408083209390935560cf81528282208490556067905220546001600160a01b0316612835576128358383612d61565b50505050505050565b6128483382612eec565b6128645760405162461bcd60e51b8152600401610bb8906144d8565b610dcd838383612f6b565b6000612879610dd2565b612884906001613ed7565b60008080526101686020527fb8607e2a62c9ca25d8e6acf2f12b8faaf864bb6a81dedcf1dd61ecbd170ea7a554604051639d9f150b60e01b8152600481018490526001600160a01b03878116602483015260448201849052606482018790529394506129509390911690639d9f150b906084016020604051808303816000875af1158015612916573d6000803e3d6000fd5b505050506040513d601f19601f8201168201806040525081019061293a9190614525565b60609190911c60c09190911b17600160b01b1790565b600082815260cf60209081526040808320939093558482526101699052908120805490919061297e90613fed565b90915550610dcd8382612d61565b6112166121fd565b7f4910fdfa16fed3260ed0e7147f7cc6da11a60208b5b9406d12a635614ffd91435460ff16156129c757610dcd836130cf565b826001600160a01b03166352d1902d6040518163ffffffff1660e01b8152600401602060405180830381865afa925050508015612a21575060408051601f3d908101601f19168201909252612a1e91810190614525565b60015b612a845760405162461bcd60e51b815260206004820152602e60248201527f45524331393637557067726164653a206e657720696d706c656d656e7461746960448201526d6f6e206973206e6f74205555505360901b6064820152608401610bb8565b6000805160206146268339815191528114612af35760405162461bcd60e51b815260206004820152602960248201527f45524331393637557067726164653a20756e737570706f727465642070726f786044820152681a58589b195555525160ba1b6064820152608401610bb8565b50610dcd83838361316b565b610dcd838383604051806020016040528060008152506119da565b600082612b278584613190565b14949350505050565b6000818152606760205260408120546001600160a01b031680610ce45760405162461bcd60e51b8152602060048201526018602482015277115490cdcc8c4e881a5b9d985b1a59081d1bdad95b88125160421b6044820152606401610bb8565b609780546001600160a01b038381166001600160a01b0319831681179093556040519116919082907f8be0079c531659141344cd1fd0a4f28419497f9722a3daafe3b4186f6b6457e090600090a35050565b610cfc338383613232565b612bf73383612eec565b612c135760405162461bcd60e51b8152600401610bb8906144d8565b610cd384848484613300565b6001600160a01b039290921660a09190911b60ff60a01b161760a89190911b1790565b60006001600160e01b031982166380ac58cd60e01b1480612c7357506001600160e01b03198216635b5e139f60e01b145b80610ce457506301ffc9a760e01b6001600160e01b0319831614610ce4565b600081815260696020526040902080546001600160a01b0319166001600160a01b0384169081179091558190612cc782612b30565b6001600160a01b03167f8c5be1e5ebec7d5bd14f71427d1e84f3dd0314c0f7b2291e5b200ac8c7c3b92560405160405180910390a45050565b600054610100900460ff16612d275760405162461bcd60e51b8152600401610bb890614397565b610cfc8282613333565b600054610100900460ff16612d585760405162461bcd60e51b8152600401610bb890614397565b61184c33612b90565b6001600160a01b038216612db75760405162461bcd60e51b815260206004820181905260248201527f4552433732313a206d696e7420746f20746865207a65726f20616464726573736044820152606401610bb8565b6000818152606760205260409020546001600160a01b031615612e1c5760405162461bcd60e51b815260206004820152601c60248201527f4552433732313a20746f6b656e20616c7265616479206d696e746564000000006044820152606401610bb8565b6000818152606760205260409020546001600160a01b031615612e815760405162461bcd60e51b815260206004820152601c60248201527f4552433732313a20746f6b656e20616c7265616479206d696e746564000000006044820152606401610bb8565b6001600160a01b038216600081815260686020908152604080832080546001019055848352606790915280822080546001600160a01b0319168417905551839291907fddf252ad1be2c89b69c2b068fc378daa952ba7f163c4a11628f55a4df523b3ef908290a45050565b600080612ef883612b30565b9050806001600160a01b0316846001600160a01b03161480612f3f57506001600160a01b038082166000908152606a602090815260408083209388168352929052205460ff165b80612f635750836001600160a01b0316612f5884610d92565b6001600160a01b0316145b949350505050565b826001600160a01b0316612f7e82612b30565b6001600160a01b031614612fa45760405162461bcd60e51b8152600401610bb89061453e565b6001600160a01b0382166130065760405162461bcd60e51b8152602060048201526024808201527f4552433732313a207472616e7366657220746f20746865207a65726f206164646044820152637265737360e01b6064820152608401610bb8565b826001600160a01b031661301982612b30565b6001600160a01b03161461303f5760405162461bcd60e51b8152600401610bb89061453e565b600081815260696020908152604080832080546001600160a01b03199081169091556001600160a01b0387811680865260688552838620805460001901905590871680865283862080546001019055868652606790945282852080549092168417909155905184937fddf252ad1be2c89b69c2b068fc378daa952ba7f163c4a11628f55a4df523b3ef91a4505050565b6001600160a01b0381163b61313c5760405162461bcd60e51b815260206004820152602d60248201527f455243313936373a206e657720696d706c656d656e746174696f6e206973206e60448201526c1bdd08184818dbdb9d1c9858dd609a1b6064820152608401610bb8565b60008051602061462683398151915280546001600160a01b0319166001600160a01b0392909216919091179055565b61317483613373565b6000825111806131815750805b15610dcd57610cd383836133b3565b600081815b84518110156119be5760008582815181106131b2576131b2613fd7565b602002602001015190508083116131f4576040805160208101859052908101829052606001604051602081830303815290604052805190602001209250613221565b60408051602081018390529081018490526060016040516020818303038152906040528051906020012092505b5061322b81613fed565b9050613195565b816001600160a01b0316836001600160a01b0316036132935760405162461bcd60e51b815260206004820152601960248201527f4552433732313a20617070726f766520746f2063616c6c6572000000000000006044820152606401610bb8565b6001600160a01b038381166000818152606a6020908152604080832094871680845294825291829020805460ff191686151590811790915591519182527f17307eab39ab6107e8899845ad3d59bd9653f200f220920489ca2b5937696c31910160405180910390a3505050565b61330b848484612f6b565b613317848484846133df565b610cd35760405162461bcd60e51b8152600401610bb890614583565b600054610100900460ff1661335a5760405162461bcd60e51b8152600401610bb890614397565b606561336683826143e2565b506066610dcd82826143e2565b61337c816130cf565b6040516001600160a01b038216907fbc7cd75a20ee27fd9adebab32041f755214dbc6bffa90cc0225b39da2e5c2d3b90600090a250565b60606133d88383604051806060016040528060278152602001614646602791396134e0565b9392505050565b60006001600160a01b0384163b156134d557604051630a85bd0160e11b81526001600160a01b0385169063150b7a02906134239033908990889088906004016145d5565b6020604051808303816000875af192505050801561345e575060408051601f3d908101601f1916820190925261345b91810190614608565b60015b6134bb573d80801561348c576040519150601f19603f3d011682016040523d82523d6000602084013e613491565b606091505b5080516000036134b35760405162461bcd60e51b8152600401610bb890614583565b805181602001fd5b6001600160e01b031916630a85bd0160e11b149050612f63565b506001949350505050565b6060600080856001600160a01b0316856040516134fd9190613ea5565b600060405180830381855af49150503d8060008114613538576040519150601f19603f3d011682016040523d82523d6000602084013e61353d565b606091505b509150915061354e86838387613558565b9695505050505050565b606083156135c75782516000036135c0576001600160a01b0385163b6135c05760405162461bcd60e51b815260206004820152601d60248201527f416464726573733a2063616c6c20746f206e6f6e2d636f6e74726163740000006044820152606401610bb8565b5081612f63565b612f6383838151156135dc5781518083602001fd5b8060405162461bcd60e51b8152600401610bb89190613848565b803561ffff8116811461360857600080fd5b919050565b634e487b7160e01b600052604160045260246000fd5b604051601f8201601f191681016001600160401b038111828210171561364b5761364b61360d565b604052919050565b60006001600160401b0382111561366c5761366c61360d565b50601f01601f191660200190565b600082601f83011261368b57600080fd5b813561369e61369982613653565b613623565b8181528460208386010111156136b357600080fd5b816020850160208301376000918101602001919091529392505050565b80356001600160401b038116811461360857600080fd5b600080600080608085870312156136fd57600080fd5b613706856135f6565b935060208501356001600160401b038082111561372257600080fd5b61372e8883890161367a565b945061373c604088016136d0565b9350606087013591508082111561375257600080fd5b5061375f8782880161367a565b91505092959194509250565b6001600160e01b03198116811461121657600080fd5b60006020828403121561379357600080fd5b81356133d88161376b565b6001600160a01b038116811461121657600080fd5b600080604083850312156137c657600080fd5b82356137d18161379e565b915060208301356001600160601b03811681146137ed57600080fd5b809150509250929050565b60005b838110156138135781810151838201526020016137fb565b50506000910152565b600081518084526138348160208601602086016137f8565b601f01601f19169290920160200192915050565b6020815260006133d8602083018461381c565b60006020828403121561386d57600080fd5b5035919050565b6000806040838503121561388757600080fd5b82356138928161379e565b946020939093013593505050565b6000602082840312156138b257600080fd5b81356133d88161379e565b6000806000606084860312156138d257600080fd5b83356138dd8161379e565b925060208401356138ed8161379e565b929592945050506040919091013590565b6000806040838503121561391157600080fd5b50508035926020909101359150565b6000806040838503121561393357600080fd5b82356001600160401b038082111561394a57600080fd5b818501915085601f83011261395e57600080fd5b81356020828211156139725761397261360d565b8160051b9250613983818401613623565b828152928401810192818101908985111561399d57600080fd5b948201945b848610156139bb578535825294820194908201906139a2565b9997909101359750505050505050565b600080604083850312156139de57600080fd5b82356139e98161379e565b915060208301356001600160401b03811115613a0457600080fd5b613a108582860161367a565b9150509250929050565b600060208284031215613a2c57600080fd5b6133d8826135f6565b600080600060608486031215613a4a57600080fd5b613a53846135f6565b925060208401356001600160401b03811115613a6e57600080fd5b613a7a8682870161367a565b925050604084013590509250925092565b60008060208385031215613a9e57600080fd5b82356001600160401b0380821115613ab557600080fd5b818501915085601f830112613ac957600080fd5b813581811115613ad857600080fd5b8660208260051b8501011115613aed57600080fd5b60209290920196919550909350505050565b6020808252825182820181905260009190848201906040850190845b81811015613b3757835183529284019291840191600101613b1b565b50909695505050505050565b801515811461121657600080fd5b60008060408385031215613b6457600080fd5b8235613b6f8161379e565b915060208301356137ed81613b43565b60008060008060808587031215613b9557600080fd5b8435613ba08161379e565b93506020850135613bb08161379e565b92506040850135915060608501356001600160401b03811115613bd257600080fd5b61375f8782880161367a565b60008060408385031215613bf157600080fd5b8235915060208301356137ed8161379e565b60008060408385031215613c1657600080fd5b613892836135f6565b60008083601f840112613c3157600080fd5b5081356001600160401b03811115613c4857600080fd5b60208301915083602082850101111561111c57600080fd5b600080600080600060808688031215613c7857600080fd5b613c81866135f6565b945060208601356001600160401b0380821115613c9d57600080fd5b613ca989838a0161367a565b9550613cb7604089016136d0565b94506060880135915080821115613ccd57600080fd5b50613cda88828901613c1f565b969995985093965092949392505050565b60008060208385031215613cfe57600080fd5b82356001600160401b03811115613d1457600080fd5b613d2085828601613c1f565b90969095509350505050565b60008060408385031215613d3f57600080fd5b8235613d4a8161379e565b915060208301356137ed8161379e565b600080600060408486031215613d6f57600080fd5b613d78846135f6565b925060208401356001600160401b03811115613d9357600080fd5b613d9f86828701613c1f565b9497909650939450505050565b600181811c90821680613dc057607f821691505b602082108103613de057634e487b7160e01b600052602260045260246000fd5b50919050565b6000808354613df481613dac565b60018281168015613e0c5760018114613e2157613e50565b60ff1984168752821515830287019450613e50565b8760005260208060002060005b85811015613e475781548a820152908401908201613e2e565b50505082870194505b50929695505050505050565b61ffff85168152608060208201526000613e79608083018661381c565b6001600160401b03851660408401528281036060840152613e9a818561381c565b979650505050505050565b60008251613eb78184602087016137f8565b9190910192915050565b634e487b7160e01b600052601160045260246000fd5b80820180821115610ce457610ce4613ec1565b8082028115828204841417610ce457610ce4613ec1565b634e487b7160e01b600052601260045260246000fd5b600082613f2657613f26613f01565b500490565b600082613f3a57613f3a613f01565b500690565b6020808252602c908201527f46756e6374696f6e206d7573742062652063616c6c6564207468726f7567682060408201526b19195b1959d85d1958d85b1b60a21b606082015260800190565b6020808252602c908201527f46756e6374696f6e206d7573742062652063616c6c6564207468726f7567682060408201526b6163746976652070726f787960a01b606082015260800190565b634e487b7160e01b600052603260045260246000fd5b600060018201613fff57613fff613ec1565b5060010190565b858152600060206001600160601b031987168184015285604084015284606084015260a060808401526000845461403c81613dac565b8060a087015260c060018084166000811461405e5760018114614078576140a6565b60ff1985168984015283151560051b8901830195506140a6565b896000528660002060005b8581101561409e5781548b8201860152908301908801614083565b8a0184019650505b50939c9b505050505050505050505050565b6000602082840312156140ca57600080fd5b81516001600160401b038111156140e057600080fd5b8201601f810184136140f157600080fd5b80516140ff61369982613653565b81815285602083850101111561411457600080fd5b611bb48260208301602086016137f8565b61ffff861681526001600160a01b038516602082015260a0604082018190526000906141539083018661381c565b8415156060840152828103608084015261416d818561381c565b98975050505050505050565b6000806040838503121561418c57600080fd5b505080516020909101519092909150565b61ffff8716815260c0602082015260006141ba60c083018861381c565b82810360408401526141cc818861381c565b6001600160a01b0387811660608601528616608085015283810360a085015290506141f7818561381c565b9998505050505050505050565b8183823760009101908152919050565b61ffff86168152608060208201526000614231608083018761381c565b6001600160401b03861660408401528281036060840152838152838560208301376000602085830101526020601f19601f8601168201019150509695505050505050565b601f821115610dcd57600081815260208120601f850160051c8101602086101561429c5750805b601f850160051c820191505b8181101561271f578281556001016142a8565b6001600160401b038311156142d2576142d261360d565b6142e6836142e08354613dac565b83614275565b6000601f84116001811461431a57600085156143025750838201355b600019600387901b1c1916600186901b178355611a33565b600083815260209020601f19861690835b8281101561434b578685013582556020948501946001909201910161432b565b50868210156143685760001960f88860031b161c19848701351681555b505060018560011b0183555050505050565b60006020828403121561438c57600080fd5b81516133d881613b43565b6020808252602b908201527f496e697469616c697a61626c653a20636f6e7472616374206973206e6f74206960408201526a6e697469616c697a696e6760a81b606082015260800190565b81516001600160401b038111156143fb576143fb61360d565b61440f816144098454613dac565b84614275565b602080601f831160018114614444576000841561442c5750858301515b600019600386901b1c1916600185901b17855561271f565b600085815260208120601f198616915b8281101561447357888601518255948401946001909101908401614454565b50858210156144915787850151600019600388901b60f8161c191681555b5050505050600190811b01905550565b6000806000606084860312156144b657600080fd5b83516144c18161379e565b602085015160409095015190969495509392505050565b6020808252602d908201527f4552433732313a2063616c6c6572206973206e6f7420746f6b656e206f776e6560408201526c1c881bdc88185c1c1c9bdd9959609a1b606082015260800190565b60006020828403121561453757600080fd5b5051919050565b60208082526025908201527f4552433732313a207472616e736665722066726f6d20696e636f72726563742060408201526437bbb732b960d91b606082015260800190565b60208082526032908201527f4552433732313a207472616e7366657220746f206e6f6e20455243373231526560408201527131b2b4bb32b91034b6b83632b6b2b73a32b960711b606082015260800190565b6001600160a01b038581168252841660208201526040810183905260806060820181905260009061354e9083018461381c565b60006020828403121561461a57600080fd5b81516133d88161376b56fe360894a13ba1a3210667c828492db98dca3e2076cc3735a920a3ca505d382bbc416464726573733a206c6f772d6c6576656c2064656c65676174652063616c6c206661696c6564a26469706673582212207364858e45959260cc2620130e3b5f57931391546fac185afba53e8515ea4fb864736f6c63430008120033",
  "linkReferences": {},
  "deployedLinkReferences": {}
}