{
  "_format": "hh-sol-artifact-1",
  "contractName": "KyodaiDesc1",
  "sourceName": "contracts/mainnet/KyodaiDesc.sol",
  "abi": [
    {
      "inputs": [],
      "stateMutability": "nonpayable",
      "type": "constructor"
    },
    {
      "inputs": [
        {
          "internalType": "uint256",
          "name": "tokenId",
          "type": "uint256"
        },
        {
          "internalType": "bytes20",
          "name": "name",
          "type": "bytes20"
        },
        {
          "internalType": "uint256",
          "name": "traitHash",
          "type": "uint256"
        },
        {
          "internalType": "uint256",
          "name": "level",
          "type": "uint256"
        },
        {
          "internalType": "string",
          "name": "baseURI",
          "type": "string"
        }
      ],
      "name": "tokenURI",
      "outputs": [
        {
          "internalType": "string",
          "name": "",
          "type": "string"
        }
      ],
      "stateMutability": "view",
      "type": "function"
    }
  ],
  "bytecode": "0x600861016090815267416c6c69616e636560c01b610180526080908152600a6101a090815269109858dad9dc9bdd5b9960b21b6101c05260a05260076101e08181526645617272696e6760c81b6102005260c05260066102209081526541747469726560d01b6102405260e05260096102609081526843796265727761726560b81b610280526101005260046102a0818152634661636560e01b6102c052610120526103206040526102e0908152631219585960e21b6103005261014052620000cb9160009162002727565b5060405180610100016040528060405180604001604052806004815260200163426c756560e01b81525081526020016040518060400160405280600581526020016423b932b2b760d91b815250815260200160405180604001604052806006815260200165507572706c6560d01b81525081526020016040518060400160405280600381526020016214995960ea1b815250815260200160405180604001604052806004815260200163426c756560e01b81525081526020016040518060400160405280600581526020016423b932b2b760d91b815250815260200160405180604001604052806006815260200165507572706c6560d01b81525081526020016040518060400160405280600381526020016214995960ea1b8152508152506007906008620001fc92919062002777565b5060405180606001604052806040518060400160405280600b81526020016a527975696368692d6b616960a81b81525081526020016040518060400160405280600d81526020016c546f7261686964652d67756d6960981b81525081526020016040518060400160405280600a8152602001694e6f62752d72656e676f60b01b815250815250600f90600362000294929190620027b5565b50604051806101000160405280604051806040016040528060048152602001634e6f6e6560e01b81525081526020016040518060400160405280600581526020016443726f737360d81b815250815260200160405180604001604052806007815260200166111a585b5bdb9960ca1b815250815260200160405180604001604052806005815260200164090cad8d2f60db1b8152508152602001604051806040016040528060048152602001630486f6f760e41b8152508152602001604051806040016040528060088152602001671499590814dd1d5960c21b8152508152602001604051806040016040528060038152602001622130b960e91b81525081526020016040518060400160405280600a815260200169109b1858dac814dd1d5960b21b8152508152506012906008620003cf929190620027f3565b50604080516104808101825260046104408201818152634e6f6e6560e01b610460840152825282518084018452600d8082526c12985a5b08129d5b5c1cdd5a5d609a1b60208381019190915280850192909252845180860186526006808252654a657273657960d01b828501528587019190915285518087018752818152654b696d6f6e6f60d01b818501526060860152855180870187526007808252664b6f6d62696e6960c81b82860152608087019190915286518088018852600e8082526d1319585d1a195c88129858dad95d60921b8287015260a088019190915287518089018952600f8082526e13985b9bddd85d9948129858dad95d608a1b8288015260c08901919091528851808a018a52600b8082526a4e656f6e20486f6f64696560a81b8289015260e08a01919091528951808b018b528681526c149bd8dad95c88129858dad95d609a1b818901526101008a01528951808b018b52848152665361726173686960c81b818901526101208a01528951808b018b528381526d5363686f6f6c20556e69666f726d60901b818901526101408a01528951808b018b5260058082526414da1a5c9d60da1b828a01526101608b01919091528a51808c018c528381526e29bab4ba102bb4ba341029b1b0b93360891b818a01526101808b01528a51808c018c528981526314dd5a5d60e21b818a01526101a08b01528a51808c018c52600c8082526b53756b616a616e204e6f627560a01b828b01526101c08c01919091528b51808d018d528381526a53756b616a616e2052797560a81b818b01526101e08c01528b51808d018d529081526b53756b616a616e20546f726160a01b818a01526102008b01528a51808c018c528781526c151858dd1a58d85b0815995cdd609a1b818a01526102208b01528a51808c018c5294855266054616e6b746f760cc1b858901526102408a01949094528951808b018b528281526e546563687765617220486f6f64696560881b818901526102608a01528951808b018b528281526e5465636877656172204b696d6f6e6f60881b818901526102808a01528951808b018b52601381527f546563687765617220547572746c656e65636b00000000000000000000000000818901526102a08a01528951808b018b529586526c151c985a5b9a5b99c814dd5a5d609a1b868801526102c08901959095528851808a018a529081526e151d5c9d1b195b9958dac814dd5a5d608a1b818701526102e0880152875180890189528181526d15985c9cda5d1e48129858dad95d60921b818701526103008801528751808901895291825264416b69726160d81b82860152610320870191909152865180880188526009808252682130b93a32b73232b960b91b828701526103408801919091528751808901895260128152710426c6f6f64737461696e2054616e6b746f760741b818701526103608801528751808901895290815268109bd91e4814dd5a5d60ba1b81860152610380870152865180880188529485526310dbd85d60e21b858501526103a086019490945285518087018752908152654379626f726760d01b818401526103c0850152845180860186529081526a111c995cdcc814da1a5c9d60aa1b818301526103e0840152835180850185529182526d2330b9ba3337b7b21020b83937b760911b8282015261040083019190915282518084019093526011835270119d5c8810dbdb1b185c88129858dad95d607a1b90830152610420810191909152620008d790601c90602262002831565b50604080516106808101825260046106408201818152634e6f6e6560e01b610660840152825282518084018452600a8082526910dbddd89bde4812185d60b21b602083810191909152808501929092528451808601865260088082526710dc995dc810dd5d60c21b828501528587019190915285518087018752601081526f4375727461696e20506c6174696e756d60801b8185015260608601528551808701875260078082526621bab93a30b4b760c91b82860152608087019190915286518088018852600e8082526d21bcb132b9102534b733b0b9b0b760911b8287015260a088019190915287518089018952600d8082526c11985d5e0812185ddac8149959609a1b8288015260c08901919091528851808a018a52838152660466c61746361760cc1b8188015260e08901528851808a018a528181526c11d95b9d195b1b585b8812185d609a1b818801526101008901528851808a018a528481526704a6f6a6f204361760c41b818801526101208901528851808a018a52600f81526e4d756c6c6574204b696e706174737560881b818801526101408901528851808a018a526006815265135d5b1b195d60d21b818801526101608901528851808a018a526009808252682837b6b830b237bab960b91b828901526101808a01919091528951808b018b528181526850756e63687065726d60b81b818901526101a08a01528951808b018b5285815267050756e6b204361760c41b818901526101c08a01528951808b018b529788526350756e6b60e01b888801526101e08901979097528851808a018a52600c8082526b14dad85d194812195b1b595d60a21b828901526102008a01919091528951808b018b528581526714dada5b9a19585960c21b818901526102208a01528951808b018b528281526c29b634b1b59021bab93a30b4b760991b8189018190526102408b01919091528a51808c018c52838152808901919091526102608a01528951808b018b5285815267536e61706261636b60c01b818901526102808a01528951808b018b52868152695370696b7920426c756560b01b818901526102a08a01528951808b018b528881526814dd585d994810dd5d60ba1b818901526102c08a01528951808b018b52601281527114dd585d9948155b99195c98dd5d0814995960721b818901526102e08a01528951808b018b528381526d14dd585d9948155b99195c98dd5d60921b818901526103008a01528951808b018b52958652695377657074204261636b60b01b868801526103208901959095528851808a018a52838152660546563686361760cc1b818801526103408901528851808a018a52600b8082526a0547275636b6572204361760ac1b828901526103608a01919091528951808b018b52601180825270547769737465642048616368696d616b6960781b828a01526103808b01919091528a51808c018c5281815270556e64657263757420447265646c6f636b60781b818a01526103a08b01528a51808c018c52601781527f556e64657263757420447265646c6f636b20477265656e000000000000000000818a01526103c08b01528a51808c018c528481526d2ab73232b931baba1023b932b2b760911b818a01526103e08b01528a51808c018c5286815267155b99195c98dd5d60c21b818a01526104008b01528a51808c018c5285815266557368616e6b6160c81b818a01526104208b01528a51808c018c528981526805669736f72204361760bc1b818a01526104408b01528a51808c018c529384526d5a65726f2048616368696d616b6960901b848901526104608a01939093528951808b018b52600580825264416b69726160d81b828a01526104808b01919091528a51808c018c528581526642616e64616e6160c81b818a01526104a08b01528a51808c018c529081526442616e696560d81b818901526104c08a01528951808b018b529586526b04261736562616c6c204361760a41b868801526104e08901959095528851808a018a5283815266109bdddb18dd5d60ca1b818801526105008901528851808a018a529081526c42726169646564204f6d62726560981b818701526105208801528751808901895291825266109c985a59195960ca1b828601526105408701919091528651808801885294855268109d58dad95d1a185d60ba1b85850152610560860194909452855180870187526003815262213ab760e91b81850152610580860152855180870187529384527042757a7a20437574204b696e706174737560781b848401526105a08501939093528451808601865283815267109d5e9e8810dd5d60c21b818401526105c0850152845180860186528181526a42757a7a204d6f6861776b60a81b818401526105e0850152845180860186529283526743686f6e6d61676560c01b8383015261060084019290925283518085019094529083526a10dbdb9a58d85b0812185d60aa1b9083015261062081019190915262000ff290603e9060326200286f565b50604080516103408101825260046103008201818152634e6f6e6560e01b610320840152825282518084018452600f8082526e48616c666d61736b2048616e6e796160881b6020838101919091528085019290925284518086018652600b8082526a48616e6e7961204d61736b60a81b828501528587019190915285518087018752600a808252694a61736f6e204d61736b60b01b828601526060870191909152865180880188526008808252674c6564204d61736b60c01b82870152608088019190915287518089018952828152695069706520536d6f6b6560b01b8187015260a0880152875180890189528681526329b1b0b960e11b8187015260c0880152875180890189528481526e536b756c6c2048616c66204661636560881b8187015260e0880152875180890189529283526a53756e20476c617373657360a81b8386015261010087019290925286518088018852600d81526c546163746963616c204d61736b60981b81860152610120870152865180880188529283526e41766961746f7220476c617373657360881b838501526101408601929092528551808701875260078082526610985b99185a5960ca1b8286015261016087019190915286518088018852600c81526b42616e64616e61204d61736b60a01b8186015261018087015286518088018852601381527f426561726420416e64204d6f7573746163686500000000000000000000000000818601526101a08701528651808801885292835269213637b7b239ba30b4b760b11b838501526101c086019290925285518087018752600980825268427562626c6567756d60b81b828601526101e0870191909152865180880188528181526843696761726574746560b81b8186015261020087015286518088018852600e81526d4379636c6f7020476c617373657360901b8186015261022087015286518088018852600681526504379636c6f760d41b8186015261024087015286518088018852918252672296a9b6b7b5b2b960c11b82850152610260860191909152855180870187529081526808af2ca40a0c2e8c6d60bb1b8184015261028085015284518086018652928352634579657360e01b838301526102a084019290925283518085018552828152664761736d61736b60c81b818301526102c0840152835180850190945290835266476c617373657360c81b908301526102e081019190915262001375906070906018620028ad565b506040518060a00160405280604051806040016040528060048152602001634e6f6e6560e01b81525081526020016040518060400160405280600d81526020016c4a61772048616c66204e65636b60981b8152508152602001604051806040016040528060048152602001634e65636b60e01b8152508152602001604051806040016040528060078152602001664379626572203160c81b81525081526020016040518060400160405280600781526020016621bcb132b9101960c91b81525081525060889060056200144a929190620028eb565b503480156200145857600080fd5b506040518061010001604052806040518060200160405280600081525081526020016040518060c0016040528060988152602001620071096098913981526020016040518060e0016040528060a481526020016200690560a4913981526020016040518060e0016040528060c081526020016200523960c0913981526020016040518060e0016040528060a8815260200162004a6160a8913981526020016040518060e0016040528060a481526020016200957560a4913981526020016040518060e0016040528060a88152602001620052f960a8913981526020016040518060e0016040528060a48152602001620057c960a4913990526200156090608d90600862002777565b50604080516102a08101909152610208606082018181528291620096196080840139815260200160405180610100016040528060e0815260200162005db560e091398152602001604051806101a0016040528061016c815260200162008a8561016c91399052620015d6906095906003620027b5565b50604080516105e081019091526105486060820181815282916200586d608084013981526020016040518061052001604052806104ec8152602001620043656104ec913981526020016040518061052001604052806104ec8152602001620090896104ec913990526200164e906098906003620027b5565b50604080516104a0810190915261041c606082018181528291620071a1608084013981526020016040518061046001604052806104288152602001620053a161042891398152602001604051806104800160405280610454815260200162004de561045491399052620016c690609b906003620027b5565b506040518060a001604052806040518060200160405280600081525081526020016040518061022001604052806101f8815260200162006f116101f891398152602001604051806101a00160405280610180815260200162004b0961018091398152602001604051806101e001604052806101bc8152602001620064016101bc91398152602001604051806101a00160405280610180815260200162008641610180913990526200177c90609e906005620028eb565b50604051806104400160405280604051806020016040528060008152508152602001604051806103c00160405280610384815260200162005e9561038491398152602001604051806103c00160405280610384815260200162005e9561038491398152602001604051806103c00160405280610384815260200162005e9561038491398152602001604051806103c00160405280610384815260200162005e95610384913981526020016040518061042001604052806103f4815260200162009f296103f4913981526020016040518061042001604052806103f4815260200162009f296103f4913981526020016040518061042001604052806103f4815260200162009f296103f4913981526020016040518061042001604052806103f4815260200162009f296103f4913981526020016040518061042001604052806103f4815260200162009f296103f4913981526020016040518061042001604052806103f4815260200162009f296103f4913981526020016040518061042001604052806103f4815260200162009f296103f4913981526020016040518061042001604052806103f4815260200162009f296103f491398152602001604051806105a001604052806105688152602001620069a961056891398152602001604051806105a001604052806105688152602001620069a961056891398152602001604051806105a001604052806105688152602001620069a961056891398152602001604051806105a001604052806105688152602001620069a961056891398152602001604051806105a001604052806105688152602001620069a961056891398152602001604051806105a001604052806105688152602001620069a9610568913981526020016040518061060001604052806105c4815260200162007d116105c4913981526020016040518061060001604052806105c4815260200162007d116105c4913981526020016040518061060001604052806105c4815260200162007d116105c4913981526020016040518061060001604052806105c4815260200162007d116105c4913981526020016040518061060001604052806105c4815260200162007d116105c4913981526020016040518061060001604052806105c4815260200162007d116105c49139815260200160405180610340016040528061031c815260200162009c0d61031c9139815260200160405180610340016040528061031c815260200162009c0d61031c9139815260200160405180610340016040528061031c815260200162009c0d61031c9139815260200160405180610340016040528061031c815260200162009c0d61031c9139815260200160405180610340016040528061031c815260200162009c0d61031c9139815260200160405180610340016040528061031c815260200162009c0d61031c9139815260200160405180610340016040528061031c815260200162009c0d61031c9139815260200160405180610340016040528061031c815260200162009c0d61031c9139815260200160405180610340016040528061031c815260200162009c0d61031c9139905262001c0d9060a390602262002831565b50604051806103000160405280604051806020016040528060008152508152602001604051806103a0016040528061038081526020016200799161038091398152602001604051806103a0016040528061038081526020016200799161038091398152602001604051806103a0016040528061038081526020016200799161038091398152602001604051806103a0016040528061038081526020016200799161038091398152602001604051806103a0016040528061038081526020016200799161038091398152602001604051806103a0016040528061038081526020016200799161038091398152602001604051806103a0016040528061038081526020016200799161038091398152602001604051806101c0016040528061018481526020016200890161018491398152602001604051806101c0016040528061018481526020016200890161018491398152602001604051806101c0016040528061018481526020016200890161018491398152602001604051806101c00160405280610184815260200162008901610184913981526020016040518061020001604052806101cc815260200162008bf16101cc913981526020016040518061020001604052806101cc815260200162008bf16101cc913981526020016040518061020001604052806101cc815260200162008bf16101cc913981526020016040518061020001604052806101cc815260200162008bf16101cc913981526020016040518061016001604052806101408152602001620087c1610140913981526020016040518061016001604052806101408152602001620087c1610140913981526020016040518061016001604052806101408152602001620087c1610140913981526020016040518061016001604052806101408152602001620087c1610140913981526020016040518061016001604052806101408152602001620087c1610140913981526020016040518061022001604052806101e88152602001620062196101e8913981526020016040518061022001604052806101e88152602001620062196101e8913981526020016040518061022001604052806101e88152602001620062196101e89139905262001f4a9060c5906018620028ad565b506040518061064001604052806040518060200160405280600081525081526020016040518061042001604052806103ec8152602001620098216103ec913981526020016040518061042001604052806103ec8152602001620098216103ec913981526020016040518061042001604052806103ec8152602001620098216103ec913981526020016040518061042001604052806103ec8152602001620098216103ec913981526020016040518061042001604052806103ec8152602001620098216103ec913981526020016040518061042001604052806103ec8152602001620098216103ec9139815260200160405180610240016040528061021081526020016200485161021091398152602001604051806102400160405280610210815260200162004851610210913981526020016040518061024001604052806102108152602001620048516102109139815260200160405180610240016040528061021081526020016200485161021091398152602001604051806102400160405280610210815260200162004851610210913981526020016040518061024001604052806102108152602001620048516102109139815260200160405180610240016040528061021081526020016200485161021091398152602001604051806101e001604052806101b48152602001620077dd6101b4913981526020016040518061024001604052806102208152602001620075bd610220913981526020016040518061024001604052806102208152602001620075bd610220913981526020016040518061024001604052806102208152602001620075bd610220913981526020016040518061024001604052806102208152602001620075bd610220913981526020016040518061024001604052806102208152602001620075bd610220913981526020016040518061024001604052806102208152602001620075bd610220913981526020016040518061024001604052806102208152602001620075bd610220913981526020016040518061024001604052806102208152602001620075bd610220913981526020016040518061024001604052806102208152602001620075bd61022091398152602001604051806101e001604052806101b48152602001620077dd6101b491398152602001604051806101e001604052806101b48152602001620077dd6101b491398152602001604051806101e001604052806101b48152602001620077dd6101b491398152602001604051806101e001604052806101b48152602001620077dd6101b491398152602001604051806101e001604052806101b48152602001620077dd6101b491398152602001604051806101e001604052806101b48152602001620077dd6101b491398152602001604051806101e001604052806101b48152602001620077dd6101b491398152602001604051806101e001604052806101b48152602001620077dd6101b491398152602001604051806101e001604052806101b48152602001620077dd6101b491398152602001604051806101e001604052806101b48152602001620077dd6101b491398152602001604051806101e001604052806101b48152602001620077dd6101b491398152602001604051806101e001604052806101b48152602001620077dd6101b491398152602001604051806101e001604052806101b48152602001620077dd6101b491398152602001604051806101e001604052806101b48152602001620077dd6101b49139815260200160405180610180016040528061015c815260200162004c8961015c9139815260200160405180610180016040528061015c815260200162004c8961015c9139815260200160405180610180016040528061015c815260200162004c8961015c9139815260200160405180610180016040528061015c815260200162004c8961015c9139815260200160405180610180016040528061015c815260200162004c8961015c9139815260200160405180610180016040528061015c815260200162004c8961015c9139815260200160405180610180016040528061015c815260200162004c8961015c9139815260200160405180610180016040528061015c815260200162004c8961015c9139815260200160405180610180016040528061015c815260200162004c8961015c9139815260200160405180610180016040528061015c815260200162004c8961015c9139815260200160405180610180016040528061015c815260200162004c8961015c9139815260200160405180610180016040528061015c815260200162004c8961015c91399052620025fb9060dd9060326200286f565b5060408051610480810190915261034861010082018181528291620065bd610120840139815260200160405180610340016040528061032081526020016200a31d610320913981526020016040518061030001604052806102cc815260200162008dbd6102cc91398152602001604051806103a0016040528061036c8152602001620082d561036c913981526020016040518061038001604052806103488152602001620065bd6103489139815260200160405180610340016040528061032081526020016200a31d610320913981526020016040518061030001604052806102cc815260200162008dbd6102cc91398152602001604051806103a0016040528061036c8152602001620082d561036c91399052620027209061010f90600862002777565b5062002b14565b826007810192821562002765579160200282015b8281111562002765578251829062002754908262002a48565b50916020019190600101906200273b565b506200277392915062002929565b5090565b826008810192821562002765579160200282015b82811115620027655782518290620027a4908262002a48565b50916020019190600101906200278b565b826003810192821562002765579160200282015b82811115620027655782518290620027e2908262002a48565b5091602001919060010190620027c9565b82600a810192821562002765579160200282015b8281111562002765578251829062002820908262002a48565b509160200191906001019062002807565b826022810192821562002765579160200282015b828111156200276557825182906200285e908262002a48565b509160200191906001019062002845565b826032810192821562002765579160200282015b828111156200276557825182906200289c908262002a48565b509160200191906001019062002883565b826018810192821562002765579160200282015b82811115620027655782518290620028da908262002a48565b5091602001919060010190620028c1565b826005810192821562002765579160200282015b8281111562002765578251829062002918908262002a48565b5091602001919060010190620028ff565b80821115620027735760006200294082826200294a565b5060010162002929565b5080546200295890620029b9565b6000825580601f1062002969575050565b601f0160209004906000526020600020908101906200298991906200298c565b50565b5b808211156200277357600081556001016200298d565b634e487b7160e01b600052604160045260246000fd5b600181811c90821680620029ce57607f821691505b602082108103620029ef57634e487b7160e01b600052602260045260246000fd5b50919050565b601f82111562002a4357600081815260208120601f850160051c8101602086101562002a1e5750805b601f850160051c820191505b8181101562002a3f5782815560010162002a2a565b5050505b505050565b81516001600160401b0381111562002a645762002a64620029a3565b62002a7c8162002a758454620029b9565b84620029f5565b602080601f83116001811462002ab4576000841562002a9b5750858301515b600019600386901b1c1916600185901b17855562002a3f565b600085815260208120601f198616915b8281101562002ae55788860151825594840194600190910190840162002ac4565b508582101562002b045787850151600019600388901b60f8161c191681555b5050505050600190811b01905550565b6118418062002b246000396000f3fe608060405234801561001057600080fd5b506004361061002b5760003560e01c8063ce3927db14610030575b600080fd5b61004361003e366004610cf9565b610059565b6040516100509190610e0b565b60405180910390f35b6060836000036100e2576100bc61006f8761026f565b6040518061012001604052806101008152602001611697610100913960408051602080820183526000825291516100a894939201610e5a565b604051602081830303815290604052610378565b6040516020016100cc9190610f69565b6040516020818303038152906040529050610266565b6102446001600160601b031986161561014557604051601160f91b60208201526001600160601b03198716602182015272111610113232b9b1b934b83a34b7b7111d101160691b603582015260480160405160208183030381529060405261016e565b61014e8761026f565b60405160200161015e9190610fae565b6040516020818303038152906040525b6040518061012001604052806101008152602001611697610100913960408051600081526020810180835281519020916101aa91889101610fe6565b60405160208183030381529060405280519060200120146101ec5784896040516020016101d8929190611002565b604051602081830303815290604052610215565b6040518060400160405280600f81526020016e1134b6b0b3b2afb230ba30911d101160891b8152505b61022661022189610389565b610378565b6102308989610672565b6040516020016100a8959493929190611056565b6040516020016102549190610f69565b60405160208183030381529060405290505b95945050505050565b6060816000036102965750506040805180820190915260018152600360fc1b602082015290565b8160005b81156102c057806102aa81611155565b91506102b99050600a83611184565b915061029a565b60008167ffffffffffffffff8111156102db576102db610ce3565b6040519080825280601f01601f191660200182016040528015610305576020820181803683370190505b5090505b84156103705761031a600183611198565b9150610327600a866111ab565b6103329060306111bf565b60f81b818381518110610347576103476111d2565b60200101906001600160f81b031916908160001a905350610369600a86611184565b9450610309565b949350505050565b606061038382610bca565b92915050565b606060006040518060a00160405280607581526020016117976075913960408051808201909152600381526211179f60e91b60208201529091506103cb610cbb565b8260dd603887901c60ff16603281106103e6576103e66111d2565b01836040516020016103fa939291906112bf565b60408051808303601f1901815291905281528260c5603087901c60ff1660188110610427576104276111d2565b018360405160200161043b939291906112bf565b60408051808303601f19018152919052602082015282608d601887901c60ff166008811061046b5761046b6111d2565b018360405160200161047f939291906112bf565b60408051808303601f190181529181528201528260a360ff602088901c16602281106104ad576104ad6111d2565b01836040516020016104c1939291906112bf565b60408051808303601f19018152919052606082015282609e602887901c60ff16600581106104f1576104f16111d2565b0183604051602001610505939291906112bf565b60408051808303601f19018152919052608082015282609b60ff871660038110610531576105316111d2565b0183604051602001610545939291906112bf565b60408051808303601f1901815291905260a0820152826098601087901c60ff1660038110610575576105756111d2565b0183604051602001610589939291906112bf565b60408051808303601f1901815291905260c082015282609560ff8716600381106105b5576105b56111d2565b01836040516020016105c9939291906112bf565b60408051601f1981840301815291905260e08201528261010f600887811c60ff169081106105f9576105f96111d2565b018360405160200161060d939291906112bf565b60408051808303601f19018152918152610100830182905260e083015160c084015160a085015160808601516060870151878601516020808a01518a5198516106599a999192016112f9565b6040516020818303038152906040529350505050919050565b60608060005b6008811015610b7c57600061068e82600861157c565b86901c60ff16905060608260000361074057600f82600381106106b3576106b36111d2565b0180546106bf906111e8565b80601f01602080910402602001604051908101604052809291908181526020018280546106eb906111e8565b80156107385780601f1061070d57610100808354040283529160200191610738565b820191906000526020600020905b81548152906001019060200180831161071b57829003601f168201915b505050505090505b826001036107e8576007826008811061075b5761075b6111d2565b018054610767906111e8565b80601f0160208091040260200160405190810160405280929190818152602001828054610793906111e8565b80156107e05780601f106107b5576101008083540402835291602001916107e0565b820191906000526020600020905b8154815290600101906020018083116107c357829003601f168201915b505050505090505b8260030361089057601282600a8110610803576108036111d2565b01805461080f906111e8565b80601f016020809104026020016040519081016040528092919081815260200182805461083b906111e8565b80156108885780601f1061085d57610100808354040283529160200191610888565b820191906000526020600020905b81548152906001019060200180831161086b57829003601f168201915b505050505090505b8260040361093857601c82602281106108ab576108ab6111d2565b0180546108b7906111e8565b80601f01602080910402602001604051908101604052809291908181526020018280546108e3906111e8565b80156109305780601f1061090557610100808354040283529160200191610930565b820191906000526020600020905b81548152906001019060200180831161091357829003601f168201915b505050505090505b826005036109e05760888260058110610953576109536111d2565b01805461095f906111e8565b80601f016020809104026020016040519081016040528092919081815260200182805461098b906111e8565b80156109d85780601f106109ad576101008083540402835291602001916109d8565b820191906000526020600020905b8154815290600101906020018083116109bb57829003601f168201915b505050505090505b82600603610a8857607082601881106109fb576109fb6111d2565b018054610a07906111e8565b80601f0160208091040260200160405190810160405280929190818152602001828054610a33906111e8565b8015610a805780601f10610a5557610100808354040283529160200191610a80565b820191906000526020600020905b815481529060010190602001808311610a6357829003601f168201915b505050505090505b82600703610b3057603e8260328110610aa357610aa36111d2565b018054610aaf906111e8565b80601f0160208091040260200160405190810160405280929190818152602001828054610adb906111e8565b8015610b285780601f10610afd57610100808354040283529160200191610b28565b820191906000526020600020905b815481529060010190602001808311610b0b57829003601f168201915b505050505090505b82600214610b72578360008460078110610b4c57610b4c6111d2565b0182604051602001610b6093929190611593565b60405160208183030381529060405293505b5050600101610678565b508083604051602001610b9092919061160e565b604051602081830303815290604052905080604051602001610bb29190611662565b60405160208183030381529060405291505092915050565b606061038382600080606083518015610cb3576003600282010460021b60405192507f4142434445464748494a4b4c4d4e4f505152535455565758595a616263646566601f526106708515027f6768696a6b6c6d6e6f707172737475767778797a303132333435363738392d5f18603f52602083018181015b6003880197508751603f8160121c1651600053603f81600c1c1651600153603f8160061c1651600253603f811651600353506000518252600482019150808210610c4357602001604052613d3d60f01b600384066002048083039190915260008615159091029182900352900382525b509392505050565b6040518061012001604052806009905b6060815260200190600190039081610ccb5790505090565b634e487b7160e01b600052604160045260246000fd5b600080600080600060a08688031215610d1157600080fd5b8535945060208601356001600160601b031981168114610d3057600080fd5b93506040860135925060608601359150608086013567ffffffffffffffff80821115610d5b57600080fd5b818801915088601f830112610d6f57600080fd5b813581811115610d8157610d81610ce3565b604051601f8201601f19908116603f01168101908382118183101715610da957610da9610ce3565b816040528281528b6020848701011115610dc257600080fd5b8260208601602083013760006020848301015280955050505050509295509295909350565b60005b83811015610e02578181015183820152602001610dea565b50506000910152565b6020815260008251806020840152610e2a816040850160208701610de7565b601f01601f19169190910160400192915050565b60008151610e50818560208601610de7565b9290920192915050565b757b226e616d65223a4379626572204b796f646169202360501b81528351600090610e8c816016850160208901610de7565b72111610113232b9b1b934b83a34b7b7111d101160691b6016918401918201528451610ebf816029840160208901610de7565b7f222c22696d616765223a2022646174613a696d6167652f7376672b786d6c3b626029929091019182015265185cd94d8d0b60d21b60498201528351610f0c81604f840160208801610de7565b7f222c2261747472696275746573223a5b7b2274726169745f74797065223a2253604f92909101918201527f7461747573222c2276616c7565223a22556e696e69746961746564227d5d7d00606f820152608e0195945050505050565b7f646174613a6170706c69636174696f6e2f6a736f6e3b6261736536342c000000815260008251610fa181601d850160208701610de7565b91909101601d0192915050565b6e224379626572204b796f646169202360881b81528151600090610fd981600f850160208701610de7565b91909101600f0192915050565b60008251610ff8818460208701610de7565b9190910192915050565b691134b6b0b3b2911d101160b11b8152825160009061102881600a850160208801610de7565b600a92019182019290925270173837339116113b32b1ba37b9111d101160791b602a820152603b0192915050565b673d913730b6b2911d60c11b8152855160009061107a816008850160208b01610de7565b865190830190611091816008840160208b01610de7565b61088b60f21b6008929091019182015285516110b481600a840160208a01610de7565b7f646174613a696d6167652f7376672b786d6c3b6261736536342c000000000000600a929091019182015284516110f2816024840160208901610de7565b6e11161130ba3a3934b13aba32b9911d60891b602492909101918201528351611122816033840160208801610de7565b607d60f81b60339290910191820152603401979650505050505050565b634e487b7160e01b600052601160045260246000fd5b6000600182016111675761116761113f565b5060010190565b634e487b7160e01b600052601260045260246000fd5b6000826111935761119361116e565b500490565b818103818111156103835761038361113f565b6000826111ba576111ba61116e565b500690565b808201808211156103835761038361113f565b634e487b7160e01b600052603260045260246000fd5b600181811c908216806111fc57607f821691505b60208210810361121c57634e487b7160e01b600052602260045260246000fd5b50919050565b8054600090600181811c908083168061123c57607f831692505b6020808410820361125d57634e487b7160e01b600052602260045260246000fd5b8180156112715760018114611286576112b3565b60ff19861689528415158502890196506112b3565b60008881526020902060005b868110156112ab5781548b820152908501908301611292565b505084890196505b50505050505092915050565b600084516112d1818460208901610de7565b6112dd81840186611222565b905083516112ef818360208801610de7565b0195945050505050565b7f3c7376672069643d226b796f646169222077696474683d22313030252220686581527f696768743d22313030252220786d6c6e733d22687474703a2f2f7777772e773360208201527f2e6f72672f323030302f7376672220696d6167652d72656e646572696e673d2260408201527f706978656c61746564222076696577426f783d2230203020383420383422207360608201527f74796c653d2273686170652d72656e646572696e673a637269737065646765736080820152620111f160ed1b60a082015260008a516113d58160a3850160208f01610de7565b8a51908301906113ec8160a3840160208f01610de7565b8a519101906114028160a3840160208e01610de7565b89519101906114188160a3840160208d01610de7565b61156b61144e61144861144261143c61143660a3878901018f610e3e565b8d610e3e565b8b610e3e565b89610e3e565b87610e3e565b7f3c7374796c653e236b796f6461697b73686170652d72656e646572696e673a2081527f637269737065646765733b20696d6167652d72656e646572696e673a202d776560208201527f626b69742d63726973702d65646765733b20696d6167652d72656e646572696e60408201527f673a202d6d6f7a2d63726973702d65646765733b20696d6167652d72656e646560608201527f72696e673a2063726973702d65646765733b20696d6167652d72656e6465726960808201527f6e673a20706978656c617465643b202d6d732d696e746572706f6c6174696f6e60a08201527f2d6d6f64653a206e6561726573742d6e65696768626f723b7d3c2f7374796c6560c0820152661f1e17b9bb339f60c91b60e082015260e70190565b9d9c50505050505050505050505050565b80820281158282048414176103835761038361113f565b600084516115a5818460208901610de7565b6e3d913a3930b4ba2fba3cb832911d1160891b9083019081526115cb600f820186611222565b6a1116113b30b63ab2911d1160a91b815284519091506115f281600b840160208801610de7565b61227d60f01b600b9290910191820152600d0195945050505050565b60008351611620818460208801610de7565b7f7b2274726169745f74797065223a224c6576656c222c2276616c7565223a2200920191825250601f81019190915261227d60f01b603f820152604101919050565b605b60f81b81526000825161167e816001850160208701610de7565b605d60f81b600193909101928301525060020191905056fe44656361646573206166746572206f7070726573696f6e2066726f6d2074686520676f7665726e6d656e742c2061206e657720657261206461776e7320617320746865204b796f6461697320726573757267657320746f207365697a6520636f6e74726f6c206f7665722074686520656e69676d61746963204e656f20546f6b796f20756e646572776f726c642e2052656163682073757072656d616379207468726f75676820636f6d706574697469766520616e64207374726174656769632067616d65706c61792e20416c6c204b796f64616973206172652066756c6c792067656e65726174656420616e6420656e636f646564206f6e2d636861696e2e3c696d6167652077696474683d22383522206865696768743d2238352220696d6167652d72656e646572696e673d22706978656c6174656422207072657365727665417370656374526174696f3d22784d6964594d69642220687265663d22646174613a696d6167652f706e673b6261736536342ca26469706673582212205512a67fdb5377355dea7898b2e7c8a7c453637d413d77ce7dcb1285fce37c0e64736f6c634300081200336956424f5277304b47676f414141414e5355684555674141414655414141425643414d41414141504b31686f414141414d31424d56455541414144527249504a74706d61596c48466a4672566e32756863574b316657316e5079364c557a7741414144576d47366e7036642f66333931534459774d44416849534732442b44654141414141585253546c4d41514f62595a6741414179704a52454655574d5073314e46757779414d6865456137474d634e6d33762f37513775493269727273437271622b556852786b55383451626d39652f66754832615064707537585a4e536970795a37544c50456d58724b4c45583162616a6e7531433252304663392b4573684e645930332b52477574774c7961364a556b577250357a5a713962425831444876556e4c39657a617679684f355354613647576a656f5376575a33614b71794b387a554b3877725a7177464d3255755739516a304f4e3053624b3152474f5a665667554d74777347525831645961575768584e497063786c333138535a69566a3079674767576439584866567174376550722b477a5a352f66784566443845644430655a5650636c4265484830455538645145565462704b706552793474674e35567a564b744c6172487446713075337370564656374e78484e723455574b36715a39553456464a6d3559344d367046356b7147796764525149454a315653306b31344772714138305164554564724d6c517965714a4d714a554a2b746470424d4777686e77494964365731444e52497169426b36554e61437471536f747a796667754b5a6e742f6e632f61663265744678464161434b4c7132713170424b38332f662b3657327938315377677a316c7770454341365749415442645974473672507442335678503464326878716e6365765062613831424652745464596f643558514b567573627235797372784664444e77633762464e4274317069554464545753585a5567445762714c4e6d6d3678426d5456307162616e7275766f61442f444e76767148524c52564f484e2f6250523455465a56375873375679456f773655684b4772706a5a686c454d51585756565556576f6e37764155734745686d4c324578654b706245414571746154625947584c356e356b774b7171785656594362716456685a352b624e5663504d3079316d52502b4469757a4a38674843307231746177615775615670326279434b6b756b4655563230454c6c552b756d63455a44316147616c57314b6361664e4856446c686d386f544a3364554959725a3066786f6d4656355656505a30775046334e66734f474434394b59553549755268715531795031334c744571564b6d5544797141437069675867344b4469383255354f33794e7071544461656173512f32577a515042725a745a4164642f58694f71774236494f41666956723149366a38554465554a54594e3136487a77334f565149367159596b696842367251726a34506e395773306d5638797035524d486631776d5a2b712b4a5735564c566339587556576d716f6f7364623548623570584b4236705772545676744a53615658784573377058455656767a527569696d6654672b474a716c6430343277396f2f63716f78706858714d4b396b775647334f313767376b5641743471795a5855646b594362676653595662645832337646486a33716a696431517539522b674d437059736d3459456741414141424a52553545726b4a6767673d3d6956424f5277304b47676f414141414e5355684555674141414655414141425642414d414141444b32375670414141414956424d564555414141416e4a7964455757307a526c6c415532637551564d725146516448523037546d4d395557556f4f303665494e6d7441414141416e5253546c4d415a744a4343565541414145595355524256456a483764437854734d77454d5a78517847642b777157467a62453263676a636b35524d702b6347616a49334b6c35674762496a504941534777384a656371367562454948566f35642f38312b6d7a52585931627157545471576d536b6f337671536b54456d46343250535653666c6941674a5777504545597546773577364871415173532f4d386c69474e513759774e646365787a72486e43732b68494d30504a5a78476f6f69417942694650487561717568684c416b506678464d50504f7331622b7931344d44362b3461352b6376717a514c524461536a4538565a724378555764724148777a77766a726257326f5057454243484d484e334265336b35774f497942767730665a5a6e6a5441472b62653974362b625361794265445969436875542f4532444a357037304d3732582f7a5752494a626a626448734344534e4a31596b556d72563376684768653039744f6e4b455671533237764861394f314d722f744a6d575a5a6c57665a66767a567a547a5467534146584141414141456c46546b5375516d43436956424f5277304b47676f414141414e5355684555674141414655414141425641674d41414142466d30444a414141414446424d564555414141446369774445664143625967445a58524e764141414141585253546c4d41514f62595a6741414142394a524546554f4d746a4741576a5942514d6371434158566741753741427779675942614e676d41414166494941595a726e50476741414141415355564f524b35435949493d6956424f5277304b47676f414141414e5355684555674141414655414141425642414d414141444b32375670414141414656424d5645554141414162477873784d54464a53556c63584678346548696a6f365048555638654141414141585253546c4d41514f62595a674141414c684a52454655534d66746b39454e676c414d525974314147343361416e2b677a6f424532426377412f33583848584d41435850304e364576354f546d346853464555525648384a5139653155557572507473626b396d33374d4537346233374951416a72676733396873724b754c7030746d5951365157597a676a72753237416442755331375738474e614e6b76396f2f54664279327776594852774d704f6e4862414342465435567a4179414f6d394c4e4652336c6d734759376e33494c497a354570724e64495677455a36754d4b3574477a71754732422f6f476c38386536524c684b685547785a4f69776b6d746d694f42632f4f5730573177627372343041414141415355564f524b35435949493d6956424f5277304b47676f414141414e5355684555674141414655414141425642414d414141444b32375670414141414431424d5645554141414163484277744c5331585631665277613162616b426e4141414141585253546c4d41514f62595a674141414b4e4a52454655534d66743063454e7843414d524e45784e414164784c4f704145725939462f5467694a6c6a33594f55546a346e794c6c61595141305273647835637348706c3734303674746b77636c4c7657576d7a3661574e7a5a4674756e6179515963335a4c54664f526338734f6e55714d58645453664d453035724469735454314a4578433578557a497651363675623976715a6d7870572f72506e63336a73764f4d5a4847586573657132696456746f546573334c425977304b3856677277694d57774262355773586a66466b5252464556527446672f37423851397930736a483441414141415355564f524b35435949493d6956424f5277304b47676f414141414e5355684555674141414655414141425643414d41414141504b31686f414141415931424d56455541414142495345693961476855564651354f546d526b5a47546b354e2b43676f744c533262583138324e6a59304e4454426b704a58566c59714b6971365a6d624261576d74656e716f59324e6458563243574667394f7a754c586c357a523064725130504266332f42634844436e5a32755a6d617459324f6b59574635556c496949694b4c554b56594141414149585253546c4d4176372b2f76372b2f76372b2f76372b2f76372b2f76372b2f76372b2f76372b2f76372b2f76372b2f763173756b3567584141414361556c4551565259772b7a4267514141414143416f50327046366b4341414141627064636c787546595367386b724142553849744a476d3237653737502b556553595a4d412b6e737a50376c35414b4a44392b785a423036644f6a516f55502f7156675542636e6a39352f585671476969502b41564343775a4e2b4268496853536a3941673543696f346a3875453348696f5167396b525256625472426e434277716e616a52614a76732b6757496347313437646245476835747a486b6b6f6b593556715549466d6b6131664856686d52696242366470434859734e77476b4e77315549756a4c4c4b32706750474c51615072756351474261454343556f48334868546232764266454b774a57326c6769756f62316e4d4d69356f354f4e552f53414a695a316a55413464526c656d31506978726b45384b4337596e41635473334b46615659496c68554b30617256346a6e49644a4c5a5a516b5a674e7569574b6c6a5336725536435065356836746a565943797a302b57495a757a4a79677a416f564d5668347a54726d773656367048734d735870506273707356536873715536746a7346416c784d67346d355661565542716b46726443416c722b6257397366456461744e7134625a715452505748725950617253675043592b702f4e45444c323965512b657144576754594e634b4a2b6f586141325536636f466d5174445a3476553870553748567a5767776f744e52695934426f342b594e54414a5a322f334355416770415676586a46645a6c724a444c52704c4e6274416a7158437662504269734948594d6c50687256624276614a5371436571687658546855354d3364446e4846416a64556c4d786c3034417679316c366d6b31504c5057705a556c4f6471735a4b71546d30644f373638617366496b624c714a51514d4d6568597a364c4c4c3238566b6f6c414b45746c566d704e792b467771582f484f386659382b584748323043494d56682f3572374c737a745348334d754768524d43396f4e364d656d4e53716e36392f3372764142427057782b7347432f636a782f3338624f2f684e7a4c71314b5a5831484c786a72514549696b314f372b4e74532f6161564f6b776a61306946737953572b476a5756712f344331674959504e455a6d4b6f41414141415355564f524b35435949493d6956424f5277304b47676f414141414e5355684555674141414655414141425641674d41414142466d30444a414141414446424d56455541414141574668597a4d7a4e6f614768366b6539794141414141585253546c4d41514f62595a67414141444a4a524546554f4d746a4741576a5943674142657a434274694642584359306f42566c4a456b6c7a4132554e6c72684e3339414c7477414d4d6f4741576a5948674441472f6d41714f4848497a684141414141456c46546b5375516d43436956424f5277304b47676f414141414e5355684555674141414655414141425641674d41414142466d30444a414141414356424d56455541414141644852314a53556c58324a2f444141414141585253546c4d41514f62595a67414141434e4a524546554f4d746a4741576a5942514d637142416b6d6f426b6f5156634169546150596f4741576a6742594141464968414b47486b5947624141414141456c46546b5375516d43436956424f5277304b47676f414141414e5355684555674141414655414141425643414d41414141504b31686f414141415031424d5645554141414249534567334e7a645556465366414144495941416949694c2f6577442b785a43526b5a47546b354e3465486a2f70453941514541754c6936536b704a7261327464585630724b7973385044776949694c78453956344141414146585253546c4d4176372b2f76372b2f76372b2f76372b2f76372b2f76372b2f76317542535070594141414365456c4551565259772b7a4267514141414143416f50327046366b434141414162703963634e75475951414b6b614a465333492b362b352f316a335351374c4562724544354545563270523670456a6c77346350487a35382b4161522f6c39785855534b50762f2b2f58326f46715261324839326837437a7364646169355938386b307745624b6d744864562f62484d586173635555336e35564a4f6f7845536b3149693454534d6448327663785763613632635748644f77676d726748514e36626d32424868545337437557704571664b6b65342f4d366c487546556c715435455361326856744251376b426f4c35784a713158766e6674625270356a31346a556c614b356b37447a426766724948637277626e36307134533375303854646a515176326836343257776c6b326574574374536971585068314b787968685872643571737a5a6c5774373158796b714935335964432f6846463078317230724a3962494e6261626d69317a4c7331593771385479786b61365a7152324b746578784373464b75413947686c6d754e6d324e7143455970345073795853626c625731686b4e7450624e726836654b4f7446482b5138766b434c62534774776b6b44367349695970425a4735346230507a61774d6848652f44496d644c4a317665762f626b596231635a4b645a706f31516f426930674851376659676b3337564743366f6d65422f576e74547377614f45557644716945726c334e7261664459324a70766576395a373136516153564e4b3146304b72436e647042796c5748316d657143634b724a373935433751747a303264625a6d68414557414e397459344373726a4e6852564544366f5851427438346378785736624e5971664c7271564f4759647062534f74692f6d30714747696a70726d34323370567747764e5375466153795858794a497730717037316130677457706c6e33424f5a307565306562316949776f3938495357735259584c4253715862686e534d7477374930786f4c4f44366e7533613861655668646165546a6a4154542b4b77586753706842546572414e72614d30387450472b68642f6f4b74373959665775376e4d6149634432744b5a553964316173713959797a3977676647593176306530334a45343459336b35756b5655644b422b7350696d3061526d466f51456341414141415355564f524b35435949493d6956424f5277304b47676f414141414e5355684555674141414655414141425641674d41414142466d30444a414141414446424d56455541414141724b79732f507a38544578505a7a31637a4141414141585253546c4d41514f62595a6741414142784a524546554f4d746a4741576a5942514d636a4142753341427779675942614e6765414d412b73414241617930796d7741414141415355564f524b35435949493d6956424f5277304b47676f414141414e5355684555674141414655414141425642414d414141444b32375670414141414d46424d56455541414144717836487431726171646d625a70485872756f6d30686e6a4b6c6f5a795444795a5a553841414144677159536e7036642f66332b425630556f4b43674344552f564141414141585253546c4d41514f62595a6741414133524a52454655534d667431622b75456b4555426e41542f317335477a6178644565774e686c6370524d3875386259754469446859334a724166734e427132734c457969314562453342667745524b45325068452f6747397236466c57646d514d6c796e626e572b695833417375506277387a774237356e33387978355653747739504851375469444e4b6248435955684a326d4f597833316f56724f55324c4c356256592b43746336714372454b31627245642b654955333978345768437456716733305962653365756855677237776a6a37516861554b5968363059514a6c6538746e433168374b4b6d63547153646765633561704f3465777732697a4474616d58707378786e6c50776f306e5962764f6c47494b31682f6d5158746d2f5a37775a4c3165723354496e7172586543742f756134585a4b736e41362b6c52707a527632616c727a5172727a333636736533756e3739342b7530777347713874715441394749756d6d57636f364468395656377a7251556a3165344264516378534c4b2b2b3874767535346f7679316964325134765a796d39373667742f38596d78752f4f7754646939354d556e70536f7478484c35334774356369395a507057563262614871642b4f654a4573703043316c426c5a543736776a7a3163566662624a6d5a482f466178726c3557534b3158735135596555347330716b324539514265374c4b696147786466504f623039557a38695a7041767837726b6654362f574332746e62385567594856643132396372526745686a67397265614437375a57694941396d754a6d576b706f6941654d616170643272554957464271517257494b4642634461776141464b74745470676a356f3571526249596d69496d724b454844417443522f7870326b614143514c53504662305a535a4c4d6e6d61484c665a362b2f4c5a55734a665a7a4250426a7344627261454177385743414f344d30673648554f57524b4b5941634c2f32426a6e71542f747579484534305a495835695a6551367a39517a696639427346596f705259776f484678346a79692f32624b5251542b6f747042444d4436674d7046636c2b4271416d4b613063414c71494e6a3242594e364f314d5a69696b5a713454366b4c617746705138415a4c4d65576454754d534353623765437264435a7a43344b4577433361695767336e312f39765267637631794d7278514168685a6d4b756f7862683761564e46443879434b726a4d2b52335479446f77644d75576338682f62782b6f49756f794579567045365462696468684a6b6538652b3258706165344f38374d316b71353259724e5453666935336575726c48503055366837506d33723253626e4e3235776e505877474c6d30746d69505674457a75366e733238355a373954374f4a6879384b596250534c6a33637474477a6d62484b517a64733249737674484a78654d5749732b6d324c66567477596d61586876456f3474334d436a70587978357a316d456d733145587470547a664c6876783379443351376230494675327970725857674d5549354778754942567645746a724e78346c714e31566e4c306e4535336d49466e4c7453437253732f656a73576e7433612b467662474874543446735a704945675931454141414141456c46546b5375516d43436956424f5277304b47676f414141414e5355684555674141414655414141425641514d41414141434f7a6f5a41414141426c424d56455541414141414141436c5a376e5041414141416e5253546c4d415757516b4a4767414141424f5355524256436a505978675a6f50342f43487741732f2b44775138516b7848432f6b4d5a4732456d696c305149502f2f414e77562f50386234477a322f7777557378466d497579434f6733754f4759592b7839743241693743507158316e3466384c67655967414171626239745a577869463441414141415355564f524b35435949493d6956424f5277304b47676f414141414e5355684555674141414655414141425643414d41414141504b31686f414141415631424d5645554141414374782f3941662f386e612f5565592b3434642f684e6866596f62666158734f737864506b7a642f394666664551582f3949686638675a764e4c69662b47714f362f7839624d32504c58355035506976382b662f386a6166516d616535736b755853325142656c502f322f77446c37514273376b6b4e4141414141585253546c4d41514f62595a6741414166684a52454655574d50737759454141414141674b443971526570416741414147366e626e7354684b456f414b6476724168596443444f37662f2f7a70313767645a59536f586f702b306d50596b6b50446c636c62387864553335656c596a33714343665965712f3157312b323664524b477176656971656a7a75637738366a5771676d423156563156475558676a6171456d554b39796244467442545750626d46466c564c72595744566f38392f6136495131686236454c4f446361346e6c4c31415032454354616844343735636a2b75714c4d6b4c66624d4c7461774b71492f73344a7a376871704c6d7374303244646d6a61796730765054587073485676646f6971364e4c6f30683041417a6f413047634d6f4553694545776b496c56732b6d5076526f366c796e34544559516e3549354a49724d4d555537494e6c64356f47366f39724f71373663656478304667626f5a4a4248367753793235645132316f41345243675551714b4b6754696a49524b67504b61613041684e473672657553796e613332363044436f6138435a314459444a717753716256517456536e4b376a71754f696c454d426a52577838755656344569414c56564956695646376959636d5938756b554e3161474f392f4950564559716a696e46737171773746474e513830535a78784771535756746f5371526141794b70395156563154717351434d6972485a35697a7239716d564f5656483476714f63794a32374271593158537670566455634d546e2b37486d464739327177616831706571794c55634e5730716a4c715130447a565a4d71324a5161677a67514a3157524b685a56586b487876427065575644624a56584f61705656773061683869645762567246436a7931726c4c4e2b372f416931534b6f4c597271706e564b4f494e524b6f5935786470357944722b395a6e415141414141424a52553545726b4a6767673d3d6956424f5277304b47676f414141414e5355684555674141414655414141425643414d41414141504b31686f414141416246424d564555414141442f414143686f6146374e4452614e4451664852316f4e44524e4e4451774852306c4852332f6648794f536b7058485231464852307248523173536b71584e4453444e44522f4e4452754e4453434852313248523177485231664852303948523244536b7038536b7065536b70464e44525348523156536b71504e4451384e44534c485231724852316f48523058663278774141414141585253546c4d41514f62595a674141414b394a52454655574d50743073734b677a41516865475a47704f6f4d6437763275763776324d6a55696975436f5a5336506c576b38315047495941414144672b3036376c2f2b736d2f2b777574767254316574706a666152755342566d4b6846374d497058316b565459474456466e44464662424a56515555694839624a6c76745646454452317a747a4b336f624873326e486363796264657053386c416c57544c6e37712f333570497a6c354b3845474f536c4939426d6d7049457266586e6a7a5155305a4f4a744a7449577232635150584d36326d6d5462576e51414141414141414141417747656537614d47453764636d693441414141415355564f524b35435949493d6956424f5277304b47676f414141414e5355684555674141414655414141425642414d414141444b32375670414141414c56424d564555414141444d7371464451304d6f4b436946616c64665831393958555a5351545a7955446d4d644753336c345045784d547530514361686e6e467251436973572f364141414141585253546c4d41514f62595a674141414d314a52454655534d66746b72454e776a4155425a2b526959414b722b434948754546584441416970534b686f6f4a6b4e497752455a6742785a684549594166744c6e436d6951542f4b765471637632796f554a6c6950412b412b49384173563530646e6c31546c3266646d5058376a4e337263343958364c6f4c6436584a734176423170564d4a7432736163497776435a5a426d66743041737775424a324839546c4c4d616a3669524b6c5374427a715a53504e6a58787666647967623745446437617052647965695673627630777137502b6d506d555a533271584831474c633465302b694e496c6c3231614b43563541504d7a6874724e3674346d316d4a7453784a6551337168514b42514b502b5946442b6f546569786679353041414141415355564f524b35435949493d6956424f5277304b47676f414141414e5355684555674141414655414141425642414d414141444b32375670414141414a31424d5645555253456b534269595343796b534d7a34534a6a63534543775346533853487a5152516b59534f554952506b5153476a45534c547547446b62684141414343456c4551565249782b795149573443555252464b37466c427a5470436c416b79456b7756553167423479704a5546676b424e73315a38564642594141676d79692b6f39622f6938656148544e4d467948637a4a79586e2f36593731577673547247375771645333586468586f494e30772f6474796a4f387174612f6f633735634e2f4153465036484d616c5645734e484e47746b3445476a6d634a315a667864357a2b4769566c524b32686643367565394f7645334151397a593742597764644678714e6266454b67413946327952567a42675661786274536f416e537a6a4243746a56464f6345365146356650716d4d65766863484a493652566761484873494e674e53504f45526674424f652b394a6e37496c35376772524349634f414a66614948676e6e497150547932594e7241714c794c6c4b6b425a304c736748664a44344e4d7a426c524a4d36303533667a54694247756e6b594157362f744c486a4269692b41344f34304561656458306d6d4a695268784847775375317a74533941344b685168746d35596e55594332674271723467567758454e71394d6d734b614e4d33617059466965415a594574494e6e48324b4c79413968624345574c576941455850636c625854796a6c6143463966596b585963635a755943305862527773782f466f625a594541364a344f7574672b2f39693937416b784d47576754316e6474444246706c4e596e6c6550793063707765477254504c38336178505043446662412f336465684551416744454e524a494d7857456448316251433368324b586d56736b7039667444652b534c2b64764c6e417835416c724a5538673579302f4a56636837365148704a2b6b39364550716165463334414c6848654559345350675075553537736e4a713678716e4f767746634462774f4f7744324265775732554f2b73314a64627a79374f534b2f3367626f757a554d437236346d4141414141424a52553545726b4a6767673d3d6956424f5277304b47676f414141414e5355684555674141414655414141425641674d41414142466d30444a414141414446424d564555414141436f714b6a4d7a4d7945684952434b3158544141414141585253546c4d41514f62595a6741414142784a524546554f4d746a4741576a5942514d636a4142753341427779675942614e6765414d412b73414241617930796d7741414141415355564f524b35435949493d6956424f5277304b47676f414141414e5355684555674141414655414141425643414d41414141504b31686f414141416d56424d56455541414141414654365675503841456a594146305a55626146756d6641764e6b5354742f39316f2f396c62487033665973764e442b4f6c614d41474545414730584a79636b41457a6b324a7a5330744c52535757686c616e56756d2f554147556c4253465941466a7741485578336649652f76372b6b63784f4f6b35356c63494242526c4863334e78535632494148314141493163414e4a34414a313142533175576168506c3565574f6d616853583345414d57794642683533675a45414c474d4150626833684a51414c6d646b7a46396d4141414141585253546c4d41514f62595a67414141794a4a52454655574d50737759454141414141674b44397152657041674141414b6156446c59596849456f69765a69426c7a4e6b46576f754a474b2f2f2b4a7a566a70464370744c6561356c634d4e79642f6a306d4930596445574c454944564d55345878557a57715361304342566c4261706575585568386d475a6a684e6a64537566707a304c694f317174302f4c6a737146716c3168313241393674476c6b673937454b586431526d5730514a3949674c4b6155434b6f7958324d6773726a37514a357a7a6c64394d487a6550485866512f4970575577322b6d55505a314d485661647a4d4657564633517855625241522b47543238323154432b6a4b72707371577168754c736e4e514e32556350664d766c2b712b6f7a314e695966496c54555477497055504f6650726e49765a493630464555427349416e4e724730625a7a7432694c4b4245496e7565647575766476662f44335439554a554a43646e2b694a6b7a374d5a6b53463869744c684a71315761486275482b52705443753671417772534a624f4b3930346562352f6b4958597171315056636b4b4255734c42776c567176302b2b326d7a6b33586c4466384f484876306558386f45365171484b4343346667626f455a3841654647362f76536c6b4b796a695774386c7548426249486433755a7a4e5a674d557437706d686257424c4249436a6d797a3279705273797a6262546f3068496a3459463334754d6f4763635755444e476e576c4e68715368735157514e327330795566576649307a456b6d3969307844713964386546584a5350566d69594975496c676d735375727861425343556f784e44415332506d4535376a31515a49672b325574645749754f50445a615a3851564654387955366b67574648596936445877364648782b7238306579707473547670532f666d5554566f6f6f7036724e6937596b457658305864443557457a6f5856715552574b4932656f634a75377571453470706c6a3632524e49724b58582b2b57304c465a756e31444e59776d445a6c664c756342696f67655731636f344a507458312b5a414a4f71554b793270424e61324971394b334a644e414a533562587a4a6a526154434d57643356595352697478566c6e4e6572596a38796a664e6541494e377373436e4668674e6c7033366d784b425673464637427076304c326b5a33526f7134543639696d41745157347a416d6f556e4e6f513751784549744f566a617931596679387138714a70643946324e597375756233566146526172366463656c3965566c6d3757765770592b31544430396e30716d7a50383648614e3673727735595148335770646165756e366f7a30524d534b38306d71664d7046556d716c6c4e42734648796f754b37696c4b55357a33563256675674472b32553845794c76315145666c3741664a532b35534b39437175675871454f7168395364556d35565531794b413056763844784939474378715241596341414141415355564f524b35435949493d6956424f5277304b47676f414141414e5355684555674141414655414141425642414d414141444b32375670414141414746424d56455541414141744c53314451304e59574667674943426e5a32662f4f7744474c6742615732364b4141414141585253546c4d41514f62595a6741414152424a52454655534d66746b6b4675777941515251653732587473446d412b36743647716d735463594a636f67666f2f61574f577a753777485152715a5634736d514a5062342b444e526f4e4270452f645063525338766636477758753438715a6d6664726a754638466856707339744b654c364f47554c75616f64587635774b516b42732f306f67734f554c73525743316c6c6276483271787a6f37673536647a2b78393130376d715474537233346c334f6956556c6273476d2f4b5971664948627a4e576e576f6b6f3347444a73453963635150774b7248456d4a4b726c4f67414f457330686a544b763468685a72754a36354e3374634a5a3250644d615a387a6c546d7954417132657358443661355867504f6d63496c48494d613131486d3975336a2f2b4253354e4976546e5751714152676571346a4c305464475341315855426d6e4738426b2b474773415250662b374973444957686b5a707664543465426a55616a662f42463171474a446b314561696f4141414141456c46546b5375516d43436956424f5277304b47676f414141414e5355684555674141414655414141425641514d41414141434f7a6f5a41414141426c424d5645554141414445784d514158704f774141414141585253546c4d41514f62595a6741414142684a524546554b4d396a4741556a4162416773666e51784248735554436941414134686741626f79482b514141414141424a52553545726b4a6767673d3d6956424f5277304b47676f414141414e5355684555674141414655414141425643414d41414141504b31686f414141414f56424d564555414141424953456866414142304141434d48427942414141354f546c5556465234654869526b5a47546b354d304e445241514541744c53327355696b6949694a645856332f6f674169496949514262324d4141414145335253546c4d4176372b2f76372b2f76372b2f76372b2f76372b2f763739626c7a65515a414141416e644a52454655574d50737759454141414141674b443971526570416741414147366e584c41556857496765764c796676424137646e2f597564576f4e55576e4f6b465745653645634f74536f682b394e464848333330305276564f762b7162713631576e75382f2f4f2b74466d70637a61722f32454c434e62693732544e7a4d595962364856765253444f6266572f686e54386c794c74545a4e7255574d646258543667783161736c7a68576e6f7441793757546c4c6353667931484c68746b306e35563679326a47776770356a54594a627336633256595070796f4a71613866366c4d446d7a494777333351474652616f325653726f4f34525970774e726161643679686e5872503073326154376459366e4e75416167623132427658706959776c555633794b47314839697743554e4833307a364232714b66714257714c576e6e464d714a53464f6f74646e6147736959526e4f45584d795561507968437176766f68574d74777671463876547979655964694673784c3043705875477a71626748616b6730524a445259703136644b43345764616f726f53366431635247313751446c65716661437a31653073553938615a4b64366f65755951702f534443456f5950517462373638504363376f534161596e64456e49352f6c4f5856644f7730716d5961343545415a7371432f6a624247766d6743486379506355693561676764316e70384d34524934333877303174353736384e50715270567245747752573577642b714e4663424a5678306d53493438444532394c3777384836465159362b54354c76732f6f5735635361696d5049744553475073545750764c786b3759624731656c666f3130367432586b6a355856313978334a536b692b4141624978303576325a64656c4376546933506476412b755a61736675395734372b464538792b674352413862794b32714557503252647746536f57644e796545772f6f6469426f4e7267544f766b7963516f32436334554b502f374d657359366343544f49694c6e5736467a656f7133374c45384a7763303769724f73414f6f61665a423164314570594c4f464b67513375746c6a36475968654863464d77524656304c4f7370726d4b7971664b362f65303473594b73415037414b576b6f487457466e57554c657466597a6f5a347749346b636b41414141415355564f524b35435949493d6956424f5277304b47676f414141414e5355684555674141414655414141425642414d414141444b32375670414141414746424d564555414141422f4435684c474659674943434844614e784559646d456e6c4a475654497052734e4141414141585253546c4d41514f62595a6741414153314a52454655534d66746b4c4675776a415168732b6c59765a666858512f4a3531704c44495479576150695a6b54576836413931393643416d36324a30722b55744f39736d667a72394d76314661666b5661316c73705371476c6f4168724c6435614c3571516445474f46505169705341755161596e584c6e6479626c594542656a576a4968494e2f4e4776434f36335755494f6b51636c6a5267744550446d35706f44476e58637a5952427732302b436d51334e644d69366842767a4a496667702b73596839326f4b4f4c7a466151704e4833337731567872536c4a74707270724a394d452f75446f2f454270586e31305839787964325444527a667556576f776f6e50636e70674442324d4d682b38393068457135376b3973777931417273426c4f6269493350486e625645317577575549622b4570685a564747312b38793661776c67326436627274645a3932776b775062657650534b637654487a7468486b33645862486e376147724b49684765376b7a357761492b39732f74332f77337431416f464171465171465179504d444245347854376c382f647741414141415355564f524b35435949493d6956424f5277304b47676f414141414e5355684555674141414655414141425642414d414141444b32375670414141414731424d56455541414141354f546b4141414153456849584678636348427a4b49794f504552476844513277494555714141414141335253546c4d416132756d483835694141414132456c4551565249782b335451516f434d5179463463677736744c6943627942457655433651454536563451716e73465059446f74633255686e466a4d694d494376335858782f5a4645712f48434a36543131706f7848734b7052304e35525a6a6e4275575a6e6445364a756434437431596648735249627962683464492b5a726f2b45787642566244783435465437794c5078527059646e6553454d364678684d66635a576c62457578746d79466e57705357707131657056694c6372717442445a5253466168432b656d6d4f7771684f313769386c79365175357746697a4d484370356c48676c427541726351573669326f75566d3239515967364661574a363231363257687534582f732f586d5378623632464b705643715653702f324245336e546d7674713548424141414141456c46546b5375516d43436956424f5277304b47676f414141414e5355684555674141414655414141425643414d41414141504b31686f414141417a46424d564555414141442f4141442f414141714b6970746257305a47526d684a5356535556456c4a5356645856313347526b314b69716347526c6d556c4a62556c4b6749694b4b47526b2f507a39654b536c584b43694347526e327333312b4b696f784b69705047526c38556c4a524b6970434b696f354b697147625731316257317762573179556c4a4c507a38734b6971524a79636f47526e353735373374587856556c4a47507a2b484b696f7a4a53565847526c4447526d74625732526257312b6257316357466964555648782f307473507a3956507a39354b69706c4b6970734a7964374a53566447526b6747526c77507a396a507a3969507a38364f6a6f354f546c4f4a53566847686f3047686f3047526c65796853454141414141335253546c4d41446768714c6d46694141414267456c4551565259772b3354313236444d4253415953646d75435a4147474554434a4339392b6875332f2b64616b4b6c534c336c56476f6a6678495833507736387245527833486366586e34385338493846485742497a656d76425239462b6966337255337a794170427370627057466933615838534a564656523642616e4b43436e786764714f72374a70567767447a646f4d4437596b745a7a304f697747364d7143494851444b7655375574755063416e56683875715a557544736a715247514b5146595a4437644d637439674a554f756a6d49774d67395376446a5531384d37376362744e6a35356e506539474d6b423146532f6d382f482b505057383658473950706e716943434d366d3273755a79573636656d7173376562563176306263655154576a71424658362f633062556231666b6476577a31532b78343076746476466f566c36344f716975707170453635666964516c4d42706c536677784b71345a7257702b6b3665557a4e4d334e436b65583536334c6b41643042545539384d5169334a6c48433233573432536f6272567a4e5869794c4e5454444f4c6b6f304b5334697a4a4e6c5a4379776d49677243414b4c79674b2b566733436d6b425946597569794434444c7371477656555248467752446649435778555a6778446f575373495546574472743779694f4d346a754d346a754d34376b35394159584148443151766647764141414141456c46546b5375516d43436956424f5277304b47676f414141414e5355684555674141414655414141425643414d41414141504b31686f41414141636c424d564555414141442f3841442f3841442f3841442f3841442f38414169496949594742675145424164485267704b536d6a535141684952676c4a4349334e69496c4a4267314d78676f4a78676f4b434c4e597741734b7949794d534c4a577741394f79624b586741784c786a2f664141774c794c2f686741754c5349734b786a2f655141314e436e2f6677442f6451442f6a41442f637744516141414a5258705841414141426e5253546c4d4142516b4e45525a306d384a3541414144696b6c4551565259772b7a4f775132414d42414477544d387a68596e526654664c456f503568565041617574694969496949673441386e79363237366f78742f71596f6f6d4b7553434d42374b73337776674476364672767337504f36487974314f75536f6a4155424f41616435593043584a4851464278644e372f46626450496a4b5170526171746e2f674e5a2f74495a426b563250776d2b782f525530713675662f5553466f4168616c617242625661746f424e4f4f36713939717671627169426f4269485464486458416a36726943724f3941726a324e3262414c344b716a4a55566857316857545868763041644b69386b554a4f2f3764566763776b4558616856436c387a4e435161425378616b713176575a524a466674587056357337426f6c50434b2b725971305a4252436a765577792b614139365276632b61314b36775a7a394c61454b796f2b7268457962474948305534335a705a7234664e574334573546456f667378594c737156574f32355749584d5969324c56706a41455457684d324f415a7952336f45366379373474473466706f55555a564e6e576e6f374b327074657542305368497868726f6f4f4535777368594e6c515756424e696f4967734130396551756c6e5678484878654e5463543451526855535a455a567355784863595971365a393332314452742b6f434a6979784a6c69686748376177594e4f6d686b6e3776712f6c6b414c674870565a634d6871517358634e67594b7568745139795974696a366c4b715970424a57744667527a6449734c42427061396d645645437453397578725151483731774f47526a4369573179616d757152706444564e566b574e6d31787a5767365646547773455346785471716f414f79514449556b47307670757862613636726136634e5774757675324f4961426a67346959367871465541342f3172744d50424d796b4b74596468724973387a772f48674e6d6f62352f5a6b333959446a4f6c2b71696c497a6851744761366f33416865715546665541576536614b456b412b3642666d51695a6b38537043336d42486c446d626e53774539433269786f7a726e4e567452773939636a3856496e2b73716f61566532745971774f71344a524870726e7935766638314c79505050372f315a6456562f4e792b667937762f735274574f7a53336930796d61366a68577264386f3378335279334e2b522f334556335678366b7543637335636e54346531584871524c766e313277415473327061675351724b75514c4656574c62763461364869644973354171553078696868664e566c6a764a347a433945542f4d4a6946705a6c53556c6f2b725056556c3874617a69323831547a3765666735566c56487a5666657970496173536e6173486e45376e7549716b374a71713566554b71734b79716d2f6e6b356d7036474b576a61587370433672437274574e6570696f6b763145702f7572374a3756554844533157665754576533316b353634597379304a70443531553958633171754c7a7666445576497562357435323055774e3569705a48305551684746534553314d3343335553325761356c79747133704e64564f394e30537263713465575a5a714e716c2b56636d61656d346151664f6c576e5973652f75704274745552665832516f392f41456437585835576d36526d4141414141456c46546b5375516d43436956424f5277304b47676f414141414e5355684555674141414655414141425643414d41414141504b31686f414141414f56424d564556634d526b5542695a634b6870634469466243534a634642386342695a63477835634a4278524269516b4269597342695a58426951304269592f42695663494231464269564c4269553642695679496d30464141414345556c4551565259772b7a5332334c435141774455446546586d6a54432f2f2f735868694b386f714732655967626349586a6d6a6c6247585a365253332b705561755664716f693970784c38716b4b36556d6e4f344669454e46785631557a7736766e70352b704a752b65616d4344542b39744b326f4468646c5359546762345879566f682b4771536e51794958375767657975737461674d43462b62776379334959316f6c45305459696e666943486d33584a576f4e473053525065306b34366a617338666d4268676e79645375417777303252364171714969564c43785576483863413432694d4d2f39774932367759356a626741315267325535726b4f3357426a577170656c57686a766d2b4637704a46575a75722b7655584b4d6b535872442b54356a4c6d6c514e464f6276647541474b32554e6634423850314361482b7651545259627548714269716f744b6d4a506274677347796f473450735468546d736b793559626f414a6f4336714a69706954773532575a5a71446f43715249633659466b574531443141564256554e4f5073436a7245346a4b41525331626f546c424b704b565a72442b677457796c4b646a6f565a42625571776d4c5936567947575475713156475677314c6c72467031767979475654574f35664d55566175792f73733446315165717836676e6f446e716c58627a7a3271564e30742b324231654b6a4b48463250726b6658573374326a414941434d524155507a2f6f3633735a4156684f7538424964306c6d2b2f3165795665517858384c66426a525235773251586c724f644d4f437354526e35743363367639367739547a347a613363766942765643377244524e756f446f50366c756d476f7365697a6d33344147455a68727351526d5234466d467668684d53706b6e344b32484668477354426b2f324172397439413554467a754d33597a38767257565934734c7761304b626748676d367358424b5157536741414141424a52553545726b4a6767673d3d6956424f5277304b47676f414141414e5355684555674141414655414141425642414d414141444b32375670414141414a46424d56455541414143746c34696567334165486835355a46614e61552b42576b41324e6a615865474a7a5730764b7367435667674363735677484141414141585253546c4d41514f62595a674141414b684a52454655534d646a4741576a674870414145774b45714f5545614b5565474d5a695851436843444f4353536f6852424479726b6774516245653431354166467172556777642f4547776d705a6f595131412f46714e7843726c6f32774f6f67796d6f4b30414b4a6379355941784541573059416b74557855562b73434a6a6d494d374144524c5554397047536b68494451784f514c435a73716957456d6d354f524a4b736846435469544357775152434f5273516f5a5946516a6b514657494f4542315556387343316b4353326c4577436b62424b4267466f324451415141494f51313634722b55417741414141424a52553545726b4a6767673d3d6956424f5277304b47676f414141414e5355684555674141414655414141425642414d414141444b32375670414141414d46424d5645554141414456316456396658324d6a497874625733583139664778735a64585632636e4a7a2f3663324663313158563164544d77762f414143354141434f41414452507171564141414143585253546c4d4150543039505430395054315a5079504c414141415a556c4551565249782b3351717732414d4143453453506c6f534330416f30677a4946446479616d61494a414d774a544d554a587549714b707666705079634f49694a536d4159352b426d737a6c752b7454746f626b746f572f347764344b324a4c5439414a34423738713061316267356e66444139495258724447443754706834694956434d43727a3448346b6d71696a6741414141415355564f524b35435949493d6956424f5277304b47676f414141414e5355684555674141414655414141425642414d414141444b32375670414141414746424d5645554141414155464251714b43675a4642516648783865464251794b436a2f414142346e35684f4141414141585253546c4d41514f62595a674141414c684a52454655534d66743062454e677a4151685747444d6744504d41446e597744456966535776414579544d41456b5a672f754570355470456d75722f2b5a4433356e47565a6c76586e44665555435a317a44565459456f59493945476b30327a6a703354626d38717332556630742f57795a686c566d32694b594d3758787571496c436751722f6e616854543753674742312b4f7373414a4b3448552f546e317741346f6f472f4c6956427547434d2f48755930315a34766f6c326435567264542b64386763345674456f4265754d7169784f5271386743497672466a6c57324c68636f2b677a74585637484f73697a4c2b6e46766f50386253326b5966713841414141415355564f524b35435949493d6956424f5277304b47676f414141414e5355684555674141414655414141425641514d41414141434f7a6f5a41414141426c424d56455541414141414141436c5a376e5041414141416e5253546c4d415757516b4a476741414143335355524256436a50315a4f7844634d7744415466634b4853493267554c526241486b326a654153584c414a39614d6f42495368756e4b54774638495668506850696668534252696c3473674655366b636d42465a65654b4b784d55346373504d334847696746782f785765394f6a2f422b5043764e616d6761712b5867776642413835507645584b5235363574647a58444f52785439484731454e73676f476b545445774730656134306c3555646437456d4e4e30334369524f564d53315231696632657331364e482f665a2b7664636e766661724a78392f73373965343037462f6a37337549662b72373448766c2b2f5555766f3970576a4b513152534d41414141415355564f524b35435949493d6956424f5277304b47676f414141414e5355684555674141414655414141425642414d414141444b3237567041414141456c424d564555414141416949694a55564651754c6934364f6a7038664877583346446c4141414141585253546c4d41514f62595a6741414150524a52454655534d6674314d4674777a41515246485353514836497a6377736871514669724167687349425058665371775551504b5151774c776e782f6d7470743676563676392f6469614b664e6c746c462b35465348692f7869665771574a735262477a644b33593141524e6f76335a5479573461412b6e4f76444f70614739785275415a6578664f51776e48636351712f4c4d37554c5472747357586e304b65714e676a6a6e4e46416b457132343931692b504a62507543525a75504f4266705a6546554b636578434e30747146717479395058726f645553357959435a4f717a592f5144714c46376a48746b74566946593864773943797537783345616e657a5975737475764a347777327163567173534331644750476a6665626a58436254634b51326d4c4351367356704d62796d7a5a6244372f2f484b3979367656362f3674764862306851534d4565356f41414141415355564f524b35435949493d6956424f5277304b47676f414141414e5355684555674141414655414141425642414d414141444b32375670414141414731424d5645564d424441654269346c4269354842433878425338334253383942433943424338724253344c463773554141414275456c4551565249782b7a5177576e4451424346345956744946454831736c4851773575494159586b4c6744327755456b7276515157566e3539637362365542783846587a2f6e6a352b326d31377676355248624e3765355962732b5872416847654f79696b374e445455744b37703170414f76625a58767a52316462325246523063365953774c6f434a4e4779784c64716166692f734144345372375a7765334f67716c7255466f3064506c336f31625373326a59554b696f4d483261356b6251413059467452526d435a59466e6f5433506668676b7a41737545673945725267646d4248616559466c6f774f63535a6b53315a4b46767a6533426847576e7357527436786447567a59546e675973637a3272717371456a7a59597579335773714c4368473177745579342b6f4c6b6c33304649397832324a4e6e446332484a6f7a7457307332356151447279787a6d62424c4335703842493962574d74577250412b5743596f717a416a576c766e41706261423065624131335a2b5274737269626f4744782f38463932462b7a2f75706562396879746843376662334e2b64702f64332b724c32415a674549694278552b5334624c2f436d6d51484848536f784d30664733523454746638753769582f6a2f646a35724f73706d325a4f35394354374e34662b5a612f7a325a456c4c32714b2f6e6c424475554b48414c6661687a34526d3557773033425938463534512f4353347a7647493853666d61387a2f6b6b5066567450465834722f427134657469423468393458614c33304e74656d652f355a356a472f494452694848394c44554c574141414141415355564f524b35435949493d6956424f5277304b47676f414141414e5355684555674141414655414141425643414d41414141504b31686f414141414d31424d5645554141414372656c717a693261415044576d577a657a6130534553554f56555570584a5278314d434d414141437a5a45656e7036642f663339694b7945774d444168495345744d6954394141414141585253546c4d41514f62595a6741414179704a52454655574d5073314e46757779414d6865456137474d634e6d33762f37513775493269727273437271622b556852786b55383451626d39652f66754832615064707537585a4e536970795a37544c50456d58724b4c45583162616a6e7531433252304663392b4573684e645930332b52477574774c7961364a556b577250357a5a713962425831444876556e4c39657a617679684f355354613647576a656f5376575a33614b71794b387a554b3877725a7177464d3255755739516a304f4e3053624b3152474f5a665667554d74777347525831645961575768584e497063786c333138535a69566a3079674767576439584866567174376550722b477a5a352f66784566443845644430655a5650636c4265484830455538645145565462704b706552793474674e35567a564b744c6172487446713075337370564656374e78484e723455574b36715a39553456464a6d3559344d367046356b7147796764525149454a315653306b31344772714138305164554564724d6c517965714a4d714a554a2b746470424d4777686e77494964365731444e52497169426b36554e61437471536f747a796667754b5a6e742f6e632f61663265744678464161434b4c7132713170424b38332f662b3657327938315377677a316c7770454341365749415442645974473672507442335678503464326878716e6365765062613831424652745464596f643558514b567573627235797372784664444e77633762464e4274317069554464545753585a5567445762714c4e6d6d3678426d5456307162616e7275766f61442f444e76767148524c52564f484e2f6250523455465a56375873375679456f773655684b4772706a5a686c454d51585756565556576f6e37764155734745686d4c324578654b706245414571746154625947584c356e356b774b7171785656594362716456685a352b624e5663504d3079316d52502b4469757a4a38674843307231746177615775615670326279434b6b756b4655563230454c6c552b756d63455a44316147616c57314b6361664e4856446c686d386f544a3364554959725a3066786f6d4656355656505a30775046334e66734f474434394b59553549755268715531795031334c744571564b6d5544797141437069675867344b4469383255354f33794e7071544461656173512f32577a515042725a745a4164642f58694f71774236494f41666956723149366a38554465554a54594e3136487a77334f565149367159596b696842367251726a34506e395773306d5638797035524d486631776d5a2b712b4a5735564c566339587556576d716f6f7364623548623570584b4236705772545676744a53615658784573377058455656767a527569696d6654672b474a716c6430343277396f2f63716f78706858714d4b396b775647334f313767376b5641743471795a5855646b594362676653595662645832337646486a33716a696431517539522b674d437059736d3459456741414141424a52553545726b4a6767673d3d6956424f5277304b47676f414141414e5355684555674141414655414141425641674d41414142466d30444a414141414446424d5645554141414359414436364145787741433565544c75324141414141585253546c4d41514f62595a6741414142784a524546554f4d746a4741576a5942514d636a4142753341427779675942614e6765414d412b73414241617930796d7741414141415355564f524b35435949493d6956424f5277304b47676f414141414e5355684555674141414655414141425641674d41414142466d30444a414141414446424d5645554141414141414141414141414141414131365465574141414142485253546c4d4157565545454638657251414141534e4a524546554f4d76746c4d4674777a414d52646e57334b41366449447577524630494c744239312b684e66576c4c38736f366b4d43354a41507842516671432b436b5331502f614758694e6f443952712f4d7047492b4a70343262474c787136704f4758664758723557785a54504f38677570505265707435357341304d6d496450596276793364696c4e754d4d2f6b59352f6d4d46523745746275307851454c72496d397a3473706f345966635741307465317951593742574d4d5647486b5048575078795377566141556e475441363239416e7353566d676f4b6147444f51675831674a565a75464977523245394c7a7051723367666a676a6a7a43474c2b3754304d4b5738735475517472443151384553674f62464d30705958574e4d634f4b327067576e4e43656c465844715753786776397a32774176757463594b4b4a7a587139434957594c754753384f793473426a62527862316c62777069344b79392b71736d4d355353752b4a497463314f5173785364746c5a6b3869446235567a2f7652332f6f54666863675141414141424a52553545726b4a6767673d3d6956424f5277304b47676f414141414e5355684555674141414655414141425643414d41414141504b31686f41414141516c424d564555414141414141414157466859694969494f4467346247786f564652552f4e6951704b536b4742675a53546b68396658314a517a63774d44416648782f2f376742475252622f2b7251714b5259774d425a5154694a3761685a324232757241414141416e5253546c4d41514142506a4b674141414a635355524256466a44334e586864746f7744415867594675326135793036376233663958705368484357644a79494c3936616179536d4139466341375444307845516a6762505a2b4e6c734135473532686e735847476d4e56395477575871327247303569425a775248537878586d5a7a726e57754f614d536b6a684572364957614c7859586a4431726d76576530385577724b454a62773058466943356e694e73596e4b70756370303946347656346a314732654e614f6738706568507539474e7a4655445652684b6155516347444544384e566f7441385a3530715479436a567a493177317557685a447632387761687563716141614a41544172595a5957506f67574c704b76476c3737347869754b4c4f71706d31413477615151314a5666717752464b4c314775344771787059445957765445385656654f71733272644a2b36616e737278566a454355576c513358562b51395a374d396f6e4256466b56593944434e6f567479705336366254475352517965304c5330666f796b4a6d4e305067784d4556564530764f5a4768793735726d5a496b41325a665244774d6a596a396c786138646b744a316151316b37455a527961576958442f6353655a39754f6371527a4d4e77334a5932356e5576624c47386730654c4a676a666f305052586e76455169382f3273724a662f45693576534a435674777776374671497348372b2f687775466c4d765279724b6a6c7136466e6a546e2f635075316a6b624f6d4861752f734151666274326f704b422f777076646637354f6439564c616e6c7167596f5661796b5a745a564a76523232716c68325664346a614f6c5464373270727a56563050505461783135645a34355677393936616150717664703064614265384137716f587176696f75716538594a654a663277394e39416c696e4d62436271723133714b3250653571322f6c65374447465675366f4173575749545134714369625132703571503438337461506f5a6878486168643161724c666f382b3879304846637144324a6a4e57464c3039454b4466424936704477626f51376b6f656e372b7451654842414141414169417250342f37414d58414130414141413841382f5049507772395367324141414141456c46546b5375516d43436956424f5277304b47676f414141414e5355684555674141414655414141425643414d41414141504b31686f41414141546c424d564555414141446933732f5473366e6131634b444141444668344362447737537a4c58547571747a41414357415147644642504f726144416e596a436733716a4a695362456848567436796c4c437259774c53694a434b6e4d4333506f356d76536b5864304d4f73507a744477494c574141414141585253546c4d41514f62595a6741414162564a52454655574d507430387475677a4151685745386a41322b424d776c5366762b4c39706a572b36695451675464644746667955455550686b4464433157713157713956717456717456717656617256612f37544c3563394a6f434e3635377058614938476d546d4f6c324d555356576c674a35514235477058693156506f424271653246436c4b4d516a314562656a6c4b76354f34564339687266554d4e6b543674694a3148436f32763061516b6146366e5373546c6e746c41676c3073592b5239643949674936697361716b7572734d3953356e5367393062314d315559625a7673595a6264717145696b4b71684133535057576d596d6f454a31474252424e5977656d636a4956517a4159774a6733552f534f7335466f306d73457047473637734f6776324f617a48714d74692b6c7a3443354c6c6a353967564358736c74377034792b6947703157694b764b65644d637a434769317450767031687457576c5231487331715769337a504b2f757873357a72486f695455485648534d5176466b4b72495a366e5456696733626e5a71427a766f304a525646777534614d6b6f46717973744157736439317a505132526a7466554733546178697151413061576257774363634d4c7579554b446f76747a507333577350737634704b385045375a584c4a572f315733352f4a436f6d665745494f753038524e556e38357947514261376e4635523631424474506b71616855315a6855734366567774617238517331424b494d31744e676c36575871665869756839775064683870476f662f532f3143306c66453172302f5967374141414141456c46546b5375516d43436956424f5277304b47676f414141414e5355684555674141414655414141425643414d41414141504b31686f414141415346424d56455541414141412f2f77412f2f77412f2f77412f2f7758467863664878386a4a4351714b696f764c7938664c69344e5a46384a594673594b536b4c69344d764e6a59594943415748427755613259574a7963765054306b4e4451764d7a4d556b347365744968734141414142585253546c4d4145776b46454f2f574957344141414a585355524256466a44374d457841514141414d49672b366532786735674141414130504c5736555a4863526747417642327939684a2b4f334363652f2f706e646a757874423067705152304967745879616a6c4c4239695a5a6b612f744d30323676547675796e563764687a325a446458682f3331736e6e5a3358416f5a5776316578674f787953534e78376756493736715a712f786e4873565432636a686635554d307044634e75374651395746584a38676c362b5650327733646239652b6556616e4b5a3268665a565658526435454a364b6e717459426673704647496a6c4852574a36494871553957662f6647635866573867574971356254767175576d726b49697236763558416f58614e586a57624c76697679476d314c6d2f656653575744633357354b4d5437354e5262706633677a3771565574624c6e6534674f6f7272724a70416859466d71375470434d7452582b734a4d31537855372b5861766c7330674b703633354158554e436b4368373061534c6155304756657058374c6c47536f616245662f6665443271676d56465a57364b76516a565a4d684c59646c6d467134777945756d67674b5049436136696f326f476843612f6f5270775877576c6b4146584d7a6f6f3742514132585252756d705a552b74545a5852565a46706767755679766e47444a7569764766756a59624f43616b7056465564466c6c524e50716a48316d327273697a587437464d54544d4b744371766b333551386151436d7578734a6f735856564f314b594651352b454e625653695648335a694f74455631536f4a3152427178724c6134474b6f563056764a54714958425548315441566249674b3151464c4c536b4a6c4d6a6a6c6131566e56315a6f6d716f34324b576655545462536e74696766486d726f73716f43504b445071717162686e4a39713771694b6c6e78716f68566e3156566d436e417a49614b42565530696248384c57545631597147615a624656614a4c4b69544b45695772706c59326135692f616c4b31683174563164575a78624f4b65767a463046424673614b7962465546614e517373797142436f546f6d6d6f6c3949476c3271444c366a39542b5372547a54377a7a7741414141424a52553545726b4a6767673d3d6956424f5277304b47676f414141414e5355684555674141414655414141425642414d414141444b32375670414141414656424d5645555351454558487a49564a5459534f5438544b7a6f534e4430544d44774359716d55414141422f6b6c4551565249782b33583055304451517745304a5863414e6b4f396e51465746716c67524f69415a525541505266416f35396d346e504469546b6b777838585a364745522b336d374b374f532b503248715233414a4f6c326e74716d306d51452b364251735a6b6c6a3736374d4c686a6a62544c37366d4e376153514c6a744462443171716c57526242766e64746666767973575970687456616566775638694650745269396f4a38485a4d574c4671753157715751304962524b37573639524279314d31535047775443787177737a7242426e5358766337343042466d6139566155492b7465505461424643506a7a6243624e4d4a557676654a58534f596d6e5145577031726b3477796d57453262434d6b4d466d626134755943376f4c595630685932416c567131497334684b6978575238444b584a31674574484e4e6e69314f746471797a5a734938513262366e516c6c4a715a514a54374a56695a2b6378743854514f74685a6d5a74526f72364872634d796c795239745a4f7a4b57554f396f414e536538783248514463576f4248453474705a536576632f656639334c6e4e4c455a6a54762f627a6165382b3768496231377a50366f5866376e73776f337050752f5a734f376d4b7a39337050612f65356a635764594e3035784433556a726c4c637236355a6970396e472f78334f544f68526e7068484d7a6e73636b47762b43654237767067586e764377634951726e664c672f6b50326b393464646e582b2f6c39782f3335486363492b362f33346d75666e65683276713966766b332b3670566a786e39312b6a323376317244686d6b676b31334e65584f61645743317346327734764a554a68676564706b2b56454b7979773667575a4a3144594d54716b5355646d5477335679645044585772784358627041396a7738666e336b652b513332426b42394c6768526f6d4141414141456c46546b5375516d4343",
  "linkReferences": {},
  "deployedLinkReferences": {}
}