{
  "_format": "hh-sol-artifact-1",
  "contractName": "GameOracle",
  "sourceName": "contracts/polygon/GameOracle.sol",
  "abi": [
    {
      "inputs": [
        {
          "internalType": "address",
          "name": "link_",
          "type": "address"
        },
        {
          "internalType": "address",
          "name": "vrfCoordinator_",
          "type": "address"
        },
        {
          "internalType": "uint256",
          "name": "subId_",
          "type": "uint256"
        },
        {
          "internalType": "bytes32",
          "name": "keyHash_",
          "type": "bytes32"
        }
      ],
      "stateMutability": "nonpayable",
      "type": "constructor"
    },
    {
      "inputs": [
        {
          "internalType": "address",
          "name": "have",
          "type": "address"
        },
        {
          "internalType": "address",
          "name": "want",
          "type": "address"
        }
      ],
      "name": "OnlyCoordinatorCanFulfill",
      "type": "error"
    },
    {
      "anonymous": false,
      "inputs": [
        {
          "indexed": true,
          "internalType": "address",
          "name": "previousOwner",
          "type": "address"
        },
        {
          "indexed": true,
          "internalType": "address",
          "name": "newOwner",
          "type": "address"
        }
      ],
      "name": "OwnershipTransferred",
      "type": "event"
    },
    {
      "inputs": [
        {
          "internalType": "address",
          "name": "",
          "type": "address"
        }
      ],
      "name": "authorizedAddys",
      "outputs": [
        {
          "internalType": "uint256",
          "name": "",
          "type": "uint256"
        }
      ],
      "stateMutability": "view",
      "type": "function"
    },
    {
      "inputs": [
        {
          "internalType": "uint256",
          "name": "requestId",
          "type": "uint256"
        },
        {
          "internalType": "uint248",
          "name": "tokenId",
          "type": "uint248"
        },
        {
          "internalType": "uint256",
          "name": "rand",
          "type": "uint256"
        }
      ],
      "name": "forceFullfill",
      "outputs": [],
      "stateMutability": "nonpayable",
      "type": "function"
    },
    {
      "inputs": [
        {
          "internalType": "uint256",
          "name": "tokenId",
          "type": "uint256"
        }
      ],
      "name": "getRandom",
      "outputs": [
        {
          "internalType": "uint256",
          "name": "random",
          "type": "uint256"
        }
      ],
      "stateMutability": "nonpayable",
      "type": "function"
    },
    {
      "inputs": [],
      "name": "owner",
      "outputs": [
        {
          "internalType": "address",
          "name": "",
          "type": "address"
        }
      ],
      "stateMutability": "view",
      "type": "function"
    },
    {
      "inputs": [
        {
          "internalType": "uint256",
          "name": "",
          "type": "uint256"
        }
      ],
      "name": "randomIds",
      "outputs": [
        {
          "internalType": "uint256",
          "name": "",
          "type": "uint256"
        }
      ],
      "stateMutability": "view",
      "type": "function"
    },
    {
      "inputs": [
        {
          "internalType": "uint256",
          "name": "",
          "type": "uint256"
        }
      ],
      "name": "randoms",
      "outputs": [
        {
          "internalType": "uint256",
          "name": "requestId",
          "type": "uint256"
        },
        {
          "internalType": "uint256",
          "name": "randomness",
          "type": "uint256"
        },
        {
          "internalType": "uint248",
          "name": "tokenId",
          "type": "uint248"
        },
        {
          "internalType": "uint8",
          "name": "fulfilled",
          "type": "uint8"
        }
      ],
      "stateMutability": "view",
      "type": "function"
    },
    {
      "inputs": [
        {
          "internalType": "uint256",
          "name": "requestId",
          "type": "uint256"
        },
        {
          "internalType": "uint256[]",
          "name": "randomWords",
          "type": "uint256[]"
        }
      ],
      "name": "rawFulfillRandomWords",
      "outputs": [],
      "stateMutability": "nonpayable",
      "type": "function"
    },
    {
      "inputs": [],
      "name": "renounceOwnership",
      "outputs": [],
      "stateMutability": "nonpayable",
      "type": "function"
    },
    {
      "inputs": [
        {
          "internalType": "uint256",
          "name": "tokenId",
          "type": "uint256"
        }
      ],
      "name": "requestRandom",
      "outputs": [],
      "stateMutability": "nonpayable",
      "type": "function"
    },
    {
      "inputs": [
        {
          "internalType": "address",
          "name": "address_",
          "type": "address"
        },
        {
          "internalType": "uint256",
          "name": "auth_",
          "type": "uint256"
        }
      ],
      "name": "setAuth",
      "outputs": [],
      "stateMutability": "nonpayable",
      "type": "function"
    },
    {
      "inputs": [
        {
          "internalType": "address",
          "name": "newOwner",
          "type": "address"
        }
      ],
      "name": "transferOwnership",
      "outputs": [],
      "stateMutability": "nonpayable",
      "type": "function"
    }
  ],
  "bytecode": "0x60a060405234801561001057600080fd5b50604051610a7c380380610a7c83398101604081905261002f916100ef565b6001600160a01b03831660805261004533610083565b600280546001600160a01b039586166001600160a01b0319918216179091556001805494909516931692909217909255600391909155600455610132565b600080546001600160a01b038381166001600160a01b0319831681178455604051919092169283917f8be0079c531659141344cd1fd0a4f28419497f9722a3daafe3b4186f6b6457e09190a35050565b80516001600160a01b03811681146100ea57600080fd5b919050565b6000806000806080858703121561010557600080fd5b61010e856100d3565b935061011c602086016100d3565b6040860151606090960151949790965092505050565b6080516109286101546000396000818161033a015261037c01526109286000f3fe608060405234801561001057600080fd5b50600436106100a95760003560e01c80638da5cb5b116100715780638da5cb5b14610124578063b419b0131461013f578063c0d0ed7c1461015f578063cd4b6914146101d5578063f2fde38b146101e8578063fa704db2146101fb57600080fd5b806302913471146100ae5780630ea04562146100e15780631fe543e3146100f65780632c4671bb14610109578063715018a61461011c575b600080fd5b6100ce6100bc36600461071e565b60076020526000908152604090205481565b6040519081526020015b60405180910390f35b6100f46100ef36600461071e565b61020e565b005b6100f461010436600461074d565b61032f565b6100f4610117366004610817565b6103b7565b6100f461042e565b6000546040516001600160a01b0390911681526020016100d8565b6100ce61014d366004610877565b60056020526000908152604090205481565b6101a361016d36600461071e565b6006602052600090815260409020805460018201546002909201549091906001600160f81b03811690600160f81b900460ff1684565b6040516100d8949392919093845260208401929092526001600160f81b0316604083015260ff16606082015260800190565b6100ce6101e336600461071e565b610442565b6100f46101f6366004610877565b6104d9565b6100f4610209366004610899565b610552565b336000908152600560205260409020546002146102635760405162461bcd60e51b815260206004820152600e60248201526d1b9bdd08185d5d1a1bdc9a5e995960921b60448201526064015b60405180910390fd5b60008181526006602052604090208054156102af5760405162461bcd60e51b815260206004820152600c60248201526b3bb0b4ba103337b9102b292360a11b604482015260640161025a565b60006102b9610576565b600081815260076020908152604080832087905580516080810182529384528382018381526001600160f81b038089168684019081526001606088018181529a875260069095529290942094518555519184019190915551945160ff16600160f81b029416939093176002909301929092555050565b336001600160a01b037f000000000000000000000000000000000000000000000000000000000000000016146103a95760405163073e64fd60e21b81523360048201526001600160a01b037f000000000000000000000000000000000000000000000000000000000000000016602482015260440161025a565b6103b3828261061d565b5050565b6103bf610674565b60008381526007602090815260408083206001600160f81b0395861690819055815160808101835296875286830194855286820181815260026060890181815292865260069094529190932095518655925160018601559151905160ff16600160f81b02921691909117910155565b610436610674565b61044060006106ce565b565b6000818152600660205260408120600280820154600160f81b900460ff161461049c5760405162461bcd60e51b815260206004820152600c60248201526b3bb0b4ba103337b9102b292360a11b604482015260640161025a565b60018101805482546000908152600760205260408120819055808455909155600290910180546001600160f81b0316600160f81b17905592915050565b6104e1610674565b6001600160a01b0381166105465760405162461bcd60e51b815260206004820152602660248201527f4f776e61626c653a206e6577206f776e657220697320746865207a65726f206160448201526564647265737360d01b606482015260840161025a565b61054f816106ce565b50565b61055a610674565b6001600160a01b03909116600090815260056020526040902055565b6001805460048054600380546040516305d3b1d360e41b81529384019290925267ffffffffffffffff90911660248301526044820152622625a0606482015260848101929092526000916001600160a01b0390911690635d3b1d309060a4016020604051808303816000875af11580156105f4573d6000803e3d6000fd5b505050506040513d601f19601f8201168201806040525081019061061891906108c3565b905090565b60008281526007602090815260408083205483526006909152812082519091839161064a5761064a6108dc565b6020908102919091010151600182015560020180546001600160f81b0316600160f91b1790555050565b6000546001600160a01b031633146104405760405162461bcd60e51b815260206004820181905260248201527f4f776e61626c653a2063616c6c6572206973206e6f7420746865206f776e6572604482015260640161025a565b600080546001600160a01b038381166001600160a01b0319831681178455604051919092169283917f8be0079c531659141344cd1fd0a4f28419497f9722a3daafe3b4186f6b6457e09190a35050565b60006020828403121561073057600080fd5b5035919050565b634e487b7160e01b600052604160045260246000fd5b6000806040838503121561076057600080fd5b8235915060208084013567ffffffffffffffff8082111561078057600080fd5b818601915086601f83011261079457600080fd5b8135818111156107a6576107a6610737565b8060051b604051601f19603f830116810181811085821117156107cb576107cb610737565b6040529182528482019250838101850191898311156107e957600080fd5b938501935b82851015610807578435845293850193928501926107ee565b8096505050505050509250929050565b60008060006060848603121561082c57600080fd5b8335925060208401356001600160f81b038116811461084a57600080fd5b929592945050506040919091013590565b80356001600160a01b038116811461087257600080fd5b919050565b60006020828403121561088957600080fd5b6108928261085b565b9392505050565b600080604083850312156108ac57600080fd5b6108b58361085b565b946020939093013593505050565b6000602082840312156108d557600080fd5b5051919050565b634e487b7160e01b600052603260045260246000fdfea26469706673582212206c71d4c445a19de1509b17e612e8c06c42755d148242660b7f571a46421e4dcf64736f6c63430008120033",
  "linkReferences": {},
  "deployedLinkReferences": {}
}