{
  "_format": "hh-sol-artifact-1",
  "contractName": "ERC721KPoly",
  "sourceName": "contracts/token/ERC721KPoly.sol",
  "abi": [
    {
      "inputs": [],
      "name": "InsufficientMsgFee",
      "type": "error"
    },
    {
      "inputs": [],
      "name": "InvalidDestination",
      "type": "error"
    },
    {
      "inputs": [],
      "name": "TokenLocked",
      "type": "error"
    },
    {
      "anonymous": false,
      "inputs": [
        {
          "indexed": true,
          "internalType": "address",
          "name": "owner",
          "type": "address"
        },
        {
          "indexed": true,
          "internalType": "uint256",
          "name": "id",
          "type": "uint256"
        },
        {
          "indexed": true,
          "internalType": "uint8",
          "name": "action",
          "type": "uint8"
        }
      ],
      "name": "ActionMade",
      "type": "event"
    },
    {
      "anonymous": false,
      "inputs": [
        {
          "indexed": true,
          "internalType": "address",
          "name": "owner",
          "type": "address"
        },
        {
          "indexed": true,
          "internalType": "address",
          "name": "approved",
          "type": "address"
        },
        {
          "indexed": true,
          "internalType": "uint256",
          "name": "tokenId",
          "type": "uint256"
        }
      ],
      "name": "Approval",
      "type": "event"
    },
    {
      "anonymous": false,
      "inputs": [
        {
          "indexed": true,
          "internalType": "address",
          "name": "owner",
          "type": "address"
        },
        {
          "indexed": true,
          "internalType": "address",
          "name": "operator",
          "type": "address"
        },
        {
          "indexed": false,
          "internalType": "bool",
          "name": "approved",
          "type": "bool"
        }
      ],
      "name": "ApprovalForAll",
      "type": "event"
    },
    {
      "anonymous": false,
      "inputs": [
        {
          "indexed": false,
          "internalType": "uint8",
          "name": "version",
          "type": "uint8"
        }
      ],
      "name": "Initialized",
      "type": "event"
    },
    {
      "anonymous": false,
      "inputs": [
        {
          "indexed": false,
          "internalType": "uint16",
          "name": "_srcChainId",
          "type": "uint16"
        },
        {
          "indexed": false,
          "internalType": "bytes",
          "name": "_srcAddress",
          "type": "bytes"
        },
        {
          "indexed": false,
          "internalType": "uint64",
          "name": "_nonce",
          "type": "uint64"
        },
        {
          "indexed": false,
          "internalType": "bytes",
          "name": "_payload",
          "type": "bytes"
        }
      ],
      "name": "MessageFailed",
      "type": "event"
    },
    {
      "anonymous": false,
      "inputs": [
        {
          "indexed": true,
          "internalType": "address",
          "name": "previousOwner",
          "type": "address"
        },
        {
          "indexed": true,
          "internalType": "address",
          "name": "newOwner",
          "type": "address"
        }
      ],
      "name": "OwnershipTransferred",
      "type": "event"
    },
    {
      "anonymous": false,
      "inputs": [
        {
          "indexed": true,
          "internalType": "address",
          "name": "from",
          "type": "address"
        },
        {
          "indexed": true,
          "internalType": "address",
          "name": "to",
          "type": "address"
        },
        {
          "indexed": true,
          "internalType": "uint256",
          "name": "tokenId",
          "type": "uint256"
        }
      ],
      "name": "Transfer",
      "type": "event"
    },
    {
      "inputs": [
        {
          "internalType": "uint256",
          "name": "",
          "type": "uint256"
        }
      ],
      "name": "activities",
      "outputs": [
        {
          "internalType": "uint256",
          "name": "",
          "type": "uint256"
        }
      ],
      "stateMutability": "view",
      "type": "function"
    },
    {
      "inputs": [
        {
          "internalType": "address",
          "name": "to",
          "type": "address"
        },
        {
          "internalType": "uint256",
          "name": "tokenId",
          "type": "uint256"
        }
      ],
      "name": "approve",
      "outputs": [],
      "stateMutability": "nonpayable",
      "type": "function"
    },
    {
      "inputs": [
        {
          "internalType": "address",
          "name": "owner",
          "type": "address"
        }
      ],
      "name": "balanceOf",
      "outputs": [
        {
          "internalType": "uint256",
          "name": "",
          "type": "uint256"
        }
      ],
      "stateMutability": "view",
      "type": "function"
    },
    {
      "inputs": [
        {
          "internalType": "string",
          "name": "newURI",
          "type": "string"
        }
      ],
      "name": "changeURI",
      "outputs": [],
      "stateMutability": "nonpayable",
      "type": "function"
    },
    {
      "inputs": [
        {
          "internalType": "uint256",
          "name": "tokenId",
          "type": "uint256"
        }
      ],
      "name": "decodeActivity",
      "outputs": [
        {
          "internalType": "address",
          "name": "",
          "type": "address"
        },
        {
          "internalType": "uint8",
          "name": "",
          "type": "uint8"
        },
        {
          "internalType": "uint256",
          "name": "",
          "type": "uint256"
        }
      ],
      "stateMutability": "view",
      "type": "function"
    },
    {
      "inputs": [
        {
          "internalType": "uint256",
          "name": "tokenId",
          "type": "uint256"
        }
      ],
      "name": "decodeKyodai",
      "outputs": [
        {
          "internalType": "bytes20",
          "name": "",
          "type": "bytes20"
        },
        {
          "internalType": "uint256",
          "name": "",
          "type": "uint256"
        },
        {
          "internalType": "uint256",
          "name": "",
          "type": "uint256"
        },
        {
          "internalType": "uint256",
          "name": "",
          "type": "uint256"
        }
      ],
      "stateMutability": "view",
      "type": "function"
    },
    {
      "inputs": [
        {
          "internalType": "uint16",
          "name": "",
          "type": "uint16"
        },
        {
          "internalType": "bytes",
          "name": "",
          "type": "bytes"
        },
        {
          "internalType": "uint256",
          "name": "",
          "type": "uint256"
        }
      ],
      "name": "failedMessages",
      "outputs": [
        {
          "internalType": "uint256",
          "name": "payloadLength",
          "type": "uint256"
        },
        {
          "internalType": "bytes32",
          "name": "payloadHash",
          "type": "bytes32"
        }
      ],
      "stateMutability": "view",
      "type": "function"
    },
    {
      "inputs": [
        {
          "internalType": "uint256",
          "name": "tokenId",
          "type": "uint256"
        }
      ],
      "name": "getApproved",
      "outputs": [
        {
          "internalType": "address",
          "name": "",
          "type": "address"
        }
      ],
      "stateMutability": "view",
      "type": "function"
    },
    {
      "inputs": [
        {
          "internalType": "uint256",
          "name": "tokenId",
          "type": "uint256"
        }
      ],
      "name": "getKyodaiAlliance",
      "outputs": [
        {
          "internalType": "uint8",
          "name": "",
          "type": "uint8"
        }
      ],
      "stateMutability": "view",
      "type": "function"
    },
    {
      "inputs": [
        {
          "internalType": "address",
          "name": "owner",
          "type": "address"
        },
        {
          "internalType": "address",
          "name": "operator",
          "type": "address"
        }
      ],
      "name": "isApprovedForAll",
      "outputs": [
        {
          "internalType": "bool",
          "name": "",
          "type": "bool"
        }
      ],
      "stateMutability": "view",
      "type": "function"
    },
    {
      "inputs": [
        {
          "internalType": "uint256",
          "name": "",
          "type": "uint256"
        }
      ],
      "name": "kyodais",
      "outputs": [
        {
          "internalType": "uint256",
          "name": "",
          "type": "uint256"
        }
      ],
      "stateMutability": "view",
      "type": "function"
    },
    {
      "inputs": [
        {
          "internalType": "uint16",
          "name": "_srcChainId",
          "type": "uint16"
        },
        {
          "internalType": "bytes",
          "name": "_srcAddress",
          "type": "bytes"
        },
        {
          "internalType": "uint64",
          "name": "_nonce",
          "type": "uint64"
        },
        {
          "internalType": "bytes",
          "name": "_payload",
          "type": "bytes"
        }
      ],
      "name": "lzReceive",
      "outputs": [],
      "stateMutability": "nonpayable",
      "type": "function"
    },
    {
      "inputs": [],
      "name": "name",
      "outputs": [
        {
          "internalType": "string",
          "name": "",
          "type": "string"
        }
      ],
      "stateMutability": "view",
      "type": "function"
    },
    {
      "inputs": [
        {
          "internalType": "uint16",
          "name": "_srcChainId",
          "type": "uint16"
        },
        {
          "internalType": "bytes",
          "name": "_srcAddress",
          "type": "bytes"
        },
        {
          "internalType": "uint64",
          "name": "_nonce",
          "type": "uint64"
        },
        {
          "internalType": "bytes",
          "name": "_payload",
          "type": "bytes"
        }
      ],
      "name": "onLzReceive",
      "outputs": [],
      "stateMutability": "nonpayable",
      "type": "function"
    },
    {
      "inputs": [],
      "name": "owner",
      "outputs": [
        {
          "internalType": "address",
          "name": "",
          "type": "address"
        }
      ],
      "stateMutability": "view",
      "type": "function"
    },
    {
      "inputs": [
        {
          "internalType": "uint256",
          "name": "tokenId",
          "type": "uint256"
        }
      ],
      "name": "ownerOf",
      "outputs": [
        {
          "internalType": "address",
          "name": "",
          "type": "address"
        }
      ],
      "stateMutability": "view",
      "type": "function"
    },
    {
      "inputs": [],
      "name": "renounceOwnership",
      "outputs": [],
      "stateMutability": "nonpayable",
      "type": "function"
    },
    {
      "inputs": [
        {
          "internalType": "uint16",
          "name": "_srcChainId",
          "type": "uint16"
        },
        {
          "internalType": "bytes",
          "name": "_srcAddress",
          "type": "bytes"
        },
        {
          "internalType": "uint64",
          "name": "_nonce",
          "type": "uint64"
        },
        {
          "internalType": "bytes",
          "name": "_payload",
          "type": "bytes"
        }
      ],
      "name": "retryMessage",
      "outputs": [],
      "stateMutability": "payable",
      "type": "function"
    },
    {
      "inputs": [
        {
          "internalType": "address",
          "name": "from",
          "type": "address"
        },
        {
          "internalType": "address",
          "name": "to",
          "type": "address"
        },
        {
          "internalType": "uint256",
          "name": "tokenId",
          "type": "uint256"
        }
      ],
      "name": "safeTransferFrom",
      "outputs": [],
      "stateMutability": "nonpayable",
      "type": "function"
    },
    {
      "inputs": [
        {
          "internalType": "address",
          "name": "from",
          "type": "address"
        },
        {
          "internalType": "address",
          "name": "to",
          "type": "address"
        },
        {
          "internalType": "uint256",
          "name": "tokenId",
          "type": "uint256"
        },
        {
          "internalType": "bytes",
          "name": "data",
          "type": "bytes"
        }
      ],
      "name": "safeTransferFrom",
      "outputs": [],
      "stateMutability": "nonpayable",
      "type": "function"
    },
    {
      "inputs": [
        {
          "internalType": "address",
          "name": "operator",
          "type": "address"
        },
        {
          "internalType": "bool",
          "name": "approved",
          "type": "bool"
        }
      ],
      "name": "setApprovalForAll",
      "outputs": [],
      "stateMutability": "nonpayable",
      "type": "function"
    },
    {
      "inputs": [
        {
          "internalType": "uint256",
          "name": "newVal",
          "type": "uint256"
        }
      ],
      "name": "setGasForDestinationLzReceive",
      "outputs": [],
      "stateMutability": "nonpayable",
      "type": "function"
    },
    {
      "inputs": [
        {
          "internalType": "address",
          "name": "_lzEndpoint",
          "type": "address"
        }
      ],
      "name": "setLzEndpoint",
      "outputs": [],
      "stateMutability": "nonpayable",
      "type": "function"
    },
    {
      "inputs": [
        {
          "internalType": "uint16",
          "name": "_chainId",
          "type": "uint16"
        },
        {
          "internalType": "bytes",
          "name": "_trustedRemote",
          "type": "bytes"
        }
      ],
      "name": "setTrustedRemote",
      "outputs": [],
      "stateMutability": "nonpayable",
      "type": "function"
    },
    {
      "inputs": [
        {
          "internalType": "bytes4",
          "name": "interfaceId",
          "type": "bytes4"
        }
      ],
      "name": "supportsInterface",
      "outputs": [
        {
          "internalType": "bool",
          "name": "",
          "type": "bool"
        }
      ],
      "stateMutability": "view",
      "type": "function"
    },
    {
      "inputs": [],
      "name": "symbol",
      "outputs": [
        {
          "internalType": "string",
          "name": "",
          "type": "string"
        }
      ],
      "stateMutability": "view",
      "type": "function"
    },
    {
      "inputs": [
        {
          "internalType": "uint256",
          "name": "tokenId",
          "type": "uint256"
        }
      ],
      "name": "tokenURI",
      "outputs": [
        {
          "internalType": "string",
          "name": "",
          "type": "string"
        }
      ],
      "stateMutability": "view",
      "type": "function"
    },
    {
      "inputs": [],
      "name": "totalSupply",
      "outputs": [
        {
          "internalType": "uint256",
          "name": "",
          "type": "uint256"
        }
      ],
      "stateMutability": "view",
      "type": "function"
    },
    {
      "inputs": [
        {
          "internalType": "address",
          "name": "from",
          "type": "address"
        },
        {
          "internalType": "address",
          "name": "to",
          "type": "address"
        },
        {
          "internalType": "uint256",
          "name": "tokenId",
          "type": "uint256"
        }
      ],
      "name": "transferFrom",
      "outputs": [],
      "stateMutability": "nonpayable",
      "type": "function"
    },
    {
      "inputs": [
        {
          "internalType": "address",
          "name": "newOwner",
          "type": "address"
        }
      ],
      "name": "transferOwnership",
      "outputs": [],
      "stateMutability": "nonpayable",
      "type": "function"
    },
    {
      "inputs": [
        {
          "internalType": "uint16",
          "name": "_chainId",
          "type": "uint16"
        },
        {
          "internalType": "uint256",
          "name": "tokenId",
          "type": "uint256"
        }
      ],
      "name": "traverseChains",
      "outputs": [],
      "stateMutability": "payable",
      "type": "function"
    },
    {
      "inputs": [
        {
          "internalType": "uint16",
          "name": "",
          "type": "uint16"
        }
      ],
      "name": "trustedRemoteLookup",
      "outputs": [
        {
          "internalType": "bytes",
          "name": "",
          "type": "bytes"
        }
      ],
      "stateMutability": "view",
      "type": "function"
    }
  ],
  "bytecode": "0x608060405234801561001057600080fd5b506122c5806100206000396000f3fe6080604052600436106101e25760003560e01c80638ee7491211610102578063d1deba1f11610095578063eb8d72b711610064578063eb8d72b714610628578063ed102eae14610648578063f0467898146106a8578063f2fde38b146106ea57600080fd5b8063d1deba1f1461058c578063d9331a111461059f578063e5e01c11146105bf578063e985e9c5146105df57600080fd5b8063b218d311116100d1578063b218d31114610511578063b88d4fde1461053e578063c87b56dd14610559578063cf89fa031461057957600080fd5b80638ee7491214610451578063943fb872146104bc57806395d89b41146104dc578063a22cb465146104f157600080fd5b806323b872dd1161017a57806370a082311161014957806370a08231146103de578063715018a6146103fe5780637533d788146104135780638da5cb5b1461043357600080fd5b806323b872dd1461032857806342842e0e146103285780635d1b2bb8146103435780636352211e146103be57600080fd5b8063095ea7b3116101b6578063095ea7b3146102985780630d1657e8146102b857806318160ddd146102f35780631c37a8221461030857600080fd5b80621d3567146101e757806301ffc9a71461020957806306fdde031461023e578063081812fc14610260575b600080fd5b3480156101f357600080fd5b50610207610202366004611a2f565b61070a565b005b34801561021557600080fd5b50610229610224366004611ab3565b610904565b60405190151581526020015b60405180910390f35b34801561024a57600080fd5b50610253610956565b6040516102359190611b2d565b34801561026c57600080fd5b5061028061027b366004611b40565b6109e8565b6040516001600160a01b039091168152602001610235565b3480156102a457600080fd5b506102076102b3366004611b6e565b610a0f565b3480156102c457600080fd5b506102e56102d3366004611b40565b60d06020526000908152604090205481565b604051908152602001610235565b3480156102ff57600080fd5b5060ce546102e5565b34801561031457600080fd5b50610207610323366004611a2f565b610b24565b34801561033457600080fd5b506102076101e2366004611b9a565b34801561034f57600080fd5b5061038e61035e366004611b40565b600090815260cf6020526040902054606081901b9160c082901c9161ffff60b082901c81169260a09290921c1690565b604080516bffffffffffffffffffffffff1990951685526020850193909352918301526060820152608001610235565b3480156103ca57600080fd5b506102806103d9366004611b40565b610b93565b3480156103ea57600080fd5b506102e56103f9366004611bdb565b610bf3565b34801561040a57600080fd5b50610207610c79565b34801561041f57600080fd5b5061025361042e366004611bf8565b610c8d565b34801561043f57600080fd5b506097546001600160a01b0316610280565b34801561045d57600080fd5b506104a761046c366004611c13565b60ca60209081526000938452604080852084518086018401805192815290840195840195909520945292905282529020805460019091015482565b60408051928352602083019190915201610235565b3480156104c857600080fd5b506102076104d7366004611b40565b610d27565b3480156104e857600080fd5b50610253610d34565b3480156104fd57600080fd5b5061020761050c366004611c69565b610d43565b34801561051d57600080fd5b506102e561052c366004611b40565b60cf6020526000908152604090205481565b34801561054a57600080fd5b506102076101e2366004611ca7565b34801561056557600080fd5b50610253610574366004611b40565b610d52565b610207610587366004611d06565b610dc6565b61020761059a366004611d6a565b6110ad565b3480156105ab57600080fd5b506102076105ba366004611bdb565b61123a565b3480156105cb57600080fd5b506102076105da366004611df5565b611264565b3480156105eb57600080fd5b506102296105fa366004611e36565b6001600160a01b039182166000908152606a6020908152604080832093909416825291909152205460ff1690565b34801561063457600080fd5b50610207610643366004611e64565b611279565b34801561065457600080fd5b50610681610663366004611b40565b600090815260d060205260409020549060a082901c9060a883901c90565b604080516001600160a01b03909416845260ff909216602084015290820152606001610235565b3480156106b457600080fd5b506106d86106c3366004611b40565b600090815260cf602052604090205460c01c90565b60405160ff9091168152602001610235565b3480156106f657600080fd5b50610207610705366004611bdb565b61129f565b60c9546001600160a01b0316331461072157600080fd5b61ffff8416600090815260cb60205260409020805461073f90611eb6565b9050835114801561077e575061ffff8416600090815260cb602052604090819020905161076c9190611ef0565b60405180910390208380519060200120145b6107ec5760405162461bcd60e51b815260206004820152603460248201527f4e6f6e626c6f636b696e6752656365697665723a20696e76616c696420736f756044820152731c98d9481cd95b991a5b99c818dbdb9d1c9858dd60621b60648201526084015b60405180910390fd5b604051630e1bd41160e11b81523090631c37a82290610815908790879087908790600401611f66565b600060405180830381600087803b15801561082f57600080fd5b505af1925050508015610840575060015b6108fe57604051806040016040528082518152602001828051906020012081525060ca60008661ffff1661ffff1681526020019081526020016000208460405161088a9190611faf565b9081526040805191829003602090810183206001600160401b038716600090815290825291909120835181559201516001909201919091557fe6f254030bcb01ffd20558175c13fcaed6d1520be7becee4c961b65f79243b0d906108f5908690869086908690611f66565b60405180910390a15b50505050565b60006001600160e01b031982166380ac58cd60e01b148061093557506001600160e01b03198216635b5e139f60e01b145b8061095057506301ffc9a760e01b6001600160e01b03198316145b92915050565b60606065805461096590611eb6565b80601f016020809104026020016040519081016040528092919081815260200182805461099190611eb6565b80156109de5780601f106109b3576101008083540402835291602001916109de565b820191906000526020600020905b8154815290600101906020018083116109c157829003601f168201915b5050505050905090565b60006109f382611318565b506000908152606960205260409020546001600160a01b031690565b6000610a1a82610b93565b9050806001600160a01b0316836001600160a01b031603610a875760405162461bcd60e51b815260206004820152602160248201527f4552433732313a20617070726f76616c20746f2063757272656e74206f776e656044820152603960f91b60648201526084016107e3565b336001600160a01b0382161480610aa35750610aa381336105fa565b610b155760405162461bcd60e51b815260206004820152603d60248201527f4552433732313a20617070726f76652063616c6c6572206973206e6f7420746f60448201527f6b656e206f776e6572206f7220617070726f76656420666f7220616c6c00000060648201526084016107e3565b610b1f8383611377565b505050565b333014610b875760405162461bcd60e51b815260206004820152602b60248201527f4e6f6e626c6f636b696e6752656365697665723a2063616c6c6572206d75737460448201526a10313290213934b233b29760a91b60648201526084016107e3565b6108fe848484846113e5565b6000818152606760205260408120546001600160a01b0316806109505760405162461bcd60e51b8152602060048201526018602482015277115490cdcc8c4e881a5b9d985b1a59081d1bdad95b88125160421b60448201526064016107e3565b60006001600160a01b038216610c5d5760405162461bcd60e51b815260206004820152602960248201527f4552433732313a2061646472657373207a65726f206973206e6f7420612076616044820152683634b21037bbb732b960b91b60648201526084016107e3565b506001600160a01b031660009081526068602052604090205490565b610c8161145b565b610c8b60006114b5565b565b60cb6020526000908152604090208054610ca690611eb6565b80601f0160208091040260200160405190810160405280929190818152602001828054610cd290611eb6565b8015610d1f5780601f10610cf457610100808354040283529160200191610d1f565b820191906000526020600020905b815481529060010190602001808311610d0257829003601f168201915b505050505081565b610d2f61145b565b60cc55565b60606066805461096590611eb6565b610d4e338383611507565b5050565b6060610d5d82611318565b6000610d7460408051602081019091526000815290565b90506000815111610d945760405180602001604052806000815250610dbf565b80610d9e846115d5565b604051602001610daf929190611fcb565b6040516020818303038152906040525b9392505050565b338181610dd282610b93565b6001600160a01b031614610e1b5760405162461bcd60e51b815260206004820152601060248201526f1ade5bd9185a481b9bdd081bdddb995960821b60448201526064016107e3565b600083815260d0602052604090205460a01c60ff1615610e4e57604051635a8181f760e01b815260040160405180910390fd5b61ffff8416600090815260cb602052604081208054610e6c90611eb6565b80601f0160208091040260200160405190810160405280929190818152602001828054610e9890611eb6565b8015610ee55780601f10610eba57610100808354040283529160200191610ee5565b820191906000526020600020905b815481529060010190602001808311610ec857829003601f168201915b505050505090508051600003610f0e5760405163ac6b05f560e01b815260040160405180910390fd5b600084815260cf602081815260408084208054825133818601528084018b905260608082019290925283518082039092018252608001835289865260d0845291852085905592909152919055610f6385611667565b60cc54604051600160f01b6020820152602281019190915260019060009060420160408051601f198184030181529082905260c95463040a7bb160e41b83529092506000916001600160a01b03909116906340a7bb1090610fd0908c903090899087908990600401611ffa565b6040805180830381865afa158015610fec573d6000803e3d6000fd5b505050506040513d601f19601f82011682018060405250810190611010919061204e565b50905080341015611034576040516369dd640160e01b815260040160405180910390fd5b60c95460405162c5803160e81b81526001600160a01b039091169063c5803100903490611070908d908a908a9033906000908b90600401612072565b6000604051808303818588803b15801561108957600080fd5b505af115801561109d573d6000803e3d6000fd5b5050505050505050505050505050565b61ffff8516600090815260ca602052604080822090516110ce908790611faf565b90815260408051602092819003830190206001600160401b03871660009081529252902060018101549091506111555760405162461bcd60e51b815260206004820152602660248201527f4e6f6e626c6f636b696e6752656365697665723a206e6f2073746f726564206d60448201526565737361676560d01b60648201526084016107e3565b80548214801561117f5750806001015483836040516111759291906120d9565b6040518091039020145b6111cb5760405162461bcd60e51b815260206004820152601a60248201527f4c617965725a65726f3a20696e76616c6964207061796c6f616400000000000060448201526064016107e3565b60008082556001820155604051630e1bd41160e11b81523090631c37a8229061120090899089908990899089906004016120e9565b600060405180830381600087803b15801561121a57600080fd5b505af115801561122e573d6000803e3d6000fd5b50505050505050505050565b61124261145b565b60c980546001600160a01b0319166001600160a01b0392909216919091179055565b61126c61145b565b60cd610b1f828483612198565b61128161145b565b61ffff8316600090815260cb602052604090206108fe828483612198565b6112a761145b565b6001600160a01b03811661130c5760405162461bcd60e51b815260206004820152602660248201527f4f776e61626c653a206e6577206f776e657220697320746865207a65726f206160448201526564647265737360d01b60648201526084016107e3565b611315816114b5565b50565b6000818152606760205260409020546001600160a01b03166113155760405162461bcd60e51b8152602060048201526018602482015277115490cdcc8c4e881a5b9d985b1a59081d1bdad95b88125160421b60448201526064016107e3565b600081815260696020526040902080546001600160a01b0319166001600160a01b03841690811790915581906113ac82610b93565b6001600160a01b03167f8c5be1e5ebec7d5bd14f71427d1e84f3dd0314c0f7b2291e5b200ac8c7c3b92560405160405180910390a45050565b6000806000838060200190518101906113fe9190612258565b600082815260d060209081526040808320304260a81b17905560cf8252808320849055606790915290205492955090935091506001600160a01b0316156114485761144882611667565b61145283836116fc565b50505050505050565b6097546001600160a01b03163314610c8b5760405162461bcd60e51b815260206004820181905260248201527f4f776e61626c653a2063616c6c6572206973206e6f7420746865206f776e657260448201526064016107e3565b609780546001600160a01b038381166001600160a01b0319831681179093556040519116919082907f8be0079c531659141344cd1fd0a4f28419497f9722a3daafe3b4186f6b6457e090600090a35050565b816001600160a01b0316836001600160a01b0316036115685760405162461bcd60e51b815260206004820152601960248201527f4552433732313a20617070726f766520746f2063616c6c65720000000000000060448201526064016107e3565b6001600160a01b038381166000818152606a6020908152604080832094871680845294825291829020805460ff191686151590811790915591519182527f17307eab39ab6107e8899845ad3d59bd9653f200f220920489ca2b5937696c31910160405180910390a3505050565b606060006115e283611887565b60010190506000816001600160401b0381111561160157611601611976565b6040519080825280601f01601f19166020018201604052801561162b576020820181803683370190505b5090508181016020015b600019016f181899199a1a9b1b9c1cb0b131b232b360811b600a86061a8153600a850494508461163557509392505050565b600061167282610b93565b905061167d82610b93565b600083815260696020908152604080832080546001600160a01b03199081169091556001600160a01b0385168085526068845282852080546000190190558785526067909352818420805490911690555192935084927fddf252ad1be2c89b69c2b068fc378daa952ba7f163c4a11628f55a4df523b3ef908390a45050565b6001600160a01b0382166117525760405162461bcd60e51b815260206004820181905260248201527f4552433732313a206d696e7420746f20746865207a65726f206164647265737360448201526064016107e3565b6000818152606760205260409020546001600160a01b0316156117b75760405162461bcd60e51b815260206004820152601c60248201527f4552433732313a20746f6b656e20616c7265616479206d696e7465640000000060448201526064016107e3565b6000818152606760205260409020546001600160a01b03161561181c5760405162461bcd60e51b815260206004820152601c60248201527f4552433732313a20746f6b656e20616c7265616479206d696e7465640000000060448201526064016107e3565b6001600160a01b038216600081815260686020908152604080832080546001019055848352606790915280822080546001600160a01b0319168417905551839291907fddf252ad1be2c89b69c2b068fc378daa952ba7f163c4a11628f55a4df523b3ef908290a45050565b60008072184f03e93ff9f4daa797ed6e38ed64bf6a1f0160401b83106118c65772184f03e93ff9f4daa797ed6e38ed64bf6a1f0160401b830492506040015b6d04ee2d6d415b85acef810000000083106118f2576d04ee2d6d415b85acef8100000000830492506020015b662386f26fc10000831061191057662386f26fc10000830492506010015b6305f5e1008310611928576305f5e100830492506008015b612710831061193c57612710830492506004015b6064831061194e576064830492506002015b600a83106109505760010192915050565b803561ffff8116811461197157600080fd5b919050565b634e487b7160e01b600052604160045260246000fd5b600082601f83011261199d57600080fd5b81356001600160401b03808211156119b7576119b7611976565b604051601f8301601f19908116603f011681019082821181831017156119df576119df611976565b816040528381528660208588010111156119f857600080fd5b836020870160208301376000602085830101528094505050505092915050565b80356001600160401b038116811461197157600080fd5b60008060008060808587031215611a4557600080fd5b611a4e8561195f565b935060208501356001600160401b0380821115611a6a57600080fd5b611a768883890161198c565b9450611a8460408801611a18565b93506060870135915080821115611a9a57600080fd5b50611aa78782880161198c565b91505092959194509250565b600060208284031215611ac557600080fd5b81356001600160e01b031981168114610dbf57600080fd5b60005b83811015611af8578181015183820152602001611ae0565b50506000910152565b60008151808452611b19816020860160208601611add565b601f01601f19169290920160200192915050565b602081526000610dbf6020830184611b01565b600060208284031215611b5257600080fd5b5035919050565b6001600160a01b038116811461131557600080fd5b60008060408385031215611b8157600080fd5b8235611b8c81611b59565b946020939093013593505050565b600080600060608486031215611baf57600080fd5b8335611bba81611b59565b92506020840135611bca81611b59565b929592945050506040919091013590565b600060208284031215611bed57600080fd5b8135610dbf81611b59565b600060208284031215611c0a57600080fd5b610dbf8261195f565b600080600060608486031215611c2857600080fd5b611c318461195f565b925060208401356001600160401b03811115611c4c57600080fd5b611c588682870161198c565b925050604084013590509250925092565b60008060408385031215611c7c57600080fd5b8235611c8781611b59565b915060208301358015158114611c9c57600080fd5b809150509250929050565b60008060008060808587031215611cbd57600080fd5b8435611cc881611b59565b93506020850135611cd881611b59565b92506040850135915060608501356001600160401b03811115611cfa57600080fd5b611aa78782880161198c565b60008060408385031215611d1957600080fd5b611b8c8361195f565b60008083601f840112611d3457600080fd5b5081356001600160401b03811115611d4b57600080fd5b602083019150836020828501011115611d6357600080fd5b9250929050565b600080600080600060808688031215611d8257600080fd5b611d8b8661195f565b945060208601356001600160401b0380821115611da757600080fd5b611db389838a0161198c565b9550611dc160408901611a18565b94506060880135915080821115611dd757600080fd5b50611de488828901611d22565b969995985093965092949392505050565b60008060208385031215611e0857600080fd5b82356001600160401b03811115611e1e57600080fd5b611e2a85828601611d22565b90969095509350505050565b60008060408385031215611e4957600080fd5b8235611e5481611b59565b91506020830135611c9c81611b59565b600080600060408486031215611e7957600080fd5b611e828461195f565b925060208401356001600160401b03811115611e9d57600080fd5b611ea986828701611d22565b9497909650939450505050565b600181811c90821680611eca57607f821691505b602082108103611eea57634e487b7160e01b600052602260045260246000fd5b50919050565b6000808354611efe81611eb6565b60018281168015611f165760018114611f2b57611f5a565b60ff1984168752821515830287019450611f5a565b8760005260208060002060005b85811015611f515781548a820152908401908201611f38565b50505082870194505b50929695505050505050565b61ffff85168152608060208201526000611f836080830186611b01565b6001600160401b03851660408401528281036060840152611fa48185611b01565b979650505050505050565b60008251611fc1818460208701611add565b9190910192915050565b60008351611fdd818460208801611add565b835190830190611ff1818360208801611add565b01949350505050565b61ffff861681526001600160a01b038516602082015260a06040820181905260009061202890830186611b01565b841515606084015282810360808401526120428185611b01565b98975050505050505050565b6000806040838503121561206157600080fd5b505080516020909101519092909150565b61ffff8716815260c06020820152600061208f60c0830188611b01565b82810360408401526120a18188611b01565b6001600160a01b0387811660608601528616608085015283810360a085015290506120cc8185611b01565b9998505050505050505050565b8183823760009101908152919050565b61ffff861681526080602082015260006121066080830187611b01565b6001600160401b03861660408401528281036060840152838152838560208301376000602085830101526020601f19601f8601168201019150509695505050505050565b601f821115610b1f57600081815260208120601f850160051c810160208610156121715750805b601f850160051c820191505b818110156121905782815560010161217d565b505050505050565b6001600160401b038311156121af576121af611976565b6121c3836121bd8354611eb6565b8361214a565b6000601f8411600181146121f757600085156121df5750838201355b600019600387901b1c1916600186901b178355612251565b600083815260209020601f19861690835b828110156122285786850135825560209485019460019092019101612208565b50868210156122455760001960f88860031b161c19848701351681555b505060018560011b0183555b5050505050565b60008060006060848603121561226d57600080fd5b835161227881611b59565b60208501516040909501519096949550939250505056fea2646970667358221220993c6001cde896b14df6d78901271c6eda911ba40720635d2133c8afb92ac1f164736f6c63430008120033",
  "linkReferences": {},
  "deployedLinkReferences": {}
}