{
  "_format": "hh-sol-artifact-1",
  "contractName": "CyberKyodaiPoly",
  "sourceName": "contracts/polygon/CyberKyodaiPoly.sol",
  "abi": [
    {
      "inputs": [
        {
          "internalType": "uint256",
          "name": "_traitHash",
          "type": "uint256"
        }
      ],
      "name": "AlreadyRevealed",
      "type": "error"
    },
    {
      "inputs": [],
      "name": "InsufficientMsgFee",
      "type": "error"
    },
    {
      "inputs": [],
      "name": "InvalidDestination",
      "type": "error"
    },
    {
      "inputs": [],
      "name": "InvalidInput",
      "type": "error"
    },
    {
      "inputs": [],
      "name": "MintedOut",
      "type": "error"
    },
    {
      "inputs": [],
      "name": "TokenLocked",
      "type": "error"
    },
    {
      "inputs": [
        {
          "internalType": "address",
          "name": "_address",
          "type": "address"
        }
      ],
      "name": "TokenNotOwned",
      "type": "error"
    },
    {
      "inputs": [
        {
          "internalType": "address",
          "name": "_address",
          "type": "address"
        }
      ],
      "name": "UnauthorizedAddress",
      "type": "error"
    },
    {
      "anonymous": false,
      "inputs": [
        {
          "indexed": true,
          "internalType": "address",
          "name": "owner",
          "type": "address"
        },
        {
          "indexed": true,
          "internalType": "uint256",
          "name": "id",
          "type": "uint256"
        },
        {
          "indexed": true,
          "internalType": "uint8",
          "name": "action",
          "type": "uint8"
        }
      ],
      "name": "ActionMade",
      "type": "event"
    },
    {
      "anonymous": false,
      "inputs": [
        {
          "indexed": false,
          "internalType": "address",
          "name": "previousAdmin",
          "type": "address"
        },
        {
          "indexed": false,
          "internalType": "address",
          "name": "newAdmin",
          "type": "address"
        }
      ],
      "name": "AdminChanged",
      "type": "event"
    },
    {
      "anonymous": false,
      "inputs": [
        {
          "indexed": true,
          "internalType": "address",
          "name": "owner",
          "type": "address"
        },
        {
          "indexed": true,
          "internalType": "address",
          "name": "approved",
          "type": "address"
        },
        {
          "indexed": true,
          "internalType": "uint256",
          "name": "tokenId",
          "type": "uint256"
        }
      ],
      "name": "Approval",
      "type": "event"
    },
    {
      "anonymous": false,
      "inputs": [
        {
          "indexed": true,
          "internalType": "address",
          "name": "owner",
          "type": "address"
        },
        {
          "indexed": true,
          "internalType": "address",
          "name": "operator",
          "type": "address"
        },
        {
          "indexed": false,
          "internalType": "bool",
          "name": "approved",
          "type": "bool"
        }
      ],
      "name": "ApprovalForAll",
      "type": "event"
    },
    {
      "anonymous": false,
      "inputs": [
        {
          "indexed": true,
          "internalType": "address",
          "name": "beacon",
          "type": "address"
        }
      ],
      "name": "BeaconUpgraded",
      "type": "event"
    },
    {
      "anonymous": false,
      "inputs": [
        {
          "indexed": false,
          "internalType": "uint8",
          "name": "version",
          "type": "uint8"
        }
      ],
      "name": "Initialized",
      "type": "event"
    },
    {
      "anonymous": false,
      "inputs": [
        {
          "indexed": false,
          "internalType": "uint16",
          "name": "_srcChainId",
          "type": "uint16"
        },
        {
          "indexed": false,
          "internalType": "bytes",
          "name": "_srcAddress",
          "type": "bytes"
        },
        {
          "indexed": false,
          "internalType": "uint64",
          "name": "_nonce",
          "type": "uint64"
        },
        {
          "indexed": false,
          "internalType": "bytes",
          "name": "_payload",
          "type": "bytes"
        }
      ],
      "name": "MessageFailed",
      "type": "event"
    },
    {
      "anonymous": false,
      "inputs": [
        {
          "indexed": true,
          "internalType": "address",
          "name": "previousOwner",
          "type": "address"
        },
        {
          "indexed": true,
          "internalType": "address",
          "name": "newOwner",
          "type": "address"
        }
      ],
      "name": "OwnershipTransferred",
      "type": "event"
    },
    {
      "anonymous": false,
      "inputs": [
        {
          "indexed": true,
          "internalType": "address",
          "name": "from",
          "type": "address"
        },
        {
          "indexed": true,
          "internalType": "address",
          "name": "to",
          "type": "address"
        },
        {
          "indexed": true,
          "internalType": "uint256",
          "name": "tokenId",
          "type": "uint256"
        }
      ],
      "name": "Transfer",
      "type": "event"
    },
    {
      "anonymous": false,
      "inputs": [
        {
          "indexed": true,
          "internalType": "address",
          "name": "implementation",
          "type": "address"
        }
      ],
      "name": "Upgraded",
      "type": "event"
    },
    {
      "inputs": [
        {
          "internalType": "uint256",
          "name": "",
          "type": "uint256"
        }
      ],
      "name": "activities",
      "outputs": [
        {
          "internalType": "uint256",
          "name": "",
          "type": "uint256"
        }
      ],
      "stateMutability": "view",
      "type": "function"
    },
    {
      "inputs": [
        {
          "internalType": "uint256",
          "name": "",
          "type": "uint256"
        }
      ],
      "name": "allianceSupply",
      "outputs": [
        {
          "internalType": "uint256",
          "name": "",
          "type": "uint256"
        }
      ],
      "stateMutability": "view",
      "type": "function"
    },
    {
      "inputs": [
        {
          "internalType": "address",
          "name": "to",
          "type": "address"
        },
        {
          "internalType": "uint256",
          "name": "tokenId",
          "type": "uint256"
        }
      ],
      "name": "approve",
      "outputs": [],
      "stateMutability": "nonpayable",
      "type": "function"
    },
    {
      "inputs": [
        {
          "internalType": "address",
          "name": "owner",
          "type": "address"
        }
      ],
      "name": "balanceOf",
      "outputs": [
        {
          "internalType": "uint256",
          "name": "",
          "type": "uint256"
        }
      ],
      "stateMutability": "view",
      "type": "function"
    },
    {
      "inputs": [
        {
          "internalType": "uint256",
          "name": "tokenId",
          "type": "uint256"
        },
        {
          "internalType": "address",
          "name": "who",
          "type": "address"
        }
      ],
      "name": "burn",
      "outputs": [],
      "stateMutability": "nonpayable",
      "type": "function"
    },
    {
      "inputs": [
        {
          "internalType": "uint256",
          "name": "tokenId",
          "type": "uint256"
        }
      ],
      "name": "burnAuth",
      "outputs": [],
      "stateMutability": "nonpayable",
      "type": "function"
    },
    {
      "inputs": [
        {
          "internalType": "uint256",
          "name": "tokenId",
          "type": "uint256"
        },
        {
          "internalType": "bytes",
          "name": "newName",
          "type": "bytes"
        }
      ],
      "name": "changeName",
      "outputs": [],
      "stateMutability": "nonpayable",
      "type": "function"
    },
    {
      "inputs": [
        {
          "internalType": "string",
          "name": "newURI",
          "type": "string"
        }
      ],
      "name": "changeURI",
      "outputs": [],
      "stateMutability": "nonpayable",
      "type": "function"
    },
    {
      "inputs": [
        {
          "internalType": "uint256[]",
          "name": "tokenIds",
          "type": "uint256[]"
        }
      ],
      "name": "claim",
      "outputs": [],
      "stateMutability": "nonpayable",
      "type": "function"
    },
    {
      "inputs": [
        {
          "internalType": "uint256",
          "name": "tokenId",
          "type": "uint256"
        }
      ],
      "name": "decodeActivity",
      "outputs": [
        {
          "internalType": "address",
          "name": "",
          "type": "address"
        },
        {
          "internalType": "uint8",
          "name": "",
          "type": "uint8"
        },
        {
          "internalType": "uint256",
          "name": "",
          "type": "uint256"
        }
      ],
      "stateMutability": "view",
      "type": "function"
    },
    {
      "inputs": [
        {
          "internalType": "uint256",
          "name": "tokenId",
          "type": "uint256"
        }
      ],
      "name": "decodeKyodai",
      "outputs": [
        {
          "internalType": "bytes20",
          "name": "",
          "type": "bytes20"
        },
        {
          "internalType": "uint256",
          "name": "",
          "type": "uint256"
        },
        {
          "internalType": "uint256",
          "name": "",
          "type": "uint256"
        },
        {
          "internalType": "uint256",
          "name": "",
          "type": "uint256"
        }
      ],
      "stateMutability": "view",
      "type": "function"
    },
    {
      "inputs": [
        {
          "internalType": "uint256",
          "name": "tokenId",
          "type": "uint256"
        },
        {
          "internalType": "uint8",
          "name": "action",
          "type": "uint8"
        }
      ],
      "name": "doAction",
      "outputs": [],
      "stateMutability": "nonpayable",
      "type": "function"
    },
    {
      "inputs": [
        {
          "internalType": "uint256[]",
          "name": "tokenIds",
          "type": "uint256[]"
        },
        {
          "internalType": "uint8",
          "name": "action",
          "type": "uint8"
        }
      ],
      "name": "doActionMany",
      "outputs": [],
      "stateMutability": "nonpayable",
      "type": "function"
    },
    {
      "inputs": [
        {
          "internalType": "uint16",
          "name": "",
          "type": "uint16"
        },
        {
          "internalType": "bytes",
          "name": "",
          "type": "bytes"
        },
        {
          "internalType": "uint256",
          "name": "",
          "type": "uint256"
        }
      ],
      "name": "failedMessages",
      "outputs": [
        {
          "internalType": "uint256",
          "name": "payloadLength",
          "type": "uint256"
        },
        {
          "internalType": "bytes32",
          "name": "payloadHash",
          "type": "bytes32"
        }
      ],
      "stateMutability": "view",
      "type": "function"
    },
    {
      "inputs": [
        {
          "internalType": "uint256",
          "name": "tokenId",
          "type": "uint256"
        }
      ],
      "name": "getApproved",
      "outputs": [
        {
          "internalType": "address",
          "name": "",
          "type": "address"
        }
      ],
      "stateMutability": "view",
      "type": "function"
    },
    {
      "inputs": [
        {
          "internalType": "uint256",
          "name": "tokenId",
          "type": "uint256"
        }
      ],
      "name": "getKyodai",
      "outputs": [
        {
          "internalType": "uint256",
          "name": "",
          "type": "uint256"
        }
      ],
      "stateMutability": "view",
      "type": "function"
    },
    {
      "inputs": [
        {
          "internalType": "uint256",
          "name": "tokenId",
          "type": "uint256"
        }
      ],
      "name": "getKyodaiAlliance",
      "outputs": [
        {
          "internalType": "uint8",
          "name": "",
          "type": "uint8"
        }
      ],
      "stateMutability": "view",
      "type": "function"
    },
    {
      "inputs": [
        {
          "internalType": "uint256[]",
          "name": "tokenIds",
          "type": "uint256[]"
        }
      ],
      "name": "getManyKyodai",
      "outputs": [
        {
          "internalType": "uint256[]",
          "name": "_kyodais",
          "type": "uint256[]"
        }
      ],
      "stateMutability": "view",
      "type": "function"
    },
    {
      "inputs": [
        {
          "internalType": "address",
          "name": "_lzEndpoint",
          "type": "address"
        }
      ],
      "name": "init",
      "outputs": [],
      "stateMutability": "nonpayable",
      "type": "function"
    },
    {
      "inputs": [
        {
          "internalType": "address",
          "name": "owner",
          "type": "address"
        },
        {
          "internalType": "address",
          "name": "operator",
          "type": "address"
        }
      ],
      "name": "isApprovedForAll",
      "outputs": [
        {
          "internalType": "bool",
          "name": "",
          "type": "bool"
        }
      ],
      "stateMutability": "view",
      "type": "function"
    },
    {
      "inputs": [
        {
          "internalType": "uint256",
          "name": "",
          "type": "uint256"
        }
      ],
      "name": "kyodais",
      "outputs": [
        {
          "internalType": "uint256",
          "name": "",
          "type": "uint256"
        }
      ],
      "stateMutability": "view",
      "type": "function"
    },
    {
      "inputs": [
        {
          "internalType": "uint16",
          "name": "_srcChainId",
          "type": "uint16"
        },
        {
          "internalType": "bytes",
          "name": "_srcAddress",
          "type": "bytes"
        },
        {
          "internalType": "uint64",
          "name": "_nonce",
          "type": "uint64"
        },
        {
          "internalType": "bytes",
          "name": "_payload",
          "type": "bytes"
        }
      ],
      "name": "lzReceive",
      "outputs": [],
      "stateMutability": "nonpayable",
      "type": "function"
    },
    {
      "inputs": [],
      "name": "mint",
      "outputs": [],
      "stateMutability": "payable",
      "type": "function"
    },
    {
      "inputs": [],
      "name": "name",
      "outputs": [
        {
          "internalType": "string",
          "name": "",
          "type": "string"
        }
      ],
      "stateMutability": "view",
      "type": "function"
    },
    {
      "inputs": [
        {
          "internalType": "uint256",
          "name": "",
          "type": "uint256"
        }
      ],
      "name": "officialAddys",
      "outputs": [
        {
          "internalType": "address",
          "name": "",
          "type": "address"
        }
      ],
      "stateMutability": "view",
      "type": "function"
    },
    {
      "inputs": [
        {
          "internalType": "uint16",
          "name": "_srcChainId",
          "type": "uint16"
        },
        {
          "internalType": "bytes",
          "name": "_srcAddress",
          "type": "bytes"
        },
        {
          "internalType": "uint64",
          "name": "_nonce",
          "type": "uint64"
        },
        {
          "internalType": "bytes",
          "name": "_payload",
          "type": "bytes"
        }
      ],
      "name": "onLzReceive",
      "outputs": [],
      "stateMutability": "nonpayable",
      "type": "function"
    },
    {
      "inputs": [],
      "name": "owner",
      "outputs": [
        {
          "internalType": "address",
          "name": "",
          "type": "address"
        }
      ],
      "stateMutability": "view",
      "type": "function"
    },
    {
      "inputs": [
        {
          "internalType": "uint256",
          "name": "_amount",
          "type": "uint256"
        }
      ],
      "name": "ownerMint",
      "outputs": [],
      "stateMutability": "nonpayable",
      "type": "function"
    },
    {
      "inputs": [
        {
          "internalType": "uint256",
          "name": "tokenId",
          "type": "uint256"
        }
      ],
      "name": "ownerOf",
      "outputs": [
        {
          "internalType": "address",
          "name": "",
          "type": "address"
        }
      ],
      "stateMutability": "view",
      "type": "function"
    },
    {
      "inputs": [],
      "name": "proxiableUUID",
      "outputs": [
        {
          "internalType": "bytes32",
          "name": "",
          "type": "bytes32"
        }
      ],
      "stateMutability": "view",
      "type": "function"
    },
    {
      "inputs": [],
      "name": "renounceOwnership",
      "outputs": [],
      "stateMutability": "nonpayable",
      "type": "function"
    },
    {
      "inputs": [
        {
          "internalType": "uint16",
          "name": "_srcChainId",
          "type": "uint16"
        },
        {
          "internalType": "bytes",
          "name": "_srcAddress",
          "type": "bytes"
        },
        {
          "internalType": "uint64",
          "name": "_nonce",
          "type": "uint64"
        },
        {
          "internalType": "bytes",
          "name": "_payload",
          "type": "bytes"
        }
      ],
      "name": "retryMessage",
      "outputs": [],
      "stateMutability": "payable",
      "type": "function"
    },
    {
      "inputs": [
        {
          "internalType": "uint256[]",
          "name": "tokenIds",
          "type": "uint256[]"
        },
        {
          "internalType": "uint8",
          "name": "action_",
          "type": "uint8"
        }
      ],
      "name": "returnManyFromUnderworld",
      "outputs": [],
      "stateMutability": "nonpayable",
      "type": "function"
    },
    {
      "inputs": [
        {
          "internalType": "uint256",
          "name": "tokenId",
          "type": "uint256"
        },
        {
          "internalType": "uint256",
          "name": "alliance",
          "type": "uint256"
        }
      ],
      "name": "reveal",
      "outputs": [],
      "stateMutability": "nonpayable",
      "type": "function"
    },
    {
      "inputs": [
        {
          "internalType": "address",
          "name": "from",
          "type": "address"
        },
        {
          "internalType": "address",
          "name": "to",
          "type": "address"
        },
        {
          "internalType": "uint256",
          "name": "tokenId",
          "type": "uint256"
        }
      ],
      "name": "safeTransferFrom",
      "outputs": [],
      "stateMutability": "nonpayable",
      "type": "function"
    },
    {
      "inputs": [
        {
          "internalType": "address",
          "name": "from",
          "type": "address"
        },
        {
          "internalType": "address",
          "name": "to",
          "type": "address"
        },
        {
          "internalType": "uint256",
          "name": "tokenId",
          "type": "uint256"
        },
        {
          "internalType": "bytes",
          "name": "data",
          "type": "bytes"
        }
      ],
      "name": "safeTransferFrom",
      "outputs": [],
      "stateMutability": "nonpayable",
      "type": "function"
    },
    {
      "inputs": [
        {
          "internalType": "uint256[]",
          "name": "tokenIds",
          "type": "uint256[]"
        },
        {
          "internalType": "uint256",
          "name": "location",
          "type": "uint256"
        },
        {
          "internalType": "uint256",
          "name": "action",
          "type": "uint256"
        }
      ],
      "name": "sendToUnderworld",
      "outputs": [],
      "stateMutability": "nonpayable",
      "type": "function"
    },
    {
      "inputs": [
        {
          "internalType": "address",
          "name": "operator",
          "type": "address"
        },
        {
          "internalType": "bool",
          "name": "approved",
          "type": "bool"
        }
      ],
      "name": "setApprovalForAll",
      "outputs": [],
      "stateMutability": "nonpayable",
      "type": "function"
    },
    {
      "inputs": [
        {
          "internalType": "uint256",
          "name": "newVal",
          "type": "uint256"
        }
      ],
      "name": "setGasForDestinationLzReceive",
      "outputs": [],
      "stateMutability": "nonpayable",
      "type": "function"
    },
    {
      "inputs": [
        {
          "internalType": "address",
          "name": "_lzEndpoint",
          "type": "address"
        }
      ],
      "name": "setLzEndpoint",
      "outputs": [],
      "stateMutability": "nonpayable",
      "type": "function"
    },
    {
      "inputs": [
        {
          "internalType": "uint256",
          "name": "index",
          "type": "uint256"
        },
        {
          "internalType": "address",
          "name": "newAddy",
          "type": "address"
        }
      ],
      "name": "setNewAddy",
      "outputs": [],
      "stateMutability": "nonpayable",
      "type": "function"
    },
    {
      "inputs": [
        {
          "internalType": "uint16",
          "name": "_chainId",
          "type": "uint16"
        },
        {
          "internalType": "bytes",
          "name": "_trustedRemote",
          "type": "bytes"
        }
      ],
      "name": "setTrustedRemote",
      "outputs": [],
      "stateMutability": "nonpayable",
      "type": "function"
    },
    {
      "inputs": [
        {
          "internalType": "bytes4",
          "name": "interfaceId",
          "type": "bytes4"
        }
      ],
      "name": "supportsInterface",
      "outputs": [
        {
          "internalType": "bool",
          "name": "",
          "type": "bool"
        }
      ],
      "stateMutability": "view",
      "type": "function"
    },
    {
      "inputs": [],
      "name": "symbol",
      "outputs": [
        {
          "internalType": "string",
          "name": "",
          "type": "string"
        }
      ],
      "stateMutability": "view",
      "type": "function"
    },
    {
      "inputs": [
        {
          "internalType": "uint256",
          "name": "_tokenId",
          "type": "uint256"
        }
      ],
      "name": "tokenURI",
      "outputs": [
        {
          "internalType": "string",
          "name": "",
          "type": "string"
        }
      ],
      "stateMutability": "view",
      "type": "function"
    },
    {
      "inputs": [],
      "name": "totalSupply",
      "outputs": [
        {
          "internalType": "uint256",
          "name": "",
          "type": "uint256"
        }
      ],
      "stateMutability": "view",
      "type": "function"
    },
    {
      "inputs": [
        {
          "internalType": "address",
          "name": "from",
          "type": "address"
        },
        {
          "internalType": "address",
          "name": "to",
          "type": "address"
        },
        {
          "internalType": "uint256",
          "name": "tokenId",
          "type": "uint256"
        }
      ],
      "name": "transferFrom",
      "outputs": [],
      "stateMutability": "nonpayable",
      "type": "function"
    },
    {
      "inputs": [
        {
          "internalType": "address",
          "name": "newOwner",
          "type": "address"
        }
      ],
      "name": "transferOwnership",
      "outputs": [],
      "stateMutability": "nonpayable",
      "type": "function"
    },
    {
      "inputs": [
        {
          "internalType": "uint16",
          "name": "_chainId",
          "type": "uint16"
        },
        {
          "internalType": "uint256",
          "name": "tokenId",
          "type": "uint256"
        }
      ],
      "name": "traverseChains",
      "outputs": [],
      "stateMutability": "payable",
      "type": "function"
    },
    {
      "inputs": [
        {
          "internalType": "uint16",
          "name": "",
          "type": "uint16"
        }
      ],
      "name": "trustedRemoteLookup",
      "outputs": [
        {
          "internalType": "bytes",
          "name": "",
          "type": "bytes"
        }
      ],
      "stateMutability": "view",
      "type": "function"
    },
    {
      "inputs": [
        {
          "internalType": "address",
          "name": "newImplementation",
          "type": "address"
        }
      ],
      "name": "upgradeTo",
      "outputs": [],
      "stateMutability": "nonpayable",
      "type": "function"
    },
    {
      "inputs": [
        {
          "internalType": "address",
          "name": "newImplementation",
          "type": "address"
        },
        {
          "internalType": "bytes",
          "name": "data",
          "type": "bytes"
        }
      ],
      "name": "upgradeToAndCall",
      "outputs": [],
      "stateMutability": "payable",
      "type": "function"
    },
    {
      "inputs": [],
      "name": "withdraw",
      "outputs": [],
      "stateMutability": "nonpayable",
      "type": "function"
    }
  ],
  "bytecode": "0x60a06040523060805234801561001457600080fd5b506080516145ca61004c600039600081816112d401528181611314015281816114290152818161146901526114f801526145ca6000f3fe6080604052600436106103195760003560e01c806376f0d51a116101ab578063cacc420f116100f7578063eb8d72b711610095578063f19e75d41161006f578063f19e75d414610a60578063f2fde38b14610a80578063f636064514610aa0578063fcd3533c14610ac057600080fd5b8063eb8d72b71461099e578063ed102eae146109be578063f046789814610a1e57600080fd5b8063d1deba1f116100d1578063d1deba1f14610902578063d9331a1114610915578063e5e01c1114610935578063e985e9c51461095557600080fd5b8063cacc420f146108af578063cf89fa03146108cf578063cfb0c2cc146108e257600080fd5b8063943fb87211610164578063a22cb4651161013e578063a22cb46514610827578063b218d31114610847578063b88d4fde14610874578063c87b56dd1461088f57600080fd5b8063943fb872146107c557806395d89b41146107e55780639bb021ac146107fa57600080fd5b806376f0d51a146106af578063846fd1b7146106cf5780638da5cb5b146106fc5780638ee749121461071a5780639348cef71461078557806393d3949f146107a557600080fd5b80633132aba41161026a5780635d1b2bb8116102235780636ba4c138116101fd5780636ba4c1381461063a57806370a082311461065a578063715018a61461067a5780637533d7881461068f57600080fd5b80635d1b2bb8146105845780636352211e146105fa5780636afff3f11461061a57600080fd5b80633132aba4146104f05780633659cfe6146105275780633ccfd60b1461054757806342842e0e146104d55780634f1ef2861461055c57806352d1902d1461056f57600080fd5b80630d1657e8116102d757806319ab453c116102b157806319ab453c146104675780631c37a822146104875780631f4bea58146104a757806323b872dd146104d557600080fd5b80630d1657e81461040f5780631249c58b1461044a57806318160ddd1461045257600080fd5b80621d35671461031e57806301ffc9a7146103405780630489b56f1461037557806306fdde0314610395578063081812fc146103b7578063095ea7b3146103ef575b600080fd5b34801561032a57600080fd5b5061033e61033936600461361b565b610ae0565b005b34801561034c57600080fd5b5061036061035b36600461369f565b610cda565b60405190151581526020015b60405180910390f35b34801561038157600080fd5b5061033e6103903660046136c9565b610d2c565b3480156103a157600080fd5b506103aa610dab565b60405161036c9190613732565b3480156103c357600080fd5b506103d76103d23660046136c9565b610e3d565b6040516001600160a01b03909116815260200161036c565b3480156103fb57600080fd5b5061033e61040a36600461375a565b610e64565b34801561041b57600080fd5b5061043c61042a3660046136c9565b60d06020526000908152604090205481565b60405190815260200161036c565b61033e610f97565b34801561045e57600080fd5b5060ce5461043c565b34801561047357600080fd5b5061033e610482366004613786565b6110e4565b34801561049357600080fd5b5061033e6104a236600461361b565b61125b565b3480156104b357600080fd5b5061043c6104c23660046136c9565b6101366020526000908152604090205481565b3480156104e157600080fd5b5061033e6103193660046137a3565b3480156104fc57600080fd5b506103d761050b3660046136c9565b610135602052600090815260409020546001600160a01b031681565b34801561053357600080fd5b5061033e610542366004613786565b6112ca565b34801561055357600080fd5b5061033e6113a6565b61033e61056a3660046137e4565b61141f565b34801561057b57600080fd5b5061043c6114eb565b34801561059057600080fd5b506105cf61059f3660046136c9565b600090815260cf6020526040902054606081901b9160c082901c9161ffff60b082901c81169260a09290921c1690565b604080516001600160601b03199095168552602085019390935291830152606082015260800161036c565b34801561060657600080fd5b506103d76106153660046136c9565b61159e565b34801561062657600080fd5b5061033e61063536600461388f565b6115a9565b34801561064657600080fd5b5061033e6106553660046138e2565b611608565b34801561066657600080fd5b5061043c610675366004613786565b611668565b34801561068657600080fd5b5061033e6116ee565b34801561069b57600080fd5b506103aa6106aa366004613923565b611702565b3480156106bb57600080fd5b5061033e6106ca36600461393e565b61179c565b3480156106db57600080fd5b5061043c6106ea3660046136c9565b600090815260cf602052604090205490565b34801561070857600080fd5b506097546001600160a01b03166103d7565b34801561072657600080fd5b5061077061073536600461396a565b60ca60209081526000938452604080852084518086018401805192815290840195840195909520945292905282529020805460019091015482565b6040805192835260208301919091520161036c565b34801561079157600080fd5b5061033e6107a03660046139c0565b611803565b3480156107b157600080fd5b5061033e6107c0366004613a23565b6119b6565b3480156107d157600080fd5b5061033e6107e03660046136c9565b611b12565b3480156107f157600080fd5b506103aa611b1f565b34801561080657600080fd5b5061081a6108153660046138e2565b611b2e565b60405161036c9190613aa9565b34801561083357600080fd5b5061033e610842366004613abc565b611b9b565b34801561085357600080fd5b5061043c6108623660046136c9565b60cf6020526000908152604090205481565b34801561088057600080fd5b5061033e610319366004613afa565b34801561089b57600080fd5b506103aa6108aa3660046136c9565b611ba6565b3480156108bb57600080fd5b5061033e6108ca366004613b59565b611ca3565b61033e6108dd366004613b7e565b611cda565b3480156108ee57600080fd5b5061033e6108fd366004613b9a565b611f9e565b61033e610910366004613bea565b612208565b34801561092157600080fd5b5061033e610930366004613786565b61235b565b34801561094157600080fd5b5061033e610950366004613c75565b612385565b34801561096157600080fd5b50610360610970366004613caa565b6001600160a01b039182166000908152606a6020908152604080832093909416825291909152205460ff1690565b3480156109aa57600080fd5b5061033e6109b9366004613cd8565b61239a565b3480156109ca57600080fd5b506109f76109d93660046136c9565b600090815260d060205260409020549060a082901c9060a883901c90565b604080516001600160a01b03909416845260ff90921660208401529082015260600161036c565b348015610a2a57600080fd5b50610a4e610a393660046136c9565b600090815260cf602052604090205460c01c90565b60405160ff909116815260200161036c565b348015610a6c57600080fd5b5061033e610a7b3660046136c9565b6123c0565b348015610a8c57600080fd5b5061033e610a9b366004613786565b61243c565b348015610aac57600080fd5b5061033e610abb36600461388f565b6124b2565b348015610acc57600080fd5b5061033e610adb366004613b59565b61263e565b60c9546001600160a01b03163314610af757600080fd5b61ffff8416600090815260cb602052604090208054610b1590613d11565b90508351148015610b54575061ffff8416600090815260cb6020526040908190209051610b429190613d4b565b60405180910390208380519060200120145b610bc25760405162461bcd60e51b815260206004820152603460248201527f4e6f6e626c6f636b696e6752656365697665723a20696e76616c696420736f756044820152731c98d9481cd95b991a5b99c818dbdb9d1c9858dd60621b60648201526084015b60405180910390fd5b604051630e1bd41160e11b81523090631c37a82290610beb908790879087908790600401613dc1565b600060405180830381600087803b158015610c0557600080fd5b505af1925050508015610c16575060015b610cd457604051806040016040528082518152602001828051906020012081525060ca60008661ffff1661ffff16815260200190815260200160002084604051610c609190613e0a565b9081526040805191829003602090810183206001600160401b038716600090815290825291909120835181559201516001909201919091557fe6f254030bcb01ffd20558175c13fcaed6d1520be7becee4c961b65f79243b0d90610ccb908690869086908690613dc1565b60405180910390a15b50505050565b60006001600160e01b031982166380ac58cd60e01b1480610d0b57506001600160e01b03198216635b5e139f60e01b145b80610d2657506301ffc9a760e01b6001600160e01b03198316145b92915050565b60046000526101356020527f3c1e1edabd61e8cc871e9f10356b1d92aaf2571ec19788c6bbde487c0fa74860546001600160a01b03163314610d83576040516311fd7c5560e31b8152336004820152602401610bb9565b600081815260cf6020908152604080832083905560d0909152812055610da88161269a565b50565b606060658054610dba90613d11565b80601f0160208091040260200160405190810160405280929190818152602001828054610de690613d11565b8015610e335780601f10610e0857610100808354040283529160200191610e33565b820191906000526020600020905b815481529060010190602001808311610e1657829003601f168201915b5050505050905090565b6000610e488261272f565b506000908152606960205260409020546001600160a01b031690565b6000610e6f8261278e565b9050806001600160a01b0316836001600160a01b031603610edc5760405162461bcd60e51b815260206004820152602160248201527f4552433732313a20617070726f76616c20746f2063757272656e74206f776e656044820152603960f91b6064820152608401610bb9565b336001600160a01b0382161480610f1657506001600160a01b0381166000908152606a6020908152604080832033845290915290205460ff165b610f885760405162461bcd60e51b815260206004820152603d60248201527f4552433732313a20617070726f76652063616c6c6572206973206e6f7420746f60448201527f6b656e206f776e6572206f7220617070726f76656420666f7220616c6c0000006064820152608401610bb9565b610f9283836127ee565b505050565b3332148015610fa55750333b155b610fc15760405162461bcd60e51b8152600401610bb990613e26565b610d0560ce546001610fd39190613e6c565b1115610ff257604051634237dcf160e11b815260040160405180910390fd5b600260009081526101356020527f55ba30cbea29a0f46608b6c421d9468f014a3fdb21bf530bb73db0fb14cb5e455460ce546001600160a01b03909116919061103a9061285c565b905060005b60038110156110d6576001600160a01b038316639eea5f6682611063856003613e7f565b61106d9190613e6c565b6040516001600160e01b031960e084901b168152600481019190915233602482015260066044820152606401600060405180830381600087803b1580156110b357600080fd5b505af11580156110c7573d6000803e3d6000fd5b5050505080600101905061103f565b506110e0336128ec565b5050565b600054610100900460ff16158080156111045750600054600160ff909116105b8061111e5750303b15801561111e575060005460ff166001145b6111815760405162461bcd60e51b815260206004820152602e60248201527f496e697469616c697a61626c653a20636f6e747261637420697320616c72656160448201526d191e481a5b9a5d1a585b1a5e995960921b6064820152608401610bb9565b6000805460ff1916600117905580156111a4576000805461ff0019166101001790555b6111ef6040518060400160405280600b81526020016a43796265724b796f64616960a81b815250604051806040016040528060068152602001654b594f44414960d01b8152506129c4565b6111f7612a19565b60c980546001600160a01b0319166001600160a01b03841617905580156110e0576000805461ff0019169055604051600181527f7f26b83ff96e1f2b6a682f133852f6798a09c465da95921460cefb38474024989060200160405180910390a15050565b3330146112be5760405162461bcd60e51b815260206004820152602b60248201527f4e6f6e626c6f636b696e6752656365697665723a2063616c6c6572206d75737460448201526a10313290213934b233b29760a91b6064820152608401610bb9565b610cd484848484612a48565b6001600160a01b037f00000000000000000000000000000000000000000000000000000000000000001630036113125760405162461bcd60e51b8152600401610bb990613e96565b7f00000000000000000000000000000000000000000000000000000000000000006001600160a01b031661135b60008051602061454e833981519152546001600160a01b031690565b6001600160a01b0316146113815760405162461bcd60e51b8152600401610bb990613ee2565b61138a81612ac2565b60408051600080825260208201909252610da891839190612aca565b6113ae612c35565b60006113c26097546001600160a01b031690565b6001600160a01b03164760405160006040518083038185875af1925050503d806000811461140c576040519150601f19603f3d011682016040523d82523d6000602084013e611411565b606091505b5050905080610da857600080fd5b6001600160a01b037f00000000000000000000000000000000000000000000000000000000000000001630036114675760405162461bcd60e51b8152600401610bb990613e96565b7f00000000000000000000000000000000000000000000000000000000000000006001600160a01b03166114b060008051602061454e833981519152546001600160a01b031690565b6001600160a01b0316146114d65760405162461bcd60e51b8152600401610bb990613ee2565b6114df82612ac2565b6110e082826001612aca565b6000306001600160a01b037f0000000000000000000000000000000000000000000000000000000000000000161461158b5760405162461bcd60e51b815260206004820152603860248201527f555550535570677261646561626c653a206d757374206e6f742062652063616c60448201527f6c6564207468726f7567682064656c656761746563616c6c00000000000000006064820152608401610bb9565b5060008051602061454e83398151915290565b6000610d268261278e565b33321480156115b75750333b155b6115d35760405162461bcd60e51b8152600401610bb990613e26565b60005b82811015610cd4576116008484838181106115f3576115f3613f2e565b905060200201358361179c565b6001016115d6565b60005b81811015610f925761166083838381811061162857611628613f2e565b9050602002013560d0600086868681811061164557611645613f2e565b90506020020135815260200190815260200160002054612c8f565b60010161160b565b60006001600160a01b0382166116d25760405162461bcd60e51b815260206004820152602960248201527f4552433732313a2061646472657373207a65726f206973206e6f7420612076616044820152683634b21037bbb732b960b91b6064820152608401610bb9565b506001600160a01b031660009081526068602052604090205490565b6116f6612c35565b6117006000612d54565b565b60cb602052600090815260409020805461171b90613d11565b80601f016020809104026020016040519081016040528092919081815260200182805461174790613d11565b80156117945780601f1061176957610100808354040283529160200191611794565b820191906000526020600020905b81548152906001019060200180831161177757829003601f168201915b505050505081565b3382816117a88261159e565b6001600160a01b0316146117ce5760405162461bcd60e51b8152600401610bb990613f44565b33321480156117dc5750333b155b6117f85760405162461bcd60e51b8152600401610bb990613e26565b610cd4843385612da6565b33828161180f8261159e565b6001600160a01b0316146118355760405162461bcd60e51b8152600401610bb990613f44565b611840600384613f84565b600085815260cf602052604090205490935060c01c8015611877576040516328e95e2560e21b815260048101829052602401610bb9565b6000848152610136602052604090205461045790611896906001613e6c565b11156118b557604051634237dcf160e11b815260040160405180910390fd5b600080526101356020527f5b20f40cb5e9e634a90df9a72b516c11cc52281a4d1b7b67e672e2fe544ff22f546040516316b21b5760e11b815260048101879052602481018690526001600160a01b0390911690632d6436ae906044016020604051808303816000875af1158015611930573d6000803e3d6000fd5b505050506040513d601f19601f820116820180604052508101906119549190613f98565b60008581526101366020526040812080549293509161197290613fb1565b90915550600085815260cf6020526040812060c083901b600160b01b17905561199d90309042612f10565b600095865260d060205260409095209490945550505050565b3383816119c28261159e565b6001600160a01b0316146119e85760405162461bcd60e51b8152600401610bb990613f44565b60006119f48486613fca565b600087815260cf6020526040902054909150841580611a135750601485115b80611a3457508060601b6001600160601b031916826001600160601b031916145b15611a525760405163b4fa3fb360e01b815260040160405180910390fd5b60036000526101356020527f8fb70181765262bdab93e6b1fb9cad4079c866d0e965618df66d26ee0f9ceb0054604051631937733360e01b8152336004820152680821ab0d441498000060248201526001600160a01b0390911690631937733390604401600060405180830381600087803b158015611ad057600080fd5b505af1158015611ae4573d6000803e3d6000fd5b50611af792508391508490506000612f33565b600097885260cf602052604090972096909655505050505050565b611b1a612c35565b60cc55565b606060668054610dba90613d11565b606060005b82811015611b945760cf6000858584818110611b5157611b51613f2e565b90506020020135815260200190815260200160002054828281518110611b7957611b79613f2e565b6020908102919091010152611b8d81613fb1565b9050611b33565b5092915050565b6110e0338383612fe0565b6000818152606760205260409020546060906001600160a01b0316611bca57600080fd5b600082815260cf602090815260408083205460019093526101359091527feddbb61c907abd4a764b1acf78768efcaa0cbec0f0b42246d24909de626300d754905163ce3927db60e01b8152606083901b9260c081901c9260b09190911c61ffff16916001600160a01b039091169063ce3927db90611c5590889087908790879060cd90600401613ffa565b600060405180830381865afa158015611c72573d6000803e3d6000fd5b505050506040513d6000823e601f3d908101601f19168201604052611c9a91908101906140ac565b95945050505050565b611cab612c35565b6000918252610135602052604090912080546001600160a01b0319166001600160a01b03909216919091179055565b338181611ce68261159e565b6001600160a01b031614611d0c5760405162461bcd60e51b8152600401610bb990613f44565b600083815260d0602052604090205460a01c60ff1615611d3f57604051635a8181f760e01b815260040160405180910390fd5b61ffff8416600090815260cb602052604081208054611d5d90613d11565b80601f0160208091040260200160405190810160405280929190818152602001828054611d8990613d11565b8015611dd65780601f10611dab57610100808354040283529160200191611dd6565b820191906000526020600020905b815481529060010190602001808311611db957829003601f168201915b505050505090508051600003611dff5760405163ac6b05f560e01b815260040160405180910390fd5b600084815260cf602081815260408084208054825133818601528084018b905260608082019290925283518082039092018252608001835289865260d0845291852085905592909152919055611e548561269a565b60cc54604051600160f01b6020820152602281019190915260019060009060420160408051601f198184030181529082905260c95463040a7bb160e41b83529092506000916001600160a01b03909116906340a7bb1090611ec1908c903090899087908990600401614119565b6040805180830381865afa158015611edd573d6000803e3d6000fd5b505050506040513d601f19601f82011682018060405250810190611f01919061416d565b50905080341015611f25576040516369dd640160e01b815260040160405180910390fd5b60c95460405162c5803160e81b81526001600160a01b039091169063c5803100903490611f61908d908a908a9033906000908b90600401614191565b6000604051808303818588803b158015611f7a57600080fd5b505af1158015611f8e573d6000803e3d6000fd5b5050505050505050505050505050565b3332148015611fac5750333b155b611fc85760405162461bcd60e51b8152600401610bb990613e26565b600460009081526101356020527f3c1e1edabd61e8cc871e9f10356b1d92aaf2571ec19788c6bbde487c0fa74860546001600160a01b031690846001600160401b0381111561201957612019613541565b604051908082528060200260200182016040528015612042578160200160208202803683370190505b50905060005b858110156121975761207187878381811061206557612065613f2e565b9050602002013561159e565b6001600160a01b0316336001600160a01b0316146120a45760405163fe510d2760e01b8152336004820152602401610bb9565b60006120e460d060008a8a868181106120bf576120bf613f2e565b905060200201358152602001908152602001600020549060a082901c9060a883901c90565b5091505060ff81161561210a57604051635a8181f760e01b815260040160405180910390fd5b61211684600142612f10565b60d060008a8a8681811061212c5761212c613f2e565b9050602002013581526020019081526020016000208190555060cf600089898581811061215b5761215b613f2e565b9050602002013581526020019081526020016000205483838151811061218357612183613f2e565b602090810291909101015250600101612048565b506040516315f4757760e11b81526001600160a01b03831690632be8eaee906121ce9089908990869033908b908b906004016141f8565b600060405180830381600087803b1580156121e857600080fd5b505af11580156121fc573d6000803e3d6000fd5b50505050505050505050565b61ffff8516600090815260ca60205260408082209051612229908790613e0a565b90815260408051602092819003830190206001600160401b03871660009081529252902060018101549091506122b05760405162461bcd60e51b815260206004820152602660248201527f4e6f6e626c6f636b696e6752656365697665723a206e6f2073746f726564206d60448201526565737361676560d01b6064820152608401610bb9565b8054821480156122da5750806001015483836040516122d0929190614266565b6040518091039020145b6123265760405162461bcd60e51b815260206004820152601a60248201527f4c617965725a65726f3a20696e76616c6964207061796c6f61640000000000006044820152606401610bb9565b60008082556001820155604051630e1bd41160e11b81523090631c37a822906121ce9089908990899089908990600401614276565b612363612c35565b60c980546001600160a01b0319166001600160a01b0392909216919091179055565b61238d612c35565b60cd610f92828483614325565b6123a2612c35565b61ffff8316600090815260cb60205260409020610cd4828483614325565b6123c8612c35565b606561013754106123d857600080fd5b610d068160ce546123e99190613e6c565b106123f357600080fd5b60005b81811015612420576124186124136097546001600160a01b031690565b6128ec565b6001016123f6565b508061013760008282546124349190613e6c565b909155505050565b612444612c35565b6001600160a01b0381166124a95760405162461bcd60e51b815260206004820152602660248201527f4f776e61626c653a206e6577206f776e657220697320746865207a65726f206160448201526564647265737360d01b6064820152608401610bb9565b610da881612d54565b33321480156124c05750333b155b6124dc5760405162461bcd60e51b8152600401610bb990613e26565b60005b82811015610cd4576124fc84848381811061206557612065613f2e565b6001600160a01b0316336001600160a01b03161461252f5760405163fe510d2760e01b8152336004820152602401610bb9565b60008061254b60d060008888878181106120bf576120bf613f2e565b50915091508060ff166001146125945760405162461bcd60e51b815260206004820152600e60248201526d6b796f64616920697320686f6d6560901b6044820152606401610bb9565b816001600160a01b038116632e17de788888878181106125b6576125b6613f2e565b905060200201356040518263ffffffff1660e01b81526004016125db91815260200190565b600060405180830381600087803b1580156125f557600080fd5b505af1158015612609573d6000803e3d6000fd5b5050505061263087878681811061262257612622613f2e565b905060200201353387612da6565b8360010193505050506124df565b8082816001600160a01b03166126538261159e565b6001600160a01b0316146126795760405162461bcd60e51b8152600401610bb990613f44565b600084815260cf6020908152604080832083905560d0909152812055610cd4845b60006126a58261278e565b90506126b08261278e565b600083815260696020908152604080832080546001600160a01b03199081169091556001600160a01b0385168085526068845282852080546000190190558785526067909352818420805490911690555192935084927fddf252ad1be2c89b69c2b068fc378daa952ba7f163c4a11628f55a4df523b3ef908390a45050565b6000818152606760205260409020546001600160a01b0316610da85760405162461bcd60e51b8152602060048201526018602482015277115490cdcc8c4e881a5b9d985b1a59081d1bdad95b88125160421b6044820152606401610bb9565b6000818152606760205260408120546001600160a01b031680610d265760405162461bcd60e51b8152602060048201526018602482015277115490cdcc8c4e881a5b9d985b1a59081d1bdad95b88125160421b6044820152606401610bb9565b600081815260696020526040902080546001600160a01b0319166001600160a01b03841690811790915581906128238261278e565b6001600160a01b03167f8c5be1e5ebec7d5bd14f71427d1e84f3dd0314c0f7b2291e5b200ac8c7c3b92560405160405180910390a45050565b600061029b82101561287057506000919050565b61029a82118015612882575061053582105b1561288f57506001919050565b610534821180156128a157506107cf82105b156128ae57506002919050565b6107ce821180156128c05750610a6982105b156128cd57506003919050565b610a68821180156128df5750610d0582105b1561031957506004919050565b600060ce54610d066128fe9190613e6c565b905061290c30600142612f10565b600082815260d06020908152604080832093909355600590915261013590527f451ee093d7709ad2294f4472caf6335c5c3e391d11f63968d6bf41c7f01c399754905163075022b160e11b8152600481018390526001600160a01b0390911690630ea0456290602401600060405180830381600087803b15801561298f57600080fd5b505af11580156129a3573d6000803e3d6000fd5b5050505060ce600081546129b690613fb1565b909155506110e082826130ae565b600054610100900460ff166129eb5760405162461bcd60e51b8152600401610bb9906143e5565b60408051602081019091526000815260cd90612a079082614430565b506205573060cc556110e08282613239565b600054610100900460ff16612a405760405162461bcd60e51b8152600401610bb9906143e5565b61170061326a565b600080600083806020019051810190612a6191906144ef565b925092509250612a7330600042612f10565b600083815260d0602090815260408083209390935560cf81528282208490556067905220546001600160a01b031615612aaf57612aaf8261269a565b612ab983836130ae565b50505050505050565b610da8612c35565b7f4910fdfa16fed3260ed0e7147f7cc6da11a60208b5b9406d12a635614ffd91435460ff1615612afd57610f928361329a565b826001600160a01b03166352d1902d6040518163ffffffff1660e01b8152600401602060405180830381865afa925050508015612b57575060408051601f3d908101601f19168201909252612b5491810190613f98565b60015b612bba5760405162461bcd60e51b815260206004820152602e60248201527f45524331393637557067726164653a206e657720696d706c656d656e7461746960448201526d6f6e206973206e6f74205555505360901b6064820152608401610bb9565b60008051602061454e8339815191528114612c295760405162461bcd60e51b815260206004820152602960248201527f45524331393637557067726164653a20756e737570706f727465642070726f786044820152681a58589b195555525160ba1b6064820152608401610bb9565b50610f92838383613336565b6097546001600160a01b031633146117005760405162461bcd60e51b815260206004820181905260248201527f4f776e61626c653a2063616c6c6572206973206e6f7420746865206f776e65726044820152606401610bb9565b3332148015612c9d5750333b155b612cb95760405162461bcd60e51b8152600401610bb990613e26565b8060a081901c60a882901c42811115612cd3575050505050565b600085815260cf602052604081205490612ced8342614526565b90508360ff16600203612d3157612d21600062015180612d0f84610bb8613e7f565b612d199190614539565b849190612f33565b600088815260cf60205260409020555b612d3c858542612f10565b600088815260d0602052604090205550505050505050565b609780546001600160a01b038381166001600160a01b0319831681179093556040519116919082907f8be0079c531659141344cd1fd0a4f28419497f9722a3daafe3b4186f6b6457e090600090a35050565b8183816001600160a01b0316612dbb8261159e565b6001600160a01b031614612de15760405162461bcd60e51b8152600401610bb990613f44565b600085815260d0602052604090205460a081901c60a882901c60ff8216600103612e3d5760405162461bcd60e51b815260206004820152600d60248201526c746f6b656e206973206177617960981b6044820152606401610bb9565b8560ff168260ff1603612e875760405162461bcd60e51b8152602060048201526012602482015271185b1c9958591e48191bda5b99c81d1a185d60721b6044820152606401610bb9565b8160ff16600203612ea45780421115612ea457612ea48884612c8f565b612ebc3087834211612eb65783612f10565b42612f10565b600089815260d0602052604080822092909255905160ff8816918a916001600160a01b038b16917f3752f65a51ec9bed14ef7f1b038824b1f6bd434c9206e3bd11cef445dd38b74291a45050505050505050565b6001600160a01b039290921660a09190911b60ff60a01b161760a89190911b1790565b600080612f488361ffff60a088901c16613e6c565b90506001600160601b03198416600003612f6b57846001600160a01b0316612f71565b606084901c5b915060a0612f816103e883613f84565b901b91909117906000612f966103e883614539565b612fa89061ffff60b089901c16613e6c565b905061ffff8111612fbd5760b081901b612fc4565b61ffff60b01b5b6001600160c01b03199096169590921794909417949350505050565b816001600160a01b0316836001600160a01b0316036130415760405162461bcd60e51b815260206004820152601960248201527f4552433732313a20617070726f766520746f2063616c6c6572000000000000006044820152606401610bb9565b6001600160a01b038381166000818152606a6020908152604080832094871680845294825291829020805460ff191686151590811790915591519182527f17307eab39ab6107e8899845ad3d59bd9653f200f220920489ca2b5937696c31910160405180910390a3505050565b6001600160a01b0382166131045760405162461bcd60e51b815260206004820181905260248201527f4552433732313a206d696e7420746f20746865207a65726f20616464726573736044820152606401610bb9565b6000818152606760205260409020546001600160a01b0316156131695760405162461bcd60e51b815260206004820152601c60248201527f4552433732313a20746f6b656e20616c7265616479206d696e746564000000006044820152606401610bb9565b6000818152606760205260409020546001600160a01b0316156131ce5760405162461bcd60e51b815260206004820152601c60248201527f4552433732313a20746f6b656e20616c7265616479206d696e746564000000006044820152606401610bb9565b6001600160a01b038216600081815260686020908152604080832080546001019055848352606790915280822080546001600160a01b0319168417905551839291907fddf252ad1be2c89b69c2b068fc378daa952ba7f163c4a11628f55a4df523b3ef908290a45050565b600054610100900460ff166132605760405162461bcd60e51b8152600401610bb9906143e5565b6110e0828261335b565b600054610100900460ff166132915760405162461bcd60e51b8152600401610bb9906143e5565b61170033612d54565b6001600160a01b0381163b6133075760405162461bcd60e51b815260206004820152602d60248201527f455243313936373a206e657720696d706c656d656e746174696f6e206973206e60448201526c1bdd08184818dbdb9d1c9858dd609a1b6064820152608401610bb9565b60008051602061454e83398151915280546001600160a01b0319166001600160a01b0392909216919091179055565b61333f8361339b565b60008251118061334c5750805b15610f9257610cd483836133db565b600054610100900460ff166133825760405162461bcd60e51b8152600401610bb9906143e5565b606561338e8382614430565b506066610f928282614430565b6133a48161329a565b6040516001600160a01b038216907fbc7cd75a20ee27fd9adebab32041f755214dbc6bffa90cc0225b39da2e5c2d3b90600090a250565b6060613400838360405180606001604052806027815260200161456e60279139613407565b9392505050565b6060600080856001600160a01b0316856040516134249190613e0a565b600060405180830381855af49150503d806000811461345f576040519150601f19603f3d011682016040523d82523d6000602084013e613464565b606091505b50915091506134758683838761347f565b9695505050505050565b606083156134ee5782516000036134e7576001600160a01b0385163b6134e75760405162461bcd60e51b815260206004820152601d60248201527f416464726573733a2063616c6c20746f206e6f6e2d636f6e74726163740000006044820152606401610bb9565b50816134f8565b6134f88383613500565b949350505050565b8151156135105781518083602001fd5b8060405162461bcd60e51b8152600401610bb99190613732565b803561ffff8116811461353c57600080fd5b919050565b634e487b7160e01b600052604160045260246000fd5b604051601f8201601f191681016001600160401b038111828210171561357f5761357f613541565b604052919050565b60006001600160401b038211156135a0576135a0613541565b50601f01601f191660200190565b600082601f8301126135bf57600080fd5b81356135d26135cd82613587565b613557565b8181528460208386010111156135e757600080fd5b816020850160208301376000918101602001919091529392505050565b80356001600160401b038116811461353c57600080fd5b6000806000806080858703121561363157600080fd5b61363a8561352a565b935060208501356001600160401b038082111561365657600080fd5b613662888389016135ae565b945061367060408801613604565b9350606087013591508082111561368657600080fd5b50613693878288016135ae565b91505092959194509250565b6000602082840312156136b157600080fd5b81356001600160e01b03198116811461340057600080fd5b6000602082840312156136db57600080fd5b5035919050565b60005b838110156136fd5781810151838201526020016136e5565b50506000910152565b6000815180845261371e8160208601602086016136e2565b601f01601f19169290920160200192915050565b6020815260006134006020830184613706565b6001600160a01b0381168114610da857600080fd5b6000806040838503121561376d57600080fd5b823561377881613745565b946020939093013593505050565b60006020828403121561379857600080fd5b813561340081613745565b6000806000606084860312156137b857600080fd5b83356137c381613745565b925060208401356137d381613745565b929592945050506040919091013590565b600080604083850312156137f757600080fd5b823561380281613745565b915060208301356001600160401b0381111561381d57600080fd5b613829858286016135ae565b9150509250929050565b60008083601f84011261384557600080fd5b5081356001600160401b0381111561385c57600080fd5b6020830191508360208260051b850101111561387757600080fd5b9250929050565b803560ff8116811461353c57600080fd5b6000806000604084860312156138a457600080fd5b83356001600160401b038111156138ba57600080fd5b6138c686828701613833565b90945092506138d990506020850161387e565b90509250925092565b600080602083850312156138f557600080fd5b82356001600160401b0381111561390b57600080fd5b61391785828601613833565b90969095509350505050565b60006020828403121561393557600080fd5b6134008261352a565b6000806040838503121561395157600080fd5b823591506139616020840161387e565b90509250929050565b60008060006060848603121561397f57600080fd5b6139888461352a565b925060208401356001600160401b038111156139a357600080fd5b6139af868287016135ae565b925050604084013590509250925092565b600080604083850312156139d357600080fd5b50508035926020909101359150565b60008083601f8401126139f457600080fd5b5081356001600160401b03811115613a0b57600080fd5b60208301915083602082850101111561387757600080fd5b600080600060408486031215613a3857600080fd5b8335925060208401356001600160401b03811115613a5557600080fd5b613a61868287016139e2565b9497909650939450505050565b600081518084526020808501945080840160005b83811015613a9e57815187529582019590820190600101613a82565b509495945050505050565b6020815260006134006020830184613a6e565b60008060408385031215613acf57600080fd5b8235613ada81613745565b915060208301358015158114613aef57600080fd5b809150509250929050565b60008060008060808587031215613b1057600080fd5b8435613b1b81613745565b93506020850135613b2b81613745565b92506040850135915060608501356001600160401b03811115613b4d57600080fd5b613693878288016135ae565b60008060408385031215613b6c57600080fd5b823591506020830135613aef81613745565b60008060408385031215613b9157600080fd5b6137788361352a565b60008060008060608587031215613bb057600080fd5b84356001600160401b03811115613bc657600080fd5b613bd287828801613833565b90989097506020870135966040013595509350505050565b600080600080600060808688031215613c0257600080fd5b613c0b8661352a565b945060208601356001600160401b0380821115613c2757600080fd5b613c3389838a016135ae565b9550613c4160408901613604565b94506060880135915080821115613c5757600080fd5b50613c64888289016139e2565b969995985093965092949392505050565b60008060208385031215613c8857600080fd5b82356001600160401b03811115613c9e57600080fd5b613917858286016139e2565b60008060408385031215613cbd57600080fd5b8235613cc881613745565b91506020830135613aef81613745565b600080600060408486031215613ced57600080fd5b613cf68461352a565b925060208401356001600160401b03811115613a5557600080fd5b600181811c90821680613d2557607f821691505b602082108103613d4557634e487b7160e01b600052602260045260246000fd5b50919050565b6000808354613d5981613d11565b60018281168015613d715760018114613d8657613db5565b60ff1984168752821515830287019450613db5565b8760005260208060002060005b85811015613dac5781548a820152908401908201613d93565b50505082870194505b50929695505050505050565b61ffff85168152608060208201526000613dde6080830186613706565b6001600160401b03851660408401528281036060840152613dff8185613706565b979650505050505050565b60008251613e1c8184602087016136e2565b9190910192915050565b6020808252601690820152751e5bdd49dc99481d1c9e5a5b99c81d1bc818da19585d60521b604082015260600190565b634e487b7160e01b600052601160045260246000fd5b80820180821115610d2657610d26613e56565b8082028115828204841417610d2657610d26613e56565b6020808252602c908201527f46756e6374696f6e206d7573742062652063616c6c6564207468726f7567682060408201526b19195b1959d85d1958d85b1b60a21b606082015260800190565b6020808252602c908201527f46756e6374696f6e206d7573742062652063616c6c6564207468726f7567682060408201526b6163746976652070726f787960a01b606082015260800190565b634e487b7160e01b600052603260045260246000fd5b60208082526010908201526f1ade5bd9185a481b9bdd081bdddb995960821b604082015260600190565b634e487b7160e01b600052601260045260246000fd5b600082613f9357613f93613f6e565b500690565b600060208284031215613faa57600080fd5b5051919050565b600060018201613fc357613fc3613e56565b5060010190565b6001600160601b03198135818116916014851015613ff25780818660140360031b1b83161692505b505092915050565b858152600060206001600160601b031987168184015285604084015284606084015260a060808401526000845461403081613d11565b8060a087015260c0600180841660008114614052576001811461406c5761409a565b60ff1985168984015283151560051b89018301955061409a565b896000528660002060005b858110156140925781548b8201860152908301908801614077565b8a0184019650505b50939c9b505050505050505050505050565b6000602082840312156140be57600080fd5b81516001600160401b038111156140d457600080fd5b8201601f810184136140e557600080fd5b80516140f36135cd82613587565b81815285602083850101111561410857600080fd5b611c9a8260208301602086016136e2565b61ffff861681526001600160a01b038516602082015260a06040820181905260009061414790830186613706565b841515606084015282810360808401526141618185613706565b98975050505050505050565b6000806040838503121561418057600080fd5b505080516020909101519092909150565b61ffff8716815260c0602082015260006141ae60c0830188613706565b82810360408401526141c08188613706565b6001600160a01b0387811660608601528616608085015283810360a085015290506141eb8185613706565b9998505050505050505050565b60a0808252810186905260006001600160fb1b0387111561421857600080fd5b8660051b808960c0850137820182810360c0908101602085015261423e90820188613a6e565b6001600160a01b03969096166040840152505060608101929092526080909101529392505050565b8183823760009101908152919050565b61ffff861681526080602082015260006142936080830187613706565b6001600160401b03861660408401528281036060840152838152838560208301376000602085830101526020601f19601f8601168201019150509695505050505050565b601f821115610f9257600081815260208120601f850160051c810160208610156142fe5750805b601f850160051c820191505b8181101561431d5782815560010161430a565b505050505050565b6001600160401b0383111561433c5761433c613541565b6143508361434a8354613d11565b836142d7565b6000601f841160018114614384576000851561436c5750838201355b600019600387901b1c1916600186901b1783556143de565b600083815260209020601f19861690835b828110156143b55786850135825560209485019460019092019101614395565b50868210156143d25760001960f88860031b161c19848701351681555b505060018560011b0183555b5050505050565b6020808252602b908201527f496e697469616c697a61626c653a20636f6e7472616374206973206e6f74206960408201526a6e697469616c697a696e6760a81b606082015260800190565b81516001600160401b0381111561444957614449613541565b61445d816144578454613d11565b846142d7565b602080601f831160018114614492576000841561447a5750858301515b600019600386901b1c1916600185901b17855561431d565b600085815260208120601f198616915b828110156144c1578886015182559484019460019091019084016144a2565b50858210156144df5787850151600019600388901b60f8161c191681555b5050505050600190811b01905550565b60008060006060848603121561450457600080fd5b835161450f81613745565b602085015160409095015190969495509392505050565b81810381811115610d2657610d26613e56565b60008261454857614548613f6e565b50049056fe360894a13ba1a3210667c828492db98dca3e2076cc3735a920a3ca505d382bbc416464726573733a206c6f772d6c6576656c2064656c65676174652063616c6c206661696c6564a2646970667358221220860256ff765efe7c4ca5c8e352209b8d29e390835c80c54f95b34912a05e05bf64736f6c63430008120033",
  "linkReferences": {},
  "deployedLinkReferences": {}
}