{
  "_format": "hh-sol-artifact-1",
  "contractName": "CyberShateiPoly",
  "sourceName": "contracts/polygon/CyberShateiPoly.sol",
  "abi": [
    {
      "inputs": [
        {
          "internalType": "uint256",
          "name": "_traitHash",
          "type": "uint256"
        }
      ],
      "name": "AlreadyRevealed",
      "type": "error"
    },
    {
      "inputs": [],
      "name": "InsufficientMsgFee",
      "type": "error"
    },
    {
      "inputs": [],
      "name": "InvalidDestination",
      "type": "error"
    },
    {
      "inputs": [],
      "name": "InvalidInput",
      "type": "error"
    },
    {
      "inputs": [],
      "name": "MintedOut",
      "type": "error"
    },
    {
      "inputs": [],
      "name": "TokenLocked",
      "type": "error"
    },
    {
      "inputs": [
        {
          "internalType": "address",
          "name": "_address",
          "type": "address"
        }
      ],
      "name": "TokenNotOwned",
      "type": "error"
    },
    {
      "inputs": [
        {
          "internalType": "address",
          "name": "_address",
          "type": "address"
        }
      ],
      "name": "UnauthorizedAddress",
      "type": "error"
    },
    {
      "anonymous": false,
      "inputs": [
        {
          "indexed": true,
          "internalType": "address",
          "name": "owner",
          "type": "address"
        },
        {
          "indexed": true,
          "internalType": "uint256",
          "name": "id",
          "type": "uint256"
        },
        {
          "indexed": true,
          "internalType": "uint8",
          "name": "action",
          "type": "uint8"
        }
      ],
      "name": "ActionMade",
      "type": "event"
    },
    {
      "anonymous": false,
      "inputs": [
        {
          "indexed": false,
          "internalType": "address",
          "name": "previousAdmin",
          "type": "address"
        },
        {
          "indexed": false,
          "internalType": "address",
          "name": "newAdmin",
          "type": "address"
        }
      ],
      "name": "AdminChanged",
      "type": "event"
    },
    {
      "anonymous": false,
      "inputs": [
        {
          "indexed": true,
          "internalType": "address",
          "name": "owner",
          "type": "address"
        },
        {
          "indexed": true,
          "internalType": "address",
          "name": "approved",
          "type": "address"
        },
        {
          "indexed": true,
          "internalType": "uint256",
          "name": "tokenId",
          "type": "uint256"
        }
      ],
      "name": "Approval",
      "type": "event"
    },
    {
      "anonymous": false,
      "inputs": [
        {
          "indexed": true,
          "internalType": "address",
          "name": "owner",
          "type": "address"
        },
        {
          "indexed": true,
          "internalType": "address",
          "name": "operator",
          "type": "address"
        },
        {
          "indexed": false,
          "internalType": "bool",
          "name": "approved",
          "type": "bool"
        }
      ],
      "name": "ApprovalForAll",
      "type": "event"
    },
    {
      "anonymous": false,
      "inputs": [
        {
          "indexed": true,
          "internalType": "address",
          "name": "beacon",
          "type": "address"
        }
      ],
      "name": "BeaconUpgraded",
      "type": "event"
    },
    {
      "anonymous": false,
      "inputs": [
        {
          "indexed": false,
          "internalType": "uint8",
          "name": "version",
          "type": "uint8"
        }
      ],
      "name": "Initialized",
      "type": "event"
    },
    {
      "anonymous": false,
      "inputs": [
        {
          "indexed": false,
          "internalType": "uint16",
          "name": "_srcChainId",
          "type": "uint16"
        },
        {
          "indexed": false,
          "internalType": "bytes",
          "name": "_srcAddress",
          "type": "bytes"
        },
        {
          "indexed": false,
          "internalType": "uint64",
          "name": "_nonce",
          "type": "uint64"
        },
        {
          "indexed": false,
          "internalType": "bytes",
          "name": "_payload",
          "type": "bytes"
        }
      ],
      "name": "MessageFailed",
      "type": "event"
    },
    {
      "anonymous": false,
      "inputs": [
        {
          "indexed": true,
          "internalType": "address",
          "name": "previousOwner",
          "type": "address"
        },
        {
          "indexed": true,
          "internalType": "address",
          "name": "newOwner",
          "type": "address"
        }
      ],
      "name": "OwnershipTransferred",
      "type": "event"
    },
    {
      "anonymous": false,
      "inputs": [
        {
          "indexed": true,
          "internalType": "address",
          "name": "from",
          "type": "address"
        },
        {
          "indexed": true,
          "internalType": "address",
          "name": "to",
          "type": "address"
        },
        {
          "indexed": true,
          "internalType": "uint256",
          "name": "tokenId",
          "type": "uint256"
        }
      ],
      "name": "Transfer",
      "type": "event"
    },
    {
      "anonymous": false,
      "inputs": [
        {
          "indexed": true,
          "internalType": "address",
          "name": "implementation",
          "type": "address"
        }
      ],
      "name": "Upgraded",
      "type": "event"
    },
    {
      "inputs": [
        {
          "internalType": "uint256",
          "name": "",
          "type": "uint256"
        }
      ],
      "name": "activities",
      "outputs": [
        {
          "internalType": "uint256",
          "name": "",
          "type": "uint256"
        }
      ],
      "stateMutability": "view",
      "type": "function"
    },
    {
      "inputs": [
        {
          "internalType": "uint256",
          "name": "",
          "type": "uint256"
        }
      ],
      "name": "allianceSupply",
      "outputs": [
        {
          "internalType": "uint256",
          "name": "",
          "type": "uint256"
        }
      ],
      "stateMutability": "view",
      "type": "function"
    },
    {
      "inputs": [
        {
          "internalType": "address",
          "name": "to",
          "type": "address"
        },
        {
          "internalType": "uint256",
          "name": "tokenId",
          "type": "uint256"
        }
      ],
      "name": "approve",
      "outputs": [],
      "stateMutability": "nonpayable",
      "type": "function"
    },
    {
      "inputs": [
        {
          "internalType": "address",
          "name": "owner",
          "type": "address"
        }
      ],
      "name": "balanceOf",
      "outputs": [
        {
          "internalType": "uint256",
          "name": "",
          "type": "uint256"
        }
      ],
      "stateMutability": "view",
      "type": "function"
    },
    {
      "inputs": [
        {
          "internalType": "uint256",
          "name": "tokenId",
          "type": "uint256"
        },
        {
          "internalType": "address",
          "name": "who",
          "type": "address"
        }
      ],
      "name": "burn",
      "outputs": [],
      "stateMutability": "nonpayable",
      "type": "function"
    },
    {
      "inputs": [
        {
          "internalType": "uint256",
          "name": "tokenId",
          "type": "uint256"
        }
      ],
      "name": "burnAuth",
      "outputs": [],
      "stateMutability": "nonpayable",
      "type": "function"
    },
    {
      "inputs": [
        {
          "internalType": "uint256",
          "name": "tokenId",
          "type": "uint256"
        },
        {
          "internalType": "bytes",
          "name": "newName",
          "type": "bytes"
        }
      ],
      "name": "changeName",
      "outputs": [],
      "stateMutability": "nonpayable",
      "type": "function"
    },
    {
      "inputs": [
        {
          "internalType": "string",
          "name": "newURI",
          "type": "string"
        }
      ],
      "name": "changeURI",
      "outputs": [],
      "stateMutability": "nonpayable",
      "type": "function"
    },
    {
      "inputs": [
        {
          "internalType": "uint256[]",
          "name": "tokenIds",
          "type": "uint256[]"
        }
      ],
      "name": "claim",
      "outputs": [],
      "stateMutability": "nonpayable",
      "type": "function"
    },
    {
      "inputs": [
        {
          "internalType": "uint256",
          "name": "tokenId",
          "type": "uint256"
        }
      ],
      "name": "decodeActivity",
      "outputs": [
        {
          "internalType": "address",
          "name": "",
          "type": "address"
        },
        {
          "internalType": "uint8",
          "name": "",
          "type": "uint8"
        },
        {
          "internalType": "uint256",
          "name": "",
          "type": "uint256"
        }
      ],
      "stateMutability": "view",
      "type": "function"
    },
    {
      "inputs": [
        {
          "internalType": "uint256",
          "name": "tokenId",
          "type": "uint256"
        }
      ],
      "name": "decodeKyodai",
      "outputs": [
        {
          "internalType": "bytes20",
          "name": "",
          "type": "bytes20"
        },
        {
          "internalType": "uint256",
          "name": "",
          "type": "uint256"
        },
        {
          "internalType": "uint256",
          "name": "",
          "type": "uint256"
        },
        {
          "internalType": "uint256",
          "name": "",
          "type": "uint256"
        }
      ],
      "stateMutability": "view",
      "type": "function"
    },
    {
      "inputs": [
        {
          "internalType": "uint256",
          "name": "tokenId",
          "type": "uint256"
        },
        {
          "internalType": "uint8",
          "name": "action",
          "type": "uint8"
        }
      ],
      "name": "doAction",
      "outputs": [],
      "stateMutability": "nonpayable",
      "type": "function"
    },
    {
      "inputs": [
        {
          "internalType": "uint256[]",
          "name": "tokenIds",
          "type": "uint256[]"
        },
        {
          "internalType": "uint8",
          "name": "action",
          "type": "uint8"
        }
      ],
      "name": "doActionMany",
      "outputs": [],
      "stateMutability": "nonpayable",
      "type": "function"
    },
    {
      "inputs": [
        {
          "internalType": "uint16",
          "name": "",
          "type": "uint16"
        },
        {
          "internalType": "bytes",
          "name": "",
          "type": "bytes"
        },
        {
          "internalType": "uint256",
          "name": "",
          "type": "uint256"
        }
      ],
      "name": "failedMessages",
      "outputs": [
        {
          "internalType": "uint256",
          "name": "payloadLength",
          "type": "uint256"
        },
        {
          "internalType": "bytes32",
          "name": "payloadHash",
          "type": "bytes32"
        }
      ],
      "stateMutability": "view",
      "type": "function"
    },
    {
      "inputs": [
        {
          "internalType": "uint256",
          "name": "tokenId",
          "type": "uint256"
        }
      ],
      "name": "getApproved",
      "outputs": [
        {
          "internalType": "address",
          "name": "",
          "type": "address"
        }
      ],
      "stateMutability": "view",
      "type": "function"
    },
    {
      "inputs": [
        {
          "internalType": "uint256",
          "name": "tokenId",
          "type": "uint256"
        }
      ],
      "name": "getKyodai",
      "outputs": [
        {
          "internalType": "uint256",
          "name": "",
          "type": "uint256"
        }
      ],
      "stateMutability": "view",
      "type": "function"
    },
    {
      "inputs": [
        {
          "internalType": "uint256",
          "name": "tokenId",
          "type": "uint256"
        }
      ],
      "name": "getKyodaiAlliance",
      "outputs": [
        {
          "internalType": "uint8",
          "name": "",
          "type": "uint8"
        }
      ],
      "stateMutability": "view",
      "type": "function"
    },
    {
      "inputs": [
        {
          "internalType": "uint256[]",
          "name": "tokenIds",
          "type": "uint256[]"
        }
      ],
      "name": "getManyKyodai",
      "outputs": [
        {
          "internalType": "uint256[]",
          "name": "_kyodais",
          "type": "uint256[]"
        }
      ],
      "stateMutability": "view",
      "type": "function"
    },
    {
      "inputs": [
        {
          "internalType": "address",
          "name": "_lzEndpoint",
          "type": "address"
        }
      ],
      "name": "init",
      "outputs": [],
      "stateMutability": "nonpayable",
      "type": "function"
    },
    {
      "inputs": [
        {
          "internalType": "address",
          "name": "owner",
          "type": "address"
        },
        {
          "internalType": "address",
          "name": "operator",
          "type": "address"
        }
      ],
      "name": "isApprovedForAll",
      "outputs": [
        {
          "internalType": "bool",
          "name": "",
          "type": "bool"
        }
      ],
      "stateMutability": "view",
      "type": "function"
    },
    {
      "inputs": [
        {
          "internalType": "uint256",
          "name": "",
          "type": "uint256"
        }
      ],
      "name": "kyodais",
      "outputs": [
        {
          "internalType": "uint256",
          "name": "",
          "type": "uint256"
        }
      ],
      "stateMutability": "view",
      "type": "function"
    },
    {
      "inputs": [
        {
          "internalType": "uint16",
          "name": "_srcChainId",
          "type": "uint16"
        },
        {
          "internalType": "bytes",
          "name": "_srcAddress",
          "type": "bytes"
        },
        {
          "internalType": "uint64",
          "name": "_nonce",
          "type": "uint64"
        },
        {
          "internalType": "bytes",
          "name": "_payload",
          "type": "bytes"
        }
      ],
      "name": "lzReceive",
      "outputs": [],
      "stateMutability": "nonpayable",
      "type": "function"
    },
    {
      "inputs": [
        {
          "internalType": "uint256",
          "name": "pinkieId",
          "type": "uint256"
        }
      ],
      "name": "mint",
      "outputs": [],
      "stateMutability": "nonpayable",
      "type": "function"
    },
    {
      "inputs": [],
      "name": "name",
      "outputs": [
        {
          "internalType": "string",
          "name": "",
          "type": "string"
        }
      ],
      "stateMutability": "view",
      "type": "function"
    },
    {
      "inputs": [
        {
          "internalType": "uint256",
          "name": "",
          "type": "uint256"
        }
      ],
      "name": "officialAddys",
      "outputs": [
        {
          "internalType": "address",
          "name": "",
          "type": "address"
        }
      ],
      "stateMutability": "view",
      "type": "function"
    },
    {
      "inputs": [
        {
          "internalType": "uint16",
          "name": "_srcChainId",
          "type": "uint16"
        },
        {
          "internalType": "bytes",
          "name": "_srcAddress",
          "type": "bytes"
        },
        {
          "internalType": "uint64",
          "name": "_nonce",
          "type": "uint64"
        },
        {
          "internalType": "bytes",
          "name": "_payload",
          "type": "bytes"
        }
      ],
      "name": "onLzReceive",
      "outputs": [],
      "stateMutability": "nonpayable",
      "type": "function"
    },
    {
      "inputs": [],
      "name": "owner",
      "outputs": [
        {
          "internalType": "address",
          "name": "",
          "type": "address"
        }
      ],
      "stateMutability": "view",
      "type": "function"
    },
    {
      "inputs": [
        {
          "internalType": "uint256",
          "name": "tokenId",
          "type": "uint256"
        }
      ],
      "name": "ownerOf",
      "outputs": [
        {
          "internalType": "address",
          "name": "",
          "type": "address"
        }
      ],
      "stateMutability": "view",
      "type": "function"
    },
    {
      "inputs": [],
      "name": "proxiableUUID",
      "outputs": [
        {
          "internalType": "bytes32",
          "name": "",
          "type": "bytes32"
        }
      ],
      "stateMutability": "view",
      "type": "function"
    },
    {
      "inputs": [],
      "name": "renounceOwnership",
      "outputs": [],
      "stateMutability": "nonpayable",
      "type": "function"
    },
    {
      "inputs": [
        {
          "internalType": "uint16",
          "name": "_srcChainId",
          "type": "uint16"
        },
        {
          "internalType": "bytes",
          "name": "_srcAddress",
          "type": "bytes"
        },
        {
          "internalType": "uint64",
          "name": "_nonce",
          "type": "uint64"
        },
        {
          "internalType": "bytes",
          "name": "_payload",
          "type": "bytes"
        }
      ],
      "name": "retryMessage",
      "outputs": [],
      "stateMutability": "payable",
      "type": "function"
    },
    {
      "inputs": [
        {
          "internalType": "uint256[]",
          "name": "tokenIds",
          "type": "uint256[]"
        },
        {
          "internalType": "uint8",
          "name": "action_",
          "type": "uint8"
        }
      ],
      "name": "returnManyFromUnderworld",
      "outputs": [],
      "stateMutability": "nonpayable",
      "type": "function"
    },
    {
      "inputs": [
        {
          "internalType": "uint256",
          "name": "tokenId",
          "type": "uint256"
        },
        {
          "internalType": "uint256",
          "name": "alliance",
          "type": "uint256"
        }
      ],
      "name": "reveal",
      "outputs": [],
      "stateMutability": "nonpayable",
      "type": "function"
    },
    {
      "inputs": [
        {
          "internalType": "address",
          "name": "from",
          "type": "address"
        },
        {
          "internalType": "address",
          "name": "to",
          "type": "address"
        },
        {
          "internalType": "uint256",
          "name": "tokenId",
          "type": "uint256"
        }
      ],
      "name": "safeTransferFrom",
      "outputs": [],
      "stateMutability": "nonpayable",
      "type": "function"
    },
    {
      "inputs": [
        {
          "internalType": "address",
          "name": "from",
          "type": "address"
        },
        {
          "internalType": "address",
          "name": "to",
          "type": "address"
        },
        {
          "internalType": "uint256",
          "name": "tokenId",
          "type": "uint256"
        },
        {
          "internalType": "bytes",
          "name": "data",
          "type": "bytes"
        }
      ],
      "name": "safeTransferFrom",
      "outputs": [],
      "stateMutability": "nonpayable",
      "type": "function"
    },
    {
      "inputs": [
        {
          "internalType": "uint256[]",
          "name": "tokenIds",
          "type": "uint256[]"
        },
        {
          "internalType": "uint256",
          "name": "location",
          "type": "uint256"
        },
        {
          "internalType": "uint256",
          "name": "action",
          "type": "uint256"
        }
      ],
      "name": "sendToUnderworld",
      "outputs": [],
      "stateMutability": "nonpayable",
      "type": "function"
    },
    {
      "inputs": [
        {
          "internalType": "address",
          "name": "operator",
          "type": "address"
        },
        {
          "internalType": "bool",
          "name": "approved",
          "type": "bool"
        }
      ],
      "name": "setApprovalForAll",
      "outputs": [],
      "stateMutability": "nonpayable",
      "type": "function"
    },
    {
      "inputs": [
        {
          "internalType": "uint256",
          "name": "newVal",
          "type": "uint256"
        }
      ],
      "name": "setGasForDestinationLzReceive",
      "outputs": [],
      "stateMutability": "nonpayable",
      "type": "function"
    },
    {
      "inputs": [
        {
          "internalType": "address",
          "name": "_lzEndpoint",
          "type": "address"
        }
      ],
      "name": "setLzEndpoint",
      "outputs": [],
      "stateMutability": "nonpayable",
      "type": "function"
    },
    {
      "inputs": [
        {
          "internalType": "uint256",
          "name": "index",
          "type": "uint256"
        },
        {
          "internalType": "address",
          "name": "newAddy",
          "type": "address"
        }
      ],
      "name": "setNewAddy",
      "outputs": [],
      "stateMutability": "nonpayable",
      "type": "function"
    },
    {
      "inputs": [
        {
          "internalType": "uint256",
          "name": "classIndex",
          "type": "uint256"
        }
      ],
      "name": "setShateiIndex",
      "outputs": [],
      "stateMutability": "nonpayable",
      "type": "function"
    },
    {
      "inputs": [
        {
          "internalType": "uint16",
          "name": "_chainId",
          "type": "uint16"
        },
        {
          "internalType": "bytes",
          "name": "_trustedRemote",
          "type": "bytes"
        }
      ],
      "name": "setTrustedRemote",
      "outputs": [],
      "stateMutability": "nonpayable",
      "type": "function"
    },
    {
      "inputs": [
        {
          "internalType": "uint256",
          "name": "",
          "type": "uint256"
        }
      ],
      "name": "supplyPerClass",
      "outputs": [
        {
          "internalType": "uint256",
          "name": "",
          "type": "uint256"
        }
      ],
      "stateMutability": "view",
      "type": "function"
    },
    {
      "inputs": [
        {
          "internalType": "bytes4",
          "name": "interfaceId",
          "type": "bytes4"
        }
      ],
      "name": "supportsInterface",
      "outputs": [
        {
          "internalType": "bool",
          "name": "",
          "type": "bool"
        }
      ],
      "stateMutability": "view",
      "type": "function"
    },
    {
      "inputs": [],
      "name": "symbol",
      "outputs": [
        {
          "internalType": "string",
          "name": "",
          "type": "string"
        }
      ],
      "stateMutability": "view",
      "type": "function"
    },
    {
      "inputs": [
        {
          "internalType": "uint256",
          "name": "_tokenId",
          "type": "uint256"
        }
      ],
      "name": "tokenURI",
      "outputs": [
        {
          "internalType": "string",
          "name": "",
          "type": "string"
        }
      ],
      "stateMutability": "view",
      "type": "function"
    },
    {
      "inputs": [],
      "name": "totalSupply",
      "outputs": [
        {
          "internalType": "uint256",
          "name": "_supply",
          "type": "uint256"
        }
      ],
      "stateMutability": "view",
      "type": "function"
    },
    {
      "inputs": [
        {
          "internalType": "address",
          "name": "from",
          "type": "address"
        },
        {
          "internalType": "address",
          "name": "to",
          "type": "address"
        },
        {
          "internalType": "uint256",
          "name": "tokenId",
          "type": "uint256"
        }
      ],
      "name": "transferFrom",
      "outputs": [],
      "stateMutability": "nonpayable",
      "type": "function"
    },
    {
      "inputs": [
        {
          "internalType": "address",
          "name": "newOwner",
          "type": "address"
        }
      ],
      "name": "transferOwnership",
      "outputs": [],
      "stateMutability": "nonpayable",
      "type": "function"
    },
    {
      "inputs": [
        {
          "internalType": "uint16",
          "name": "_chainId",
          "type": "uint16"
        },
        {
          "internalType": "uint256",
          "name": "tokenId",
          "type": "uint256"
        }
      ],
      "name": "traverseChains",
      "outputs": [],
      "stateMutability": "payable",
      "type": "function"
    },
    {
      "inputs": [
        {
          "internalType": "uint16",
          "name": "",
          "type": "uint16"
        }
      ],
      "name": "trustedRemoteLookup",
      "outputs": [
        {
          "internalType": "bytes",
          "name": "",
          "type": "bytes"
        }
      ],
      "stateMutability": "view",
      "type": "function"
    },
    {
      "inputs": [
        {
          "internalType": "address",
          "name": "newImplementation",
          "type": "address"
        }
      ],
      "name": "upgradeTo",
      "outputs": [],
      "stateMutability": "nonpayable",
      "type": "function"
    },
    {
      "inputs": [
        {
          "internalType": "address",
          "name": "newImplementation",
          "type": "address"
        },
        {
          "internalType": "bytes",
          "name": "data",
          "type": "bytes"
        }
      ],
      "name": "upgradeToAndCall",
      "outputs": [],
      "stateMutability": "payable",
      "type": "function"
    },
    {
      "inputs": [],
      "name": "withdraw",
      "outputs": [],
      "stateMutability": "nonpayable",
      "type": "function"
    }
  ],
  "bytecode": "0x60a06040523060805234801561001457600080fd5b5060805161463a61004c6000396000818161121e0152818161125e01528181611373015281816113b30152611442015261463a6000f3fe6080604052600436106103345760003560e01c8063846fd1b7116101ab578063cacc420f116100f7578063e985e9c511610095578063f04678981161006f578063f046789814610a9f578063f2fde38b14610ae1578063f636064514610b01578063fcd3533c14610b2157600080fd5b8063e985e9c5146109d6578063eb8d72b714610a1f578063ed102eae14610a3f57600080fd5b8063d1deba1f116100d1578063d1deba1f14610955578063d669775214610968578063d9331a1114610996578063e5e01c11146109b657600080fd5b8063cacc420f14610902578063cf89fa0314610922578063cfb0c2cc1461093557600080fd5b806395d89b4111610164578063a22cb4651161013e578063a22cb4651461087a578063b218d3111461089a578063b88d4fde146108c7578063c87b56dd146108e257600080fd5b806395d89b41146108185780639bb021ac1461082d578063a0712d681461085a57600080fd5b8063846fd1b7146107025780638da5cb5b1461072f5780638ee749121461074d5780639348cef7146107b857806393d3949f146107d8578063943fb872146107f857600080fd5b80633659cfe6116102855780636afff3f111610223578063715018a6116101fd578063715018a61461068d5780637533d788146106a257806376f0d51a146106c25780637ca11887146106e257600080fd5b80636afff3f11461062d5780636ba4c1381461064d57806370a082311461066d57600080fd5b80634f1ef2861161025f5780634f1ef2861461056f57806352d1902d146105825780635d1b2bb8146105975780636352211e1461060d57600080fd5b80633659cfe61461053a5780633ccfd60b1461055a57806342842e0e146104e857600080fd5b80630d1657e8116102f25780631c37a822116102cc5780631c37a8221461049a5780631f4bea58146104ba57806323b872dd146104e85780633132aba41461050357600080fd5b80630d1657e81461042a57806318160ddd1461046557806319ab453c1461047a57600080fd5b80621d35671461033957806301ffc9a71461035b5780630489b56f1461039057806306fdde03146103b0578063081812fc146103d2578063095ea7b31461040a575b600080fd5b34801561034557600080fd5b5061035961035436600461368b565b610b41565b005b34801561036757600080fd5b5061037b61037636600461370f565b610d3b565b60405190151581526020015b60405180910390f35b34801561039c57600080fd5b506103596103ab366004613739565b610d8d565b3480156103bc57600080fd5b506103c5610e0c565b60405161038791906137a2565b3480156103de57600080fd5b506103f26103ed366004613739565b610e9e565b6040516001600160a01b039091168152602001610387565b34801561041657600080fd5b506103596104253660046137ca565b610ec5565b34801561043657600080fd5b50610457610445366004613739565b60d06020526000908152604090205481565b604051908152602001610387565b34801561047157600080fd5b50610457610ff8565b34801561048657600080fd5b506103596104953660046137f6565b61102d565b3480156104a657600080fd5b506103596104b536600461368b565b6111a5565b3480156104c657600080fd5b506104576104d5366004613739565b6101376020526000908152604090205481565b3480156104f457600080fd5b50610359610334366004613813565b34801561050f57600080fd5b506103f261051e366004613739565b610136602052600090815260409020546001600160a01b031681565b34801561054657600080fd5b506103596105553660046137f6565b611214565b34801561056657600080fd5b506103596112f0565b61035961057d366004613854565b611369565b34801561058e57600080fd5b50610457611435565b3480156105a357600080fd5b506105e26105b2366004613739565b600090815260cf6020526040902054606081901b9160c082901c9161ffff60b082901c81169260a09290921c1690565b604080516001600160601b031990951685526020850193909352918301526060820152608001610387565b34801561061957600080fd5b506103f2610628366004613739565b6114e8565b34801561063957600080fd5b506103596106483660046138ff565b6114f3565b34801561065957600080fd5b50610359610668366004613952565b611552565b34801561067957600080fd5b506104576106883660046137f6565b6115b2565b34801561069957600080fd5b50610359611638565b3480156106ae57600080fd5b506103c56106bd366004613993565b61164c565b3480156106ce57600080fd5b506103596106dd3660046139ae565b6116e6565b3480156106ee57600080fd5b506103596106fd366004613739565b61174d565b34801561070e57600080fd5b5061045761071d366004613739565b600090815260cf602052604090205490565b34801561073b57600080fd5b506097546001600160a01b03166103f2565b34801561075957600080fd5b506107a36107683660046139da565b60ca60209081526000938452604080852084518086018401805192815290840195840195909520945292905282529020805460019091015482565b60408051928352602083019190915201610387565b3480156107c457600080fd5b506103596107d3366004613a30565b61175b565b3480156107e457600080fd5b506103596107f3366004613a93565b61190e565b34801561080457600080fd5b50610359610813366004613739565b611a6a565b34801561082457600080fd5b506103c5611a77565b34801561083957600080fd5b5061084d610848366004613952565b611a86565b6040516103879190613b19565b34801561086657600080fd5b50610359610875366004613739565b611af3565b34801561088657600080fd5b50610359610895366004613b2c565b611c6e565b3480156108a657600080fd5b506104576108b5366004613739565b60cf6020526000908152604090205481565b3480156108d357600080fd5b50610359610334366004613b6a565b3480156108ee57600080fd5b506103c56108fd366004613739565b611c79565b34801561090e57600080fd5b5061035961091d366004613bc9565b611d76565b610359610930366004613bee565b611dad565b34801561094157600080fd5b50610359610950366004613c0a565b612071565b610359610963366004613c5a565b6122db565b34801561097457600080fd5b50610457610983366004613739565b6101356020526000908152604090205481565b3480156109a257600080fd5b506103596109b13660046137f6565b61242e565b3480156109c257600080fd5b506103596109d1366004613ce5565b612458565b3480156109e257600080fd5b5061037b6109f1366004613d1a565b6001600160a01b039182166000908152606a6020908152604080832093909416825291909152205460ff1690565b348015610a2b57600080fd5b50610359610a3a366004613d48565b61246d565b348015610a4b57600080fd5b50610a78610a5a366004613739565b600090815260d060205260409020549060a082901c9060a883901c90565b604080516001600160a01b03909416845260ff909216602084015290820152606001610387565b348015610aab57600080fd5b50610acf610aba366004613739565b600090815260cf602052604090205460c01c90565b60405160ff9091168152602001610387565b348015610aed57600080fd5b50610359610afc3660046137f6565b612493565b348015610b0d57600080fd5b50610359610b1c3660046138ff565b612509565b348015610b2d57600080fd5b50610359610b3c366004613bc9565b612695565b60c9546001600160a01b03163314610b5857600080fd5b61ffff8416600090815260cb602052604090208054610b7690613d81565b90508351148015610bb5575061ffff8416600090815260cb6020526040908190209051610ba39190613dbb565b60405180910390208380519060200120145b610c235760405162461bcd60e51b815260206004820152603460248201527f4e6f6e626c6f636b696e6752656365697665723a20696e76616c696420736f756044820152731c98d9481cd95b991a5b99c818dbdb9d1c9858dd60621b60648201526084015b60405180910390fd5b604051630e1bd41160e11b81523090631c37a82290610c4c908790879087908790600401613e31565b600060405180830381600087803b158015610c6657600080fd5b505af1925050508015610c77575060015b610d3557604051806040016040528082518152602001828051906020012081525060ca60008661ffff1661ffff16815260200190815260200160002084604051610cc19190613e7a565b9081526040805191829003602090810183206001600160401b038716600090815290825291909120835181559201516001909201919091557fe6f254030bcb01ffd20558175c13fcaed6d1520be7becee4c961b65f79243b0d90610d2c908690869086908690613e31565b60405180910390a15b50505050565b60006001600160e01b031982166380ac58cd60e01b1480610d6c57506001600160e01b03198216635b5e139f60e01b145b80610d8757506301ffc9a760e01b6001600160e01b03198316145b92915050565b60046000526101366020527faf0dd9f7c78ee07cd75b7e2f12c28eedf98a59ba0c8f2115a150a3b29e6f6013546001600160a01b03163314610de4576040516311fd7c5560e31b8152336004820152602401610c1a565b600081815260cf6020908152604080832083905560d0909152812055610e09816126f1565b50565b606060658054610e1b90613d81565b80601f0160208091040260200160405190810160405280929190818152602001828054610e4790613d81565b8015610e945780601f10610e6957610100808354040283529160200191610e94565b820191906000526020600020905b815481529060010190602001808311610e7757829003601f168201915b5050505050905090565b6000610ea982612786565b506000908152606960205260409020546001600160a01b031690565b6000610ed0826127e5565b9050806001600160a01b0316836001600160a01b031603610f3d5760405162461bcd60e51b815260206004820152602160248201527f4552433732313a20617070726f76616c20746f2063757272656e74206f776e656044820152603960f91b6064820152608401610c1a565b336001600160a01b0382161480610f7757506001600160a01b0381166000908152606a6020908152604080832033845290915290205460ff165b610fe95760405162461bcd60e51b815260206004820152603d60248201527f4552433732313a20617070726f76652063616c6c6572206973206e6f7420746f60448201527f6b656e206f776e6572206f7220617070726f76656420666f7220616c6c0000006064820152608401610c1a565b610ff38383612845565b505050565b6000805b6003811015611029576000818152610135602052604090205461101f9083613eac565b9150600101610ffc565b5090565b600054610100900460ff161580801561104d5750600054600160ff909116105b806110675750303b158015611067575060005460ff166001145b6110ca5760405162461bcd60e51b815260206004820152602e60248201527f496e697469616c697a61626c653a20636f6e747261637420697320616c72656160448201526d191e481a5b9a5d1a585b1a5e995960921b6064820152608401610c1a565b6000805460ff1916600117905580156110ed576000805461ff0019166101001790555b6111386040518060400160405280600b81526020016a437962657253686174656960a81b8152506040518060400160405280600681526020016553484154454960d01b8152506128b3565b611140612908565b60c980546001600160a01b0319166001600160a01b03841617905580156111a1576000805461ff0019169055604051600181527f7f26b83ff96e1f2b6a682f133852f6798a09c465da95921460cefb38474024989060200160405180910390a15b5050565b3330146112085760405162461bcd60e51b815260206004820152602b60248201527f4e6f6e626c6f636b696e6752656365697665723a2063616c6c6572206d75737460448201526a10313290213934b233b29760a91b6064820152608401610c1a565b610d3584848484612937565b6001600160a01b037f000000000000000000000000000000000000000000000000000000000000000016300361125c5760405162461bcd60e51b8152600401610c1a90613ebf565b7f00000000000000000000000000000000000000000000000000000000000000006001600160a01b03166112a56000805160206145be833981519152546001600160a01b031690565b6001600160a01b0316146112cb5760405162461bcd60e51b8152600401610c1a90613f0b565b6112d4816129b1565b60408051600080825260208201909252610e09918391906129b9565b6112f8612b24565b600061130c6097546001600160a01b031690565b6001600160a01b03164760405160006040518083038185875af1925050503d8060008114611356576040519150601f19603f3d011682016040523d82523d6000602084013e61135b565b606091505b5050905080610e0957600080fd5b6001600160a01b037f00000000000000000000000000000000000000000000000000000000000000001630036113b15760405162461bcd60e51b8152600401610c1a90613ebf565b7f00000000000000000000000000000000000000000000000000000000000000006001600160a01b03166113fa6000805160206145be833981519152546001600160a01b031690565b6001600160a01b0316146114205760405162461bcd60e51b8152600401610c1a90613f0b565b611429826129b1565b6111a1828260016129b9565b6000306001600160a01b037f000000000000000000000000000000000000000000000000000000000000000016146114d55760405162461bcd60e51b815260206004820152603860248201527f555550535570677261646561626c653a206d757374206e6f742062652063616c60448201527f6c6564207468726f7567682064656c656761746563616c6c00000000000000006064820152608401610c1a565b506000805160206145be83398151915290565b6000610d87826127e5565b33321480156115015750333b155b61151d5760405162461bcd60e51b8152600401610c1a90613f57565b60005b82811015610d355761154a84848381811061153d5761153d613f87565b90506020020135836116e6565b600101611520565b60005b81811015610ff3576115aa83838381811061157257611572613f87565b9050602002013560d0600086868681811061158f5761158f613f87565b90506020020135815260200190815260200160002054612b7e565b600101611555565b60006001600160a01b03821661161c5760405162461bcd60e51b815260206004820152602960248201527f4552433732313a2061646472657373207a65726f206973206e6f7420612076616044820152683634b21037bbb732b960b91b6064820152608401610c1a565b506001600160a01b031660009081526068602052604090205490565b611640612b24565b61164a6000612c43565b565b60cb602052600090815260409020805461166590613d81565b80601f016020809104026020016040519081016040528092919081815260200182805461169190613d81565b80156116de5780601f106116b3576101008083540402835291602001916116de565b820191906000526020600020905b8154815290600101906020018083116116c157829003601f168201915b505050505081565b3382816116f2826114e8565b6001600160a01b0316146117185760405162461bcd60e51b8152600401610c1a90613f9d565b33321480156117265750333b155b6117425760405162461bcd60e51b8152600401610c1a90613f57565b610d35843385612c95565b611755612b24565b61013855565b338281611767826114e8565b6001600160a01b03161461178d5760405162461bcd60e51b8152600401610c1a90613f9d565b611798600384613fdd565b600085815260cf602052604090205490935060c01c80156117cf576040516328e95e2560e21b815260048101829052602401610c1a565b60008481526101376020526040902054611a0a906117ee906001613eac565b111561180d57604051634237dcf160e11b815260040160405180910390fd5b600080526101366020527f51d6fdb3121932cfc04bb42e8c5cc689745fb5fb74fc25ea8dd6f9b2090fe554546040516316b21b5760e11b815260048101879052602481018690526001600160a01b0390911690632d6436ae906044016020604051808303816000875af1158015611888573d6000803e3d6000fd5b505050506040513d601f19601f820116820180604052508101906118ac9190613ff1565b6000858152610137602052604081208054929350916118ca9061400a565b90915550600085815260cf6020526040812060c083901b600160b01b1790556118f590309042612e0e565b600095865260d060205260409095209490945550505050565b33838161191a826114e8565b6001600160a01b0316146119405760405162461bcd60e51b8152600401610c1a90613f9d565b600061194c8486614023565b600087815260cf602052604090205490915084158061196b5750601485115b8061198c57508060601b6001600160601b031916826001600160601b031916145b156119aa5760405163b4fa3fb360e01b815260040160405180910390fd5b60036000526101366020527f086ac2568ca8b2ad86ba97cd1d6de708f3430b7ae9fadc1b8b68b1b446f7607b54604051631937733360e01b8152336004820152680821ab0d441498000060248201526001600160a01b0390911690631937733390604401600060405180830381600087803b158015611a2857600080fd5b505af1158015611a3c573d6000803e3d6000fd5b50611a4f92508391508490506000612e31565b600097885260cf602052604090972096909655505050505050565b611a72612b24565b60cc55565b606060668054610e1b90613d81565b606060005b82811015611aec5760cf6000858584818110611aa957611aa9613f87565b90506020020135815260200190815260200160002054828281518110611ad157611ad1613f87565b6020908102919091010152611ae58161400a565b9050611a8b565b5092915050565b3332148015611b015750333b155b611b1d5760405162461bcd60e51b8152600401610c1a90613f57565b600061013581611b2e600385613fdd565b8152602001908152602001600020549050611a0a816001611b4f9190613eac565b1115611b6e57604051634237dcf160e11b815260040160405180910390fd5b611b7781612ede565b611b82600384614053565b1015611ba15760405163b4fa3fb360e01b815260040160405180910390fd5b60026000526101366020527fb014becd32f87866b94293b1319621a39bf9314f9e3899fba91d1eb343d9216f54604051634f752fb360e11b815260048101849052336024820152600660448201526001600160a01b0390911690639eea5f6690606401600060405180830381600087803b158015611c1e57600080fd5b505af1158015611c32573d6000803e3d6000fd5b505050506111a133600384611c479190613fdd565b611c5390611a0a614067565b611c5d9084613eac565b611c68906001613eac565b84612f6e565b6111a1338383613050565b6000818152606760205260409020546060906001600160a01b0316611c9d57600080fd5b600082815260cf602090815260408083205460019093526101369091527ff8a04ac52df5ce9f4d92e1fe4f31ac0a58f97fe32cbcea302d069d34b75f060a54905163ce3927db60e01b8152606083901b9260c081901c9260b09190911c61ffff16916001600160a01b039091169063ce3927db90611d2890889087908790879060cd9060040161407e565b600060405180830381865afa158015611d45573d6000803e3d6000fd5b505050506040513d6000823e601f3d908101601f19168201604052611d6d9190810190614130565b95945050505050565b611d7e612b24565b6000918252610136602052604090912080546001600160a01b0319166001600160a01b03909216919091179055565b338181611db9826114e8565b6001600160a01b031614611ddf5760405162461bcd60e51b8152600401610c1a90613f9d565b600083815260d0602052604090205460a01c60ff1615611e1257604051635a8181f760e01b815260040160405180910390fd5b61ffff8416600090815260cb602052604081208054611e3090613d81565b80601f0160208091040260200160405190810160405280929190818152602001828054611e5c90613d81565b8015611ea95780601f10611e7e57610100808354040283529160200191611ea9565b820191906000526020600020905b815481529060010190602001808311611e8c57829003601f168201915b505050505090508051600003611ed25760405163ac6b05f560e01b815260040160405180910390fd5b600084815260cf602081815260408084208054825133818601528084018b905260608082019290925283518082039092018252608001835289865260d0845291852085905592909152919055611f27856126f1565b60cc54604051600160f01b6020820152602281019190915260019060009060420160408051601f198184030181529082905260c95463040a7bb160e41b83529092506000916001600160a01b03909116906340a7bb1090611f94908c90309089908790899060040161419d565b6040805180830381865afa158015611fb0573d6000803e3d6000fd5b505050506040513d601f19601f82011682018060405250810190611fd491906141f1565b50905080341015611ff8576040516369dd640160e01b815260040160405180910390fd5b60c95460405162c5803160e81b81526001600160a01b039091169063c5803100903490612034908d908a908a9033906000908b90600401614215565b6000604051808303818588803b15801561204d57600080fd5b505af1158015612061573d6000803e3d6000fd5b5050505050505050505050505050565b333214801561207f5750333b155b61209b5760405162461bcd60e51b8152600401610c1a90613f57565b600460009081526101366020527faf0dd9f7c78ee07cd75b7e2f12c28eedf98a59ba0c8f2115a150a3b29e6f6013546001600160a01b031690846001600160401b038111156120ec576120ec6135b1565b604051908082528060200260200182016040528015612115578160200160208202803683370190505b50905060005b8581101561226a5761214487878381811061213857612138613f87565b905060200201356114e8565b6001600160a01b0316336001600160a01b0316146121775760405163fe510d2760e01b8152336004820152602401610c1a565b60006121b760d060008a8a8681811061219257612192613f87565b905060200201358152602001908152602001600020549060a082901c9060a883901c90565b5091505060ff8116156121dd57604051635a8181f760e01b815260040160405180910390fd5b6121e984600142612e0e565b60d060008a8a868181106121ff576121ff613f87565b9050602002013581526020019081526020016000208190555060cf600089898581811061222e5761222e613f87565b9050602002013581526020019081526020016000205483838151811061225657612256613f87565b60209081029190910101525060010161211b565b506040516315f4757760e11b81526001600160a01b03831690632be8eaee906122a19089908990869033908b908b9060040161427c565b600060405180830381600087803b1580156122bb57600080fd5b505af11580156122cf573d6000803e3d6000fd5b50505050505050505050565b61ffff8516600090815260ca602052604080822090516122fc908790613e7a565b90815260408051602092819003830190206001600160401b03871660009081529252902060018101549091506123835760405162461bcd60e51b815260206004820152602660248201527f4e6f6e626c6f636b696e6752656365697665723a206e6f2073746f726564206d60448201526565737361676560d01b6064820152608401610c1a565b8054821480156123ad5750806001015483836040516123a39291906142ea565b6040518091039020145b6123f95760405162461bcd60e51b815260206004820152601a60248201527f4c617965725a65726f3a20696e76616c6964207061796c6f61640000000000006044820152606401610c1a565b60008082556001820155604051630e1bd41160e11b81523090631c37a822906122a190899089908990899089906004016142fa565b612436612b24565b60c980546001600160a01b0319166001600160a01b0392909216919091179055565b612460612b24565b60cd610ff38284836143a9565b612475612b24565b61ffff8316600090815260cb60205260409020610d358284836143a9565b61249b612b24565b6001600160a01b0381166125005760405162461bcd60e51b815260206004820152602660248201527f4f776e61626c653a206e6577206f776e657220697320746865207a65726f206160448201526564647265737360d01b6064820152608401610c1a565b610e0981612c43565b33321480156125175750333b155b6125335760405162461bcd60e51b8152600401610c1a90613f57565b60005b82811015610d355761255384848381811061213857612138613f87565b6001600160a01b0316336001600160a01b0316146125865760405163fe510d2760e01b8152336004820152602401610c1a565b6000806125a260d0600088888781811061219257612192613f87565b50915091508060ff166001146125eb5760405162461bcd60e51b815260206004820152600e60248201526d6b796f64616920697320686f6d6560901b6044820152606401610c1a565b816001600160a01b038116632e17de7888888781811061260d5761260d613f87565b905060200201356040518263ffffffff1660e01b815260040161263291815260200190565b600060405180830381600087803b15801561264c57600080fd5b505af1158015612660573d6000803e3d6000fd5b5050505061268787878681811061267957612679613f87565b905060200201353387612c95565b836001019350505050612536565b8082816001600160a01b03166126aa826114e8565b6001600160a01b0316146126d05760405162461bcd60e51b8152600401610c1a90613f9d565b600084815260cf6020908152604080832083905560d0909152812055610d35845b60006126fc826127e5565b9050612707826127e5565b600083815260696020908152604080832080546001600160a01b03199081169091556001600160a01b0385168085526068845282852080546000190190558785526067909352818420805490911690555192935084927fddf252ad1be2c89b69c2b068fc378daa952ba7f163c4a11628f55a4df523b3ef908390a45050565b6000818152606760205260409020546001600160a01b0316610e095760405162461bcd60e51b8152602060048201526018602482015277115490cdcc8c4e881a5b9d985b1a59081d1bdad95b88125160421b6044820152606401610c1a565b6000818152606760205260408120546001600160a01b031680610d875760405162461bcd60e51b8152602060048201526018602482015277115490cdcc8c4e881a5b9d985b1a59081d1bdad95b88125160421b6044820152606401610c1a565b600081815260696020526040902080546001600160a01b0319166001600160a01b038416908117909155819061287a826127e5565b6001600160a01b03167f8c5be1e5ebec7d5bd14f71427d1e84f3dd0314c0f7b2291e5b200ac8c7c3b92560405160405180910390a45050565b600054610100900460ff166128da5760405162461bcd60e51b8152600401610c1a90614469565b60408051602081019091526000815260cd906128f690826144b4565b506205573060cc556111a1828261311e565b600054610100900460ff1661292f5760405162461bcd60e51b8152600401610c1a90614469565b61164a61314f565b6000806000838060200190518101906129509190614573565b92509250925061296230600042612e0e565b600083815260d0602090815260408083209390935560cf81528282208490556067905220546001600160a01b03161561299e5761299e826126f1565b6129a8838361317f565b50505050505050565b610e09612b24565b7f4910fdfa16fed3260ed0e7147f7cc6da11a60208b5b9406d12a635614ffd91435460ff16156129ec57610ff38361330a565b826001600160a01b03166352d1902d6040518163ffffffff1660e01b8152600401602060405180830381865afa925050508015612a46575060408051601f3d908101601f19168201909252612a4391810190613ff1565b60015b612aa95760405162461bcd60e51b815260206004820152602e60248201527f45524331393637557067726164653a206e657720696d706c656d656e7461746960448201526d6f6e206973206e6f74205555505360901b6064820152608401610c1a565b6000805160206145be8339815191528114612b185760405162461bcd60e51b815260206004820152602960248201527f45524331393637557067726164653a20756e737570706f727465642070726f786044820152681a58589b195555525160ba1b6064820152608401610c1a565b50610ff38383836133a6565b6097546001600160a01b0316331461164a5760405162461bcd60e51b815260206004820181905260248201527f4f776e61626c653a2063616c6c6572206973206e6f7420746865206f776e65726044820152606401610c1a565b3332148015612b8c5750333b155b612ba85760405162461bcd60e51b8152600401610c1a90613f57565b8060a081901c60a882901c42811115612bc2575050505050565b600085815260cf602052604081205490612bdc83426145aa565b90508360ff16600203612c2057612c10600062015180612bfe84610bb8614067565b612c089190614053565b849190612e31565b600088815260cf60205260409020555b612c2b858542612e0e565b600088815260d0602052604090205550505050505050565b609780546001600160a01b038381166001600160a01b0319831681179093556040519116919082907f8be0079c531659141344cd1fd0a4f28419497f9722a3daafe3b4186f6b6457e090600090a35050565b8183816001600160a01b0316612caa826114e8565b6001600160a01b031614612cd05760405162461bcd60e51b8152600401610c1a90613f9d565b600085815260d0602052604090205460a081901c60a882901c60ff8216600103612d2c5760405162461bcd60e51b815260206004820152600d60248201526c746f6b656e206973206177617960981b6044820152606401610c1a565b8560ff168260ff1603612d765760405162461bcd60e51b8152602060048201526012602482015271185b1c9958591e48191bda5b99c81d1a185d60721b6044820152606401610c1a565b8160ff1660021480612d8b57508160ff166003145b15612da25780421115612da257612da28884612b7e565b612dba3087834211612db45783612e0e565b42612e0e565b600089815260d0602052604080822092909255905160ff8816918a916001600160a01b038b16917f3752f65a51ec9bed14ef7f1b038824b1f6bd434c9206e3bd11cef445dd38b74291a45050505050505050565b6001600160a01b039290921660a09190911b60ff60a01b161760a89190911b1790565b600080612e468361ffff60a088901c16613eac565b90506001600160601b03198416600003612e6957846001600160a01b0316612e6f565b606084901c5b915060a0612e7f6103e883613fdd565b901b91909117906000612e946103e883614053565b612ea69061ffff60b089901c16613eac565b905061ffff8111612ebb5760b081901b612ec2565b61ffff60b01b5b6001600160c01b03199096169590921794909417949350505050565b6000610458821015612ef257506000919050565b61045782118015612f0457506108af82105b15612f1157506001919050565b6108ae82118015612f235750610d0682105b15612f3057506002919050565b610d0582118015612f42575061115d82105b15612f4f57506003919050565b61115c82118015612f615750611a0a82105b1561033457506004919050565b612f7a30600142612e0e565b600083815260d06020908152604080832093909355600690915261013690527f0fe2052c70e7c5218ceffa7baedc6da1f77087466e6d3b2e70f065124eed5b6d54905163075022b160e11b8152600481018490526001600160a01b0390911690630ea0456290602401600060405180830381600087803b158015612ffd57600080fd5b505af1158015613011573d6000803e3d6000fd5b5050505061013560006003836130279190613fdd565b8152602001908152602001600020600081546130429061400a565b90915550610ff3838361317f565b816001600160a01b0316836001600160a01b0316036130b15760405162461bcd60e51b815260206004820152601960248201527f4552433732313a20617070726f766520746f2063616c6c6572000000000000006044820152606401610c1a565b6001600160a01b038381166000818152606a6020908152604080832094871680845294825291829020805460ff191686151590811790915591519182527f17307eab39ab6107e8899845ad3d59bd9653f200f220920489ca2b5937696c31910160405180910390a3505050565b600054610100900460ff166131455760405162461bcd60e51b8152600401610c1a90614469565b6111a182826133cb565b600054610100900460ff166131765760405162461bcd60e51b8152600401610c1a90614469565b61164a33612c43565b6001600160a01b0382166131d55760405162461bcd60e51b815260206004820181905260248201527f4552433732313a206d696e7420746f20746865207a65726f20616464726573736044820152606401610c1a565b6000818152606760205260409020546001600160a01b03161561323a5760405162461bcd60e51b815260206004820152601c60248201527f4552433732313a20746f6b656e20616c7265616479206d696e746564000000006044820152606401610c1a565b6000818152606760205260409020546001600160a01b03161561329f5760405162461bcd60e51b815260206004820152601c60248201527f4552433732313a20746f6b656e20616c7265616479206d696e746564000000006044820152606401610c1a565b6001600160a01b038216600081815260686020908152604080832080546001019055848352606790915280822080546001600160a01b0319168417905551839291907fddf252ad1be2c89b69c2b068fc378daa952ba7f163c4a11628f55a4df523b3ef908290a45050565b6001600160a01b0381163b6133775760405162461bcd60e51b815260206004820152602d60248201527f455243313936373a206e657720696d706c656d656e746174696f6e206973206e60448201526c1bdd08184818dbdb9d1c9858dd609a1b6064820152608401610c1a565b6000805160206145be83398151915280546001600160a01b0319166001600160a01b0392909216919091179055565b6133af8361340b565b6000825111806133bc5750805b15610ff357610d35838361344b565b600054610100900460ff166133f25760405162461bcd60e51b8152600401610c1a90614469565b60656133fe83826144b4565b506066610ff382826144b4565b6134148161330a565b6040516001600160a01b038216907fbc7cd75a20ee27fd9adebab32041f755214dbc6bffa90cc0225b39da2e5c2d3b90600090a250565b606061347083836040518060600160405280602781526020016145de60279139613477565b9392505050565b6060600080856001600160a01b0316856040516134949190613e7a565b600060405180830381855af49150503d80600081146134cf576040519150601f19603f3d011682016040523d82523d6000602084013e6134d4565b606091505b50915091506134e5868383876134ef565b9695505050505050565b6060831561355e578251600003613557576001600160a01b0385163b6135575760405162461bcd60e51b815260206004820152601d60248201527f416464726573733a2063616c6c20746f206e6f6e2d636f6e74726163740000006044820152606401610c1a565b5081613568565b6135688383613570565b949350505050565b8151156135805781518083602001fd5b8060405162461bcd60e51b8152600401610c1a91906137a2565b803561ffff811681146135ac57600080fd5b919050565b634e487b7160e01b600052604160045260246000fd5b604051601f8201601f191681016001600160401b03811182821017156135ef576135ef6135b1565b604052919050565b60006001600160401b03821115613610576136106135b1565b50601f01601f191660200190565b600082601f83011261362f57600080fd5b813561364261363d826135f7565b6135c7565b81815284602083860101111561365757600080fd5b816020850160208301376000918101602001919091529392505050565b80356001600160401b03811681146135ac57600080fd5b600080600080608085870312156136a157600080fd5b6136aa8561359a565b935060208501356001600160401b03808211156136c657600080fd5b6136d28883890161361e565b94506136e060408801613674565b935060608701359150808211156136f657600080fd5b506137038782880161361e565b91505092959194509250565b60006020828403121561372157600080fd5b81356001600160e01b03198116811461347057600080fd5b60006020828403121561374b57600080fd5b5035919050565b60005b8381101561376d578181015183820152602001613755565b50506000910152565b6000815180845261378e816020860160208601613752565b601f01601f19169290920160200192915050565b6020815260006134706020830184613776565b6001600160a01b0381168114610e0957600080fd5b600080604083850312156137dd57600080fd5b82356137e8816137b5565b946020939093013593505050565b60006020828403121561380857600080fd5b8135613470816137b5565b60008060006060848603121561382857600080fd5b8335613833816137b5565b92506020840135613843816137b5565b929592945050506040919091013590565b6000806040838503121561386757600080fd5b8235613872816137b5565b915060208301356001600160401b0381111561388d57600080fd5b6138998582860161361e565b9150509250929050565b60008083601f8401126138b557600080fd5b5081356001600160401b038111156138cc57600080fd5b6020830191508360208260051b85010111156138e757600080fd5b9250929050565b803560ff811681146135ac57600080fd5b60008060006040848603121561391457600080fd5b83356001600160401b0381111561392a57600080fd5b613936868287016138a3565b90945092506139499050602085016138ee565b90509250925092565b6000806020838503121561396557600080fd5b82356001600160401b0381111561397b57600080fd5b613987858286016138a3565b90969095509350505050565b6000602082840312156139a557600080fd5b6134708261359a565b600080604083850312156139c157600080fd5b823591506139d1602084016138ee565b90509250929050565b6000806000606084860312156139ef57600080fd5b6139f88461359a565b925060208401356001600160401b03811115613a1357600080fd5b613a1f8682870161361e565b925050604084013590509250925092565b60008060408385031215613a4357600080fd5b50508035926020909101359150565b60008083601f840112613a6457600080fd5b5081356001600160401b03811115613a7b57600080fd5b6020830191508360208285010111156138e757600080fd5b600080600060408486031215613aa857600080fd5b8335925060208401356001600160401b03811115613ac557600080fd5b613ad186828701613a52565b9497909650939450505050565b600081518084526020808501945080840160005b83811015613b0e57815187529582019590820190600101613af2565b509495945050505050565b6020815260006134706020830184613ade565b60008060408385031215613b3f57600080fd5b8235613b4a816137b5565b915060208301358015158114613b5f57600080fd5b809150509250929050565b60008060008060808587031215613b8057600080fd5b8435613b8b816137b5565b93506020850135613b9b816137b5565b92506040850135915060608501356001600160401b03811115613bbd57600080fd5b6137038782880161361e565b60008060408385031215613bdc57600080fd5b823591506020830135613b5f816137b5565b60008060408385031215613c0157600080fd5b6137e88361359a565b60008060008060608587031215613c2057600080fd5b84356001600160401b03811115613c3657600080fd5b613c42878288016138a3565b90989097506020870135966040013595509350505050565b600080600080600060808688031215613c7257600080fd5b613c7b8661359a565b945060208601356001600160401b0380821115613c9757600080fd5b613ca389838a0161361e565b9550613cb160408901613674565b94506060880135915080821115613cc757600080fd5b50613cd488828901613a52565b969995985093965092949392505050565b60008060208385031215613cf857600080fd5b82356001600160401b03811115613d0e57600080fd5b61398785828601613a52565b60008060408385031215613d2d57600080fd5b8235613d38816137b5565b91506020830135613b5f816137b5565b600080600060408486031215613d5d57600080fd5b613d668461359a565b925060208401356001600160401b03811115613ac557600080fd5b600181811c90821680613d9557607f821691505b602082108103613db557634e487b7160e01b600052602260045260246000fd5b50919050565b6000808354613dc981613d81565b60018281168015613de15760018114613df657613e25565b60ff1984168752821515830287019450613e25565b8760005260208060002060005b85811015613e1c5781548a820152908401908201613e03565b50505082870194505b50929695505050505050565b61ffff85168152608060208201526000613e4e6080830186613776565b6001600160401b03851660408401528281036060840152613e6f8185613776565b979650505050505050565b60008251613e8c818460208701613752565b9190910192915050565b634e487b7160e01b600052601160045260246000fd5b80820180821115610d8757610d87613e96565b6020808252602c908201527f46756e6374696f6e206d7573742062652063616c6c6564207468726f7567682060408201526b19195b1959d85d1958d85b1b60a21b606082015260800190565b6020808252602c908201527f46756e6374696f6e206d7573742062652063616c6c6564207468726f7567682060408201526b6163746976652070726f787960a01b606082015260800190565b6020808252601690820152751e5bdd49dc99481d1c9e5a5b99c81d1bc818da19585d60521b604082015260600190565b634e487b7160e01b600052603260045260246000fd5b60208082526010908201526f1ade5bd9185a481b9bdd081bdddb995960821b604082015260600190565b634e487b7160e01b600052601260045260246000fd5b600082613fec57613fec613fc7565b500690565b60006020828403121561400357600080fd5b5051919050565b60006001820161401c5761401c613e96565b5060010190565b6001600160601b0319813581811691601485101561404b5780818660140360031b1b83161692505b505092915050565b60008261406257614062613fc7565b500490565b8082028115828204841417610d8757610d87613e96565b858152600060206001600160601b031987168184015285604084015284606084015260a06080840152600084546140b481613d81565b8060a087015260c06001808416600081146140d657600181146140f05761411e565b60ff1985168984015283151560051b89018301955061411e565b896000528660002060005b858110156141165781548b82018601529083019088016140fb565b8a0184019650505b50939c9b505050505050505050505050565b60006020828403121561414257600080fd5b81516001600160401b0381111561415857600080fd5b8201601f8101841361416957600080fd5b805161417761363d826135f7565b81815285602083850101111561418c57600080fd5b611d6d826020830160208601613752565b61ffff861681526001600160a01b038516602082015260a0604082018190526000906141cb90830186613776565b841515606084015282810360808401526141e58185613776565b98975050505050505050565b6000806040838503121561420457600080fd5b505080516020909101519092909150565b61ffff8716815260c06020820152600061423260c0830188613776565b82810360408401526142448188613776565b6001600160a01b0387811660608601528616608085015283810360a0850152905061426f8185613776565b9998505050505050505050565b60a0808252810186905260006001600160fb1b0387111561429c57600080fd5b8660051b808960c0850137820182810360c090810160208501526142c290820188613ade565b6001600160a01b03969096166040840152505060608101929092526080909101529392505050565b8183823760009101908152919050565b61ffff861681526080602082015260006143176080830187613776565b6001600160401b03861660408401528281036060840152838152838560208301376000602085830101526020601f19601f8601168201019150509695505050505050565b601f821115610ff357600081815260208120601f850160051c810160208610156143825750805b601f850160051c820191505b818110156143a15782815560010161438e565b505050505050565b6001600160401b038311156143c0576143c06135b1565b6143d4836143ce8354613d81565b8361435b565b6000601f84116001811461440857600085156143f05750838201355b600019600387901b1c1916600186901b178355614462565b600083815260209020601f19861690835b828110156144395786850135825560209485019460019092019101614419565b50868210156144565760001960f88860031b161c19848701351681555b505060018560011b0183555b5050505050565b6020808252602b908201527f496e697469616c697a61626c653a20636f6e7472616374206973206e6f74206960408201526a6e697469616c697a696e6760a81b606082015260800190565b81516001600160401b038111156144cd576144cd6135b1565b6144e1816144db8454613d81565b8461435b565b602080601f83116001811461451657600084156144fe5750858301515b600019600386901b1c1916600185901b1785556143a1565b600085815260208120601f198616915b8281101561454557888601518255948401946001909101908401614526565b50858210156145635787850151600019600388901b60f8161c191681555b5050505050600190811b01905550565b60008060006060848603121561458857600080fd5b8351614593816137b5565b602085015160409095015190969495509392505050565b81810381811115610d8757610d87613e9656fe360894a13ba1a3210667c828492db98dca3e2076cc3735a920a3ca505d382bbc416464726573733a206c6f772d6c6576656c2064656c65676174652063616c6c206661696c6564a2646970667358221220caf9850b9a786d79b53db6b2ac4a1510b76c00b1322735531e8aaa95ff0c1cee64736f6c63430008120033",
  "linkReferences": {},
  "deployedLinkReferences": {}
}