{
  "_format": "hh-sol-artifact-1",
  "contractName": "NeoYen",
  "sourceName": "contracts/polygon/NeoYen.sol",
  "abi": [
    {
      "inputs": [
        {
          "internalType": "address",
          "name": "_lzEndpoint",
          "type": "address"
        }
      ],
      "stateMutability": "nonpayable",
      "type": "constructor"
    },
    {
      "anonymous": false,
      "inputs": [
        {
          "indexed": true,
          "internalType": "address",
          "name": "owner",
          "type": "address"
        },
        {
          "indexed": true,
          "internalType": "address",
          "name": "spender",
          "type": "address"
        },
        {
          "indexed": false,
          "internalType": "uint256",
          "name": "value",
          "type": "uint256"
        }
      ],
      "name": "Approval",
      "type": "event"
    },
    {
      "anonymous": false,
      "inputs": [
        {
          "indexed": false,
          "internalType": "uint16",
          "name": "_srcChainId",
          "type": "uint16"
        },
        {
          "indexed": false,
          "internalType": "bytes",
          "name": "_srcAddress",
          "type": "bytes"
        },
        {
          "indexed": false,
          "internalType": "uint64",
          "name": "_nonce",
          "type": "uint64"
        },
        {
          "indexed": false,
          "internalType": "bytes",
          "name": "_payload",
          "type": "bytes"
        }
      ],
      "name": "MessageFailed",
      "type": "event"
    },
    {
      "anonymous": false,
      "inputs": [
        {
          "indexed": true,
          "internalType": "address",
          "name": "previousOwner",
          "type": "address"
        },
        {
          "indexed": true,
          "internalType": "address",
          "name": "newOwner",
          "type": "address"
        }
      ],
      "name": "OwnershipTransferred",
      "type": "event"
    },
    {
      "anonymous": false,
      "inputs": [
        {
          "indexed": true,
          "internalType": "address",
          "name": "from",
          "type": "address"
        },
        {
          "indexed": true,
          "internalType": "address",
          "name": "to",
          "type": "address"
        },
        {
          "indexed": false,
          "internalType": "uint256",
          "name": "value",
          "type": "uint256"
        }
      ],
      "name": "Transfer",
      "type": "event"
    },
    {
      "inputs": [
        {
          "internalType": "address",
          "name": "owner",
          "type": "address"
        },
        {
          "internalType": "address",
          "name": "spender",
          "type": "address"
        }
      ],
      "name": "allowance",
      "outputs": [
        {
          "internalType": "uint256",
          "name": "",
          "type": "uint256"
        }
      ],
      "stateMutability": "view",
      "type": "function"
    },
    {
      "inputs": [
        {
          "internalType": "address",
          "name": "spender",
          "type": "address"
        },
        {
          "internalType": "uint256",
          "name": "amount",
          "type": "uint256"
        }
      ],
      "name": "approve",
      "outputs": [
        {
          "internalType": "bool",
          "name": "",
          "type": "bool"
        }
      ],
      "stateMutability": "nonpayable",
      "type": "function"
    },
    {
      "inputs": [
        {
          "internalType": "address",
          "name": "account",
          "type": "address"
        }
      ],
      "name": "balanceOf",
      "outputs": [
        {
          "internalType": "uint256",
          "name": "",
          "type": "uint256"
        }
      ],
      "stateMutability": "view",
      "type": "function"
    },
    {
      "inputs": [
        {
          "internalType": "address",
          "name": "from",
          "type": "address"
        },
        {
          "internalType": "uint256",
          "name": "amount",
          "type": "uint256"
        }
      ],
      "name": "burnAuth",
      "outputs": [],
      "stateMutability": "nonpayable",
      "type": "function"
    },
    {
      "inputs": [],
      "name": "decimals",
      "outputs": [
        {
          "internalType": "uint8",
          "name": "",
          "type": "uint8"
        }
      ],
      "stateMutability": "view",
      "type": "function"
    },
    {
      "inputs": [
        {
          "internalType": "address",
          "name": "spender",
          "type": "address"
        },
        {
          "internalType": "uint256",
          "name": "subtractedValue",
          "type": "uint256"
        }
      ],
      "name": "decreaseAllowance",
      "outputs": [
        {
          "internalType": "bool",
          "name": "",
          "type": "bool"
        }
      ],
      "stateMutability": "nonpayable",
      "type": "function"
    },
    {
      "inputs": [
        {
          "internalType": "uint16",
          "name": "",
          "type": "uint16"
        },
        {
          "internalType": "bytes",
          "name": "",
          "type": "bytes"
        },
        {
          "internalType": "uint256",
          "name": "",
          "type": "uint256"
        }
      ],
      "name": "failedMessages",
      "outputs": [
        {
          "internalType": "uint256",
          "name": "payloadLength",
          "type": "uint256"
        },
        {
          "internalType": "bytes32",
          "name": "payloadHash",
          "type": "bytes32"
        }
      ],
      "stateMutability": "view",
      "type": "function"
    },
    {
      "inputs": [
        {
          "internalType": "address",
          "name": "spender",
          "type": "address"
        },
        {
          "internalType": "uint256",
          "name": "addedValue",
          "type": "uint256"
        }
      ],
      "name": "increaseAllowance",
      "outputs": [
        {
          "internalType": "bool",
          "name": "",
          "type": "bool"
        }
      ],
      "stateMutability": "nonpayable",
      "type": "function"
    },
    {
      "inputs": [
        {
          "internalType": "address",
          "name": "",
          "type": "address"
        }
      ],
      "name": "isMinter",
      "outputs": [
        {
          "internalType": "bool",
          "name": "",
          "type": "bool"
        }
      ],
      "stateMutability": "view",
      "type": "function"
    },
    {
      "inputs": [
        {
          "internalType": "uint16",
          "name": "_srcChainId",
          "type": "uint16"
        },
        {
          "internalType": "bytes",
          "name": "_srcAddress",
          "type": "bytes"
        },
        {
          "internalType": "uint64",
          "name": "_nonce",
          "type": "uint64"
        },
        {
          "internalType": "bytes",
          "name": "_payload",
          "type": "bytes"
        }
      ],
      "name": "lzReceive",
      "outputs": [],
      "stateMutability": "nonpayable",
      "type": "function"
    },
    {
      "inputs": [
        {
          "internalType": "address",
          "name": "to",
          "type": "address"
        },
        {
          "internalType": "uint256",
          "name": "amount",
          "type": "uint256"
        }
      ],
      "name": "mint",
      "outputs": [],
      "stateMutability": "nonpayable",
      "type": "function"
    },
    {
      "inputs": [],
      "name": "name",
      "outputs": [
        {
          "internalType": "string",
          "name": "",
          "type": "string"
        }
      ],
      "stateMutability": "view",
      "type": "function"
    },
    {
      "inputs": [
        {
          "internalType": "uint16",
          "name": "_srcChainId",
          "type": "uint16"
        },
        {
          "internalType": "bytes",
          "name": "_srcAddress",
          "type": "bytes"
        },
        {
          "internalType": "uint64",
          "name": "_nonce",
          "type": "uint64"
        },
        {
          "internalType": "bytes",
          "name": "_payload",
          "type": "bytes"
        }
      ],
      "name": "onLzReceive",
      "outputs": [],
      "stateMutability": "nonpayable",
      "type": "function"
    },
    {
      "inputs": [],
      "name": "owner",
      "outputs": [
        {
          "internalType": "address",
          "name": "",
          "type": "address"
        }
      ],
      "stateMutability": "view",
      "type": "function"
    },
    {
      "inputs": [],
      "name": "renounceOwnership",
      "outputs": [],
      "stateMutability": "nonpayable",
      "type": "function"
    },
    {
      "inputs": [
        {
          "internalType": "uint16",
          "name": "_srcChainId",
          "type": "uint16"
        },
        {
          "internalType": "bytes",
          "name": "_srcAddress",
          "type": "bytes"
        },
        {
          "internalType": "uint64",
          "name": "_nonce",
          "type": "uint64"
        },
        {
          "internalType": "bytes",
          "name": "_payload",
          "type": "bytes"
        }
      ],
      "name": "retryMessage",
      "outputs": [],
      "stateMutability": "payable",
      "type": "function"
    },
    {
      "inputs": [
        {
          "internalType": "uint256",
          "name": "newVal",
          "type": "uint256"
        }
      ],
      "name": "setGasForDestinationLzReceive",
      "outputs": [],
      "stateMutability": "nonpayable",
      "type": "function"
    },
    {
      "inputs": [
        {
          "internalType": "address",
          "name": "minter",
          "type": "address"
        },
        {
          "internalType": "bool",
          "name": "status",
          "type": "bool"
        }
      ],
      "name": "setMinter",
      "outputs": [],
      "stateMutability": "nonpayable",
      "type": "function"
    },
    {
      "inputs": [
        {
          "internalType": "uint16",
          "name": "_chainId",
          "type": "uint16"
        },
        {
          "internalType": "bytes",
          "name": "_trustedRemote",
          "type": "bytes"
        }
      ],
      "name": "setTrustedRemote",
      "outputs": [],
      "stateMutability": "nonpayable",
      "type": "function"
    },
    {
      "inputs": [],
      "name": "symbol",
      "outputs": [
        {
          "internalType": "string",
          "name": "",
          "type": "string"
        }
      ],
      "stateMutability": "view",
      "type": "function"
    },
    {
      "inputs": [],
      "name": "totalSupply",
      "outputs": [
        {
          "internalType": "uint256",
          "name": "",
          "type": "uint256"
        }
      ],
      "stateMutability": "view",
      "type": "function"
    },
    {
      "inputs": [
        {
          "internalType": "address",
          "name": "to",
          "type": "address"
        },
        {
          "internalType": "uint256",
          "name": "amount",
          "type": "uint256"
        }
      ],
      "name": "transfer",
      "outputs": [
        {
          "internalType": "bool",
          "name": "",
          "type": "bool"
        }
      ],
      "stateMutability": "nonpayable",
      "type": "function"
    },
    {
      "inputs": [
        {
          "internalType": "address",
          "name": "from",
          "type": "address"
        },
        {
          "internalType": "address",
          "name": "to",
          "type": "address"
        },
        {
          "internalType": "uint256",
          "name": "amount",
          "type": "uint256"
        }
      ],
      "name": "transferFrom",
      "outputs": [
        {
          "internalType": "bool",
          "name": "",
          "type": "bool"
        }
      ],
      "stateMutability": "nonpayable",
      "type": "function"
    },
    {
      "inputs": [
        {
          "internalType": "address",
          "name": "newOwner",
          "type": "address"
        }
      ],
      "name": "transferOwnership",
      "outputs": [],
      "stateMutability": "nonpayable",
      "type": "function"
    },
    {
      "inputs": [
        {
          "internalType": "uint256",
          "name": "_chainId",
          "type": "uint256"
        },
        {
          "internalType": "uint256",
          "name": "amount",
          "type": "uint256"
        }
      ],
      "name": "traverseChains",
      "outputs": [],
      "stateMutability": "payable",
      "type": "function"
    },
    {
      "inputs": [
        {
          "internalType": "uint16",
          "name": "",
          "type": "uint16"
        }
      ],
      "name": "trustedRemoteLookup",
      "outputs": [
        {
          "internalType": "bytes",
          "name": "",
          "type": "bytes"
        }
      ],
      "stateMutability": "view",
      "type": "function"
    }
  ],
  "bytecode": "0x6080604052620557306009553480156200001857600080fd5b50604051620021c3380380620021c38339810160408190526200003b9162000133565b604051806040016040528060078152602001662732b7902cb2b760c91b815250604051806040016040528060068152602001652722a7aca2a760d11b81525081600390816200008b91906200020a565b5060046200009a82826200020a565b505050620000b7620000b1620000dd60201b60201c565b620000e1565b600680546001600160a01b0319166001600160a01b0392909216919091179055620002d6565b3390565b600580546001600160a01b038381166001600160a01b0319831681179093556040519116919082907f8be0079c531659141344cd1fd0a4f28419497f9722a3daafe3b4186f6b6457e090600090a35050565b6000602082840312156200014657600080fd5b81516001600160a01b03811681146200015e57600080fd5b9392505050565b634e487b7160e01b600052604160045260246000fd5b600181811c908216806200019057607f821691505b602082108103620001b157634e487b7160e01b600052602260045260246000fd5b50919050565b601f8211156200020557600081815260208120601f850160051c81016020861015620001e05750805b601f850160051c820191505b818110156200020157828155600101620001ec565b5050505b505050565b81516001600160401b0381111562000226576200022662000165565b6200023e816200023784546200017b565b84620001b7565b602080601f8311600181146200027657600084156200025d5750858301515b600019600386901b1c1916600185901b17855562000201565b600085815260208120601f198616915b82811015620002a75788860151825594840194600190910190840162000286565b5085821015620002c65787850151600019600388901b60f8161c191681555b5050505050600190811b01905550565b611edd80620002e66000396000f3fe6080604052600436106101805760003560e01c80638da5cb5b116100d1578063aa271e1a1161008a578063d1deba1f11610064578063d1deba1f146104b3578063dd62ed3e146104c6578063eb8d72b7146104e6578063f2fde38b1461050657600080fd5b8063aa271e1a14610450578063bc19bfee14610480578063cf456ae71461049357600080fd5b80638da5cb5b146103485780638ee7491214610370578063943fb872146103db57806395d89b41146103fb578063a457c2d714610410578063a9059cbb1461043057600080fd5b806323b872dd1161013e57806340c10f191161011857806340c10f19146102bd57806370a08231146102dd578063715018a6146103135780637533d7881461032857600080fd5b806323b872dd14610261578063313ce56714610281578063395093511461029d57600080fd5b80621d35671461018557806306fdde03146101a7578063095ea7b3146101d257806318160ddd1461020257806319377333146102215780631c37a82214610241575b600080fd5b34801561019157600080fd5b506101a56101a036600461169d565b610526565b005b3480156101b357600080fd5b506101bc610721565b6040516101c99190611772565b60405180910390f35b3480156101de57600080fd5b506101f26101ed3660046117a1565b6107b3565b60405190151581526020016101c9565b34801561020e57600080fd5b506002545b6040519081526020016101c9565b34801561022d57600080fd5b506101a561023c3660046117a1565b6107cd565b34801561024d57600080fd5b506101a561025c36600461169d565b610830565b34801561026d57600080fd5b506101f261027c3660046117cd565b61089f565b34801561028d57600080fd5b50604051601281526020016101c9565b3480156102a957600080fd5b506101f26102b83660046117a1565b6108c3565b3480156102c957600080fd5b506101a56102d83660046117a1565b6108e5565b3480156102e957600080fd5b506102136102f836600461180e565b6001600160a01b031660009081526020819052604090205490565b34801561031f57600080fd5b506101a5610944565b34801561033457600080fd5b506101bc61034336600461182b565b610958565b34801561035457600080fd5b506005546040516001600160a01b0390911681526020016101c9565b34801561037c57600080fd5b506103c661038b366004611846565b600760209081526000938452604080852084518086018401805192815290840195840195909520945292905282529020805460019091015482565b604080519283526020830191909152016101c9565b3480156103e757600080fd5b506101a56103f636600461189d565b6109f2565b34801561040757600080fd5b506101bc6109ff565b34801561041c57600080fd5b506101f261042b3660046117a1565b610a0e565b34801561043c57600080fd5b506101f261044b3660046117a1565b610a89565b34801561045c57600080fd5b506101f261046b36600461180e565b600a6020526000908152604090205460ff1681565b6101a561048e3660046118b6565b610a97565b34801561049f57600080fd5b506101a56104ae3660046118d8565b610d3c565b6101a56104c136600461195f565b610d6f565b3480156104d257600080fd5b506102136104e13660046119eb565b610efd565b3480156104f257600080fd5b506101a5610501366004611a19565b610f28565b34801561051257600080fd5b506101a561052136600461180e565b610f4e565b6006546001600160a01b0316331461053d57600080fd5b61ffff84166000908152600860205260409020805461055b90611a6c565b9050835114801561059a575061ffff84166000908152600860205260409081902090516105889190611aa6565b60405180910390208380519060200120145b6106085760405162461bcd60e51b815260206004820152603460248201527f4e6f6e626c6f636b696e6752656365697665723a20696e76616c696420736f756044820152731c98d9481cd95b991a5b99c818dbdb9d1c9858dd60621b60648201526084015b60405180910390fd5b604051630e1bd41160e11b81523090631c37a82290610631908790879087908790600401611b1c565b600060405180830381600087803b15801561064b57600080fd5b505af192505050801561065c575060015b61071b576040518060400160405280825181526020018280519060200120815250600760008661ffff1661ffff168152602001908152602001600020846040516106a69190611b66565b90815260408051918290036020908101832067ffffffffffffffff8716600090815290825291909120835181559201516001909201919091557fe6f254030bcb01ffd20558175c13fcaed6d1520be7becee4c961b65f79243b0d90610712908690869086908690611b1c565b60405180910390a15b50505050565b60606003805461073090611a6c565b80601f016020809104026020016040519081016040528092919081815260200182805461075c90611a6c565b80156107a95780601f1061077e576101008083540402835291602001916107a9565b820191906000526020600020905b81548152906001019060200180831161078c57829003601f168201915b5050505050905090565b6000336107c1818585610fc7565b60019150505b92915050565b336000908152600a602052604090205460ff166108225760405162461bcd60e51b81526020600482015260136024820152723737ba1030b63637bbb2b2103a3790313ab93760691b60448201526064016105ff565b61082c82826110ec565b5050565b3330146108935760405162461bcd60e51b815260206004820152602b60248201527f4e6f6e626c6f636b696e6752656365697665723a2063616c6c6572206d75737460448201526a10313290213934b233b29760a91b60648201526084016105ff565b61071b8484848461121b565b6000336108ad858285611248565b6108b88585856112bc565b506001949350505050565b6000336107c18185856108d68383610efd565b6108e09190611b82565b610fc7565b336000908152600a602052604090205460ff1661093a5760405162461bcd60e51b81526020600482015260136024820152721b9bdd08185b1b1bddd959081d1bc81b5a5b9d606a1b60448201526064016105ff565b61082c8282611460565b61094c61151f565b6109566000611579565b565b6008602052600090815260409020805461097190611a6c565b80601f016020809104026020016040519081016040528092919081815260200182805461099d90611a6c565b80156109ea5780601f106109bf576101008083540402835291602001916109ea565b820191906000526020600020905b8154815290600101906020018083116109cd57829003601f168201915b505050505081565b6109fa61151f565b600955565b60606004805461073090611a6c565b60003381610a1c8286610efd565b905083811015610a7c5760405162461bcd60e51b815260206004820152602560248201527f45524332303a2064656372656173656420616c6c6f77616e63652062656c6f77604482015264207a65726f60d81b60648201526084016105ff565b6108b88286868403610fc7565b6000336107c18185856112bc565b33600090815260208190526040902054811115610af65760405162461bcd60e51b815260206004820152601b60248201527f796f7520646f6e2774206861766520656e6f75676820746f6b656e000000000060448201526064016105ff565b61ffff821660009081526008602052604090208054610b1490611a6c565b9050600003610b655760405162461bcd60e51b815260206004820152601c60248201527f636861696e20756e617661696c61626c6520666f722074726176656c0000000060448201526064016105ff565b610b6f33826110ec565b60408051336020820152808201839052815180820383018152606082018352600954600160f01b60808401526082808401919091528351808403909101815260a283019384905260065463040a7bb160e41b90945290926001926000916001600160a01b0316906340a7bb1090610bf2908990309089908790899060a601611ba3565b6040805180830381865afa158015610c0e573d6000803e3d6000fd5b505050506040513d601f19601f82011682018060405250810190610c329190611bf7565b50905080341015610cb75760405162461bcd60e51b815260206004820152604360248201527f6d73672e76616c7565206e6f7420656e6f75676820746f20636f766572206d6560448201527f73736167654665652e2053656e642067617320666f72206d657373616765206660648201526265657360e81b608482015260a4016105ff565b60065461ffff8716600090815260086020526040808220905162c5803160e81b81526001600160a01b039093169263c5803100923492610d02928c928b913391908b90600401611c1b565b6000604051808303818588803b158015610d1b57600080fd5b505af1158015610d2f573d6000803e3d6000fd5b5050505050505050505050565b610d4461151f565b6001600160a01b03919091166000908152600a60205260409020805460ff1916911515919091179055565b61ffff85166000908152600760205260408082209051610d90908790611b66565b908152604080516020928190038301902067ffffffffffffffff87166000908152925290206001810154909150610e185760405162461bcd60e51b815260206004820152602660248201527f4e6f6e626c6f636b696e6752656365697665723a206e6f2073746f726564206d60448201526565737361676560d01b60648201526084016105ff565b805482148015610e42575080600101548383604051610e38929190611d00565b6040518091039020145b610e8e5760405162461bcd60e51b815260206004820152601a60248201527f4c617965725a65726f3a20696e76616c6964207061796c6f616400000000000060448201526064016105ff565b60008082556001820155604051630e1bd41160e11b81523090631c37a82290610ec39089908990899089908990600401611d10565b600060405180830381600087803b158015610edd57600080fd5b505af1158015610ef1573d6000803e3d6000fd5b50505050505050505050565b6001600160a01b03918216600090815260016020908152604080832093909416825291909152205490565b610f3061151f565b61ffff8316600090815260086020526040902061071b828483611db8565b610f5661151f565b6001600160a01b038116610fbb5760405162461bcd60e51b815260206004820152602660248201527f4f776e61626c653a206e6577206f776e657220697320746865207a65726f206160448201526564647265737360d01b60648201526084016105ff565b610fc481611579565b50565b6001600160a01b0383166110295760405162461bcd60e51b8152602060048201526024808201527f45524332303a20617070726f76652066726f6d20746865207a65726f206164646044820152637265737360e01b60648201526084016105ff565b6001600160a01b03821661108a5760405162461bcd60e51b815260206004820152602260248201527f45524332303a20617070726f766520746f20746865207a65726f206164647265604482015261737360f01b60648201526084016105ff565b6001600160a01b0383811660008181526001602090815260408083209487168084529482529182902085905590518481527f8c5be1e5ebec7d5bd14f71427d1e84f3dd0314c0f7b2291e5b200ac8c7c3b92591015b60405180910390a3505050565b6001600160a01b03821661114c5760405162461bcd60e51b815260206004820152602160248201527f45524332303a206275726e2066726f6d20746865207a65726f206164647265736044820152607360f81b60648201526084016105ff565b6001600160a01b038216600090815260208190526040902054818110156111c05760405162461bcd60e51b815260206004820152602260248201527f45524332303a206275726e20616d6f756e7420657863656564732062616c616e604482015261636560f01b60648201526084016105ff565b6001600160a01b0383166000818152602081815260408083208686039055600280548790039055518581529192917fddf252ad1be2c89b69c2b068fc378daa952ba7f163c4a11628f55a4df523b3ef91016110df565b505050565b600080828060200190518101906112329190611e79565b915091506112408282611460565b505050505050565b60006112548484610efd565b9050600019811461071b57818110156112af5760405162461bcd60e51b815260206004820152601d60248201527f45524332303a20696e73756666696369656e7420616c6c6f77616e636500000060448201526064016105ff565b61071b8484848403610fc7565b6001600160a01b0383166113205760405162461bcd60e51b815260206004820152602560248201527f45524332303a207472616e736665722066726f6d20746865207a65726f206164604482015264647265737360d81b60648201526084016105ff565b6001600160a01b0382166113825760405162461bcd60e51b815260206004820152602360248201527f45524332303a207472616e7366657220746f20746865207a65726f206164647260448201526265737360e81b60648201526084016105ff565b6001600160a01b038316600090815260208190526040902054818110156113fa5760405162461bcd60e51b815260206004820152602660248201527f45524332303a207472616e7366657220616d6f756e7420657863656564732062604482015265616c616e636560d01b60648201526084016105ff565b6001600160a01b03848116600081815260208181526040808320878703905593871680835291849020805487019055925185815290927fddf252ad1be2c89b69c2b068fc378daa952ba7f163c4a11628f55a4df523b3ef910160405180910390a361071b565b6001600160a01b0382166114b65760405162461bcd60e51b815260206004820152601f60248201527f45524332303a206d696e7420746f20746865207a65726f20616464726573730060448201526064016105ff565b80600260008282546114c89190611b82565b90915550506001600160a01b038216600081815260208181526040808320805486019055518481527fddf252ad1be2c89b69c2b068fc378daa952ba7f163c4a11628f55a4df523b3ef910160405180910390a35050565b6005546001600160a01b031633146109565760405162461bcd60e51b815260206004820181905260248201527f4f776e61626c653a2063616c6c6572206973206e6f7420746865206f776e657260448201526064016105ff565b600580546001600160a01b038381166001600160a01b0319831681179093556040519116919082907f8be0079c531659141344cd1fd0a4f28419497f9722a3daafe3b4186f6b6457e090600090a35050565b803561ffff811681146115dd57600080fd5b919050565b634e487b7160e01b600052604160045260246000fd5b600082601f83011261160957600080fd5b813567ffffffffffffffff80821115611624576116246115e2565b604051601f8301601f19908116603f0116810190828211818310171561164c5761164c6115e2565b8160405283815286602085880101111561166557600080fd5b836020870160208301376000602085830101528094505050505092915050565b803567ffffffffffffffff811681146115dd57600080fd5b600080600080608085870312156116b357600080fd5b6116bc856115cb565b9350602085013567ffffffffffffffff808211156116d957600080fd5b6116e5888389016115f8565b94506116f360408801611685565b9350606087013591508082111561170957600080fd5b50611716878288016115f8565b91505092959194509250565b60005b8381101561173d578181015183820152602001611725565b50506000910152565b6000815180845261175e816020860160208601611722565b601f01601f19169290920160200192915050565b6020815260006117856020830184611746565b9392505050565b6001600160a01b0381168114610fc457600080fd5b600080604083850312156117b457600080fd5b82356117bf8161178c565b946020939093013593505050565b6000806000606084860312156117e257600080fd5b83356117ed8161178c565b925060208401356117fd8161178c565b929592945050506040919091013590565b60006020828403121561182057600080fd5b81356117858161178c565b60006020828403121561183d57600080fd5b611785826115cb565b60008060006060848603121561185b57600080fd5b611864846115cb565b9250602084013567ffffffffffffffff81111561188057600080fd5b61188c868287016115f8565b925050604084013590509250925092565b6000602082840312156118af57600080fd5b5035919050565b600080604083850312156118c957600080fd5b50508035926020909101359150565b600080604083850312156118eb57600080fd5b82356118f68161178c565b91506020830135801515811461190b57600080fd5b809150509250929050565b60008083601f84011261192857600080fd5b50813567ffffffffffffffff81111561194057600080fd5b60208301915083602082850101111561195857600080fd5b9250929050565b60008060008060006080868803121561197757600080fd5b611980866115cb565b9450602086013567ffffffffffffffff8082111561199d57600080fd5b6119a989838a016115f8565b95506119b760408901611685565b945060608801359150808211156119cd57600080fd5b506119da88828901611916565b969995985093965092949392505050565b600080604083850312156119fe57600080fd5b8235611a098161178c565b9150602083013561190b8161178c565b600080600060408486031215611a2e57600080fd5b611a37846115cb565b9250602084013567ffffffffffffffff811115611a5357600080fd5b611a5f86828701611916565b9497909650939450505050565b600181811c90821680611a8057607f821691505b602082108103611aa057634e487b7160e01b600052602260045260246000fd5b50919050565b6000808354611ab481611a6c565b60018281168015611acc5760018114611ae157611b10565b60ff1984168752821515830287019450611b10565b8760005260208060002060005b85811015611b075781548a820152908401908201611aee565b50505082870194505b50929695505050505050565b61ffff85168152608060208201526000611b396080830186611746565b67ffffffffffffffff851660408401528281036060840152611b5b8185611746565b979650505050505050565b60008251611b78818460208701611722565b9190910192915050565b808201808211156107c757634e487b7160e01b600052601160045260246000fd5b61ffff861681526001600160a01b038516602082015260a060408201819052600090611bd190830186611746565b84151560608401528281036080840152611beb8185611746565b98975050505050505050565b60008060408385031215611c0a57600080fd5b505080516020909101519092909150565b61ffff871681526000602060c08184015260008854611c3981611a6c565b8060c087015260e0600180841660008114611c5b5760018114611c7557611ca3565b60ff1985168984015283151560051b890183019550611ca3565b8d6000528660002060005b85811015611c9b5781548b8201860152908301908801611c80565b8a0184019650505b50505050508381036040850152611cba8189611746565b915050611cd260608401876001600160a01b03169052565b6001600160a01b038516608084015282810360a0840152611cf38185611746565b9998505050505050505050565b8183823760009101908152919050565b61ffff86168152608060208201526000611d2d6080830187611746565b67ffffffffffffffff861660408401528281036060840152838152838560208301376000602085830101526020601f19601f8601168201019150509695505050505050565b601f82111561121657600081815260208120601f850160051c81016020861015611d995750805b601f850160051c820191505b8181101561124057828155600101611da5565b67ffffffffffffffff831115611dd057611dd06115e2565b611de483611dde8354611a6c565b83611d72565b6000601f841160018114611e185760008515611e005750838201355b600019600387901b1c1916600186901b178355611e72565b600083815260209020601f19861690835b82811015611e495786850135825560209485019460019092019101611e29565b5086821015611e665760001960f88860031b161c19848701351681555b505060018560011b0183555b5050505050565b60008060408385031215611e8c57600080fd5b8251611e978161178c565b602093909301519294929350505056fea2646970667358221220a50cd3f21a6a9d2c22956af3a26cb3965767eb7771ce27b90d0fe00224c1cea964736f6c63430008120033",
  "linkReferences": {},
  "deployedLinkReferences": {}
}