{
  "_format": "hh-sol-artifact-1",
  "contractName": "KyodaiDesc",
  "sourceName": "contracts/mainnet/KyodaiDesc-map.sol",
  "abi": [
    {
      "inputs": [],
      "stateMutability": "nonpayable",
      "type": "constructor"
    },
    {
      "anonymous": false,
      "inputs": [
        {
          "indexed": true,
          "internalType": "address",
          "name": "previousOwner",
          "type": "address"
        },
        {
          "indexed": true,
          "internalType": "address",
          "name": "newOwner",
          "type": "address"
        }
      ],
      "name": "OwnershipTransferred",
      "type": "event"
    },
    {
      "inputs": [
        {
          "internalType": "uint256",
          "name": "traitType",
          "type": "uint256"
        },
        {
          "internalType": "uint256",
          "name": "traitIndex",
          "type": "uint256"
        },
        {
          "internalType": "string",
          "name": "image",
          "type": "string"
        }
      ],
      "name": "addPNGs",
      "outputs": [],
      "stateMutability": "nonpayable",
      "type": "function"
    },
    {
      "inputs": [],
      "name": "owner",
      "outputs": [
        {
          "internalType": "address",
          "name": "",
          "type": "address"
        }
      ],
      "stateMutability": "view",
      "type": "function"
    },
    {
      "inputs": [
        {
          "internalType": "uint256",
          "name": "",
          "type": "uint256"
        },
        {
          "internalType": "uint256",
          "name": "",
          "type": "uint256"
        }
      ],
      "name": "pngs",
      "outputs": [
        {
          "internalType": "string",
          "name": "",
          "type": "string"
        }
      ],
      "stateMutability": "view",
      "type": "function"
    },
    {
      "inputs": [],
      "name": "renounceOwnership",
      "outputs": [],
      "stateMutability": "nonpayable",
      "type": "function"
    },
    {
      "inputs": [
        {
          "internalType": "uint256",
          "name": "tokenId",
          "type": "uint256"
        },
        {
          "internalType": "bytes20",
          "name": "name",
          "type": "bytes20"
        },
        {
          "internalType": "uint256",
          "name": "traitHash",
          "type": "uint256"
        },
        {
          "internalType": "uint256",
          "name": "level",
          "type": "uint256"
        },
        {
          "internalType": "string",
          "name": "baseURI",
          "type": "string"
        }
      ],
      "name": "tokenURI",
      "outputs": [
        {
          "internalType": "string",
          "name": "",
          "type": "string"
        }
      ],
      "stateMutability": "view",
      "type": "function"
    },
    {
      "inputs": [
        {
          "internalType": "address",
          "name": "newOwner",
          "type": "address"
        }
      ],
      "name": "transferOwnership",
      "outputs": [],
      "stateMutability": "nonpayable",
      "type": "function"
    }
  ],
  "bytecode": "0x600861016090815267416c6c69616e636560c01b610180526080908152600a6101a090815269109858dad9dc9bdd5b9960b21b6101c05260a05260076101e08181526645617272696e6760c81b6102005260c05260066102209081526541747469726560d01b6102405260e05260096102609081526843796265727761726560b81b610280526101005260046102a0818152634661636560e01b6102c052610120526103206040526102e0908152631219585960e21b6103005261014052620000cb91600291620014b4565b5060405180610100016040528060405180604001604052806004815260200163426c756560e01b81525081526020016040518060400160405280600581526020016423b932b2b760d91b815250815260200160405180604001604052806006815260200165507572706c6560d01b81525081526020016040518060400160405280600381526020016214995960ea1b815250815260200160405180604001604052806004815260200163426c756560e01b81525081526020016040518060400160405280600581526020016423b932b2b760d91b815250815260200160405180604001604052806006815260200165507572706c6560d01b81525081526020016040518060400160405280600381526020016214995960ea1b8152508152506009906008620001fc92919062001504565b5060405180606001604052806040518060400160405280600b81526020016a527975696368692d6b616960a81b81525081526020016040518060400160405280600d81526020016c546f7261686964652d67756d6960981b81525081526020016040518060400160405280600a8152602001694e6f62752d72656e676f60b01b81525081525060119060036200029492919062001542565b50604051806101000160405280604051806040016040528060048152602001634e6f6e6560e01b81525081526020016040518060400160405280600581526020016443726f737360d81b815250815260200160405180604001604052806007815260200166111a585b5bdb9960ca1b815250815260200160405180604001604052806005815260200164090cad8d2f60db1b8152508152602001604051806040016040528060048152602001630486f6f760e41b8152508152602001604051806040016040528060088152602001671499590814dd1d5960c21b8152508152602001604051806040016040528060038152602001622130b960e91b81525081526020016040518060400160405280600a815260200169109b1858dac814dd1d5960b21b8152508152506014906008620003cf92919062001580565b50604080516104808101825260046104408201818152634e6f6e6560e01b610460840152825282518084018452600d8082526c12985a5b08129d5b5c1cdd5a5d609a1b60208381019190915280850192909252845180860186526006808252654a657273657960d01b828501528587019190915285518087018752818152654b696d6f6e6f60d01b818501526060860152855180870187526007808252664b6f6d62696e6960c81b82860152608087019190915286518088018852600e8082526d1319585d1a195c88129858dad95d60921b8287015260a088019190915287518089018952600f8082526e13985b9bddd85d9948129858dad95d608a1b8288015260c08901919091528851808a018a52600b8082526a4e656f6e20486f6f64696560a81b8289015260e08a01919091528951808b018b528681526c149bd8dad95c88129858dad95d609a1b818901526101008a01528951808b018b52848152665361726173686960c81b818901526101208a01528951808b018b528381526d5363686f6f6c20556e69666f726d60901b818901526101408a01528951808b018b5260058082526414da1a5c9d60da1b828a01526101608b01919091528a51808c018c528381526e29bab4ba102bb4ba341029b1b0b93360891b818a01526101808b01528a51808c018c528981526314dd5a5d60e21b818a01526101a08b01528a51808c018c52600c8082526b53756b616a616e204e6f627560a01b828b01526101c08c01919091528b51808d018d528381526a53756b616a616e2052797560a81b818b01526101e08c01528b51808d018d529081526b53756b616a616e20546f726160a01b818a01526102008b01528a51808c018c528781526c151858dd1a58d85b0815995cdd609a1b818a01526102208b01528a51808c018c5294855266054616e6b746f760cc1b858901526102408a01949094528951808b018b528281526e546563687765617220486f6f64696560881b818901526102608a01528951808b018b528281526e5465636877656172204b696d6f6e6f60881b818901526102808a01528951808b018b52601381527f546563687765617220547572746c656e65636b00000000000000000000000000818901526102a08a01528951808b018b529586526c151c985a5b9a5b99c814dd5a5d609a1b868801526102c08901959095528851808a018a529081526e151d5c9d1b195b9958dac814dd5a5d608a1b818701526102e0880152875180890189528181526d15985c9cda5d1e48129858dad95d60921b818701526103008801528751808901895291825264416b69726160d81b82860152610320870191909152865180880188526009808252682130b93a32b73232b960b91b828701526103408801919091528751808901895260128152710426c6f6f64737461696e2054616e6b746f760741b818701526103608801528751808901895290815268109bd91e4814dd5a5d60ba1b81860152610380870152865180880188529485526310dbd85d60e21b858501526103a086019490945285518087018752908152654379626f726760d01b818401526103c0850152845180860186529081526a111c995cdcc814da1a5c9d60aa1b818301526103e0840152835180850185529182526d2330b9ba3337b7b21020b83937b760911b8282015261040083019190915282518084019093526011835270119d5c8810dbdb1b185c88129858dad95d607a1b90830152610420810191909152620008d790601e906022620015be565b50604080516106808101825260046106408201818152634e6f6e6560e01b610660840152825282518084018452600a8082526910dbddd89bde4812185d60b21b602083810191909152808501929092528451808601865260088082526710dc995dc810dd5d60c21b828501528587019190915285518087018752601081526f4375727461696e20506c6174696e756d60801b8185015260608601528551808701875260078082526621bab93a30b4b760c91b82860152608087019190915286518088018852600e8082526d21bcb132b9102534b733b0b9b0b760911b8287015260a088019190915287518089018952600d8082526c11985d5e0812185ddac8149959609a1b8288015260c08901919091528851808a018a52838152660466c61746361760cc1b8188015260e08901528851808a018a528181526c11d95b9d195b1b585b8812185d609a1b818801526101008901528851808a018a528481526704a6f6a6f204361760c41b818801526101208901528851808a018a52600f81526e4d756c6c6574204b696e706174737560881b818801526101408901528851808a018a526006815265135d5b1b195d60d21b818801526101608901528851808a018a526009808252682837b6b830b237bab960b91b828901526101808a01919091528951808b018b528181526850756e63687065726d60b81b818901526101a08a01528951808b018b5285815267050756e6b204361760c41b818901526101c08a01528951808b018b529788526350756e6b60e01b888801526101e08901979097528851808a018a52600c8082526b14dad85d194812195b1b595d60a21b828901526102008a01919091528951808b018b528581526714dada5b9a19585960c21b818901526102208a01528951808b018b528281526c29b634b1b59021bab93a30b4b760991b8189018190526102408b01919091528a51808c018c52838152808901919091526102608a01528951808b018b5285815267536e61706261636b60c01b818901526102808a01528951808b018b52868152695370696b7920426c756560b01b818901526102a08a01528951808b018b528881526814dd585d994810dd5d60ba1b818901526102c08a01528951808b018b52601281527114dd585d9948155b99195c98dd5d0814995960721b818901526102e08a01528951808b018b528381526d14dd585d9948155b99195c98dd5d60921b818901526103008a01528951808b018b52958652695377657074204261636b60b01b868801526103208901959095528851808a018a52838152660546563686361760cc1b818801526103408901528851808a018a52600b8082526a0547275636b6572204361760ac1b828901526103608a01919091528951808b018b52601180825270547769737465642048616368696d616b6960781b828a01526103808b01919091528a51808c018c5281815270556e64657263757420447265646c6f636b60781b818a01526103a08b01528a51808c018c52601781527f556e64657263757420447265646c6f636b20477265656e000000000000000000818a01526103c08b01528a51808c018c528481526d2ab73232b931baba1023b932b2b760911b818a01526103e08b01528a51808c018c5286815267155b99195c98dd5d60c21b818a01526104008b01528a51808c018c5285815266557368616e6b6160c81b818a01526104208b01528a51808c018c528981526805669736f72204361760bc1b818a01526104408b01528a51808c018c529384526d5a65726f2048616368696d616b6960901b848901526104608a01939093528951808b018b52600580825264416b69726160d81b828a01526104808b01919091528a51808c018c528581526642616e64616e6160c81b818a01526104a08b01528a51808c018c529081526442616e696560d81b818901526104c08a01528951808b018b529586526b04261736562616c6c204361760a41b868801526104e08901959095528851808a018a5283815266109bdddb18dd5d60ca1b818801526105008901528851808a018a529081526c42726169646564204f6d62726560981b818701526105208801528751808901895291825266109c985a59195960ca1b828601526105408701919091528651808801885294855268109d58dad95d1a185d60ba1b85850152610560860194909452855180870187526003815262213ab760e91b81850152610580860152855180870187529384527042757a7a20437574204b696e706174737560781b848401526105a08501939093528451808601865283815267109d5e9e8810dd5d60c21b818401526105c0850152845180860186528181526a42757a7a204d6f6861776b60a81b818401526105e0850152845180860186529283526743686f6e6d61676560c01b83830152610600840192909252835180850185529182526a10dbdb9a58d85b0812185d60aa1b9082015261062082015262000fec91906032620015fc565b50604080516103408101825260046103008201818152634e6f6e6560e01b610320840152825282518084018452600f8082526e48616c666d61736b2048616e6e796160881b6020838101919091528085019290925284518086018652600b8082526a48616e6e7961204d61736b60a81b828501528587019190915285518087018752600a808252694a61736f6e204d61736b60b01b828601526060870191909152865180880188526008808252674c6564204d61736b60c01b82870152608088019190915287518089018952828152695069706520536d6f6b6560b01b8187015260a0880152875180890189528681526329b1b0b960e11b8187015260c0880152875180890189528481526e536b756c6c2048616c66204661636560881b8187015260e0880152875180890189529283526a53756e20476c617373657360a81b8386015261010087019290925286518088018852600d81526c546163746963616c204d61736b60981b81860152610120870152865180880188529283526e41766961746f7220476c617373657360881b838501526101408601929092528551808701875260078082526610985b99185a5960ca1b8286015261016087019190915286518088018852600c81526b42616e64616e61204d61736b60a01b8186015261018087015286518088018852601381527f426561726420416e64204d6f7573746163686500000000000000000000000000818601526101a08701528651808801885292835269213637b7b239ba30b4b760b11b838501526101c086019290925285518087018752600980825268427562626c6567756d60b81b828601526101e0870191909152865180880188528181526843696761726574746560b81b8186015261020087015286518088018852600e81526d4379636c6f7020476c617373657360901b8186015261022087015286518088018852600681526504379636c6f760d41b8186015261024087015286518088018852918252672296a9b6b7b5b2b960c11b82850152610260860191909152855180870187529081526808af2ca40a0c2e8c6d60bb1b8184015261028085015284518086018652928352634579657360e01b838301526102a084019290925283518085018552828152664761736d61736b60c81b818301526102c0840152835180850190945290835266476c617373657360c81b908301526102e08101919091526200136f9060729060186200163a565b506040518060a00160405280604051806040016040528060048152602001634e6f6e6560e01b81525081526020016040518060400160405280600d81526020016c4a61772048616c66204e65636b60981b8152508152602001604051806040016040528060048152602001634e65636b60e01b8152508152602001604051806040016040528060078152602001664379626572203160c81b81525081526020016040518060400160405280600781526020016621bcb132b9101960c91b815250815250608a9060056200144492919062001678565b503480156200145257600080fd5b506200145e3362001464565b620018a1565b600080546001600160a01b038381166001600160a01b0319831681178455604051919092169283917f8be0079c531659141344cd1fd0a4f28419497f9722a3daafe3b4186f6b6457e09190a35050565b8260078101928215620014f2579160200282015b82811115620014f25782518290620014e19082620017d5565b5091602001919060010190620014c8565b5062001500929150620016b6565b5090565b8260088101928215620014f2579160200282015b82811115620014f25782518290620015319082620017d5565b509160200191906001019062001518565b8260038101928215620014f2579160200282015b82811115620014f257825182906200156f9082620017d5565b509160200191906001019062001556565b82600a8101928215620014f2579160200282015b82811115620014f25782518290620015ad9082620017d5565b509160200191906001019062001594565b8260228101928215620014f2579160200282015b82811115620014f25782518290620015eb9082620017d5565b5091602001919060010190620015d2565b8260328101928215620014f2579160200282015b82811115620014f25782518290620016299082620017d5565b509160200191906001019062001610565b8260188101928215620014f2579160200282015b82811115620014f25782518290620016679082620017d5565b50916020019190600101906200164e565b8260058101928215620014f2579160200282015b82811115620014f25782518290620016a59082620017d5565b50916020019190600101906200168c565b8082111562001500576000620016cd8282620016d7565b50600101620016b6565b508054620016e59062001746565b6000825580601f10620016f6575050565b601f01602090049060005260206000209081019062001716919062001719565b50565b5b808211156200150057600081556001016200171a565b634e487b7160e01b600052604160045260246000fd5b600181811c908216806200175b57607f821691505b6020821081036200177c57634e487b7160e01b600052602260045260246000fd5b50919050565b601f821115620017d057600081815260208120601f850160051c81016020861015620017ab5750805b601f850160051c820191505b81811015620017cc57828155600101620017b7565b5050505b505050565b81516001600160401b03811115620017f157620017f162001730565b620018098162001802845462001746565b8462001782565b602080601f831160018114620018415760008415620018285750858301515b600019600386901b1c1916600185901b178555620017cc565b600085815260208120601f198616915b82811015620018725788860151825594840194600190910190840162001851565b5085821015620018915787850151600019600388901b60f8161c191681555b5050505050600190811b01905550565b61205d80620018b16000396000f3fe608060405234801561001057600080fd5b50600436106100625760003560e01c8063715018a6146100675780638da5cb5b14610071578063c4c1a02514610091578063ce3927db146100a4578063daf7da3b146100c4578063f2fde38b146100d7575b600080fd5b61006f6100ea565b005b6000546040516001600160a01b0390911681526020015b60405180910390f35b61006f61009f3660046113ff565b6100fe565b6100b76100b236600461144f565b61012f565b60405161008891906114ed565b6100b76100d2366004611520565b610382565b61006f6100e5366004611542565b610427565b6100f26104a5565b6100fc60006104ff565b565b6101066104a5565b6000838152600160209081526040808320858452909152902061012982826115f4565b50505050565b60408051808201909152601d81527f646174613a6170706c69636174696f6e2f6a736f6e3b6261736536342c0000006020820152606090600085900361020b57806101e361017c8961054f565b60405160200161018c91906116d0565b60408051601f198184030181526101208301909152610100808352909190611f28602083013960408051602080820183526000825291516101cf94939201611708565b604051602081830303815290604052610658565b6040516020016101f4929190611809565b604051602081830303815290604052915050610379565b806103556001600160601b0319881615610256576102326001600160601b03198916610669565b6040516020016102429190611838565b60405160208183030381529060405261027f565b61025f8961054f565b60405160200161026f91906116d0565b6040516020818303038152906040525b6040518061012001604052806101008152602001611f28610100913960408051600081526020810180835281519020916102bb918a9101611862565b60405160208183030381529060405280519060200120146102fd57868b6040516020016102e992919061187e565b604051602081830303815290604052610326565b6040518060400160405280600f81526020016e1134b6b0b3b2afb230ba30911d101160891b8152505b6103376103328b610781565b610658565b6103418b8b610c11565b6040516020016101cf9594939291906118d1565b604051602001610366929190611809565b6040516020818303038152906040529150505b95945050505050565b6001602090815260009283526040808420909152908252902080546103a69061156b565b80601f01602080910402602001604051908101604052809291908181526020018280546103d29061156b565b801561041f5780601f106103f45761010080835404028352916020019161041f565b820191906000526020600020905b81548152906001019060200180831161040257829003601f168201915b505050505081565b61042f6104a5565b6001600160a01b0381166104995760405162461bcd60e51b815260206004820152602660248201527f4f776e61626c653a206e6577206f776e657220697320746865207a65726f206160448201526564647265737360d01b60648201526084015b60405180910390fd5b6104a2816104ff565b50565b6000546001600160a01b031633146100fc5760405162461bcd60e51b815260206004820181905260248201527f4f776e61626c653a2063616c6c6572206973206e6f7420746865206f776e65726044820152606401610490565b600080546001600160a01b038381166001600160a01b0319831681178455604051919092169283917f8be0079c531659141344cd1fd0a4f28419497f9722a3daafe3b4186f6b6457e09190a35050565b6060816000036105765750506040805180820190915260018152600360fc1b602082015290565b8160005b81156105a0578061058a816119f2565b91506105999050600a83611a21565b915061057a565b60008167ffffffffffffffff8111156105bb576105bb61135c565b6040519080825280601f01601f1916602001820160405280156105e5576020820181803683370190505b5090505b8415610650576105fa600183611a35565b9150610607600a86611a48565b610612906030611a5c565b60f81b81838151811061062757610627611a6f565b60200101906001600160f81b031916908160001a905350610649600a86611a21565b94506105e9565b949350505050565b606061066382611229565b92915050565b606060005b60148110801561069c575082816014811061068b5761068b611a6f565b1a60f81b6001600160f81b03191615155b156106a95760010161066e565b60008167ffffffffffffffff8111156106c4576106c461135c565b6040519080825280601f01601f1916602001820160405280156106ee576020820181803683370190505b509050600091505b601482108015610724575083826014811061071357610713611a6f565b1a60f81b6001600160f81b03191615155b1561077a5783826014811061073b5761073b611a6f565b1a60f81b81838151811061075157610751611a6f565b60200101906001600160f81b031916908160001a90535081610772816119f2565b9250506106f6565b9392505050565b606060006040518060a0016040528060758152602001611eb36075913960408051808201909152600381526211179f60e91b60208201529091506107c361131a565b60ff603086901c161561082f5760ff603086901c1660009081527fa6eef7e35abe7026729641147f7915573c7e97b47efa546f5f6e3230263bcb496020908152604091829020915161081b9286929091869101611af8565b604051602081830303815290604052610840565b604051806020016040528060008152505b8152602885901c60ff16156108ae5760ff602886901c1660009081527fcc69885fda6bcc1a4ace058b4a62bf5e179ea78fd58a1ccd71c22cc9b688792f6020908152604091829020915161089a9286929091869101611af8565b6040516020818303038152906040526108bf565b604051806020016040528060008152505b6020820152601885901c60ff16156109305760ff601886901c1660009081527fd9d16d34ffb15ba3a3d852f0d403e2ce1d691fb54de27ac87cd2f993f3ec330f6020908152604091829020915161091c9286929091869101611af8565b604051602081830303815290604052610941565b604051806020016040528060008152505b604082015260ff602086901c16156109ae57602085811c60ff1660009081527f7dfe757ecd65cbd7922a9c0161e935dd7fdbcc0e999689c7d31633896b1fc60b8252604090819020905161099a92869291869101611af8565b6040516020818303038152906040526109bf565b604051806020016040528060008152505b6060820152603885901c60ff1615610a305760ff603886901c1660009081527fedc95719e9a3b28dd8e80877cb5880a9be7de1a13fc8b05e7999683b6b56764360209081526040918290209151610a1c9286929091869101611af8565b604051602081830303815290604052610a41565b604051806020016040528060008152505b608082015260ff851660009081527fe2689cd4a84e23ad2f564004f1c9013e9589d260bde6380aba3ca7e09e4df40c60209081526040918290209151610a8d9286929091869101611af8565b60408051808303601f1901815291815260a0830191909152601086901c60ff1660009081527f8f331abe73332f95a25873e8b430885974c0409691f89d643119a11623a7924a6020908152908290209151610aee9286929091869101611af8565b60408051808303601f1901815291815260c083019190915260ff861660009081527fdc686ec4a0ff239c70e7c7c36e8f853eced3bc8618f48d2b816da2a74311237e6020908152908290209151610b4b9286929091869101611af8565b60408051808303601f1901815291815260e0830191909152600886901c60ff1660009081527f4db623e5c4870b62d3fc9b4e8f893a1a77627d75ab45d9ff7e56ba19564af99b6020908152908290209151610bac9286929091869101611af8565b60408051808303601f19018152918152610100830182905260e083015160c084015160a085015160808601516060870151878601516020808a01518a519851610bf89a99919201611b32565b6040516020818303038152906040529350505050919050565b606060408051808201909152600f81526e3d913a3930b4ba2fba3cb832911d1160891b60208201526060610c43611342565b60118660ff1660038110610c5957610c59611a6f565b018054610c659061156b565b80601f0160208091040260200160405190810160405280929190818152602001828054610c919061156b565b8015610cde5780601f10610cb357610100808354040283529160200191610cde565b820191906000526020600020905b815481529060010190602001808311610cc157829003601f168201915b505050505081600060078110610cf657610cf6611a6f565b60200201819052506009600887901c60ff1660088110610d1857610d18611a6f565b018054610d249061156b565b80601f0160208091040260200160405190810160405280929190818152602001828054610d509061156b565b8015610d9d5780601f10610d7257610100808354040283529160200191610d9d565b820191906000526020600020905b815481529060010190602001808311610d8057829003601f168201915b505050505081600160078110610db557610db5611a6f565b6020020152601460ff601888901c16600a8110610dd457610dd4611a6f565b018054610de09061156b565b80601f0160208091040260200160405190810160405280929190818152602001828054610e0c9061156b565b8015610e595780601f10610e2e57610100808354040283529160200191610e59565b820191906000526020600020905b815481529060010190602001808311610e3c57829003601f168201915b505050505081600260078110610e7157610e71611a6f565b6020020181905250601e602087901c60ff1660228110610e9357610e93611a6f565b018054610e9f9061156b565b80601f0160208091040260200160405190810160405280929190818152602001828054610ecb9061156b565b8015610f185780601f10610eed57610100808354040283529160200191610f18565b820191906000526020600020905b815481529060010190602001808311610efb57829003601f168201915b505050505081600360078110610f3057610f30611a6f565b6020020152607260ff602888901c1660188110610f4f57610f4f611a6f565b018054610f5b9061156b565b80601f0160208091040260200160405190810160405280929190818152602001828054610f879061156b565b8015610fd45780601f10610fa957610100808354040283529160200191610fd4565b820191906000526020600020905b815481529060010190602001808311610fb757829003601f168201915b505050505081600460078110610fec57610fec611a6f565b6020020152604060ff603088901c166032811061100b5761100b611a6f565b0180546110179061156b565b80601f01602080910402602001604051908101604052809291908181526020018280546110439061156b565b80156110905780601f1061106557610100808354040283529160200191611090565b820191906000526020600020905b81548152906001019060200180831161107357829003601f168201915b5050505050816005600781106110a8576110a8611a6f565b6020020152608a60ff603888901c16600581106110c7576110c7611a6f565b0180546110d39061156b565b80601f01602080910402602001604051908101604052809291908181526020018280546110ff9061156b565b801561114c5780601f106111215761010080835404028352916020019161114c565b820191906000526020600020905b81548152906001019060200180831161112f57829003601f168201915b50505050508160066007811061116457611164611a6f565b602002015260005b60078110156111cf5782846002836007811061118a5761118a611a6f565b0184846007811061119d5761119d611a6f565b60200201516040516020016111b59493929190611d92565b60408051601f19818403018152919052925060010161116c565b5081836111db8761054f565b6040516020016111ed93929190611e09565b60405160208183030381529060405291508160405160200161120f9190611e7e565b604051602081830303815290604052935050505092915050565b606061066382600080606083518015611312576003600282010460021b60405192507f4142434445464748494a4b4c4d4e4f505152535455565758595a616263646566601f526106708515027f6768696a6b6c6d6e6f707172737475767778797a303132333435363738392d5f18603f52602083018181015b6003880197508751603f8160121c1651600053603f81600c1c1651600153603f8160061c1651600253603f8116516003535060005182526004820191508082106112a257602001604052613d3d60f01b600384066002048083039190915260008615159091029182900352900382525b509392505050565b6040518061012001604052806009905b606081526020019060019003908161132a5790505090565b6040805160e081019091526060815260066020820161132a565b634e487b7160e01b600052604160045260246000fd5b600082601f83011261138357600080fd5b813567ffffffffffffffff8082111561139e5761139e61135c565b604051601f8301601f19908116603f011681019082821181831017156113c6576113c661135c565b816040528381528660208588010111156113df57600080fd5b836020870160208301376000602085830101528094505050505092915050565b60008060006060848603121561141457600080fd5b8335925060208401359150604084013567ffffffffffffffff81111561143957600080fd5b61144586828701611372565b9150509250925092565b600080600080600060a0868803121561146757600080fd5b8535945060208601356001600160601b03198116811461148657600080fd5b93506040860135925060608601359150608086013567ffffffffffffffff8111156114b057600080fd5b6114bc88828901611372565b9150509295509295909350565b60005b838110156114e45781810151838201526020016114cc565b50506000910152565b602081526000825180602084015261150c8160408501602087016114c9565b601f01601f19169190910160400192915050565b6000806040838503121561153357600080fd5b50508035926020909101359150565b60006020828403121561155457600080fd5b81356001600160a01b038116811461077a57600080fd5b600181811c9082168061157f57607f821691505b60208210810361159f57634e487b7160e01b600052602260045260246000fd5b50919050565b601f8211156115ef57600081815260208120601f850160051c810160208610156115cc5750805b601f850160051c820191505b818110156115eb578281556001016115d8565b5050505b505050565b815167ffffffffffffffff81111561160e5761160e61135c565b6116228161161c845461156b565b846115a5565b602080601f831160018114611657576000841561163f5750858301515b600019600386901b1c1916600185901b1785556115eb565b600085815260208120601f198616915b8281101561168657888601518255948401946001909101908401611667565b50858210156116a45787850151600019600388901b60f8161c191681555b5050505050600190811b01905550565b600081516116c68185602086016114c9565b9290920192915050565b6e224379626572204b796f646169202360881b815281516000906116fb81600f8501602087016114c9565b91909101600f0192915050565b673d913730b6b2911d60c11b8152835160009061172c8160088501602089016114c9565b72111610113232b9b1b934b83a34b7b7111d101160691b600891840191820152845161175f81601b8401602089016114c9565b7f222c22696d616765223a2022646174613a696d6167652f7376672b786d6c3b62601b929091019182015265185cd94d8d0b60d21b603b82015283516117ac8160418401602088016114c9565b7f222c2261747472696275746573223a5b7b2274726169745f74797065223a2253604192909101918201527f7461747573222c2276616c7565223a22556e696e69746961746564227d5d7d00606182015260800195945050505050565b6000835161181b8184602088016114c9565b83519083019061182f8183602088016114c9565b01949350505050565b601160f91b815281516000906118558160018501602087016114c9565b9190910160010192915050565b600082516118748184602087016114c9565b9190910192915050565b681134b6b0b3b2911d1160b91b815282516000906118a38160098501602088016114c9565b600992019182019290925270173837339116113b32b1ba37b9111d101160791b6029820152603a0192915050565b673d913730b6b2911d60c11b815285516000906118f5816008850160208b016114c9565b72111610113232b9b1b934b83a34b7b7111d101160691b600891840191820152865161192881601b840160208b016114c9565b61088b60f21b601b9290910191820152855161194b81601d840160208a016114c9565b7f646174613a696d6167652f7376672b786d6c3b6261736536342c000000000000601d929091019182015284516119898160378401602089016114c9565b6e11161130ba3a3934b13aba32b9911d60891b6037929091019182015283516119b98160468401602088016114c9565b6119cf604682840101607d60f81b815260010190565b9998505050505050505050565b634e487b7160e01b600052601160045260246000fd5b600060018201611a0457611a046119dc565b5060010190565b634e487b7160e01b600052601260045260246000fd5b600082611a3057611a30611a0b565b500490565b81810381811115610663576106636119dc565b600082611a5757611a57611a0b565b500690565b80820180821115610663576106636119dc565b634e487b7160e01b600052603260045260246000fd5b60008154611a928161156b565b60018281168015611aaa5760018114611abf57611aee565b60ff1984168752821515830287019450611aee565b8560005260208060002060005b85811015611ae55781548a820152908401908201611acc565b50505082870194505b5050505092915050565b60008451611b0a8184602089016114c9565b611b1681840186611a85565b90508351611b288183602088016114c9565b0195945050505050565b7f3c7376672069643d226b796f646169222077696474683d22313030252220686581527f696768743d22313030252220786d6c6e733d22687474703a2f2f7777772e773360208201527f2e6f72672f323030302f7376672220696d6167652d72656e646572696e673d2260408201527f706978656c61746564222076696577426f783d2230203020383420383422207360608201527f74796c653d2273686170652d72656e646572696e673a637269737065646765736080820152620111f160ed1b60a082015260008a51611c0e8160a3850160208f016114c9565b8a5190830190611c258160a3840160208f016114c9565b8a51910190611c3b8160a3840160208e016114c9565b8951910190611c518160a3840160208d016114c9565b611d81611c87611c81611c7b611c75611c6f60a3878901018f6116b4565b8d6116b4565b8b6116b4565b896116b4565b876116b4565b7f3c7374796c653e236b796f6461697b696d6167652d72656e646572696e673a2081527f2d7765626b69742d63726973702d65646765733b20696d6167652d72656e646560208201527f72696e673a202d6d6f7a2d63726973702d65646765733b20696d6167652d726560408201527f6e646572696e673a2063726973702d65646765733b20696d6167652d72656e6460608201527f6572696e673a20706978656c617465643b202d6d732d696e746572706f6c617460808201527f696f6e2d6d6f64653a206e6561726573742d6e65696768626f723b7d3c2f737460a0820152693cb6329f1e17b9bb339f60b11b60c082015260ca0190565b9d9c50505050505050505050505050565b60008551611da4818460208a016114c9565b855190830190611db8818360208a016114c9565b611dc481830187611a85565b9150506a1116113b30b63ab2911d1160a91b81528351611deb81600b8401602088016114c9565b62089f4b60ea1b600b9290910191820152600e019695505050505050565b60008451611e1b8184602089016114c9565b845190830190611e2f8183602089016114c9565b6413195d995b60da1b9101908152691116113b30b63ab2911d60b11b60058201528351611e6381600f8401602088016114c9565b607d60f81b600f929091019182015260100195945050505050565b605b60f81b815260008251611e9a8160018501602087016114c9565b605d60f81b600193909101928301525060020191905056fe3c696d6167652077696474683d22383422206865696768743d2238342220696d6167652d72656e646572696e673d22706978656c6174656422207072657365727665417370656374526174696f3d22784d6964594d69642220687265663d22646174613a696d6167652f706e673b6261736536342c44656361646573206166746572206f7070726573696f6e2066726f6d2074686520676f7665726e6d656e742c2061206e657720657261206461776e7320617320746865204b796f6461697320726573757267657320746f207365697a6520636f6e74726f6c206f7665722074686520656e69676d61746963204e656f20546f6b796f20756e646572776f726c642e2052656163682073757072656d616379207468726f75676820636f6d706574697469766520616e64207374726174656769632067616d65706c61792e20416c6c204b796f64616973206172652066756c6c792067656e65726174656420616e6420656e636f646564206f6e2d636861696e2ea26469706673582212202f629c1e71c4630414267c80ccde25595a88438055ec2037e0bba6ec0cb8f83d64736f6c63430008120033",
  "linkReferences": {},
  "deployedLinkReferences": {}
}