{
  "_format": "hh-sol-artifact-1",
  "contractName": "KyodaiLibrary",
  "sourceName": "contracts/utils/Libraries.sol",
  "abi": [
    {
      "inputs": [
        {
          "internalType": "uint256",
          "name": "x",
          "type": "uint256"
        }
      ],
      "name": "log10",
      "outputs": [
        {
          "internalType": "uint256",
          "name": "r",
          "type": "uint256"
        }
      ],
      "stateMutability": "pure",
      "type": "function"
    }
  ],
  "bytecode": "0x61014e61003a600b82828239805160001a60731461002d57634e487b7160e01b600052600060045260246000fd5b30600052607381538281f3fe73000000000000000000000000000000000000000030146080604052600436106100355760003560e01c8063ebdae5f91461003a575b600080fd5b61004d6100483660046100ff565b61005f565b60405190815260200160405180910390f35b60006f4b3b4ca85a86c47a098a224000000000821061008f57506f4b3b4ca85a86c47a098a224000000000900460265b68056bc75e2d6310000082106100b15768056bc75e2d63100000909104906014015b6402540be40082106100cb576402540be40090910490600a015b620186a082106100e157620186a0909104906005015b61270f82116103e78311016063831101600983110181019050919050565b60006020828403121561011157600080fd5b503591905056fea264697066735822122005202f0e617df24385e4de1ec6cc34205831c2f6ca0fb536adb0ce9a084ad60564736f6c63430008120033",
  "linkReferences": {},
  "deployedLinkReferences": {}
}