{
  "_format": "hh-sol-artifact-1",
  "contractName": "KyodaiDescOffChain",
  "sourceName": "contracts/mainnet/KyodaiDescOffChain.sol",
  "abi": [
    {
      "inputs": [
        {
          "internalType": "string",
          "name": "_url",
          "type": "string"
        }
      ],
      "stateMutability": "nonpayable",
      "type": "constructor"
    },
    {
      "anonymous": false,
      "inputs": [
        {
          "indexed": true,
          "internalType": "address",
          "name": "previousOwner",
          "type": "address"
        },
        {
          "indexed": true,
          "internalType": "address",
          "name": "newOwner",
          "type": "address"
        }
      ],
      "name": "OwnershipTransferred",
      "type": "event"
    },
    {
      "inputs": [
        {
          "internalType": "string",
          "name": "newURL",
          "type": "string"
        }
      ],
      "name": "changeURL",
      "outputs": [],
      "stateMutability": "nonpayable",
      "type": "function"
    },
    {
      "inputs": [
        {
          "internalType": "uint256",
          "name": "tokenId",
          "type": "uint256"
        },
        {
          "internalType": "uint256",
          "name": "traitHash",
          "type": "uint256"
        }
      ],
      "name": "getTokenURI",
      "outputs": [
        {
          "internalType": "string",
          "name": "",
          "type": "string"
        }
      ],
      "stateMutability": "view",
      "type": "function"
    },
    {
      "inputs": [],
      "name": "owner",
      "outputs": [
        {
          "internalType": "address",
          "name": "",
          "type": "address"
        }
      ],
      "stateMutability": "view",
      "type": "function"
    },
    {
      "inputs": [],
      "name": "renounceOwnership",
      "outputs": [],
      "stateMutability": "nonpayable",
      "type": "function"
    },
    {
      "inputs": [
        {
          "internalType": "uint256",
          "name": "tokenId",
          "type": "uint256"
        },
        {
          "internalType": "bytes20",
          "name": "name",
          "type": "bytes20"
        },
        {
          "internalType": "uint256",
          "name": "traitHash",
          "type": "uint256"
        },
        {
          "internalType": "uint256",
          "name": "level",
          "type": "uint256"
        },
        {
          "internalType": "string",
          "name": "baseURI",
          "type": "string"
        }
      ],
      "name": "tokenURI",
      "outputs": [
        {
          "internalType": "string",
          "name": "",
          "type": "string"
        }
      ],
      "stateMutability": "view",
      "type": "function"
    },
    {
      "inputs": [
        {
          "internalType": "address",
          "name": "newOwner",
          "type": "address"
        }
      ],
      "name": "transferOwnership",
      "outputs": [],
      "stateMutability": "nonpayable",
      "type": "function"
    },
    {
      "inputs": [],
      "name": "url",
      "outputs": [
        {
          "internalType": "string",
          "name": "",
          "type": "string"
        }
      ],
      "stateMutability": "view",
      "type": "function"
    }
  ],
  "bytecode": "0x60806040523480156200001157600080fd5b5060405162000bec38038062000bec8339810160408190526200003491620000bb565b6200003f3362000055565b60016200004d82826200021f565b5050620002eb565b600080546001600160a01b038381166001600160a01b0319831681178455604051919092169283917f8be0079c531659141344cd1fd0a4f28419497f9722a3daafe3b4186f6b6457e09190a35050565b634e487b7160e01b600052604160045260246000fd5b60006020808385031215620000cf57600080fd5b82516001600160401b0380821115620000e757600080fd5b818501915085601f830112620000fc57600080fd5b815181811115620001115762000111620000a5565b604051601f8201601f19908116603f011681019083821181831017156200013c576200013c620000a5565b8160405282815288868487010111156200015557600080fd5b600093505b828410156200017957848401860151818501870152928501926200015a565b600086848301015280965050505050505092915050565b600181811c90821680620001a557607f821691505b602082108103620001c657634e487b7160e01b600052602260045260246000fd5b50919050565b601f8211156200021a57600081815260208120601f850160051c81016020861015620001f55750805b601f850160051c820191505b81811015620002165782815560010162000201565b5050505b505050565b81516001600160401b038111156200023b576200023b620000a5565b62000253816200024c845462000190565b84620001cc565b602080601f8311600181146200028b5760008415620002725750858301515b600019600386901b1c1916600185901b17855562000216565b600085815260208120601f198616915b82811015620002bc578886015182559484019460019091019084016200029b565b5085821015620002db5787850151600019600388901b60f8161c191681555b5050505050600190811b01905550565b6108f180620002fb6000396000f3fe608060405234801561001057600080fd5b506004361061007d5760003560e01c8063a00412861161005b578063a0041286146100c5578063ad22a3f2146100d8578063ce3927db146100eb578063f2fde38b146100fe57600080fd5b80635600f04f14610082578063715018a6146100a05780638da5cb5b146100aa575b600080fd5b61008a610111565b60405161009791906104e2565b60405180910390f35b6100a861019f565b005b6000546040516001600160a01b039091168152602001610097565b6100a86100d33660046105b8565b6101b3565b61008a6100e63660046105f5565b6101cb565b61008a6100f9366004610617565b610214565b6100a861010c366004610696565b61022a565b6001805461011e906106c6565b80601f016020809104026020016040519081016040528092919081815260200182805461014a906106c6565b80156101975780601f1061016c57610100808354040283529160200191610197565b820191906000526020600020905b81548152906001019060200180831161017a57829003601f168201915b505050505081565b6101a76102a8565b6101b16000610302565b565b6101bb6102a8565b60016101c7828261074f565b5050565b606060016101d884610352565b6101eb8467ffffffffffffffff16610352565b6040516020016101fd9392919061080f565b604051602081830303815290604052905092915050565b606061022086856101cb565b9695505050505050565b6102326102a8565b6001600160a01b03811661029c5760405162461bcd60e51b815260206004820152602660248201527f4f776e61626c653a206e6577206f776e657220697320746865207a65726f206160448201526564647265737360d01b60648201526084015b60405180910390fd5b6102a581610302565b50565b6000546001600160a01b031633146101b15760405162461bcd60e51b815260206004820181905260248201527f4f776e61626c653a2063616c6c6572206973206e6f7420746865206f776e65726044820152606401610293565b600080546001600160a01b038381166001600160a01b0319831681178455604051919092169283917f8be0079c531659141344cd1fd0a4f28419497f9722a3daafe3b4186f6b6457e09190a35050565b6060600061035f836103e5565b600101905060008167ffffffffffffffff81111561037f5761037f610515565b6040519080825280601f01601f1916602001820160405280156103a9576020820181803683370190505b5090508181016020015b600019016f181899199a1a9b1b9c1cb0b131b232b360811b600a86061a8153600a85049450846103b357509392505050565b60008072184f03e93ff9f4daa797ed6e38ed64bf6a1f0160401b83106104245772184f03e93ff9f4daa797ed6e38ed64bf6a1f0160401b830492506040015b6d04ee2d6d415b85acef81000000008310610450576d04ee2d6d415b85acef8100000000830492506020015b662386f26fc10000831061046e57662386f26fc10000830492506010015b6305f5e1008310610486576305f5e100830492506008015b612710831061049a57612710830492506004015b606483106104ac576064830492506002015b600a83106104b8576001015b92915050565b60005b838110156104d95781810151838201526020016104c1565b50506000910152565b60208152600082518060208401526105018160408501602087016104be565b601f01601f19169190910160400192915050565b634e487b7160e01b600052604160045260246000fd5b600082601f83011261053c57600080fd5b813567ffffffffffffffff8082111561055757610557610515565b604051601f8301601f19908116603f0116810190828211818310171561057f5761057f610515565b8160405283815286602085880101111561059857600080fd5b836020870160208301376000602085830101528094505050505092915050565b6000602082840312156105ca57600080fd5b813567ffffffffffffffff8111156105e157600080fd5b6105ed8482850161052b565b949350505050565b6000806040838503121561060857600080fd5b50508035926020909101359150565b600080600080600060a0868803121561062f57600080fd5b8535945060208601356bffffffffffffffffffffffff198116811461065357600080fd5b93506040860135925060608601359150608086013567ffffffffffffffff81111561067d57600080fd5b6106898882890161052b565b9150509295509295909350565b6000602082840312156106a857600080fd5b81356001600160a01b03811681146106bf57600080fd5b9392505050565b600181811c908216806106da57607f821691505b6020821081036106fa57634e487b7160e01b600052602260045260246000fd5b50919050565b601f82111561074a57600081815260208120601f850160051c810160208610156107275750805b601f850160051c820191505b8181101561074657828155600101610733565b5050505b505050565b815167ffffffffffffffff81111561076957610769610515565b61077d8161077784546106c6565b84610700565b602080601f8311600181146107b2576000841561079a5750858301515b600019600386901b1c1916600185901b178555610746565b600085815260208120601f198616915b828110156107e1578886015182559484019460019091019084016107c2565b50858210156107ff5787850151600019600388901b60f8161c191681555b5050505050600190811b01905550565b600080855461081d816106c6565b60018281168015610835576001811461084a57610879565b60ff1984168752821515830287019450610879565b8960005260208060002060005b858110156108705781548a820152908401908201610857565b50505082870194505b50505050845161088d8183602089016104be565b643f646e613d60d81b910190815283516108ae8160058401602088016104be565b016005019594505050505056fea26469706673582212200ffc7adda02acc248bdc607b0f784f0560e71da4584c8a6a977ab2d300e2dc0f64736f6c63430008120033",
  "linkReferences": {},
  "deployedLinkReferences": {}
}