{
  "_format": "hh-sol-artifact-1",
  "contractName": "CyberShatei",
  "sourceName": "contracts/mainnet/CyberShatei.sol",
  "abi": [
    {
      "inputs": [],
      "name": "InsufficientMsgFee",
      "type": "error"
    },
    {
      "inputs": [],
      "name": "InvalidDestination",
      "type": "error"
    },
    {
      "inputs": [
        {
          "internalType": "address",
          "name": "operator",
          "type": "address"
        }
      ],
      "name": "OperatorNotAllowed",
      "type": "error"
    },
    {
      "inputs": [],
      "name": "TokenLocked",
      "type": "error"
    },
    {
      "anonymous": false,
      "inputs": [
        {
          "indexed": true,
          "internalType": "address",
          "name": "owner",
          "type": "address"
        },
        {
          "indexed": true,
          "internalType": "uint256",
          "name": "id",
          "type": "uint256"
        },
        {
          "indexed": true,
          "internalType": "uint8",
          "name": "action",
          "type": "uint8"
        }
      ],
      "name": "ActionMade",
      "type": "event"
    },
    {
      "anonymous": false,
      "inputs": [
        {
          "indexed": false,
          "internalType": "address",
          "name": "previousAdmin",
          "type": "address"
        },
        {
          "indexed": false,
          "internalType": "address",
          "name": "newAdmin",
          "type": "address"
        }
      ],
      "name": "AdminChanged",
      "type": "event"
    },
    {
      "anonymous": false,
      "inputs": [
        {
          "indexed": true,
          "internalType": "address",
          "name": "owner",
          "type": "address"
        },
        {
          "indexed": true,
          "internalType": "address",
          "name": "approved",
          "type": "address"
        },
        {
          "indexed": true,
          "internalType": "uint256",
          "name": "tokenId",
          "type": "uint256"
        }
      ],
      "name": "Approval",
      "type": "event"
    },
    {
      "anonymous": false,
      "inputs": [
        {
          "indexed": true,
          "internalType": "address",
          "name": "owner",
          "type": "address"
        },
        {
          "indexed": true,
          "internalType": "address",
          "name": "operator",
          "type": "address"
        },
        {
          "indexed": false,
          "internalType": "bool",
          "name": "approved",
          "type": "bool"
        }
      ],
      "name": "ApprovalForAll",
      "type": "event"
    },
    {
      "anonymous": false,
      "inputs": [
        {
          "indexed": true,
          "internalType": "address",
          "name": "beacon",
          "type": "address"
        }
      ],
      "name": "BeaconUpgraded",
      "type": "event"
    },
    {
      "anonymous": false,
      "inputs": [
        {
          "indexed": false,
          "internalType": "uint8",
          "name": "version",
          "type": "uint8"
        }
      ],
      "name": "Initialized",
      "type": "event"
    },
    {
      "anonymous": false,
      "inputs": [
        {
          "indexed": false,
          "internalType": "uint16",
          "name": "_srcChainId",
          "type": "uint16"
        },
        {
          "indexed": false,
          "internalType": "bytes",
          "name": "_srcAddress",
          "type": "bytes"
        },
        {
          "indexed": false,
          "internalType": "uint64",
          "name": "_nonce",
          "type": "uint64"
        },
        {
          "indexed": false,
          "internalType": "bytes",
          "name": "_payload",
          "type": "bytes"
        }
      ],
      "name": "MessageFailed",
      "type": "event"
    },
    {
      "anonymous": false,
      "inputs": [
        {
          "indexed": true,
          "internalType": "address",
          "name": "previousOwner",
          "type": "address"
        },
        {
          "indexed": true,
          "internalType": "address",
          "name": "newOwner",
          "type": "address"
        }
      ],
      "name": "OwnershipTransferred",
      "type": "event"
    },
    {
      "anonymous": false,
      "inputs": [
        {
          "indexed": true,
          "internalType": "address",
          "name": "from",
          "type": "address"
        },
        {
          "indexed": true,
          "internalType": "address",
          "name": "to",
          "type": "address"
        },
        {
          "indexed": true,
          "internalType": "uint256",
          "name": "tokenId",
          "type": "uint256"
        }
      ],
      "name": "Transfer",
      "type": "event"
    },
    {
      "anonymous": false,
      "inputs": [
        {
          "indexed": true,
          "internalType": "address",
          "name": "implementation",
          "type": "address"
        }
      ],
      "name": "Upgraded",
      "type": "event"
    },
    {
      "inputs": [
        {
          "internalType": "uint256",
          "name": "",
          "type": "uint256"
        }
      ],
      "name": "activities",
      "outputs": [
        {
          "internalType": "uint256",
          "name": "",
          "type": "uint256"
        }
      ],
      "stateMutability": "view",
      "type": "function"
    },
    {
      "inputs": [
        {
          "internalType": "address",
          "name": "operator",
          "type": "address"
        },
        {
          "internalType": "uint256",
          "name": "tokenId",
          "type": "uint256"
        }
      ],
      "name": "approve",
      "outputs": [],
      "stateMutability": "nonpayable",
      "type": "function"
    },
    {
      "inputs": [
        {
          "internalType": "address",
          "name": "owner",
          "type": "address"
        }
      ],
      "name": "balanceOf",
      "outputs": [
        {
          "internalType": "uint256",
          "name": "",
          "type": "uint256"
        }
      ],
      "stateMutability": "view",
      "type": "function"
    },
    {
      "inputs": [
        {
          "internalType": "uint256",
          "name": "tokenId",
          "type": "uint256"
        },
        {
          "internalType": "address",
          "name": "who",
          "type": "address"
        }
      ],
      "name": "burn",
      "outputs": [],
      "stateMutability": "nonpayable",
      "type": "function"
    },
    {
      "inputs": [
        {
          "internalType": "string",
          "name": "newURI",
          "type": "string"
        }
      ],
      "name": "changeURI",
      "outputs": [],
      "stateMutability": "nonpayable",
      "type": "function"
    },
    {
      "inputs": [
        {
          "internalType": "uint256",
          "name": "tokenId",
          "type": "uint256"
        }
      ],
      "name": "decodeActivity",
      "outputs": [
        {
          "internalType": "address",
          "name": "",
          "type": "address"
        },
        {
          "internalType": "uint8",
          "name": "",
          "type": "uint8"
        },
        {
          "internalType": "uint256",
          "name": "",
          "type": "uint256"
        }
      ],
      "stateMutability": "view",
      "type": "function"
    },
    {
      "inputs": [
        {
          "internalType": "uint256",
          "name": "tokenId",
          "type": "uint256"
        }
      ],
      "name": "decodeKyodai",
      "outputs": [
        {
          "internalType": "bytes20",
          "name": "",
          "type": "bytes20"
        },
        {
          "internalType": "uint256",
          "name": "",
          "type": "uint256"
        },
        {
          "internalType": "uint256",
          "name": "",
          "type": "uint256"
        },
        {
          "internalType": "uint256",
          "name": "",
          "type": "uint256"
        }
      ],
      "stateMutability": "view",
      "type": "function"
    },
    {
      "inputs": [
        {
          "internalType": "uint16",
          "name": "",
          "type": "uint16"
        },
        {
          "internalType": "bytes",
          "name": "",
          "type": "bytes"
        },
        {
          "internalType": "uint256",
          "name": "",
          "type": "uint256"
        }
      ],
      "name": "failedMessages",
      "outputs": [
        {
          "internalType": "uint256",
          "name": "payloadLength",
          "type": "uint256"
        },
        {
          "internalType": "bytes32",
          "name": "payloadHash",
          "type": "bytes32"
        }
      ],
      "stateMutability": "view",
      "type": "function"
    },
    {
      "inputs": [
        {
          "internalType": "uint256",
          "name": "tokenId",
          "type": "uint256"
        }
      ],
      "name": "freeToken",
      "outputs": [],
      "stateMutability": "nonpayable",
      "type": "function"
    },
    {
      "inputs": [
        {
          "internalType": "uint256",
          "name": "tokenId",
          "type": "uint256"
        }
      ],
      "name": "getApproved",
      "outputs": [
        {
          "internalType": "address",
          "name": "",
          "type": "address"
        }
      ],
      "stateMutability": "view",
      "type": "function"
    },
    {
      "inputs": [
        {
          "internalType": "uint256",
          "name": "tokenId",
          "type": "uint256"
        }
      ],
      "name": "getKyodai",
      "outputs": [
        {
          "internalType": "uint256",
          "name": "",
          "type": "uint256"
        }
      ],
      "stateMutability": "view",
      "type": "function"
    },
    {
      "inputs": [
        {
          "internalType": "uint256",
          "name": "tokenId",
          "type": "uint256"
        }
      ],
      "name": "getKyodaiAlliance",
      "outputs": [
        {
          "internalType": "uint8",
          "name": "",
          "type": "uint8"
        }
      ],
      "stateMutability": "view",
      "type": "function"
    },
    {
      "inputs": [
        {
          "internalType": "uint256[]",
          "name": "tokenIds",
          "type": "uint256[]"
        }
      ],
      "name": "getManyKyodai",
      "outputs": [
        {
          "internalType": "uint256[]",
          "name": "_kyodais",
          "type": "uint256[]"
        }
      ],
      "stateMutability": "view",
      "type": "function"
    },
    {
      "inputs": [
        {
          "internalType": "address",
          "name": "_endpoint",
          "type": "address"
        }
      ],
      "name": "init",
      "outputs": [],
      "stateMutability": "nonpayable",
      "type": "function"
    },
    {
      "inputs": [
        {
          "internalType": "address",
          "name": "owner",
          "type": "address"
        },
        {
          "internalType": "address",
          "name": "operator",
          "type": "address"
        }
      ],
      "name": "isApprovedForAll",
      "outputs": [
        {
          "internalType": "bool",
          "name": "",
          "type": "bool"
        }
      ],
      "stateMutability": "view",
      "type": "function"
    },
    {
      "inputs": [
        {
          "internalType": "uint256",
          "name": "",
          "type": "uint256"
        }
      ],
      "name": "kyodais",
      "outputs": [
        {
          "internalType": "uint256",
          "name": "",
          "type": "uint256"
        }
      ],
      "stateMutability": "view",
      "type": "function"
    },
    {
      "inputs": [
        {
          "internalType": "uint16",
          "name": "_srcChainId",
          "type": "uint16"
        },
        {
          "internalType": "bytes",
          "name": "_srcAddress",
          "type": "bytes"
        },
        {
          "internalType": "uint64",
          "name": "_nonce",
          "type": "uint64"
        },
        {
          "internalType": "bytes",
          "name": "_payload",
          "type": "bytes"
        }
      ],
      "name": "lzReceive",
      "outputs": [],
      "stateMutability": "nonpayable",
      "type": "function"
    },
    {
      "inputs": [],
      "name": "name",
      "outputs": [
        {
          "internalType": "string",
          "name": "",
          "type": "string"
        }
      ],
      "stateMutability": "view",
      "type": "function"
    },
    {
      "inputs": [
        {
          "internalType": "uint256",
          "name": "",
          "type": "uint256"
        }
      ],
      "name": "officialAddys",
      "outputs": [
        {
          "internalType": "address",
          "name": "",
          "type": "address"
        }
      ],
      "stateMutability": "view",
      "type": "function"
    },
    {
      "inputs": [
        {
          "internalType": "uint16",
          "name": "_srcChainId",
          "type": "uint16"
        },
        {
          "internalType": "bytes",
          "name": "_srcAddress",
          "type": "bytes"
        },
        {
          "internalType": "uint64",
          "name": "_nonce",
          "type": "uint64"
        },
        {
          "internalType": "bytes",
          "name": "_payload",
          "type": "bytes"
        }
      ],
      "name": "onLzReceive",
      "outputs": [],
      "stateMutability": "nonpayable",
      "type": "function"
    },
    {
      "inputs": [],
      "name": "owner",
      "outputs": [
        {
          "internalType": "address",
          "name": "",
          "type": "address"
        }
      ],
      "stateMutability": "view",
      "type": "function"
    },
    {
      "inputs": [
        {
          "internalType": "uint256",
          "name": "tokenId",
          "type": "uint256"
        }
      ],
      "name": "ownerOf",
      "outputs": [
        {
          "internalType": "address",
          "name": "",
          "type": "address"
        }
      ],
      "stateMutability": "view",
      "type": "function"
    },
    {
      "inputs": [],
      "name": "proxiableUUID",
      "outputs": [
        {
          "internalType": "bytes32",
          "name": "",
          "type": "bytes32"
        }
      ],
      "stateMutability": "view",
      "type": "function"
    },
    {
      "inputs": [],
      "name": "renounceOwnership",
      "outputs": [],
      "stateMutability": "nonpayable",
      "type": "function"
    },
    {
      "inputs": [
        {
          "internalType": "uint16",
          "name": "_srcChainId",
          "type": "uint16"
        },
        {
          "internalType": "bytes",
          "name": "_srcAddress",
          "type": "bytes"
        },
        {
          "internalType": "uint64",
          "name": "_nonce",
          "type": "uint64"
        },
        {
          "internalType": "bytes",
          "name": "_payload",
          "type": "bytes"
        }
      ],
      "name": "retryMessage",
      "outputs": [],
      "stateMutability": "payable",
      "type": "function"
    },
    {
      "inputs": [
        {
          "internalType": "uint256",
          "name": "tokenId",
          "type": "uint256"
        },
        {
          "internalType": "uint256",
          "name": "salePrice",
          "type": "uint256"
        }
      ],
      "name": "royaltyInfo",
      "outputs": [
        {
          "internalType": "address",
          "name": "",
          "type": "address"
        },
        {
          "internalType": "uint256",
          "name": "",
          "type": "uint256"
        }
      ],
      "stateMutability": "view",
      "type": "function"
    },
    {
      "inputs": [
        {
          "internalType": "address",
          "name": "from",
          "type": "address"
        },
        {
          "internalType": "address",
          "name": "to",
          "type": "address"
        },
        {
          "internalType": "uint256",
          "name": "tokenId",
          "type": "uint256"
        }
      ],
      "name": "safeTransferFrom",
      "outputs": [],
      "stateMutability": "nonpayable",
      "type": "function"
    },
    {
      "inputs": [
        {
          "internalType": "address",
          "name": "from",
          "type": "address"
        },
        {
          "internalType": "address",
          "name": "to",
          "type": "address"
        },
        {
          "internalType": "uint256",
          "name": "tokenId",
          "type": "uint256"
        },
        {
          "internalType": "bytes",
          "name": "data",
          "type": "bytes"
        }
      ],
      "name": "safeTransferFrom",
      "outputs": [],
      "stateMutability": "nonpayable",
      "type": "function"
    },
    {
      "inputs": [
        {
          "internalType": "address",
          "name": "operator",
          "type": "address"
        },
        {
          "internalType": "bool",
          "name": "approved",
          "type": "bool"
        }
      ],
      "name": "setApprovalForAll",
      "outputs": [],
      "stateMutability": "nonpayable",
      "type": "function"
    },
    {
      "inputs": [
        {
          "internalType": "address",
          "name": "receiver",
          "type": "address"
        },
        {
          "internalType": "uint96",
          "name": "feeNumerator",
          "type": "uint96"
        }
      ],
      "name": "setDefaultRoyalty",
      "outputs": [],
      "stateMutability": "nonpayable",
      "type": "function"
    },
    {
      "inputs": [
        {
          "internalType": "uint256",
          "name": "newVal",
          "type": "uint256"
        }
      ],
      "name": "setGasForDestinationLzReceive",
      "outputs": [],
      "stateMutability": "nonpayable",
      "type": "function"
    },
    {
      "inputs": [
        {
          "internalType": "address",
          "name": "_lzEndpoint",
          "type": "address"
        }
      ],
      "name": "setLzEndpoint",
      "outputs": [],
      "stateMutability": "nonpayable",
      "type": "function"
    },
    {
      "inputs": [
        {
          "internalType": "uint256",
          "name": "index",
          "type": "uint256"
        },
        {
          "internalType": "address",
          "name": "newAddy",
          "type": "address"
        }
      ],
      "name": "setNewAddy",
      "outputs": [],
      "stateMutability": "nonpayable",
      "type": "function"
    },
    {
      "inputs": [
        {
          "internalType": "uint16",
          "name": "_chainId",
          "type": "uint16"
        },
        {
          "internalType": "bytes",
          "name": "_trustedRemote",
          "type": "bytes"
        }
      ],
      "name": "setTrustedRemote",
      "outputs": [],
      "stateMutability": "nonpayable",
      "type": "function"
    },
    {
      "inputs": [
        {
          "internalType": "uint256",
          "name": "",
          "type": "uint256"
        }
      ],
      "name": "supplyPerClass",
      "outputs": [
        {
          "internalType": "uint256",
          "name": "",
          "type": "uint256"
        }
      ],
      "stateMutability": "view",
      "type": "function"
    },
    {
      "inputs": [
        {
          "internalType": "bytes4",
          "name": "interfaceId",
          "type": "bytes4"
        }
      ],
      "name": "supportsInterface",
      "outputs": [
        {
          "internalType": "bool",
          "name": "",
          "type": "bool"
        }
      ],
      "stateMutability": "view",
      "type": "function"
    },
    {
      "inputs": [],
      "name": "symbol",
      "outputs": [
        {
          "internalType": "string",
          "name": "",
          "type": "string"
        }
      ],
      "stateMutability": "view",
      "type": "function"
    },
    {
      "inputs": [
        {
          "internalType": "uint256",
          "name": "_tokenId",
          "type": "uint256"
        }
      ],
      "name": "tokenURI",
      "outputs": [
        {
          "internalType": "string",
          "name": "",
          "type": "string"
        }
      ],
      "stateMutability": "view",
      "type": "function"
    },
    {
      "inputs": [],
      "name": "totalSupply",
      "outputs": [
        {
          "internalType": "uint256",
          "name": "_supply",
          "type": "uint256"
        }
      ],
      "stateMutability": "view",
      "type": "function"
    },
    {
      "inputs": [
        {
          "internalType": "address",
          "name": "from",
          "type": "address"
        },
        {
          "internalType": "address",
          "name": "to",
          "type": "address"
        },
        {
          "internalType": "uint256",
          "name": "tokenId",
          "type": "uint256"
        }
      ],
      "name": "transferFrom",
      "outputs": [],
      "stateMutability": "nonpayable",
      "type": "function"
    },
    {
      "inputs": [
        {
          "internalType": "address",
          "name": "newOwner",
          "type": "address"
        }
      ],
      "name": "transferOwnership",
      "outputs": [],
      "stateMutability": "nonpayable",
      "type": "function"
    },
    {
      "inputs": [
        {
          "internalType": "uint16",
          "name": "_chainId",
          "type": "uint16"
        },
        {
          "internalType": "uint256",
          "name": "tokenId",
          "type": "uint256"
        }
      ],
      "name": "traverseChains",
      "outputs": [],
      "stateMutability": "payable",
      "type": "function"
    },
    {
      "inputs": [
        {
          "internalType": "uint16",
          "name": "",
          "type": "uint16"
        }
      ],
      "name": "trustedRemoteLookup",
      "outputs": [
        {
          "internalType": "bytes",
          "name": "",
          "type": "bytes"
        }
      ],
      "stateMutability": "view",
      "type": "function"
    },
    {
      "inputs": [
        {
          "internalType": "address",
          "name": "newImplementation",
          "type": "address"
        }
      ],
      "name": "upgradeTo",
      "outputs": [],
      "stateMutability": "nonpayable",
      "type": "function"
    },
    {
      "inputs": [
        {
          "internalType": "address",
          "name": "newImplementation",
          "type": "address"
        },
        {
          "internalType": "bytes",
          "name": "data",
          "type": "bytes"
        }
      ],
      "name": "upgradeToAndCall",
      "outputs": [],
      "stateMutability": "payable",
      "type": "function"
    },
    {
      "inputs": [],
      "name": "withdraw",
      "outputs": [],
      "stateMutability": "nonpayable",
      "type": "function"
    }
  ],
  "bytecode": "0x60a06040523060805234801561001457600080fd5b50608051613fac61004c60003960008181610fe50152818161102501528181611195015281816111d501526112640152613fac6000f3fe60806040526004361061027c5760003560e01c8063846fd1b71161014f578063cacc420f116100c1578063e985e9c51161007a578063e985e9c51461087e578063eb8d72b71461089e578063ed102eae146108be578063f04678981461091e578063f2fde38b14610960578063fcd3533c1461098057600080fd5b8063cacc420f146107ca578063cf89fa03146107ea578063d1deba1f146107fd578063d669775214610810578063d9331a111461083e578063e5e01c111461085e57600080fd5b80639bb021ac116101135780639bb021ac146106f0578063a22cb4651461071d578063b218d3111461073d578063b88d4fde1461076a578063bc91878d1461078a578063c87b56dd146107aa57600080fd5b8063846fd1b7146106055780638da5cb5b146106325780638ee7491214610650578063943fb872146106bb57806395d89b41146106db57600080fd5b80632a55205a116101f357806352d1902d116101ac57806352d1902d146105005780635d1b2bb8146105155780636352211e1461059057806370a08231146105b0578063715018a6146105d05780637533d788146105e557600080fd5b80632a55205a146104225780633132aba4146104615780633659cfe6146104985780633ccfd60b146104b857806342842e0e146104cd5780634f1ef286146104ed57600080fd5b8063095ea7b311610245578063095ea7b3146103525780630d1657e81461037257806318160ddd146103ad57806319ab453c146103c25780631c37a822146103e257806323b872dd1461040257600080fd5b80621d35671461028157806301ffc9a7146102a357806304634d8d146102d857806306fdde03146102f8578063081812fc1461031a575b600080fd5b34801561028d57600080fd5b506102a161029c3660046130b8565b6109a0565b005b3480156102af57600080fd5b506102c36102be366004613152565b610b9a565b60405190151581526020015b60405180910390f35b3480156102e457600080fd5b506102a16102f3366004613184565b610bab565b34801561030457600080fd5b5061030d610bc1565b6040516102cf9190613219565b34801561032657600080fd5b5061033a61033536600461322c565b610c53565b6040516001600160a01b0390911681526020016102cf565b34801561035e57600080fd5b506102a161036d366004613245565b610c7a565b34801561037e57600080fd5b5061039f61038d36600461322c565b60d06020526000908152604090205481565b6040519081526020016102cf565b3480156103b957600080fd5b5061039f610c93565b3480156103ce57600080fd5b506102a16103dd366004613271565b610cc8565b3480156103ee57600080fd5b506102a16103fd3660046130b8565b610e66565b34801561040e57600080fd5b506102a161041d36600461328e565b610ed5565b34801561042e57600080fd5b5061044261043d3660046132cf565b610f2d565b604080516001600160a01b0390931683526020830191909152016102cf565b34801561046d57600080fd5b5061033a61047c36600461322c565b610168602052600090815260409020546001600160a01b031681565b3480156104a457600080fd5b506102a16104b3366004613271565b610fdb565b3480156104c457600080fd5b506102a16110ba565b3480156104d957600080fd5b506102a16104e836600461328e565b611133565b6102a16104fb3660046132f1565b61118b565b34801561050c57600080fd5b5061039f611257565b34801561052157600080fd5b5061056061053036600461322c565b600090815260cf6020526040902054606081901b9160c082901c9161ffff60b082901c81169260a09290921c1690565b604080516bffffffffffffffffffffffff19909516855260208501939093529183015260608201526080016102cf565b34801561059c57600080fd5b5061033a6105ab36600461322c565b61130a565b3480156105bc57600080fd5b5061039f6105cb366004613271565b611315565b3480156105dc57600080fd5b506102a161139b565b3480156105f157600080fd5b5061030d610600366004613340565b6113af565b34801561061157600080fd5b5061039f61062036600461322c565b600090815260cf602052604090205490565b34801561063e57600080fd5b506097546001600160a01b031661033a565b34801561065c57600080fd5b506106a661066b36600461335b565b60ca60209081526000938452604080852084518086018401805192815290840195840195909520945292905282529020805460019091015482565b604080519283526020830191909152016102cf565b3480156106c757600080fd5b506102a16106d636600461322c565b611449565b3480156106e757600080fd5b5061030d611456565b3480156106fc57600080fd5b5061071061070b3660046133b1565b611465565b6040516102cf9190613425565b34801561072957600080fd5b506102a1610738366004613477565b6114d2565b34801561074957600080fd5b5061039f61075836600461322c565b60cf6020526000908152604090205481565b34801561077657600080fd5b506102a16107853660046134a5565b6114e6565b34801561079657600080fd5b506102a16107a536600461322c565b611546565b3480156107b657600080fd5b5061030d6107c536600461322c565b6115cc565b3480156107d657600080fd5b506102a16107e5366004613504565b6116c9565b6102a16107f8366004613529565b611700565b6102a161080b366004613586565b6119f0565b34801561081c57600080fd5b5061039f61082b36600461322c565b6101676020526000908152604090205481565b34801561084a57600080fd5b506102a1610859366004613271565b611b7d565b34801561086a57600080fd5b506102a1610879366004613611565b611ba7565b34801561088a57600080fd5b506102c3610899366004613652565b611bbc565b3480156108aa57600080fd5b506102a16108b9366004613680565b611bea565b3480156108ca57600080fd5b506108f76108d936600461322c565b600090815260d060205260409020549060a082901c9060a883901c90565b604080516001600160a01b03909416845260ff9092166020840152908201526060016102cf565b34801561092a57600080fd5b5061094e61093936600461322c565b600090815260cf602052604090205460c01c90565b60405160ff90911681526020016102cf565b34801561096c57600080fd5b506102a161097b366004613271565b611c10565b34801561098c57600080fd5b506102a161099b366004613504565b611c86565b60c9546001600160a01b031633146109b757600080fd5b61ffff8416600090815260cb6020526040902080546109d5906136d2565b90508351148015610a14575061ffff8416600090815260cb6020526040908190209051610a02919061370c565b60405180910390208380519060200120145b610a825760405162461bcd60e51b815260206004820152603460248201527f4e6f6e626c6f636b696e6752656365697665723a20696e76616c696420736f756044820152731c98d9481cd95b991a5b99c818dbdb9d1c9858dd60621b60648201526084015b60405180910390fd5b604051630e1bd41160e11b81523090631c37a82290610aab908790879087908790600401613782565b600060405180830381600087803b158015610ac557600080fd5b505af1925050508015610ad6575060015b610b9457604051806040016040528082518152602001828051906020012081525060ca60008661ffff1661ffff16815260200190815260200160002084604051610b2091906137cb565b9081526040805191829003602090810183206001600160401b038716600090815290825291909120835181559201516001909201919091557fe6f254030bcb01ffd20558175c13fcaed6d1520be7becee4c961b65f79243b0d90610b8b908690869086908690613782565b60405180910390a15b50505050565b6000610ba582611d09565b92915050565b610bb3611d2e565b610bbd8282611d88565b5050565b606060658054610bd0906136d2565b80601f0160208091040260200160405190810160405280929190818152602001828054610bfc906136d2565b8015610c495780601f10610c1e57610100808354040283529160200191610c49565b820191906000526020600020905b815481529060010190602001808311610c2c57829003601f168201915b5050505050905090565b6000610c5e82611e85565b506000908152606960205260409020546001600160a01b031690565b81610c8481611ee4565b610c8e8383611f9d565b505050565b6000805b6003811015610cc45760008181526101676020526040902054610cba90836137fd565b9150600101610c97565b5090565b600054610100900460ff1615808015610ce85750600054600160ff909116105b80610d025750303b158015610d02575060005460ff166001145b610d655760405162461bcd60e51b815260206004820152602e60248201527f496e697469616c697a61626c653a20636f6e747261637420697320616c72656160448201526d191e481a5b9a5d1a585b1a5e995960921b6064820152608401610a79565b6000805460ff191660011790558015610d88576000805461ff0019166101001790555b610dd36040518060400160405280600b81526020016a437962657253686174656960a81b8152506040518060400160405280600681526020016553484154454960d01b8152506120ad565b610ddb612102565b610dfa733cc6cdda760b79bafa08df41ecfa224f810dceb66001612131565b610e026122d8565b60c980546001600160a01b0319166001600160a01b0384161790558015610bbd576000805461ff0019169055604051600181527f7f26b83ff96e1f2b6a682f133852f6798a09c465da95921460cefb38474024989060200160405180910390a15050565b333014610ec95760405162461bcd60e51b815260206004820152602b60248201527f4e6f6e626c6f636b696e6752656365697665723a2063616c6c6572206d75737460448201526a10313290213934b233b29760a91b6064820152608401610a79565b610b94848484846122ff565b826001600160a01b0381163314610eef57610eef33611ee4565b600082815260d0602052604090205460a01c60ff1615610f2257604051635a8181f760e01b815260040160405180910390fd5b610b9484848461236f565b600082815260d2602090815260408083208151808301909252546001600160a01b038116808352600160a01b9091046001600160601b0316928201929092528291610fa257506040805180820190915260d1546001600160a01b0381168252600160a01b90046001600160601b031660208201525b602081015160009061271090610fc1906001600160601b031687613810565b610fcb9190613827565b91519350909150505b9250929050565b6001600160a01b037f00000000000000000000000000000000000000000000000000000000000000001630036110235760405162461bcd60e51b8152600401610a7990613849565b7f00000000000000000000000000000000000000000000000000000000000000006001600160a01b031661106c600080516020613f30833981519152546001600160a01b031690565b6001600160a01b0316146110925760405162461bcd60e51b8152600401610a7990613895565b61109b816123a0565b604080516000808252602082019092526110b7918391906123a8565b50565b6110c2611d2e565b60006110d66097546001600160a01b031690565b6001600160a01b03164760405160006040518083038185875af1925050503d8060008114611120576040519150601f19603f3d011682016040523d82523d6000602084013e611125565b606091505b50509050806110b757600080fd5b826001600160a01b038116331461114d5761114d33611ee4565b600082815260d0602052604090205460a01c60ff161561118057604051635a8181f760e01b815260040160405180910390fd5b610b94848484612513565b6001600160a01b037f00000000000000000000000000000000000000000000000000000000000000001630036111d35760405162461bcd60e51b8152600401610a7990613849565b7f00000000000000000000000000000000000000000000000000000000000000006001600160a01b031661121c600080516020613f30833981519152546001600160a01b031690565b6001600160a01b0316146112425760405162461bcd60e51b8152600401610a7990613895565b61124b826123a0565b610bbd828260016123a8565b6000306001600160a01b037f000000000000000000000000000000000000000000000000000000000000000016146112f75760405162461bcd60e51b815260206004820152603860248201527f555550535570677261646561626c653a206d757374206e6f742062652063616c60448201527f6c6564207468726f7567682064656c656761746563616c6c00000000000000006064820152608401610a79565b50600080516020613f3083398151915290565b6000610ba58261252e565b60006001600160a01b03821661137f5760405162461bcd60e51b815260206004820152602960248201527f4552433732313a2061646472657373207a65726f206973206e6f7420612076616044820152683634b21037bbb732b960b91b6064820152608401610a79565b506001600160a01b031660009081526068602052604090205490565b6113a3611d2e565b6113ad600061258e565b565b60cb60205260009081526040902080546113c8906136d2565b80601f01602080910402602001604051908101604052809291908181526020018280546113f4906136d2565b80156114415780601f1061141657610100808354040283529160200191611441565b820191906000526020600020905b81548152906001019060200180831161142457829003601f168201915b505050505081565b611451611d2e565b60cc55565b606060668054610bd0906136d2565b606060005b828110156114cb5760cf6000858584818110611488576114886138e1565b905060200201358152602001908152602001600020548282815181106114b0576114b06138e1565b60209081029190910101526114c4816138f7565b905061146a565b5092915050565b816114dc81611ee4565b610c8e83836125e0565b836001600160a01b03811633146115005761150033611ee4565b600083815260d0602052604090205460a01c60ff161561153357604051635a8181f760e01b815260040160405180910390fd5b61153f858585856125eb565b5050505050565b61154e611d2e565b600081815260d060205260408120549060ff60a083901c1690036115aa5760405162461bcd60e51b81526020600482015260136024820152721d1bdad95b881a5cc81b9bdd081b1bd8dad959606a1b6044820152606401610a79565b6115b63060004261261d565b600092835260d060205260409092209190915550565b6000818152606760205260409020546060906001600160a01b03166115f057600080fd5b600082815260cf602090815260408083205460019093526101689091527fa61eecd4b1d33377199f79b828fac3a72ed4eaaf0d15384845cec0d6a715e90554905163ce3927db60e01b8152606083901b9260c081901c9260b09190911c61ffff16916001600160a01b039091169063ce3927db9061167b90889087908790879060cd90600401613910565b600060405180830381865afa158015611698573d6000803e3d6000fd5b505050506040513d6000823e601f3d908101601f191682016040526116c091908101906139c2565b95945050505050565b6116d1611d2e565b6000918252610168602052604090912080546001600160a01b0319166001600160a01b03909216919091179055565b33818161170c8261130a565b6001600160a01b0316146117555760405162461bcd60e51b815260206004820152601060248201526f1ade5bd9185a481b9bdd081bdddb995960821b6044820152606401610a79565b600083815260d0602052604090205460a01c60ff161561178857604051635a8181f760e01b815260040160405180910390fd5b61ffff8416600090815260cb6020526040812080546117a6906136d2565b80601f01602080910402602001604051908101604052809291908181526020018280546117d2906136d2565b801561181f5780601f106117f45761010080835404028352916020019161181f565b820191906000526020600020905b81548152906001019060200180831161180257829003601f168201915b5050505050905080516000036118485760405163ac6b05f560e01b815260040160405180910390fd5b60c954611860906001600160a01b031660014261261d565b600085815260d0602090815260408083209390935560cf8152828220548351339281019290925292810187905260608101929092529060800160408051601f198184030181529082905260cc54600160f01b60208401526022830152915060019060009060420160408051601f198184030181529082905260c95463040a7bb160e41b83529092506000916001600160a01b03909116906340a7bb1090611913908c903090899087908990600401613a2f565b6040805180830381865afa15801561192f573d6000803e3d6000fd5b505050506040513d601f19601f820116820180604052508101906119539190613a83565b50905080341015611977576040516369dd640160e01b815260040160405180910390fd5b60c95460405162c5803160e81b81526001600160a01b039091169063c58031009034906119b3908d908a908a9033906000908b90600401613aa7565b6000604051808303818588803b1580156119cc57600080fd5b505af11580156119e0573d6000803e3d6000fd5b5050505050505050505050505050565b61ffff8516600090815260ca60205260408082209051611a119087906137cb565b90815260408051602092819003830190206001600160401b0387166000908152925290206001810154909150611a985760405162461bcd60e51b815260206004820152602660248201527f4e6f6e626c6f636b696e6752656365697665723a206e6f2073746f726564206d60448201526565737361676560d01b6064820152608401610a79565b805482148015611ac2575080600101548383604051611ab8929190613b0e565b6040518091039020145b611b0e5760405162461bcd60e51b815260206004820152601a60248201527f4c617965725a65726f3a20696e76616c6964207061796c6f61640000000000006044820152606401610a79565b60008082556001820155604051630e1bd41160e11b81523090631c37a82290611b439089908990899089908990600401613b1e565b600060405180830381600087803b158015611b5d57600080fd5b505af1158015611b71573d6000803e3d6000fd5b50505050505050505050565b611b85611d2e565b60c980546001600160a01b0319166001600160a01b0392909216919091179055565b611baf611d2e565b60cd610c8e828483613bc5565b6001600160a01b039182166000908152606a6020908152604080832093909416825291909152205460ff1690565b611bf2611d2e565b61ffff8316600090815260cb60205260409020610b94828483613bc5565b611c18611d2e565b6001600160a01b038116611c7d5760405162461bcd60e51b815260206004820152602660248201527f4f776e61626c653a206e6577206f776e657220697320746865207a65726f206160448201526564647265737360d01b6064820152608401610a79565b6110b78161258e565b8082816001600160a01b0316611c9b8261130a565b6001600160a01b031614611ce45760405162461bcd60e51b815260206004820152601060248201526f1ade5bd9185a481b9bdd081bdddb995960821b6044820152606401610a79565b600084815260cf6020908152604080832083905560d0909152812055610b9484612640565b60006001600160e01b0319821663152a902d60e11b1480610ba55750610ba5826126d5565b6097546001600160a01b031633146113ad5760405162461bcd60e51b815260206004820181905260248201527f4f776e61626c653a2063616c6c6572206973206e6f7420746865206f776e65726044820152606401610a79565b6127106001600160601b0382161115611df65760405162461bcd60e51b815260206004820152602a60248201527f455243323938313a20726f79616c7479206665652077696c6c206578636565646044820152692073616c65507269636560b01b6064820152608401610a79565b6001600160a01b038216611e4c5760405162461bcd60e51b815260206004820152601960248201527f455243323938313a20696e76616c6964207265636569766572000000000000006044820152606401610a79565b604080518082019091526001600160a01b039092168083526001600160601b039091166020909201829052600160a01b9091021760d155565b6000818152606760205260409020546001600160a01b03166110b75760405162461bcd60e51b8152602060048201526018602482015277115490cdcc8c4e881a5b9d985b1a59081d1bdad95b88125160421b6044820152606401610a79565b6daaeb6d7670e522a718067333cd4e3b156110b757604051633185c44d60e21b81523060048201526001600160a01b03821660248201526daaeb6d7670e522a718067333cd4e9063c617113490604401602060405180830381865afa158015611f51573d6000803e3d6000fd5b505050506040513d601f19601f82011682018060405250810190611f759190613c84565b6110b757604051633b79c77360e21b81526001600160a01b0382166004820152602401610a79565b6000611fa88261252e565b9050806001600160a01b0316836001600160a01b0316036120155760405162461bcd60e51b815260206004820152602160248201527f4552433732313a20617070726f76616c20746f2063757272656e74206f776e656044820152603960f91b6064820152608401610a79565b336001600160a01b038216148061203157506120318133611bbc565b6120a35760405162461bcd60e51b815260206004820152603d60248201527f4552433732313a20617070726f76652063616c6c6572206973206e6f7420746f60448201527f6b656e206f776e6572206f7220617070726f76656420666f7220616c6c0000006064820152608401610a79565b610c8e8383612725565b600054610100900460ff166120d45760405162461bcd60e51b8152600401610a7990613ca1565b60408051602081019091526000815260cd906120f09082613cec565b506205573060cc55610bbd8282612793565b600054610100900460ff166121295760405162461bcd60e51b8152600401610a7990613ca1565b6113ad6127c4565b600054610100900460ff166121585760405162461bcd60e51b8152600401610a7990613ca1565b6daaeb6d7670e522a718067333cd4e3b15610bbd5760405163c3c5a54760e01b81523060048201526daaeb6d7670e522a718067333cd4e9063c3c5a547906024016020604051808303816000875af11580156121b8573d6000803e3d6000fd5b505050506040513d601f19601f820116820180604052508101906121dc9190613c84565b610bbd57801561225857604051633e9f1edf60e11b81523060048201526001600160a01b03831660248201526daaeb6d7670e522a718067333cd4e90637d3e3dbe906044015b600060405180830381600087803b15801561223c57600080fd5b505af1158015612250573d6000803e3d6000fd5b505050505050565b6001600160a01b038216156122a75760405163a0af290360e01b81523060048201526001600160a01b03831660248201526daaeb6d7670e522a718067333cd4e9063a0af290390604401612222565b604051632210724360e11b81523060048201526daaeb6d7670e522a718067333cd4e90634420e48690602401612222565b600054610100900460ff166113ad5760405162461bcd60e51b8152600401610a7990613ca1565b6000806000838060200190518101906123189190613dab565b92509250925061232a3060004261261d565b600083815260d0602090815260408083209390935560cf81528282208490556067905220546001600160a01b03166123665761236683836127f4565b50505050505050565b612379338261297f565b6123955760405162461bcd60e51b8152600401610a7990613de2565b610c8e8383836129de565b6110b7611d2e565b7f4910fdfa16fed3260ed0e7147f7cc6da11a60208b5b9406d12a635614ffd91435460ff16156123db57610c8e83612b42565b826001600160a01b03166352d1902d6040518163ffffffff1660e01b8152600401602060405180830381865afa925050508015612435575060408051601f3d908101601f1916820190925261243291810190613e2f565b60015b6124985760405162461bcd60e51b815260206004820152602e60248201527f45524331393637557067726164653a206e657720696d706c656d656e7461746960448201526d6f6e206973206e6f74205555505360901b6064820152608401610a79565b600080516020613f3083398151915281146125075760405162461bcd60e51b815260206004820152602960248201527f45524331393637557067726164653a20756e737570706f727465642070726f786044820152681a58589b195555525160ba1b6064820152608401610a79565b50610c8e838383612bde565b610c8e838383604051806020016040528060008152506114e6565b6000818152606760205260408120546001600160a01b031680610ba55760405162461bcd60e51b8152602060048201526018602482015277115490cdcc8c4e881a5b9d985b1a59081d1bdad95b88125160421b6044820152606401610a79565b609780546001600160a01b038381166001600160a01b0319831681179093556040519116919082907f8be0079c531659141344cd1fd0a4f28419497f9722a3daafe3b4186f6b6457e090600090a35050565b610bbd338383612c03565b6125f5338361297f565b6126115760405162461bcd60e51b8152600401610a7990613de2565b610b9484848484612cd1565b6001600160a01b039290921660a09190911b60ff60a01b161760a89190911b1790565b600061264b8261252e565b90506126568261252e565b600083815260696020908152604080832080546001600160a01b03199081169091556001600160a01b0385168085526068845282852080546000190190558785526067909352818420805490911690555192935084927fddf252ad1be2c89b69c2b068fc378daa952ba7f163c4a11628f55a4df523b3ef908390a45050565b60006001600160e01b031982166380ac58cd60e01b148061270657506001600160e01b03198216635b5e139f60e01b145b80610ba557506301ffc9a760e01b6001600160e01b0319831614610ba5565b600081815260696020526040902080546001600160a01b0319166001600160a01b038416908117909155819061275a8261252e565b6001600160a01b03167f8c5be1e5ebec7d5bd14f71427d1e84f3dd0314c0f7b2291e5b200ac8c7c3b92560405160405180910390a45050565b600054610100900460ff166127ba5760405162461bcd60e51b8152600401610a7990613ca1565b610bbd8282612d04565b600054610100900460ff166127eb5760405162461bcd60e51b8152600401610a7990613ca1565b6113ad3361258e565b6001600160a01b03821661284a5760405162461bcd60e51b815260206004820181905260248201527f4552433732313a206d696e7420746f20746865207a65726f20616464726573736044820152606401610a79565b6000818152606760205260409020546001600160a01b0316156128af5760405162461bcd60e51b815260206004820152601c60248201527f4552433732313a20746f6b656e20616c7265616479206d696e746564000000006044820152606401610a79565b6000818152606760205260409020546001600160a01b0316156129145760405162461bcd60e51b815260206004820152601c60248201527f4552433732313a20746f6b656e20616c7265616479206d696e746564000000006044820152606401610a79565b6001600160a01b038216600081815260686020908152604080832080546001019055848352606790915280822080546001600160a01b0319168417905551839291907fddf252ad1be2c89b69c2b068fc378daa952ba7f163c4a11628f55a4df523b3ef908290a45050565b60008061298b8361252e565b9050806001600160a01b0316846001600160a01b031614806129b257506129b28185611bbc565b806129d65750836001600160a01b03166129cb84610c53565b6001600160a01b0316145b949350505050565b826001600160a01b03166129f18261252e565b6001600160a01b031614612a175760405162461bcd60e51b8152600401610a7990613e48565b6001600160a01b038216612a795760405162461bcd60e51b8152602060048201526024808201527f4552433732313a207472616e7366657220746f20746865207a65726f206164646044820152637265737360e01b6064820152608401610a79565b826001600160a01b0316612a8c8261252e565b6001600160a01b031614612ab25760405162461bcd60e51b8152600401610a7990613e48565b600081815260696020908152604080832080546001600160a01b03199081169091556001600160a01b0387811680865260688552838620805460001901905590871680865283862080546001019055868652606790945282852080549092168417909155905184937fddf252ad1be2c89b69c2b068fc378daa952ba7f163c4a11628f55a4df523b3ef91a4505050565b6001600160a01b0381163b612baf5760405162461bcd60e51b815260206004820152602d60248201527f455243313936373a206e657720696d706c656d656e746174696f6e206973206e60448201526c1bdd08184818dbdb9d1c9858dd609a1b6064820152608401610a79565b600080516020613f3083398151915280546001600160a01b0319166001600160a01b0392909216919091179055565b612be783612d44565b600082511180612bf45750805b15610c8e57610b948383612d84565b816001600160a01b0316836001600160a01b031603612c645760405162461bcd60e51b815260206004820152601960248201527f4552433732313a20617070726f766520746f2063616c6c6572000000000000006044820152606401610a79565b6001600160a01b038381166000818152606a6020908152604080832094871680845294825291829020805460ff191686151590811790915591519182527f17307eab39ab6107e8899845ad3d59bd9653f200f220920489ca2b5937696c31910160405180910390a3505050565b612cdc8484846129de565b612ce884848484612db0565b610b945760405162461bcd60e51b8152600401610a7990613e8d565b600054610100900460ff16612d2b5760405162461bcd60e51b8152600401610a7990613ca1565b6065612d378382613cec565b506066610c8e8282613cec565b612d4d81612b42565b6040516001600160a01b038216907fbc7cd75a20ee27fd9adebab32041f755214dbc6bffa90cc0225b39da2e5c2d3b90600090a250565b6060612da98383604051806060016040528060278152602001613f5060279139612eb1565b9392505050565b60006001600160a01b0384163b15612ea657604051630a85bd0160e11b81526001600160a01b0385169063150b7a0290612df4903390899088908890600401613edf565b6020604051808303816000875af1925050508015612e2f575060408051601f3d908101601f19168201909252612e2c91810190613f12565b60015b612e8c573d808015612e5d576040519150601f19603f3d011682016040523d82523d6000602084013e612e62565b606091505b508051600003612e845760405162461bcd60e51b8152600401610a7990613e8d565b805181602001fd5b6001600160e01b031916630a85bd0160e11b1490506129d6565b506001949350505050565b6060600080856001600160a01b031685604051612ece91906137cb565b600060405180830381855af49150503d8060008114612f09576040519150601f19603f3d011682016040523d82523d6000602084013e612f0e565b606091505b5091509150612f1f86838387612f29565b9695505050505050565b60608315612f98578251600003612f91576001600160a01b0385163b612f915760405162461bcd60e51b815260206004820152601d60248201527f416464726573733a2063616c6c20746f206e6f6e2d636f6e74726163740000006044820152606401610a79565b50816129d6565b6129d68383815115612fad5781518083602001fd5b8060405162461bcd60e51b8152600401610a799190613219565b803561ffff81168114612fd957600080fd5b919050565b634e487b7160e01b600052604160045260246000fd5b604051601f8201601f191681016001600160401b038111828210171561301c5761301c612fde565b604052919050565b60006001600160401b0382111561303d5761303d612fde565b50601f01601f191660200190565b600082601f83011261305c57600080fd5b813561306f61306a82613024565b612ff4565b81815284602083860101111561308457600080fd5b816020850160208301376000918101602001919091529392505050565b80356001600160401b0381168114612fd957600080fd5b600080600080608085870312156130ce57600080fd5b6130d785612fc7565b935060208501356001600160401b03808211156130f357600080fd5b6130ff8883890161304b565b945061310d604088016130a1565b9350606087013591508082111561312357600080fd5b506131308782880161304b565b91505092959194509250565b6001600160e01b0319811681146110b757600080fd5b60006020828403121561316457600080fd5b8135612da98161313c565b6001600160a01b03811681146110b757600080fd5b6000806040838503121561319757600080fd5b82356131a28161316f565b915060208301356001600160601b03811681146131be57600080fd5b809150509250929050565b60005b838110156131e45781810151838201526020016131cc565b50506000910152565b600081518084526132058160208601602086016131c9565b601f01601f19169290920160200192915050565b602081526000612da960208301846131ed565b60006020828403121561323e57600080fd5b5035919050565b6000806040838503121561325857600080fd5b82356132638161316f565b946020939093013593505050565b60006020828403121561328357600080fd5b8135612da98161316f565b6000806000606084860312156132a357600080fd5b83356132ae8161316f565b925060208401356132be8161316f565b929592945050506040919091013590565b600080604083850312156132e257600080fd5b50508035926020909101359150565b6000806040838503121561330457600080fd5b823561330f8161316f565b915060208301356001600160401b0381111561332a57600080fd5b6133368582860161304b565b9150509250929050565b60006020828403121561335257600080fd5b612da982612fc7565b60008060006060848603121561337057600080fd5b61337984612fc7565b925060208401356001600160401b0381111561339457600080fd5b6133a08682870161304b565b925050604084013590509250925092565b600080602083850312156133c457600080fd5b82356001600160401b03808211156133db57600080fd5b818501915085601f8301126133ef57600080fd5b8135818111156133fe57600080fd5b8660208260051b850101111561341357600080fd5b60209290920196919550909350505050565b6020808252825182820181905260009190848201906040850190845b8181101561345d57835183529284019291840191600101613441565b50909695505050505050565b80151581146110b757600080fd5b6000806040838503121561348a57600080fd5b82356134958161316f565b915060208301356131be81613469565b600080600080608085870312156134bb57600080fd5b84356134c68161316f565b935060208501356134d68161316f565b92506040850135915060608501356001600160401b038111156134f857600080fd5b6131308782880161304b565b6000806040838503121561351757600080fd5b8235915060208301356131be8161316f565b6000806040838503121561353c57600080fd5b61326383612fc7565b60008083601f84011261355757600080fd5b5081356001600160401b0381111561356e57600080fd5b602083019150836020828501011115610fd457600080fd5b60008060008060006080868803121561359e57600080fd5b6135a786612fc7565b945060208601356001600160401b03808211156135c357600080fd5b6135cf89838a0161304b565b95506135dd604089016130a1565b945060608801359150808211156135f357600080fd5b5061360088828901613545565b969995985093965092949392505050565b6000806020838503121561362457600080fd5b82356001600160401b0381111561363a57600080fd5b61364685828601613545565b90969095509350505050565b6000806040838503121561366557600080fd5b82356136708161316f565b915060208301356131be8161316f565b60008060006040848603121561369557600080fd5b61369e84612fc7565b925060208401356001600160401b038111156136b957600080fd5b6136c586828701613545565b9497909650939450505050565b600181811c908216806136e657607f821691505b60208210810361370657634e487b7160e01b600052602260045260246000fd5b50919050565b600080835461371a816136d2565b60018281168015613732576001811461374757613776565b60ff1984168752821515830287019450613776565b8760005260208060002060005b8581101561376d5781548a820152908401908201613754565b50505082870194505b50929695505050505050565b61ffff8516815260806020820152600061379f60808301866131ed565b6001600160401b038516604084015282810360608401526137c081856131ed565b979650505050505050565b600082516137dd8184602087016131c9565b9190910192915050565b634e487b7160e01b600052601160045260246000fd5b80820180821115610ba557610ba56137e7565b8082028115828204841417610ba557610ba56137e7565b60008261384457634e487b7160e01b600052601260045260246000fd5b500490565b6020808252602c908201527f46756e6374696f6e206d7573742062652063616c6c6564207468726f7567682060408201526b19195b1959d85d1958d85b1b60a21b606082015260800190565b6020808252602c908201527f46756e6374696f6e206d7573742062652063616c6c6564207468726f7567682060408201526b6163746976652070726f787960a01b606082015260800190565b634e487b7160e01b600052603260045260246000fd5b600060018201613909576139096137e7565b5060010190565b858152600060206001600160601b031987168184015285604084015284606084015260a0608084015260008454613946816136d2565b8060a087015260c06001808416600081146139685760018114613982576139b0565b60ff1985168984015283151560051b8901830195506139b0565b896000528660002060005b858110156139a85781548b820186015290830190880161398d565b8a0184019650505b50939c9b505050505050505050505050565b6000602082840312156139d457600080fd5b81516001600160401b038111156139ea57600080fd5b8201601f810184136139fb57600080fd5b8051613a0961306a82613024565b818152856020838501011115613a1e57600080fd5b6116c08260208301602086016131c9565b61ffff861681526001600160a01b038516602082015260a060408201819052600090613a5d908301866131ed565b84151560608401528281036080840152613a7781856131ed565b98975050505050505050565b60008060408385031215613a9657600080fd5b505080516020909101519092909150565b61ffff8716815260c060208201526000613ac460c08301886131ed565b8281036040840152613ad681886131ed565b6001600160a01b0387811660608601528616608085015283810360a08501529050613b0181856131ed565b9998505050505050505050565b8183823760009101908152919050565b61ffff86168152608060208201526000613b3b60808301876131ed565b6001600160401b03861660408401528281036060840152838152838560208301376000602085830101526020601f19601f8601168201019150509695505050505050565b601f821115610c8e57600081815260208120601f850160051c81016020861015613ba65750805b601f850160051c820191505b8181101561225057828155600101613bb2565b6001600160401b03831115613bdc57613bdc612fde565b613bf083613bea83546136d2565b83613b7f565b6000601f841160018114613c245760008515613c0c5750838201355b600019600387901b1c1916600186901b17835561153f565b600083815260209020601f19861690835b82811015613c555786850135825560209485019460019092019101613c35565b5086821015613c725760001960f88860031b161c19848701351681555b505060018560011b0183555050505050565b600060208284031215613c9657600080fd5b8151612da981613469565b6020808252602b908201527f496e697469616c697a61626c653a20636f6e7472616374206973206e6f74206960408201526a6e697469616c697a696e6760a81b606082015260800190565b81516001600160401b03811115613d0557613d05612fde565b613d1981613d1384546136d2565b84613b7f565b602080601f831160018114613d4e5760008415613d365750858301515b600019600386901b1c1916600185901b178555612250565b600085815260208120601f198616915b82811015613d7d57888601518255948401946001909101908401613d5e565b5085821015613d9b5787850151600019600388901b60f8161c191681555b5050505050600190811b01905550565b600080600060608486031215613dc057600080fd5b8351613dcb8161316f565b602085015160409095015190969495509392505050565b6020808252602d908201527f4552433732313a2063616c6c6572206973206e6f7420746f6b656e206f776e6560408201526c1c881bdc88185c1c1c9bdd9959609a1b606082015260800190565b600060208284031215613e4157600080fd5b5051919050565b60208082526025908201527f4552433732313a207472616e736665722066726f6d20696e636f72726563742060408201526437bbb732b960d91b606082015260800190565b60208082526032908201527f4552433732313a207472616e7366657220746f206e6f6e20455243373231526560408201527131b2b4bb32b91034b6b83632b6b2b73a32b960711b606082015260800190565b6001600160a01b0385811682528416602082015260408101839052608060608201819052600090612f1f908301846131ed565b600060208284031215613f2457600080fd5b8151612da98161313c56fe360894a13ba1a3210667c828492db98dca3e2076cc3735a920a3ca505d382bbc416464726573733a206c6f772d6c6576656c2064656c65676174652063616c6c206661696c6564a2646970667358221220a97f08c3691a5b90bb9d5315e93bfa1584bdfa882a6c8008efb6f0df876c434964736f6c63430008120033",
  "linkReferences": {},
  "deployedLinkReferences": {}
}